{
  "abi": [
    {
      "inputs": [
        {
          "internalType": "address",
          "name": "_positionManager",
          "type": "address"
        },
        {
          "internalType": "address",
          "name": "_uniswapFactory",
          "type": "address"
        },
        {
          "internalType": "address",
          "name": "_unipilot",
          "type": "address"
        },
        {
          "internalType": "address",
          "name": "_ulm",
          "type": "address"
        }
      ],
      "stateMutability": "nonpayable",
      "type": "constructor"
    },
    {
      "anonymous": false,
      "inputs": [
        {
          "indexed": false,
          "internalType": "address",
          "name": "pool",
          "type": "address"
        },
        {
          "indexed": false,
          "internalType": "address",
          "name": "vault",
          "type": "address"
        },
        {
          "indexed": false,
          "internalType": "address",
          "name": "owner",
          "type": "address"
        },
        {
          "indexed": false,
          "internalType": "uint256",
          "name": "amount0",
          "type": "uint256"
        },
        {
          "indexed": false,
          "internalType": "uint256",
          "name": "amount1",
          "type": "uint256"
        }
      ],
      "name": "LiquidityMigratedFromV2",
      "type": "event"
    },
    {
      "anonymous": false,
      "inputs": [
        {
          "indexed": false,
          "internalType": "address",
          "name": "vault",
          "type": "address"
        },
        {
          "indexed": false,
          "internalType": "address",
          "name": "owner",
          "type": "address"
        },
        {
          "indexed": false,
          "internalType": "uint256",
          "name": "amount0",
          "type": "uint256"
        },
        {
          "indexed": false,
          "internalType": "uint256",
          "name": "amount1",
          "type": "uint256"
        }
      ],
      "name": "LiquidityMigratedFromV3",
      "type": "event"
    },
    {
      "stateMutability": "payable",
      "type": "fallback"
    },
    {
      "inputs": [
        {
          "components": [
            {
              "internalType": "address",
              "name": "pair",
              "type": "address"
            },
            {
              "internalType": "address",
              "name": "vault",
              "type": "address"
            },
            {
              "internalType": "address",
              "name": "token0",
              "type": "address"
            },
            {
              "internalType": "address",
              "name": "token1",
              "type": "address"
            },
            {
              "internalType": "uint24",
              "name": "fee",
              "type": "uint24"
            },
            {
              "internalType": "uint8",
              "name": "percentageToMigrate",
              "type": "uint8"
            },
            {
              "internalType": "uint256",
              "name": "liquidityToMigrate",
              "type": "uint256"
            },
            {
              "internalType": "uint256",
              "name": "unipilotTokenId",
              "type": "uint256"
            },
            {
              "internalType": "bool",
              "name": "refundAsETH",
              "type": "bool"
            }
          ],
          "internalType": "struct IUnipilotMigrator.MigrateV2Params",
          "name": "params",
          "type": "tuple"
        }
      ],
      "name": "migrateLixirLiquidity",
      "outputs": [],
      "stateMutability": "nonpayable",
      "type": "function"
    },
    {
      "inputs": [
        {
          "components": [
            {
              "internalType": "address",
              "name": "pair",
              "type": "address"
            },
            {
              "internalType": "address",
              "name": "vault",
              "type": "address"
            },
            {
              "internalType": "address",
              "name": "token0",
              "type": "address"
            },
            {
              "internalType": "address",
              "name": "token1",
              "type": "address"
            },
            {
              "internalType": "uint24",
              "name": "fee",
              "type": "uint24"
            },
            {
              "internalType": "uint8",
              "name": "percentageToMigrate",
              "type": "uint8"
            },
            {
              "internalType": "uint256",
              "name": "liquidityToMigrate",
              "type": "uint256"
            },
            {
              "internalType": "uint256",
              "name": "unipilotTokenId",
              "type": "uint256"
            },
            {
              "internalType": "bool",
              "name": "refundAsETH",
              "type": "bool"
            }
          ],
          "internalType": "struct IUnipilotMigrator.MigrateV2Params",
          "name": "params",
          "type": "tuple"
        }
      ],
      "name": "migratePopsicleLiquidity",
      "outputs": [],
      "stateMutability": "nonpayable",
      "type": "function"
    },
    {
      "inputs": [
        {
          "components": [
            {
              "internalType": "address",
              "name": "vault",
              "type": "address"
            },
            {
              "internalType": "address",
              "name": "token0",
              "type": "address"
            },
            {
              "internalType": "address",
              "name": "token1",
              "type": "address"
            },
            {
              "internalType": "uint24",
              "name": "fee",
              "type": "uint24"
            },
            {
              "internalType": "address",
              "name": "recipient",
              "type": "address"
            },
            {
              "internalType": "uint256",
              "name": "tokenId",
              "type": "uint256"
            },
            {
              "internalType": "bool",
              "name": "refundAsETH",
              "type": "bool"
            }
          ],
          "internalType": "struct IUnipilotMigrator.MigrateV3Params",
          "name": "params",
          "type": "tuple"
        }
      ],
      "name": "migrateUnipilotLiquididty",
      "outputs": [],
      "stateMutability": "nonpayable",
      "type": "function"
    },
    {
      "inputs": [
        {
          "components": [
            {
              "internalType": "address",
              "name": "pair",
              "type": "address"
            },
            {
              "internalType": "address",
              "name": "vault",
              "type": "address"
            },
            {
              "internalType": "address",
              "name": "token0",
              "type": "address"
            },
            {
              "internalType": "address",
              "name": "token1",
              "type": "address"
            },
            {
              "internalType": "uint24",
              "name": "fee",
              "type": "uint24"
            },
            {
              "internalType": "uint8",
              "name": "percentageToMigrate",
              "type": "uint8"
            },
            {
              "internalType": "uint256",
              "name": "liquidityToMigrate",
              "type": "uint256"
            },
            {
              "internalType": "uint256",
              "name": "unipilotTokenId",
              "type": "uint256"
            },
            {
              "internalType": "bool",
              "name": "refundAsETH",
              "type": "bool"
            }
          ],
          "internalType": "struct IUnipilotMigrator.MigrateV2Params",
          "name": "params",
          "type": "tuple"
        }
      ],
      "name": "migrateV2Liquidity",
      "outputs": [],
      "stateMutability": "nonpayable",
      "type": "function"
    },
    {
      "inputs": [
        {
          "components": [
            {
              "internalType": "address",
              "name": "vault",
              "type": "address"
            },
            {
              "internalType": "address",
              "name": "token0",
              "type": "address"
            },
            {
              "internalType": "address",
              "name": "token1",
              "type": "address"
            },
            {
              "internalType": "uint24",
              "name": "fee",
              "type": "uint24"
            },
            {
              "internalType": "address",
              "name": "recipient",
              "type": "address"
            },
            {
              "internalType": "uint256",
              "name": "tokenId",
              "type": "uint256"
            },
            {
              "internalType": "bool",
              "name": "refundAsETH",
              "type": "bool"
            }
          ],
          "internalType": "struct IUnipilotMigrator.MigrateV3Params",
          "name": "params",
          "type": "tuple"
        }
      ],
      "name": "migrateV3Liquidity",
      "outputs": [],
      "stateMutability": "nonpayable",
      "type": "function"
    },
    {
      "inputs": [
        {
          "components": [
            {
              "internalType": "address",
              "name": "pair",
              "type": "address"
            },
            {
              "internalType": "address",
              "name": "vault",
              "type": "address"
            },
            {
              "internalType": "address",
              "name": "token0",
              "type": "address"
            },
            {
              "internalType": "address",
              "name": "token1",
              "type": "address"
            },
            {
              "internalType": "uint24",
              "name": "fee",
              "type": "uint24"
            },
            {
              "internalType": "uint8",
              "name": "percentageToMigrate",
              "type": "uint8"
            },
            {
              "internalType": "uint256",
              "name": "liquidityToMigrate",
              "type": "uint256"
            },
            {
              "internalType": "uint256",
              "name": "unipilotTokenId",
              "type": "uint256"
            },
            {
              "internalType": "bool",
              "name": "refundAsETH",
              "type": "bool"
            }
          ],
          "internalType": "struct IUnipilotMigrator.MigrateV2Params",
          "name": "params",
          "type": "tuple"
        }
      ],
      "name": "migrateVisorLiquidity",
      "outputs": [],
      "stateMutability": "nonpayable",
      "type": "function"
    },
    {
      "inputs": [
        {
          "internalType": "address",
          "name": "operator",
          "type": "address"
        },
        {
          "internalType": "address",
          "name": "from",
          "type": "address"
        },
        {
          "internalType": "uint256",
          "name": "tokenId",
          "type": "uint256"
        },
        {
          "internalType": "bytes",
          "name": "data",
          "type": "bytes"
        }
      ],
      "name": "onERC721Received",
      "outputs": [
        {
          "internalType": "bytes4",
          "name": "",
          "type": "bytes4"
        }
      ],
      "stateMutability": "nonpayable",
      "type": "function"
    },
    {
      "stateMutability": "payable",
      "type": "receive"
    }
  ],
  "bytecode": {
    "object": "0x6101006040523480156200001257600080fd5b506040516200286038038062002860833981016040819052620000359162000082565b6001600160601b0319606094851b811660e05292841b831660c05290831b821660a05290911b16608052620000de565b80516001600160a01b03811681146200007d57600080fd5b919050565b6000806000806080858703121562000098578384fd5b620000a38562000065565b9350620000b36020860162000065565b9250620000c36040860162000065565b9150620000d36060860162000065565b905092959194509250565b60805160601c60a05160601c60c05160601c60e05160601c6127366200012a6000398061046d528061051252505080610df35280610eaf525080610d0a5280610db052506127366000f3fe6080604052600436106100745760003560e01c80637f2200d51161004e5780637f2200d5146100f3578063ce39b63614610113578063eb02af2c14610133578063ff034030146101535761007b565b8063150b7a021461007d5780633974c31a146100b35780637578e5b9146100d35761007b565b3661007b57005b005b34801561008957600080fd5b5061009d61009836600461204b565b610173565b6040516100aa91906124bb565b60405180910390f35b3480156100bf57600080fd5b5061007b6100ce36600461211d565b610184565b3480156100df57600080fd5b5061007b6100ee366004612135565b61046b565b3480156100ff57600080fd5b5061007b61010e36600461211d565b6108b6565b34801561011f57600080fd5b5061007b61012e36600461211d565b6109e8565b34801561013f57600080fd5b5061007b61014e366004612146565b610ceb565b34801561015f57600080fd5b5061007b61016e36600461211d565b611277565b630a85bd0160e11b95945050505050565b600061019660c0830160a084016122d2565b60ff161180156101b9575060646101b360c0830160a084016122d2565b60ff1611155b6101de5760405162461bcd60e51b81526004016101d5906124ec565b60405180910390fd5b61020d6101e96113a2565b3060c08401356101fc602086018661202f565b6001600160a01b03169291906113a6565b60008061021d602084018461202f565b6001600160a01b031663b460af948460c0013530306040518463ffffffff1660e01b81526004016102509392919061263e565b6040805180830381600087803b15801561026957600080fd5b505af115801561027d573d6000803e3d6000fd5b505050506040513d601f19601f820116820180604052508101906102a19190612282565b909250905060006102c6836102bc60c0870160a088016122d2565b60ff166064611406565b905060006102de836102bc60c0880160a089016122d2565b90506103096102f3606087016040880161202f565b610303604088016020890161202f565b846114b6565b61033261031c608087016060880161202f565b61032c604088016020890161202f565b836114b6565b6000806103506103486040890160208a0161202f565b8585336114c6565b91509150610401604051806101400160405280896020016020810190610376919061202f565b6001600160a01b0316815260200161039460608b0160408c0161202f565b6001600160a01b031681526020016103b260808b0160608c0161202f565b6001600160a01b03168152602001848152602001838152602001888152602001878152602001868152602001858152602001896101000160208101906103f891906120e5565b15159052611559565b7f5d3c3c12c41dcd95ca847b54dbfe0211dbd38232e1576fb69eb3f87f20e995d961042f602089018961202f565b61043f60408a0160208b0161202f565b6104476113a2565b858560405161045a959493929190612487565b60405180910390a150505050505050565b7f00000000000000000000000000000000000000000000000000000000000000006001600160a01b0381166342842e0e6104a36113a2565b308560a001356040518463ffffffff1660e01b81526004016104c7939291906123e6565b600060405180830381600087803b1580156104e157600080fd5b505af11580156104f5573d6000803e3d6000fd5b505060405163133f757160e31b8152600092506001600160a01b037f00000000000000000000000000000000000000000000000000000000000000001691506399fbab889061054c9060a08701359060040161261e565b6101806040518083038186803b15801561056557600080fd5b505afa158015610579573d6000803e3d6000fd5b505050506040513d601f19601f8201168201806040525081019061059d91906122f3565b50505050975050505050505050816001600160a01b0316630c49ccbe6040518060a001604052808660a001358152602001846001600160801b031681526020016000815260200160008152602001426078018152506040518263ffffffff1660e01b815260040161060e919061254c565b6040805180830381600087803b15801561062757600080fd5b505af115801561063b573d6000803e3d6000fd5b505050506040513d601f19601f8201168201806040525081019061065f9190612282565b50506040805160808101825260a085013581523060208201526001600160801b038183018190526060820152905163fc6f786560e01b815260009182916001600160a01b0386169163fc6f7865916106ba9190600401612509565b6040805180830381600087803b1580156106d357600080fd5b505af11580156106e7573d6000803e3d6000fd5b505050506040513d601f19601f8201168201806040525081019061070b9190612282565b9092509050610730610723604087016020880161202f565b610303602088018861202f565b610750610743606087016040880161202f565b61032c602088018861202f565b600080610763610348602089018961202f565b604080516101408101909152919350915061080a908061078660208b018b61202f565b6001600160a01b031681526020018960200160208101906107a7919061202f565b6001600160a01b031681526020016107c560608b0160408c0161202f565b6001600160a01b031681526020018481526020018381526020018681526020018581526020018681526020018581526020018960c00160208101906103f891906120e5565b604051630852cd8d60e31b81526001600160a01b038716906342966c689061083a9060a08b01359060040161261e565b600060405180830381600087803b15801561085457600080fd5b505af1158015610868573d6000803e3d6000fd5b507f0e5649cd75b5cec880237f755592af15c577aacb28a3efb11522e4773b5a5cf6925061089c915050602089018961202f565b6108a46113a2565b848460405161045a949392919061245e565b60006108c860c0830160a084016122d2565b60ff161180156108eb575060646108e560c0830160a084016122d2565b60ff1611155b6109075760405162461bcd60e51b81526004016101d5906124ec565b610914602082018261202f565b6001600160a01b03166323b872dd61092a6113a2565b610937602085018561202f565b8460c001356040518463ffffffff1660e01b815260040161095a939291906123e6565b602060405180830381600087803b15801561097457600080fd5b505af1158015610988573d6000803e3d6000fd5b505050506040513d601f19601f820116820180604052508101906109ac9190612101565b506000806109bd602084018461202f565b6001600160a01b03166389afcb44306040518263ffffffff1660e01b815260040161025091906123d2565b60006109fa60c0830160a084016122d2565b60ff16118015610a1d57506064610a1760c0830160a084016122d2565b60ff1611155b610a395760405162461bcd60e51b81526004016101d5906124ec565b600080610a49602084018461202f565b6001600160a01b0316639fef182b610a5f6113a2565b8560c0013560008030426078016040518763ffffffff1660e01b8152600401610a8d96959493929190612423565b6040805180830381600087803b158015610aa657600080fd5b505af1158015610aba573d6000803e3d6000fd5b505050506040513d601f19601f82011682018060405250810190610ade9190612282565b90925090506000808080610b12610afb6060890160408a0161202f565b610b0b60808a0160608b0161202f565b8888611682565b935093509350935073c778417e063141139fce010982780140aa0cd5ab6001600160a01b031663d0e30db0826040518263ffffffff1660e01b81526004016000604051808303818588803b158015610b6957600080fd5b505af1158015610b7d573d6000803e3d6000fd5b50505050506000610b9b828960a00160208101906102bc91906122d2565b90506000610bb3856102bc60c08c0160a08d016122d2565b9050610bc98461030360408c0160208d0161202f565b610bdd8661032c60408c0160208d0161202f565b600080610bf361034860408d0160208e0161202f565b91509150610c7d6040518061014001604052808d6020016020810190610c19919061202f565b6001600160a01b031681526020018a6001600160a01b03168152602001886001600160a01b031681526020018481526020018381526020018981526020018781526020018581526020018681526020018d6101000160208101906103f891906120e5565b7f5d3c3c12c41dcd95ca847b54dbfe0211dbd38232e1576fb69eb3f87f20e995d9610cab60208d018d61202f565b610cbb60408e0160208f0161202f565b610cc36113a2565b8585604051610cd6959493929190612487565b60405180910390a15050505050505050505050565b60a08101516040516301e7f13760e41b81526000916001600160a01b037f00000000000000000000000000000000000000000000000000000000000000001691631e7f137091610d3d9160040161261e565b60e06040518083038186803b158015610d5557600080fd5b505afa158015610d69573d6000803e3d6000fd5b505050506040513d601f19601f82011682018060405250810190610d8d91906121e8565b905060006040518060a001604052806000151581526020016000151581526020017f00000000000000000000000000000000000000000000000000000000000000006001600160a01b03168152602001836040015181526020018460a0015181525090507f00000000000000000000000000000000000000000000000000000000000000006001600160a01b0316637ec12df4828560800151604051602001610e3691906123d2565b6040516020818303038152906040526040518363ffffffff1660e01b8152600401610e6292919061258f565b600060405180830381600087803b158015610e7c57600080fd5b505af1158015610e90573d6000803e3d6000fd5b50505060a0840151604051632142170760e11b81526001600160a01b037f00000000000000000000000000000000000000000000000000000000000000001692506342842e0e91610ee791339130916004016123e6565b600060405180830381600087803b158015610f0157600080fd5b505af1158015610f15573d6000803e3d6000fd5b50505050600083602001516001600160a01b03166370a08231306040518263ffffffff1660e01b8152600401610f4b91906123d2565b60206040518083038186803b158015610f6357600080fd5b505afa158015610f77573d6000803e3d6000fd5b505050506040513d601f19601f82011682018060405250810190610f9b919061226a565b9050600084604001516001600160a01b03166370a08231306040518263ffffffff1660e01b8152600401610fcf91906123d2565b60206040518083038186803b158015610fe757600080fd5b505afa158015610ffb573d6000803e3d6000fd5b505050506040513d601f19601f8201168201806040525081019061101f919061226a565b90506000821180156110315750600081115b61104d5760405162461bcd60e51b81526004016101d5906124d0565b61106085602001518660000151846114b6565b61107385604001518660000151836114b6565b60008061108687600001518585336114c6565b91509150818411156111215760208701516001600160a01b031663a9059cbb336110b08786611716565b6040518363ffffffff1660e01b81526004016110cd92919061240a565b602060405180830381600087803b1580156110e757600080fd5b505af11580156110fb573d6000803e3d6000fd5b505050506040513d601f19601f8201168201806040525081019061111f9190612101565b505b808311156111b85760408701516001600160a01b031663a9059cbb336111478685611716565b6040518363ffffffff1660e01b815260040161116492919061240a565b602060405180830381600087803b15801561117e57600080fd5b505af1158015611192573d6000803e3d6000fd5b505050506040513d601f19601f820116820180604052508101906111b69190612101565b505b61124b60405180610140016040528089600001516001600160a01b0316815260200189602001516001600160a01b0316815260200189604001516001600160a01b0316815260200184815260200183815260200161121f858861171690919063ffffffff16565b815260200161122e8685611716565b815260200186815260200185815260200160001515815250611559565b86517f0e5649cd75b5cec880237f755592af15c577aacb28a3efb11522e4773b5a5cf6906108a46113a2565b600061128960c0830160a084016122d2565b60ff161180156112ac575060646112a660c0830160a084016122d2565b60ff1611155b6112c85760405162461bcd60e51b81526004016101d5906124ec565b6112d5602082018261202f565b6001600160a01b03166323b872dd6112eb6113a2565b308460c001356040518463ffffffff1660e01b815260040161130f939291906123e6565b602060405180830381600087803b15801561132957600080fd5b505af115801561133d573d6000803e3d6000fd5b505050506040513d601f19601f820116820180604052508101906113619190612101565b50600080611372602084018461202f565b6001600160a01b031662f714ce8460c00135306040518363ffffffff1660e01b8152600401610250929190612627565b3390565b604080516001600160a01b0380861660248301528416604482015260648082018490528251808303909101815260849091019091526020810180516001600160e01b03166323b872dd60e01b179052611400908590611773565b50505050565b600080806000198587098686029250828110908390030390508061143c576000841161143157600080fd5b5082900490506114af565b80841161144857600080fd5b6000848688096000868103871696879004966002600389028118808a02820302808a02820302808a02820302808a02820302808a02820302808a02909103029181900381900460010186841190950394909402919094039290920491909117919091029150505b9392505050565b6114c1838383611824565b505050565b600080856001600160a01b0316638dbdbe6d8686866040518463ffffffff1660e01b81526004016114f99392919061265d565b606060405180830381600087803b15801561151357600080fd5b505af1158015611527573d6000803e3d6000fd5b505050506040513d601f19601f8201168201806040525081019061154b91906122a5565b909890975095505050505050565b8060a00151816060015110156115f2578060e001518160600151101561158d5761158d816020015182600001516000611824565b80610120015180156115bf575060208101516001600160a01b031673c778417e063141139fce010982780140aa0cd5ab145b156115db576115d660006115d16113a2565b611972565b6115f2565b6115f2816020015160006115ed6113a2565b611ab1565b8060c001518160800151101561167f578061010001518160800151101561162757611627816040015182600001516000611824565b8061012001518015611659575060408101516001600160a01b031673c778417e063141139fce010982780140aa0cd5ab145b156116705761166b60006115d16113a2565b61167f565b806040015160006114006113a2565b50565b6000808080808080806001600160a01b038c1673c778417e063141139fce010982780140aa0cd5ab146116b8578b8b8a8c6116bd565b8b8b8b8b5b935093509350935073c778417e063141139fce010982780140aa0cd5ab6001600160a01b0316846001600160a01b0316146116fb5783828483611700565b828185845b929f919e509c50909a5098505050505050505050565b60008282111561176d576040805162461bcd60e51b815260206004820152601e60248201527f536166654d6174683a207375627472616374696f6e206f766572666c6f770000604482015290519081900360640190fd5b50900390565b60006117c8826040518060400160405280602081526020017f5361666545524332303a206c6f772d6c6576656c2063616c6c206661696c6564815250856001600160a01b0316611b799092919063ffffffff16565b8051909150156114c1578080602001905160208110156117e757600080fd5b50516114c15760405162461bcd60e51b815260040180806020018281038252602a8152602001806126d7602a913960400191505060405180910390fd5b604080516001600160a01b038481166024830152604480830185905283518084039091018152606490920183526020820180516001600160e01b031663095ea7b360e01b1781529251825160009485949389169392918291908083835b602083106118a05780518252601f199092019160209182019101611881565b6001836020036101000a0380198251168184511680821785525050505050509050019150506000604051808303816000865af19150503d8060008114611902576040519150601f19603f3d011682016040523d82523d6000602084013e611907565b606091505b5091509150818015611935575080511580611935575080806020019051602081101561193257600080fd5b50515b61196b576040805162461bcd60e51b8152602060048201526002602482015261534160f01b604482015290519081900360640190fd5b5050505050565b604080516370a0823160e01b8152306004820152905160009173c778417e063141139fce010982780140aa0cd5ab916370a0823191602480820192602092909190829003018186803b1580156119c757600080fd5b505afa1580156119db573d6000803e3d6000fd5b505050506040513d60208110156119f157600080fd5b5051905082811015611a2f576040805162461bcd60e51b8152602060048201526002602482015261495760f01b604482015290519081900360640190fd5b80156114c15773c778417e063141139fce010982780140aa0cd5ab6001600160a01b0316632e1a7d4d826040518263ffffffff1660e01b815260040180828152602001915050600060405180830381600087803b158015611a8f57600080fd5b505af1158015611aa3573d6000803e3d6000fd5b505050506114c18282611b90565b6000836001600160a01b03166370a08231306040518263ffffffff1660e01b815260040180826001600160a01b0316815260200191505060206040518083038186803b158015611b0057600080fd5b505afa158015611b14573d6000803e3d6000fd5b505050506040513d6020811015611b2a57600080fd5b5051905082811015611b68576040805162461bcd60e51b8152602060048201526002602482015261125560f21b604482015290519081900360640190fd5b801561140057611400848383611c7f565b6060611b888484600085611dc6565b949350505050565b604080516000808252602082019092526001600160a01b0384169083906040518082805190602001908083835b60208310611bdc5780518252601f199092019160209182019101611bbd565b6001836020036101000a03801982511681845116808217855250505050505090500191505060006040518083038185875af1925050503d8060008114611c3e576040519150601f19603f3d011682016040523d82523d6000602084013e611c43565b606091505b50509050806114c1576040805162461bcd60e51b815260206004820152600360248201526253544560e81b604482015290519081900360640190fd5b604080516001600160a01b038481166024830152604480830185905283518084039091018152606490920183526020820180516001600160e01b031663a9059cbb60e01b1781529251825160009485949389169392918291908083835b60208310611cfb5780518252601f199092019160209182019101611cdc565b6001836020036101000a0380198251168184511680821785525050505050509050019150506000604051808303816000865af19150503d8060008114611d5d576040519150601f19603f3d011682016040523d82523d6000602084013e611d62565b606091505b5091509150818015611d90575080511580611d905750808060200190516020811015611d8d57600080fd5b50515b61196b576040805162461bcd60e51b815260206004820152600260248201526114d560f21b604482015290519081900360640190fd5b606082471015611e075760405162461bcd60e51b81526004018080602001828103825260268152602001806126b16026913960400191505060405180910390fd5b611e1085611f21565b611e61576040805162461bcd60e51b815260206004820152601d60248201527f416464726573733a2063616c6c20746f206e6f6e2d636f6e7472616374000000604482015290519081900360640190fd5b600080866001600160a01b031685876040518082805190602001908083835b60208310611e9f5780518252601f199092019160209182019101611e80565b6001836020036101000a03801982511681845116808217855250505050505090500191505060006040518083038185875af1925050503d8060008114611f01576040519150601f19603f3d011682016040523d82523d6000602084013e611f06565b606091505b5091509150611f16828286611f2b565b979650505050505050565b803b15155b919050565b60608315611f3a5750816114af565b825115611f4a5782518084602001fd5b8160405162461bcd60e51b81526004018080602001828103825283818151815260200191508051906020019080838360005b83811015611f94578181015183820152602001611f7c565b50505050905090810190601f168015611fc15780820380516001836020036101000a031916815260200191505b509250505060405180910390fd5b8035611f268161267c565b8051611f268161267c565b8035611f2681612691565b8051600281900b8114611f2657600080fd5b80516001600160801b0381168114611f2657600080fd5b8035611f268161269f565b8051611f268161269f565b600060208284031215612040578081fd5b81356114af8161267c565b600080600080600060808688031215612062578081fd5b853561206d8161267c565b9450602086013561207d8161267c565b935060408601359250606086013567ffffffffffffffff808211156120a0578283fd5b818801915088601f8301126120b3578283fd5b8135818111156120c1578384fd5b8960208285010111156120d2578384fd5b9699959850939650602001949392505050565b6000602082840312156120f6578081fd5b81356114af81612691565b600060208284031215612112578081fd5b81516114af81612691565b6000610120828403121561212f578081fd5b50919050565b600060e0828403121561212f578081fd5b600060e08284031215612157578081fd5b60405160e0810181811067ffffffffffffffff8211171561217457fe5b60405261218083611fcf565b815261218e60208401611fcf565b602082015261219f60408401611fcf565b60408201526121b060608401612019565b60608201526121c160808401611fcf565b608082015260a083013560a08201526121dc60c08401611fe5565b60c08201529392505050565b600060e082840312156121f9578081fd5b60405160e0810181811067ffffffffffffffff8211171561221657fe5b6040528251815261222960208401611fda565b602082015260408301516040820152606083015160608201526080830151608082015260a083015160a082015260c083015160c08201528091505092915050565b60006020828403121561227b578081fd5b5051919050565b60008060408385031215612294578182fd5b505080516020909101519092909150565b6000806000606084860312156122b9578081fd5b8351925060208401519150604084015190509250925092565b6000602082840312156122e3578081fd5b813560ff811681146114af578182fd5b6000806000806000806000806000806000806101808d8f03121561231557898afd5b8c516bffffffffffffffffffffffff81168114612330578a8bfd5b9b5061233e60208e01611fda565b9a5061234c60408e01611fda565b995061235a60608e01611fda565b985061236860808e01612024565b975061237660a08e01611ff0565b965061238460c08e01611ff0565b955061239260e08e01612002565b94506101008d015193506101208d015192506123b16101408e01612002565b91506123c06101608e01612002565b90509295989b509295989b509295989b565b6001600160a01b0391909116815260200190565b6001600160a01b039384168152919092166020820152604081019190915260600190565b6001600160a01b03929092168252602082015260400190565b6001600160a01b039687168152602081019590955260408501939093526060840191909152909216608082015260a081019190915260c00190565b6001600160a01b0394851681529290931660208301526040820152606081019190915260800190565b6001600160a01b03958616815293851660208501529190931660408301526060820192909252608081019190915260a00190565b6001600160e01b031991909116815260200190565b60208082526002908201526124a360f11b604082015260600190565b60208082526003908201526249504160e81b604082015260600190565b815181526020808301516001600160a01b0316908201526040808301516001600160801b0390811691830191909152606092830151169181019190915260800190565b600060a082019050825182526001600160801b03602084015116602083015260408301516040830152606083015160608301526080830151608083015292915050565b600083511515825260208085015115158184015260018060a01b036040860151166040840152606085015160608401526080850151608084015260c060a084015283518060c0850152825b818110156125f65785810183015185820160e0015282016125da565b81811115612607578360e083870101525b50601f01601f19169290920160e001949350505050565b90815260200190565b9182526001600160a01b0316602082015260400190565b9283526001600160a01b03918216602084015216604082015260600190565b92835260208301919091526001600160a01b0316604082015260600190565b6001600160a01b038116811461167f57600080fd5b801515811461167f57600080fd5b62ffffff8116811461167f57600080fdfe416464726573733a20696e73756666696369656e742062616c616e636520666f722063616c6c5361666545524332303a204552433230206f7065726174696f6e20646964206e6f742073756363656564a26469706673582212206dec53ff7a77d0d985f0aebc14264a7d4e2ac751437c295d5e28fa6873c2519d64736f6c63430007060033",
    "linkReferences": {}
  }
}