{
  "_format": "hh-sol-artifact-1",
  "contractName": "UnipilotActiveVault",
  "sourceName": "contracts/UnipilotActiveVault.sol",
  "abi": [
    {
      "inputs": [
        {
          "internalType": "address",
          "name": "_pool",
          "type": "address"
        },
        {
          "internalType": "address",
          "name": "_unipilotFactory",
          "type": "address"
        },
        {
          "internalType": "address",
          "name": "_WETH",
          "type": "address"
        },
        {
          "internalType": "string",
          "name": "_name",
          "type": "string"
        },
        {
          "internalType": "string",
          "name": "_symbol",
          "type": "string"
        }
      ],
      "stateMutability": "nonpayable",
      "type": "constructor"
    },
    {
      "anonymous": false,
      "inputs": [
        {
          "indexed": true,
          "internalType": "address",
          "name": "owner",
          "type": "address"
        },
        {
          "indexed": true,
          "internalType": "address",
          "name": "spender",
          "type": "address"
        },
        {
          "indexed": false,
          "internalType": "uint256",
          "name": "value",
          "type": "uint256"
        }
      ],
      "name": "Approval",
      "type": "event"
    },
    {
      "anonymous": false,
      "inputs": [
        {
          "indexed": false,
          "internalType": "uint256",
          "name": "amount0",
          "type": "uint256"
        },
        {
          "indexed": false,
          "internalType": "uint256",
          "name": "amount1",
          "type": "uint256"
        }
      ],
      "name": "CompoundFees",
      "type": "event"
    },
    {
      "anonymous": false,
      "inputs": [
        {
          "indexed": true,
          "internalType": "address",
          "name": "depositor",
          "type": "address"
        },
        {
          "indexed": true,
          "internalType": "address",
          "name": "recipient",
          "type": "address"
        },
        {
          "indexed": false,
          "internalType": "uint256",
          "name": "amount0",
          "type": "uint256"
        },
        {
          "indexed": false,
          "internalType": "uint256",
          "name": "amount1",
          "type": "uint256"
        },
        {
          "indexed": false,
          "internalType": "uint256",
          "name": "lpShares",
          "type": "uint256"
        }
      ],
      "name": "Deposit",
      "type": "event"
    },
    {
      "anonymous": false,
      "inputs": [
        {
          "indexed": false,
          "internalType": "bool",
          "name": "isReadjustLiquidity",
          "type": "bool"
        },
        {
          "indexed": false,
          "internalType": "uint256",
          "name": "fees0",
          "type": "uint256"
        },
        {
          "indexed": false,
          "internalType": "uint256",
          "name": "fees1",
          "type": "uint256"
        },
        {
          "indexed": false,
          "internalType": "uint256",
          "name": "balance0",
          "type": "uint256"
        },
        {
          "indexed": false,
          "internalType": "uint256",
          "name": "balance1",
          "type": "uint256"
        },
        {
          "indexed": false,
          "internalType": "uint256",
          "name": "totalSupply",
          "type": "uint256"
        }
      ],
      "name": "FeesSnapshot",
      "type": "event"
    },
    {
      "anonymous": false,
      "inputs": [
        {
          "indexed": true,
          "internalType": "address",
          "name": "from",
          "type": "address"
        },
        {
          "indexed": true,
          "internalType": "address",
          "name": "to",
          "type": "address"
        },
        {
          "indexed": false,
          "internalType": "uint256",
          "name": "value",
          "type": "uint256"
        }
      ],
      "name": "Transfer",
      "type": "event"
    },
    {
      "anonymous": false,
      "inputs": [
        {
          "indexed": true,
          "internalType": "address",
          "name": "recipient",
          "type": "address"
        },
        {
          "indexed": false,
          "internalType": "uint256",
          "name": "shares",
          "type": "uint256"
        },
        {
          "indexed": false,
          "internalType": "uint256",
          "name": "amount0",
          "type": "uint256"
        },
        {
          "indexed": false,
          "internalType": "uint256",
          "name": "amount1",
          "type": "uint256"
        }
      ],
      "name": "Withdraw",
      "type": "event"
    },
    {
      "stateMutability": "payable",
      "type": "fallback"
    },
    {
      "inputs": [],
      "name": "DOMAIN_SEPARATOR",
      "outputs": [
        {
          "internalType": "bytes32",
          "name": "",
          "type": "bytes32"
        }
      ],
      "stateMutability": "view",
      "type": "function"
    },
    {
      "inputs": [],
      "name": "_balance0",
      "outputs": [
        {
          "internalType": "uint256",
          "name": "",
          "type": "uint256"
        }
      ],
      "stateMutability": "view",
      "type": "function"
    },
    {
      "inputs": [],
      "name": "_balance1",
      "outputs": [
        {
          "internalType": "uint256",
          "name": "",
          "type": "uint256"
        }
      ],
      "stateMutability": "view",
      "type": "function"
    },
    {
      "inputs": [
        {
          "internalType": "address",
          "name": "owner",
          "type": "address"
        },
        {
          "internalType": "address",
          "name": "spender",
          "type": "address"
        }
      ],
      "name": "allowance",
      "outputs": [
        {
          "internalType": "uint256",
          "name": "",
          "type": "uint256"
        }
      ],
      "stateMutability": "view",
      "type": "function"
    },
    {
      "inputs": [
        {
          "internalType": "address",
          "name": "spender",
          "type": "address"
        },
        {
          "internalType": "uint256",
          "name": "amount",
          "type": "uint256"
        }
      ],
      "name": "approve",
      "outputs": [
        {
          "internalType": "bool",
          "name": "",
          "type": "bool"
        }
      ],
      "stateMutability": "nonpayable",
      "type": "function"
    },
    {
      "inputs": [
        {
          "internalType": "address",
          "name": "account",
          "type": "address"
        }
      ],
      "name": "balanceOf",
      "outputs": [
        {
          "internalType": "uint256",
          "name": "",
          "type": "uint256"
        }
      ],
      "stateMutability": "view",
      "type": "function"
    },
    {
      "inputs": [],
      "name": "decimals",
      "outputs": [
        {
          "internalType": "uint8",
          "name": "",
          "type": "uint8"
        }
      ],
      "stateMutability": "view",
      "type": "function"
    },
    {
      "inputs": [
        {
          "internalType": "address",
          "name": "spender",
          "type": "address"
        },
        {
          "internalType": "uint256",
          "name": "subtractedValue",
          "type": "uint256"
        }
      ],
      "name": "decreaseAllowance",
      "outputs": [
        {
          "internalType": "bool",
          "name": "",
          "type": "bool"
        }
      ],
      "stateMutability": "nonpayable",
      "type": "function"
    },
    {
      "inputs": [
        {
          "internalType": "uint256",
          "name": "amount0Desired",
          "type": "uint256"
        },
        {
          "internalType": "uint256",
          "name": "amount1Desired",
          "type": "uint256"
        },
        {
          "internalType": "address",
          "name": "recipient",
          "type": "address"
        }
      ],
      "name": "deposit",
      "outputs": [
        {
          "internalType": "uint256",
          "name": "lpShares",
          "type": "uint256"
        },
        {
          "internalType": "uint256",
          "name": "amount0",
          "type": "uint256"
        },
        {
          "internalType": "uint256",
          "name": "amount1",
          "type": "uint256"
        }
      ],
      "stateMutability": "payable",
      "type": "function"
    },
    {
      "inputs": [],
      "name": "getPositionDetails",
      "outputs": [
        {
          "internalType": "uint256",
          "name": "amount0",
          "type": "uint256"
        },
        {
          "internalType": "uint256",
          "name": "amount1",
          "type": "uint256"
        },
        {
          "internalType": "uint256",
          "name": "fees0",
          "type": "uint256"
        },
        {
          "internalType": "uint256",
          "name": "fees1",
          "type": "uint256"
        },
        {
          "internalType": "uint128",
          "name": "baseLiquidity",
          "type": "uint128"
        },
        {
          "internalType": "uint128",
          "name": "rangeLiquidity",
          "type": "uint128"
        }
      ],
      "stateMutability": "nonpayable",
      "type": "function"
    },
    {
      "inputs": [],
      "name": "getVaultInfo",
      "outputs": [
        {
          "internalType": "address",
          "name": "",
          "type": "address"
        },
        {
          "internalType": "address",
          "name": "",
          "type": "address"
        },
        {
          "internalType": "uint24",
          "name": "",
          "type": "uint24"
        },
        {
          "internalType": "address",
          "name": "",
          "type": "address"
        }
      ],
      "stateMutability": "view",
      "type": "function"
    },
    {
      "inputs": [
        {
          "internalType": "address",
          "name": "spender",
          "type": "address"
        },
        {
          "internalType": "uint256",
          "name": "addedValue",
          "type": "uint256"
        }
      ],
      "name": "increaseAllowance",
      "outputs": [
        {
          "internalType": "bool",
          "name": "",
          "type": "bool"
        }
      ],
      "stateMutability": "nonpayable",
      "type": "function"
    },
    {
      "inputs": [],
      "name": "init",
      "outputs": [],
      "stateMutability": "nonpayable",
      "type": "function"
    },
    {
      "inputs": [],
      "name": "name",
      "outputs": [
        {
          "internalType": "string",
          "name": "",
          "type": "string"
        }
      ],
      "stateMutability": "view",
      "type": "function"
    },
    {
      "inputs": [
        {
          "internalType": "address",
          "name": "owner",
          "type": "address"
        }
      ],
      "name": "nonces",
      "outputs": [
        {
          "internalType": "uint256",
          "name": "",
          "type": "uint256"
        }
      ],
      "stateMutability": "view",
      "type": "function"
    },
    {
      "inputs": [
        {
          "internalType": "address",
          "name": "owner",
          "type": "address"
        },
        {
          "internalType": "address",
          "name": "spender",
          "type": "address"
        },
        {
          "internalType": "uint256",
          "name": "value",
          "type": "uint256"
        },
        {
          "internalType": "uint256",
          "name": "deadline",
          "type": "uint256"
        },
        {
          "internalType": "uint8",
          "name": "v",
          "type": "uint8"
        },
        {
          "internalType": "bytes32",
          "name": "r",
          "type": "bytes32"
        },
        {
          "internalType": "bytes32",
          "name": "s",
          "type": "bytes32"
        }
      ],
      "name": "permit",
      "outputs": [],
      "stateMutability": "nonpayable",
      "type": "function"
    },
    {
      "inputs": [],
      "name": "pullLiquidity",
      "outputs": [],
      "stateMutability": "nonpayable",
      "type": "function"
    },
    {
      "inputs": [],
      "name": "readjustLiquidity",
      "outputs": [],
      "stateMutability": "nonpayable",
      "type": "function"
    },
    {
      "inputs": [],
      "name": "symbol",
      "outputs": [
        {
          "internalType": "string",
          "name": "",
          "type": "string"
        }
      ],
      "stateMutability": "view",
      "type": "function"
    },
    {
      "inputs": [],
      "name": "ticksData",
      "outputs": [
        {
          "internalType": "int24",
          "name": "baseTickLower",
          "type": "int24"
        },
        {
          "internalType": "int24",
          "name": "baseTickUpper",
          "type": "int24"
        },
        {
          "internalType": "int24",
          "name": "rangeTickLower",
          "type": "int24"
        },
        {
          "internalType": "int24",
          "name": "rangeTickUpper",
          "type": "int24"
        }
      ],
      "stateMutability": "view",
      "type": "function"
    },
    {
      "inputs": [],
      "name": "totalSupply",
      "outputs": [
        {
          "internalType": "uint256",
          "name": "",
          "type": "uint256"
        }
      ],
      "stateMutability": "view",
      "type": "function"
    },
    {
      "inputs": [
        {
          "internalType": "address",
          "name": "recipient",
          "type": "address"
        },
        {
          "internalType": "uint256",
          "name": "amount",
          "type": "uint256"
        }
      ],
      "name": "transfer",
      "outputs": [
        {
          "internalType": "bool",
          "name": "",
          "type": "bool"
        }
      ],
      "stateMutability": "nonpayable",
      "type": "function"
    },
    {
      "inputs": [
        {
          "internalType": "address",
          "name": "sender",
          "type": "address"
        },
        {
          "internalType": "address",
          "name": "recipient",
          "type": "address"
        },
        {
          "internalType": "uint256",
          "name": "amount",
          "type": "uint256"
        }
      ],
      "name": "transferFrom",
      "outputs": [
        {
          "internalType": "bool",
          "name": "",
          "type": "bool"
        }
      ],
      "stateMutability": "nonpayable",
      "type": "function"
    },
    {
      "inputs": [
        {
          "internalType": "uint256",
          "name": "amount0Owed",
          "type": "uint256"
        },
        {
          "internalType": "uint256",
          "name": "amount1Owed",
          "type": "uint256"
        },
        {
          "internalType": "bytes",
          "name": "data",
          "type": "bytes"
        }
      ],
      "name": "uniswapV3MintCallback",
      "outputs": [],
      "stateMutability": "nonpayable",
      "type": "function"
    },
    {
      "inputs": [
        {
          "internalType": "int256",
          "name": "amount0",
          "type": "int256"
        },
        {
          "internalType": "int256",
          "name": "amount1",
          "type": "int256"
        },
        {
          "internalType": "bytes",
          "name": "data",
          "type": "bytes"
        }
      ],
      "name": "uniswapV3SwapCallback",
      "outputs": [],
      "stateMutability": "nonpayable",
      "type": "function"
    },
    {
      "inputs": [
        {
          "internalType": "uint256",
          "name": "liquidity",
          "type": "uint256"
        },
        {
          "internalType": "address",
          "name": "recipient",
          "type": "address"
        },
        {
          "internalType": "bool",
          "name": "refundAsETH",
          "type": "bool"
        }
      ],
      "name": "withdraw",
      "outputs": [
        {
          "internalType": "uint256",
          "name": "amount0",
          "type": "uint256"
        },
        {
          "internalType": "uint256",
          "name": "amount1",
          "type": "uint256"
        }
      ],
      "stateMutability": "nonpayable",
      "type": "function"
    },
    {
      "stateMutability": "payable",
      "type": "receive"
    }
  ],
  "bytecode": "0x6101406040527f6e71edae12b1b97f4d1f60370fef10105fa2faae0126114a169c64845d6126c961012052600d805463ff000000191663010000001790553480156200004a57600080fd5b5060405162005055380380620050558339810160408190526200006d91620005ca565b8180604051806040016040528060018152602001603160f81b81525084848160039080519060200190620000a392919062000442565b508051620000b990600490602084019062000442565b50506005805460ff1916601217905550815160208084019190912082519183019190912060c082905260e08190527f8b73c3c69bb8fe3d512ecc4cf759cc79239f7b179b0ffacaa9a75d522b39400f62000112620003da565b60a05262000122818484620003de565b608052610100525050600b80546001600160a01b038089166001600160a01b031992831617909255600a80548a8416908316179055600980548b84169216919091179081905560408051630dfe168160e01b81529051919092169450630dfe1681935060048083019350602092829003018186803b158015620001a457600080fd5b505afa158015620001b9573d6000803e3d6000fd5b505050506040513d601f19601f82011682018060405250810190620001df9190620005a6565b600780546001600160a01b0319166001600160a01b039283161790556009546040805163d21220a760e01b81529051919092169163d21220a7916004808301926020929190829003018186803b1580156200023957600080fd5b505afa1580156200024e573d6000803e3d6000fd5b505050506040513d601f19601f82011682018060405250810190620002749190620005a6565b600880546001600160a01b0319166001600160a01b039283161790556009546040805163ddca3f4360e01b81529051919092169163ddca3f43916004808301926020929190829003018186803b158015620002ce57600080fd5b505afa158015620002e3573d6000803e3d6000fd5b505050506040513d601f19601f820116820180604052508101906200030991906200068d565b600d60046101000a81548162ffffff021916908362ffffff160217905550600960009054906101000a90046001600160a01b03166001600160a01b031663d0c93a7c6040518163ffffffff1660e01b815260040160206040518083038186803b1580156200037657600080fd5b505afa1580156200038b573d6000803e3d6000fd5b505050506040513d601f19601f82011682018060405250810190620003b191906200066a565b600d805460029290920b62ffffff1662ffffff1990921691909117905550620006b29350505050565b4690565b6000838383620003ed620003da565b3060405160200180868152602001858152602001848152602001838152602001826001600160a01b03168152602001955050505050506040516020818303038152906040528051906020012090509392505050565b828054600181600116156101000203166002900490600052602060002090601f0160209004810192826200047a5760008555620004c5565b82601f106200049557805160ff1916838001178555620004c5565b82800160010185558215620004c5579182015b82811115620004c5578251825591602001919060010190620004a8565b50620004d3929150620004d7565b5090565b5b80821115620004d35760008155600101620004d8565b80516001600160a01b03811681146200050657600080fd5b919050565b600082601f8301126200051c578081fd5b81516001600160401b03808211156200053157fe5b6040516020601f8401601f19168201810183811183821017156200055157fe5b604052838252858401810187101562000568578485fd5b8492505b838310156200058b57858301810151828401820152918201916200056c565b838311156200059c57848185840101525b5095945050505050565b600060208284031215620005b8578081fd5b620005c382620004ee565b9392505050565b600080600080600060a08688031215620005e2578081fd5b620005ed86620004ee565b9450620005fd60208701620004ee565b93506200060d60408701620004ee565b60608701519093506001600160401b03808211156200062a578283fd5b6200063889838a016200050b565b935060808801519150808211156200064e578283fd5b506200065d888289016200050b565b9150509295509295909350565b6000602082840312156200067c578081fd5b81518060020b8114620005c3578182fd5b6000602082840312156200069f578081fd5b815162ffffff81168114620005c3578182fd5b60805160a05160c05160e0516101005161012051614959620006fc60003980610e1052508061209c5250806120de5250806120bd52508061204352508061207352506149596000f3fe6080604052600436106101345760003560e01c8062ebf5dd1461013d57806306fdde0314610174578063095ea7b31461019657806318160ddd146101c357806323b872dd146101e5578063313ce567146102055780633644e51514610227578063395093511461023c57806370a082311461025c5780637ecebe001461027c5780637f98aa711461029c5780638dbdbe6d146102c157806395d89b41146102e3578063a457c2d7146102f8578063a9059cbb14610318578063ac2dc56214610338578063adcc37791461035d578063b2f9f57114610372578063c869623214610387578063d3487997146103ae578063d505accf146103ce578063dd62ed3e146103ee578063e1c7392a1461040e578063f8e35be714610423578063fa02165614610438578063fa461e331461044d5761013b565b3661013b57005b005b34801561014957600080fd5b5061015d61015836600461450f565b61046d565b60405161016b9291906146e2565b60405180910390f35b34801561018057600080fd5b50610189610787565b60405161016b919061466e565b3480156101a257600080fd5b506101b66101b1366004614423565b61081e565b60405161016b919061460b565b3480156101cf57600080fd5b506101d861083c565b60405161016b9190614640565b3480156101f157600080fd5b506101b6610200366004614373565b610842565b34801561021157600080fd5b5061021a6108ca565b60405161016b919061473a565b34801561023357600080fd5b506101d86108d3565b34801561024857600080fd5b506101b6610257366004614423565b6108e2565b34801561026857600080fd5b506101d86102773660046142c1565b610930565b34801561028857600080fd5b506101d86102973660046142c1565b61094f565b3480156102a857600080fd5b506102b1610970565b60405161016b94939291906145a6565b6102d46102cf366004614550565b61099f565b60405161016b939291906146f0565b3480156102ef57600080fd5b50610189610b00565b34801561030457600080fd5b506101b6610313366004614423565b610b61565b34801561032457600080fd5b506101b6610333366004614423565b610bc9565b34801561034457600080fd5b5061034d610bdd565b60405161016b9493929190614649565b34801561036957600080fd5b506101d8610c06565b34801561037e57600080fd5b506101d8610c87565b34801561039357600080fd5b5061039c610cb8565b60405161016b96959493929190614706565b3480156103ba57600080fd5b5061013b6103c936600461457d565b610d44565b3480156103da57600080fd5b5061013b6103e93660046143b3565b610da1565b3480156103fa57600080fd5b506101d86104093660046142dd565b610f58565b34801561041a57600080fd5b5061013b610f83565b34801561042f57600080fd5b5061013b610fbe565b34801561044457600080fd5b5061013b61101d565b34801561045957600080fd5b5061013b6104683660046144a7565b611443565b600080600d60039054906101000a900460ff1660ff1660011461048f57600080fd5b600d805463ff0000001916905560006104a66114ae565b505060095460405163051bb83360e01b81529193506001600160a01b03808516935063051bb833926104de9290911690600401614592565b60006040518083038186803b1580156104f657600080fd5b505afa15801561050a573d6000803e3d6000fd5b505050506000861161051b57600080fd5b600061052561083c565b600c54600954919250600091610555916001600160a01b0390911690600281810b9163010000009004900b611548565b50909150506001600160801b038116156105f457600061057e89670de0b6b3a7640000856115e6565b600c546009549192506105ab916001600160a01b031690600281810b9163010000009004900b8430611695565b600c5460095492985090965060009182916105e0916001600160a01b0316903090600281810b9163010000009004900b611862565b915091506105f060008383611929565b5050505b600061061261060b87610605610c06565b90611aca565b8a856115e6565b9050600061062c61062587610605610c87565b8b866115e6565b90506106388783611ada565b96506106448682611ada565b95508615610666576007546106669089908b906001600160a01b03168a611aea565b8515610686576008546106869089908b906001600160a01b031689611aea565b610690338b611b23565b886001600160a01b03167f02f25270a4d87bea75db541cdfe559334a275b4a233520ed6c0a2429667cca948b89896040516106cd939291906146f0565b60405180910390a26001600160801b0383161561076457600c54600090819061072490600281810b9163010000009004900b610707610c06565b61070f610c87565b6009546001600160a01b031693929190611c0d565b915091507f2fb985eb745b9e89bb1ab82e0f8ceb6bf94d4d60aed7e8196540c50161a5fe9182826040516107599291906146e2565b60405180910390a150505b5050600d805463ff00000019166301000000179055509296919550909350505050565b60038054604080516020601f60026000196101006001881615020190951694909404938401819004810282018101909252828152606093909290918301828280156108135780601f106107e857610100808354040283529160200191610813565b820191906000526020600020905b8154815290600101906020018083116107f657829003601f168201915b505050505090505b90565b600061083261082b611d6f565b8484611d73565b5060015b92915050565b60025490565b600061084f848484611e5f565b6108bf8461085b611d6f565b6108ba85604051806060016040528060288152602001614876602891396001600160a01b038a16600090815260016020526040812090610899611d6f565b6001600160a01b031681526020810191909152604001600020549190611fa8565b611d73565b5060015b9392505050565b60055460ff1690565b60006108dd61203f565b905090565b60006108326108ef611d6f565b846108ba8560016000610900611d6f565b6001600160a01b03908116825260208083019390935260409182016000908120918c168152925290205490612109565b6001600160a01b0381166000908152602081905260409020545b919050565b6001600160a01b038116600090815260066020526040812061083690612161565b600754600854600d546009546001600160a01b039384169492841693600160201b90920462ffffff1692911690565b6000806000806109ad611d6f565b9050610a37600188886109be610c06565b6109c6610c87565b6109ce61083c565b60408051608081018252600c54600281810b810b810b835263010000008204810b810b810b6020840152600160301b8204810b810b810b93830193909352600160481b9004820b820b90910b60608201526009546001600160a01b031696959493929190612165565b6007549296509094509250610a57906001600160a01b0316823086612201565b600854610a6f906001600160a01b0316823085612201565b600c54600954610a9b916001600160a01b0390911690600281810b9163010000009004900b8686611c0d565b5050610aa7858561233e565b846001600160a01b0316816001600160a01b03167f4e2ca0515ed1aef1395f66b5303bb5d6f1bf9d61a353fa53f73f8ac9973fa9f6858588604051610aee939291906146f0565b60405180910390a35093509350939050565b60048054604080516020601f60026000196101006001881615020190951694909404938401819004810282018101909252828152606093909290918301828280156108135780601f106107e857610100808354040283529160200191610813565b6000610832610b6e611d6f565b846108ba856040518060600160405280602581526020016149286025913960016000610b98611d6f565b6001600160a01b03908116825260208083019390935260409182016000908120918d16815292529020549190611fa8565b6000610832610bd6611d6f565b8484611e5f565b600c54600281810b9163010000008104820b91600160301b8204810b91600160481b9004900b84565b6007546040516370a0823160e01b81526000916001600160a01b0316906370a0823190610c37903090600401614592565b60206040518083038186803b158015610c4f57600080fd5b505afa158015610c63573d6000803e3d6000fd5b505050506040513d601f19601f820116820180604052508101906108dd91906144f7565b6008546040516370a0823160e01b81526000916001600160a01b0316906370a0823190610c37903090600401614592565b60408051608081018252600c54600281810b810b810b835263010000008204810b810b810b6020840152600160301b8204810b810b810b93830193909352600160481b9004820b820b90910b606082015260095460009182918291829182918291610d31916001600160a01b039091169060019061241c565b949b939a50919850965094509092509050565b610d4c6124b3565b336000610d5b838501856142c1565b90508515610d7b57600754610d7b906001600160a01b0316828489612201565b8415610d9957600854610d99906001600160a01b0316828488612201565b505050505050565b83421115610df6576040805162461bcd60e51b815260206004820152601d60248201527f45524332305065726d69743a206578706972656420646561646c696e65000000604482015290519081900360640190fd5b6001600160a01b03871660009081526006602052604081207f000000000000000000000000000000000000000000000000000000000000000090899089908990610e3f90612161565b8960405160200180878152602001866001600160a01b03168152602001856001600160a01b0316815260200184815260200183815260200182815260200196505050505050506040516020818303038152906040528051906020012090506000610ea8826124cc565b90506000610eb882878787612518565b9050896001600160a01b0316816001600160a01b031614610f20576040805162461bcd60e51b815260206004820152601e60248201527f45524332305065726d69743a20696e76616c6964207369676e61747572650000604482015290519081900360640190fd5b6001600160a01b038a166000908152600660205260409020610f4190612689565b610f4c8a8a8a611d73565b50505050505050505050565b6001600160a01b03918216600090815260016020908152604080832093909416825291909152205490565b600d5460020b6000610f93612692565b8202905060405162461bcd60e51b8152600401610faf906146c1565b60405180910390fd5b50505050565b6000610fc86114ae565b5050509050806001600160a01b0316336001600160a01b031614610feb57600080fd5b600c54600954611016916001600160a01b0390911690600281810b9163010000009004900b306128c9565b5050505050565b600d546301000000900460ff1660011461103657600080fd5b600d805463ff00000019169055600061104d6114ae565b5050509050806001600160a01b0316336001600160a01b03161461107057600080fd5b600061107a6114ae565b505060095460405163051bb83360e01b81529193506001600160a01b03808516935063051bb833926110b29290911690600401614592565b60006040518083038186803b1580156110ca57600080fd5b505afa1580156110de573d6000803e3d6000fd5b505050506110ea6141e6565b600c54600954611115916001600160a01b0390911690600281810b9163010000009004900b306128c9565b6020850181905281855260c085019290925260a084019290925261113b91600191611929565b6000611145612692565b60095490915061115d906001600160a01b0316612732565b50600290810b810b60408501819052600d5461117f935090918491900b612a7d565b600290810b810b608085015290810b810b6060840152600c546009546000926111c1926001600160a01b039092169180820b916301000000909104900b611548565b505090506000816001600160801b03161180156111ec575060a083015115806111ec575060c0830151155b1561125a576000808460a0015111611205576000611208565b60015b9050600081611227576112228560c00151603260646115e6565b611238565b6112388560a00151603260646115e6565b600954909150611253906001600160a01b0316308484612a9a565b505061137e565b611262610c06565b60a084015261126f610c87565b60c0840181905260a0840151606085015160808601516009546112a0946001600160a01b0390911693929091612c16565b6001600160801b031660e08401819052606084015160808501516009546112d4936001600160a01b03909116929091612caa565b6101208501819052610100850182905260a085015160c08601516112fc939192909190612d41565b15156101408401819052611337576113326113298461012001518560c00151611aca90919063ffffffff16565b603260646115e6565b611356565b6113566113298461010001518560a00151611aca90919063ffffffff16565b610160840181905261014084015160095461137e926001600160a01b03909116913091612a9a565b611386610c06565b60a0840152611393610c87565b60c0840181905260a0840151600d546009546113c0936001600160a01b039091169291869060020b612d7c565b600c805465ffffff00000019166301000000600293840b62ffffff90811682029290921762ffffff191694840b91909116939093179081905560a086015160c0870151600954611427956001600160a01b039091169484810b9491909104900b9190611c0d565b5050600d805463ff000000191663010000001790555050505050565b61144b6124b3565b600084138061145a5750600083135b61146357600080fd5b60006114718284018461444e565b9050801561149657600754611491906001600160a01b0316303388612201565b611016565b600854611016906001600160a01b0316303387612201565b600080600080600a60009054906101000a90046001600160a01b03166001600160a01b03166338d772806040518163ffffffff1660e01b815260040160806040518083038186803b15801561150257600080fd5b505afa158015611516573d6000803e3d6000fd5b505050506040513d601f19601f8201168201806040525081019061153a9190614315565b935093509350935090919293565b600080600080611559308787612f72565b9050866001600160a01b031663514ea4bf826040518263ffffffff1660e01b81526004018082815260200191505060a06040518083038186803b15801561159f57600080fd5b505afa1580156115b3573d6000803e3d6000fd5b505050506040513d60a08110156115c957600080fd5b508051606082015160809092015190999198509650945050505050565b600080806000198587098686029250828110908390030390508061161c576000841161161157600080fd5b5082900490506108c3565b80841161162857600080fd5b6000848688096000868103871696879004966002600389028118808a02820302808a02820302808a02820302808a02820302808a02820302808a02909103029181900381900460010186841190950394909402919094039290920491909117919091029150509392505050565b600080806116ad6001600160a01b0389168888611548565b5050905060006116cf826001600160801b031687670de0b6b3a76400006115e6565b9050886001600160a01b031663a34123a789896116eb85612fc3565b6040518463ffffffff1660e01b8152600401808460020b81526020018360020b8152602001826001600160801b0316815260200193505050506040805180830381600087803b15801561173d57600080fd5b505af1158015611751573d6000803e3d6000fd5b505050506040513d604081101561176757600080fd5b5080516020909101519094509250831515806117835750600083115b1561185657886001600160a01b0316634f1eb3d8868a8a6117a389612fc3565b6117ac89612fc3565b6040518663ffffffff1660e01b815260040180866001600160a01b031681526020018560020b81526020018460020b8152602001836001600160801b03168152602001826001600160801b03168152602001955050505050506040805180830381600087803b15801561181e57600080fd5b505af1158015611832573d6000803e3d6000fd5b505050506040513d604081101561184857600080fd5b50516001600160801b031693505b50509550959350505050565b60008061187086858561300b565b50604080516309e3d67b60e31b81526001600160a01b038781166004830152600287810b602484015286900b60448301526001600160801b03606483018190526084830152825190891692634f1eb3d89260a480820193918290030181600087803b1580156118de57600080fd5b505af11580156118f2573d6000803e3d6000fd5b505050506040513d604081101561190857600080fd5b5080516020909101516001600160801b039182169891169650945050505050565b6000806119346114ae565b93509350505060008411156119d5576007546001600160a01b031663a9059cbb836119648760ff861660646115e6565b6040518363ffffffff1660e01b81526004016119819291906145f2565b602060405180830381600087803b15801561199b57600080fd5b505af11580156119af573d6000803e3d6000fd5b505050506040513d601f19601f820116820180604052508101906119d3919061446a565b505b8215611a6d576008546001600160a01b031663a9059cbb836119fc8660ff861660646115e6565b6040518363ffffffff1660e01b8152600401611a199291906145f2565b602060405180830381600087803b158015611a3357600080fd5b505af1158015611a47573d6000803e3d6000fd5b505050506040513d601f19601f82011682018060405250810190611a6b919061446a565b505b7fbcc978db31dd08dc8adfad2608e266d446816cb7816fb50a1bd7e34699bbcf11858585611a99610c06565b611aa1610c87565b611aa961083c565b604051611abb96959493929190614616565b60405180910390a15050505050565b8082038281111561083657600080fd5b8082018281101561083657600080fd5b838015611b045750600b546001600160a01b038381169116145b15611b1857611b1381846130c4565b610fb8565b610fb8828483613130565b6001600160a01b038216611b685760405162461bcd60e51b81526004018080602001828103825260218152602001806148be6021913960400191505060405180910390fd5b611b7482600083613277565b611bb1816040518060600160405280602281526020016147a1602291396001600160a01b0385166000908152602081905260409020549190611fa8565b6001600160a01b038316600090815260208190526040902055600254611bd7908261327c565b6002556040805182815290516000916001600160a01b0385169160008051602061489e8339815191529181900360200190a35050565b60008080611c276001600160a01b03891686868a8a612c16565b90506001600160801b03811615611d64576040805130602080830182905283518084038201815283850194859052633c8a7d8d60e01b9094526044830182815260028c810b60648601528b900b60848501526001600160801b03861660a485015260a060c48501908152855160e486015285516001600160a01b038f1696633c8a7d8d968f958f958b959394909392610104019185019080838360005b83811015611cdc578181015183820152602001611cc4565b50505050905090810190601f168015611d095780820380516001836020036101000a031916815260200191505b5096505050505050506040805180830381600087803b158015611d2b57600080fd5b505af1158015611d3f573d6000803e3d6000fd5b505050506040513d6040811015611d5557600080fd5b50805160209091015190935091505b509550959350505050565b3390565b6001600160a01b038316611db85760405162461bcd60e51b81526004018080602001828103825260248152602001806149046024913960400191505060405180910390fd5b6001600160a01b038216611dfd5760405162461bcd60e51b81526004018080602001828103825260228152602001806147c36022913960400191505060405180910390fd5b6001600160a01b03808416600081815260016020908152604080832094871680845294825291829020859055815185815291517f8c5be1e5ebec7d5bd14f71427d1e84f3dd0314c0f7b2291e5b200ac8c7c3b9259281900390910190a3505050565b6001600160a01b038316611ea45760405162461bcd60e51b81526004018080602001828103825260258152602001806148df6025913960400191505060405180910390fd5b6001600160a01b038216611ee95760405162461bcd60e51b815260040180806020018281038252602381526020018061477e6023913960400191505060405180910390fd5b611ef4838383613277565b611f31816040518060600160405280602681526020016147e5602691396001600160a01b0386166000908152602081905260409020549190611fa8565b6001600160a01b038085166000908152602081905260408082209390935590841681522054611f609082612109565b6001600160a01b0380841660008181526020818152604091829020949094558051858152905191939287169260008051602061489e83398151915292918290030190a3505050565b600081848411156120375760405162461bcd60e51b81526004018080602001828103825283818151815260200191508051906020019080838360005b83811015611ffc578181015183820152602001611fe4565b50505050905090810190601f1680156120295780820380516001836020036101000a031916815260200191505b509250505060405180910390fd5b505050900390565b60007f000000000000000000000000000000000000000000000000000000000000000061206a6132d9565b141561209757507f000000000000000000000000000000000000000000000000000000000000000061081b565b6121027f00000000000000000000000000000000000000000000000000000000000000007f00000000000000000000000000000000000000000000000000000000000000007f00000000000000000000000000000000000000000000000000000000000000006132dd565b905061081b565b6000828201838110156108c3576040805162461bcd60e51b815260206004820152601b60248201527a536166654d6174683a206164646974696f6e206f766572666c6f7760281b604482015290519081900360640190fd5b5490565b600080600080600080600061217b8f8f8a61241c565b5050935093509350935060006121a48c61219e8588611ada90919063ffffffff16565b90611ada565b905060006121b68c61219e8786611ada565b90508a15806121c457508115155b806121ce57508015155b6121d457fe5b6121e18f8f84848f61333f565b809950819a50829b50505050505050505050985098509895505050505050565b600b546001600160a01b03858116911614801561221e5750804710155b1561231657600b60009054906101000a90046001600160a01b03166001600160a01b031663d0e30db0826040518263ffffffff1660e01b81526004016000604051808303818588803b15801561227357600080fd5b505af1158015612287573d6000803e3d6000fd5b5050600b5460405163a9059cbb60e01b81526001600160a01b03909116935063a9059cbb92506122be9150859085906004016145f2565b602060405180830381600087803b1580156122d857600080fd5b505af11580156122ec573d6000803e3d6000fd5b505050506040513d601f19601f82011682018060405250810190612310919061446a565b50610fb8565b6001600160a01b03831630141561233257611b13848383613130565b610fb8848484846133d3565b6001600160a01b038216612399576040805162461bcd60e51b815260206004820152601f60248201527f45524332303a206d696e7420746f20746865207a65726f206164647265737300604482015290519081900360640190fd5b6123a560008383613277565b6002546123b29082612109565b6002556001600160a01b0382166000908152602081905260409020546123d89082612109565b6001600160a01b03831660008181526020818152604080832094909455835185815293519293919260008051602061489e8339815191529281900390910190a35050565b6000806000806000806124388988600001518960200151613523565b939950919750955093509150876124a75760008060008060006124648e8d604001518e60600151613523565b93985091965094509250905061247a8b86611ada565b9a506124868a85611ada565b99506124928984611ada565b985061249e8883611ada565b97509450505050505b93975093979195509350565b6009546001600160a01b031633146124ca57600080fd5b565b60006124d661203f565b82604051602001808061190160f01b81525060020183815260200182815260200192505050604051602081830303815290604052805190602001209050919050565b60006fa2a8918ca85bafe22016d0b997e4df60600160ff1b0382111561256f5760405162461bcd60e51b81526004018080602001828103825260228152602001806148326022913960400191505060405180910390fd5b8360ff16601b148061258457508360ff16601c145b6125bf5760405162461bcd60e51b81526004018080602001828103825260228152602001806148546022913960400191505060405180910390fd5b600060018686868660405160008152602001604052604051808581526020018460ff1681526020018381526020018281526020019450505050506020604051602081039080840390855afa15801561261b573d6000803e3d6000fd5b5050604051601f1901519150506001600160a01b03811661267e576040805162461bcd60e51b815260206004820152601860248201527745434453413a20696e76616c6964207369676e617475726560401b604482015290519081900360640190fd5b90505b949350505050565b80546001019055565b60008061269d6114ae565b5050600954600d5460405163d91e085360e01b81529294506001600160a01b03808616945063d91e0853936126dc939091169160020b906004016145d6565b60206040518083038186803b1580156126f457600080fd5b505afa158015612708573d6000803e3d6000fd5b505050506040513d601f19601f8201168201806040525081019061272c9190614486565b91505090565b6000806000836001600160a01b0316633850c7bd6040518163ffffffff1660e01b815260040160e06040518083038186803b15801561277057600080fd5b505afa158015612784573d6000803e3d6000fd5b505050506040513d60e081101561279a57600080fd5b508051602082015160609092015190969195509350915050565b6000808260020b8460020b816127c657fe5b05905060008460020b1280156127ed57508260020b8460020b816127e657fe5b0760020b15155b156127f757600019015b90910292915050565b8060020b8260020b12612840576040805162461bcd60e51b8152602060048201526003602482015262544c5560e81b604482015290519081900360640190fd5b620d89e719600283900b1215612883576040805162461bcd60e51b8152602060048201526003602482015262544c4d60e81b604482015290519081900360640190fd5b620d89e8600282900b13156128c5576040805162461bcd60e51b815260206004820152600360248201526254554d60e81b604482015290519081900360640190fd5b5050565b6000808080806128e36001600160a01b038a168989611548565b50909150506001600160801b03811615612a71576040805163a34123a760e01b815260028a810b600483015289900b60248201526001600160801b038316604482015281516001600160a01b038c169263a34123a792606480820193918290030181600087803b15801561295657600080fd5b505af115801561296a573d6000803e3d6000fd5b505050506040513d604081101561298057600080fd5b50805160209091015190955093508415158061299c5750600084115b15612a7157604080516309e3d67b60e31b81526001600160a01b03888116600483015260028b810b60248401528a900b60448301526001600160801b0360648301819052608483015282516000938493928e1692634f1eb3d89260a4808301939282900301818787803b158015612a1257600080fd5b505af1158015612a26573d6000803e3d6000fd5b505050506040513d6040811015612a3c57600080fd5b5080516020909101516001600160801b039182169350169050612a5f8288611aca565b612a698288611aca565b909550935050505b50945094509450949050565b6000806000612a8c86856127b4565b858103979501955050505050565b6000612aae856001600160a01b0316612732565b505090506000620f42408261c350026001600160a01b031681612acd57fe5b049050600084612adf57818301612ae3565b8183035b9050866001600160a01b031663128acb08878787858a6040516020018082151581526020019150506040516020818303038152906040526040518663ffffffff1660e01b815260040180866001600160a01b031681526020018515158152602001848152602001836001600160a01b0316815260200180602001828103825283818151815260200191508051906020019080838360005b83811015612b92578181015183820152602001612b7a565b50505050905090810190601f168015612bbf5780820380516001836020036101000a031916815260200191505b5096505050505050506040805180830381600087803b158015612be157600080fd5b505af1158015612bf5573d6000803e3d6000fd5b505050506040513d6040811015612c0b57600080fd5b505050505050505050565b600080866001600160a01b0316633850c7bd6040518163ffffffff1660e01b815260040160e06040518083038186803b158015612c5257600080fd5b505afa158015612c66573d6000803e3d6000fd5b505050506040513d60e0811015612c7c57600080fd5b50519050612c9d81612c8d86613568565b612c9686613568565b898961388f565b9150505b95945050505050565b6000806000866001600160a01b0316633850c7bd6040518163ffffffff1660e01b815260040160e06040518083038186803b158015612ce857600080fd5b505afa158015612cfc573d6000803e3d6000fd5b505050506040513d60e0811015612d1257600080fd5b50519050612d3281612d2387613568565b612d2c87613568565b89613951565b92509250505b94509492505050565b6000612d5785612d518685611aca565b906139ec565b612d6585612d518887611aca565b11612d71576000612ca1565b600195945050505050565b60008060006040518060e00160405280888152602001878152602001600081526020016000815260200160006001600160801b03168152602001600060020b8152602001600060020b8152509050600080896001600160a01b0316633850c7bd6040518163ffffffff1660e01b815260040160e06040518083038186803b158015612e0657600080fd5b505afa158015612e1a573d6000803e3d6000fd5b505050506040513d60e0811015612e3057600080fd5b5080516020909101519092509050612e49818888612a7d565b600290810b810b60c0860181905291810b900b60a0850181905284516020860151612e76938e9390613a10565b606085018190526040850182905260a085015160c0860151612e9d938e9390929091612c16565b6001600160801b031660808401528251602084015160408501516060860151600093612ecc9390929091612d41565b90508015612f11576000612eeb84866080015187600001516000613a3f565b9050612eff612ef982613b27565b896127b4565b600290810b900b60c086015250612f44565b6000612f2884866080015187602001516000613e12565b9050612f36612ef982613b27565b600290810b900b60a0860152505b612f568460a001518560c00151612800565b8360a0015195508360c001519450505050509550959350505050565b6040805160609490941b6001600160601b031916602080860191909152600293840b60e890811b60348701529290930b90911b60378401528051808403601a018152603a9093019052815191012090565b6000600160801b82106130075760405162461bcd60e51b815260040180806020018281038252602781526020018061480b6027913960400191505060405180910390fd5b5090565b60006130216001600160a01b0385168484611548565b50909150506001600160801b038116156108c357836001600160a01b031663a34123a7848460006040518463ffffffff1660e01b8152600401808460020b81526020018360020b815260200182815260200193505050506040805180830381600087803b15801561309157600080fd5b505af11580156130a5573d6000803e3d6000fd5b505050506040513d60408110156130bb57600080fd5b50509392505050565b600b54604051632e1a7d4d60e01b81526001600160a01b0390911690632e1a7d4d906130f4908590600401614640565b600060405180830381600087803b15801561310e57600080fd5b505af1158015613122573d6000803e3d6000fd5b505050506128c58183613eee565b604080516001600160a01b038481166024830152604480830185905283518084039091018152606490920183526020820180516001600160e01b031663a9059cbb60e01b1781529251825160009485949389169392918291908083835b602083106131ac5780518252601f19909201916020918201910161318d565b6001836020036101000a0380198251168184511680821785525050505050509050019150506000604051808303816000865af19150503d806000811461320e576040519150601f19603f3d011682016040523d82523d6000602084013e613213565b606091505b5091509150818015613241575080511580613241575080806020019051602081101561323e57600080fd5b50515b611016576040805162461bcd60e51b815260206004820152600260248201526114d560f21b604482015290519081900360640190fd5b505050565b6000828211156132d3576040805162461bcd60e51b815260206004820152601e60248201527f536166654d6174683a207375627472616374696f6e206f766572666c6f770000604482015290519081900360640190fd5b50900390565b4690565b60008383836132ea6132d9565b3060405160200180868152602001858152602001848152602001838152602001826001600160a01b03168152602001955050505050506040516020818303038152906040528051906020012090509392505050565b600080808361336357508690508580821161335a578061335c565b815b92506133c8565b8561337557508561335c8185876115e6565b846133885787915061335c8285886115e6565b6133938787876115e6565b9150878210156133aa57508561335c8185876115e6565b8791506133b88286886115e6565b90506133c58285886115e6565b92505b955095509592505050565b604080516001600160a01b0385811660248301528481166044830152606480830185905283518084039091018152608490920183526020820180516001600160e01b03166323b872dd60e01b178152925182516000948594938a169392918291908083835b602083106134575780518252601f199092019160209182019101613438565b6001836020036101000a0380198251168184511680821785525050505050509050019150506000604051808303816000865af19150503d80600081146134b9576040519150601f19603f3d011682016040523d82523d6000602084013e6134be565b606091505b50915091508180156134ec5750805115806134ec57508080602001905160208110156134e957600080fd5b50515b610d99576040805162461bcd60e51b815260206004820152600360248201526229aa2360e91b604482015290519081900360640190fd5b600080600080600061353688888861300b565b90506001600160801b0381161561355d57613552888888613fdd565b929750909550935091505b939792965093509350565b60008060008360020b1261357f578260020b613587565b8260020b6000035b9050620d89e88111156135c5576040805162461bcd60e51b81526020600482015260016024820152601560fa1b604482015290519081900360640190fd5b6000600182166135d957600160801b6135eb565b6ffffcb933bd6fad37aa2d162d1a5940015b6001600160881b031690506002821615613615576ffff97272373d413259a46990580e213a0260801c5b6004821615613634576ffff2e50f5f656932ef12357cf3c7fdcc0260801c5b6008821615613653576fffe5caca7e10e4e61c3624eaa0941cd00260801c5b6010821615613672576fffcb9843d60f6159c9db58835c9266440260801c5b6020821615613691576fff973b41fa98c081472e6896dfb254c00260801c5b60408216156136b0576fff2ea16466c96a3843ec78b326b528610260801c5b60808216156136cf576ffe5dee046a99a2a811c461f1969c30530260801c5b6101008216156136ef576ffcbe86c7900a88aedcffc83b479aa3a40260801c5b61020082161561370f576ff987a7253ac413176f2b074cf7815e540260801c5b61040082161561372f576ff3392b0822b70005940c7a398e4b70f30260801c5b61080082161561374f576fe7159475a2c29b7443b29c7fa6e889d90260801c5b61100082161561376f576fd097f3bdfd2022b8845ad8f792aa58250260801c5b61200082161561378f576fa9f746462d870fdf8a65dc1f90e061e50260801c5b6140008216156137af576f70d869a156d2a1b890bb3df62baf32f70260801c5b6180008216156137cf576f31be135f97d08fd981231505542fcfa60260801c5b620100008216156137f0576f09aa508b5b7a84e1c677de54f3e99bc90260801c5b62020000821615613810576e5d6af8dedb81196699c329225ee6040260801c5b6204000082161561382f576d2216e584f5fa1ea926041bedfe980260801c5b6208000082161561384c576b048a170391f7dc42444e8fa20260801c5b60008460020b131561386757806000198161386357fe5b0490505b600160201b81061561387a57600161387d565b60005b60ff16602082901c0192505050919050565b6000836001600160a01b0316856001600160a01b031611156138af579293925b846001600160a01b0316866001600160a01b0316116138da576138d3858585614029565b9050612ca1565b836001600160a01b0316866001600160a01b0316101561393c576000613901878686614029565b9050600061391087898661408c565b9050806001600160801b0316826001600160801b0316106139315780613933565b815b92505050612ca1565b61394785858461408c565b9695505050505050565b600080836001600160a01b0316856001600160a01b03161115613972579293925b846001600160a01b0316866001600160a01b03161161399d576139968585856140c9565b9150612d38565b836001600160a01b0316866001600160a01b031610156139d6576139c28685856140c9565b91506139cf858785614132565b9050612d38565b6139e1858585614132565b905094509492505050565b6000821580613a0757505081810281838281613a0457fe5b04145b61083657600080fd5b6000806000613a228888888888612c16565b9050613a3088828787612caa565b90999098509650505050505050565b600082613a4d575083612681565b600160601b600160e01b03606085901b168215613adb576001600160a01b03861684810290858281613a7b57fe5b041415613aac57818101828110613aaa57613aa083896001600160a01b031683614175565b9350505050612681565b505b613ad282613acd878a6001600160a01b03168681613ac657fe5b0490611ada565b6141af565b92505050612681565b6001600160a01b03861684810290858281613af257fe5b04148015613aff57508082115b613b0857600080fd5b808203613aa0613b22846001600160a01b038b1684614175565b6141ba565b60006401000276a36001600160a01b03831610801590613b63575073fffd8963efd1fc6a506488495d951d5263988d266001600160a01b038316105b613b98576040805162461bcd60e51b81526020600482015260016024820152602960f91b604482015290519081900360640190fd5b600160201b600160c01b03602083901b166001600160801b03811160071b81811c6001600160401b03811160061b90811c63ffffffff811160051b90811c61ffff811160041b90811c60ff8111600390811b91821c600f811160021b90811c918211600190811b92831c97908811961790941790921717909117171760808110613c2a57607f810383901c9150613c34565b80607f0383901b91505b908002607f81811c60ff83811c9190911c800280831c81831c1c800280841c81841c1c800280851c81851c1c800280861c81861c1c800280871c81871c1c800280881c81881c1c800280891c81891c1c8002808a1c818a1c1c8002808b1c818b1c1c8002808c1c818c1c1c8002808d1c818d1c1c8002808e1c9c81901c9c909c1c80029c8d901c9e9d607f198f0160401b60c09190911c6001603f1b161760c19b909b1c6001603e1b169a909a1760c29990991c6001603d1b169890981760c39790971c6001603c1b169690961760c49590951c6001603b1b169490941760c59390931c6001603a1b169290921760c69190911c600160391b161760c79190911c600160381b161760c89190911c600160371b161760c99190911c600160361b161760ca9190911c600160351b161760cb9190911c600160341b161760cc9190911c600160331b161760cd9190911c600160321b1617693627a301d71055774c8581026f028f6481ab7f045a5af012a19d003aa9198101608090811d906fdb2df09e81959a81455e260799a0632f8301901d600281810b9083900b14613e0357886001600160a01b0316613de782613568565b6001600160a01b03161115613dfc5781613dfe565b805b613e05565b815b9998505050505050505050565b60008115613e805760006001600160a01b03841115613e4857613e4384600160601b876001600160801b03166115e6565b613e60565b6001600160801b038516606085901b81613e5e57fe5b045b9050613e78613b226001600160a01b03881683611ada565b915050612681565b60006001600160a01b03841115613eae57613ea984600160601b876001600160801b0316614175565b613ec5565b613ec5606085901b6001600160801b0387166141af565b905080866001600160a01b031611613edc57600080fd5b6001600160a01b038616039050612681565b604080516000808252602082019092526001600160a01b0384169083906040518082805190602001908083835b60208310613f3a5780518252601f199092019160209182019101613f1b565b6001836020036101000a03801982511681845116808217855250505050505090500191505060006040518083038185875af1925050503d8060008114613f9c576040519150601f19603f3d011682016040523d82523d6000602084013e613fa1565b606091505b5050905080613277576040805162461bcd60e51b815260206004820152600360248201526253544560e81b604482015290519081900360640190fd5b6000806000806000806000613ff38a8a8a611548565b9250925092506000806140088c868d8d612caa565b9099509750506001600160801b039283169550501691505093509350935093565b6000826001600160a01b0316846001600160a01b03161115614049579192915b600061406c856001600160a01b0316856001600160a01b0316600160601b6115e6565b9050612ca161408784838888036001600160a01b03166115e6565b6141d0565b6000826001600160a01b0316846001600160a01b031611156140ac579192915b61268161408783600160601b8787036001600160a01b03166115e6565b6000826001600160a01b0316846001600160a01b031611156140e9579192915b836001600160a01b0316614122606060ff16846001600160801b0316901b8686036001600160a01b0316866001600160a01b03166115e6565b8161412957fe5b04949350505050565b6000826001600160a01b0316846001600160a01b03161115614152579192915b612681826001600160801b03168585036001600160a01b0316600160601b6115e6565b60006141828484846115e6565b90506000828061418e57fe5b84860911156108c35760001981106141a557600080fd5b6001019392505050565b808204910615150190565b806001600160a01b038116811461094a57600080fd5b806001600160801b038116811461094a57600080fd5b604051806101c001604052806000815260200160008152602001600060020b8152602001600060020b8152602001600060020b8152602001600081526020016000815260200160006001600160801b0316815260200160008152602001600081526020016000151581526020016000815260200160006001600160a01b0316815260200160006001600160a01b031681525090565b60008083601f84011261428c578182fd5b5081356001600160401b038111156142a2578182fd5b6020830191508360208285010111156142ba57600080fd5b9250929050565b6000602082840312156142d2578081fd5b81356108c381614748565b600080604083850312156142ef578081fd5b82356142fa81614748565b9150602083013561430a81614748565b809150509250929050565b6000806000806080858703121561432a578182fd5b845161433581614748565b602086015190945061434681614748565b604086015190935061435781614748565b60608601519092506143688161476e565b939692955090935050565b600080600060608486031215614387578283fd5b833561439281614748565b925060208401356143a281614748565b929592945050506040919091013590565b600080600080600080600060e0888a0312156143cd578283fd5b87356143d881614748565b965060208801356143e881614748565b9550604088013594506060880135935060808801356144068161476e565b9699959850939692959460a0840135945060c09093013592915050565b60008060408385031215614435578182fd5b823561444081614748565b946020939093013593505050565b60006020828403121561445f578081fd5b81356108c381614760565b60006020828403121561447b578081fd5b81516108c381614760565b600060208284031215614497578081fd5b81518060020b81146108c3578182fd5b600080600080606085870312156144bc578384fd5b843593506020850135925060408501356001600160401b038111156144df578283fd5b6144eb8782880161427b565b95989497509550505050565b600060208284031215614508578081fd5b5051919050565b600080600060608486031215614523578081fd5b83359250602084013561453581614748565b9150604084013561454581614760565b809150509250925092565b600080600060608486031215614564578081fd5b8335925060208401359150604084013561454581614748565b600080600080606085870312156144bc578182fd5b6001600160a01b0391909116815260200190565b6001600160a01b039485168152928416602084015262ffffff919091166040830152909116606082015260800190565b6001600160a01b0392909216825260020b602082015260400190565b6001600160a01b03929092168252602082015260400190565b901515815260200190565b9515158652602086019490945260408501929092526060840152608083015260a082015260c00190565b90815260200190565b600294850b815292840b602084015290830b604083015290910b606082015260800190565b6000602080835283518082850152825b8181101561469a5785810183015185820160400152820161467e565b818111156146ab5783604083870101525b50601f01601f1916929092016040019392505050565b6020808252600790820152661c995858da195960ca1b604082015260600190565b918252602082015260400190565b9283526020830191909152604082015260600190565b9586526020860194909452604085019290925260608401526001600160801b0390811660808401521660a082015260c00190565b60ff91909116815260200190565b6001600160a01b038116811461475d57600080fd5b50565b801515811461475d57600080fd5b60ff8116811461475d57600080fdfe45524332303a207472616e7366657220746f20746865207a65726f206164647265737345524332303a206275726e20616d6f756e7420657863656564732062616c616e636545524332303a20617070726f766520746f20746865207a65726f206164647265737345524332303a207472616e7366657220616d6f756e7420657863656564732062616c616e636553616665436173743a2076616c756520646f65736e27742066697420696e20313238206269747345434453413a20696e76616c6964207369676e6174757265202773272076616c756545434453413a20696e76616c6964207369676e6174757265202776272076616c756545524332303a207472616e7366657220616d6f756e74206578636565647320616c6c6f77616e6365ddf252ad1be2c89b69c2b068fc378daa952ba7f163c4a11628f55a4df523b3ef45524332303a206275726e2066726f6d20746865207a65726f206164647265737345524332303a207472616e736665722066726f6d20746865207a65726f206164647265737345524332303a20617070726f76652066726f6d20746865207a65726f206164647265737345524332303a2064656372656173656420616c6c6f77616e63652062656c6f77207a65726fa164736f6c6343000706000a",
  "linkReferences": {},
  "deployedLinkReferences": {}
}