{
  "abi": [
    {
      "inputs": [
        {
          "internalType": "address",
          "name": "_uniswapFactory",
          "type": "address"
        },
        {
          "internalType": "address",
          "name": "_governance",
          "type": "address"
        },
        {
          "internalType": "address",
          "name": "_uniStrategy",
          "type": "address"
        },
        {
          "internalType": "address",
          "name": "_indexFund",
          "type": "address"
        },
        {
          "internalType": "address",
          "name": "_WETH",
          "type": "address"
        },
        {
          "internalType": "uint8",
          "name": "percentage",
          "type": "uint8"
        }
      ],
      "stateMutability": "nonpayable",
      "type": "constructor"
    },
    {
      "anonymous": false,
      "inputs": [
        {
          "indexed": true,
          "internalType": "address",
          "name": "_oldGovernance",
          "type": "address"
        },
        {
          "indexed": true,
          "internalType": "address",
          "name": "_newGovernance",
          "type": "address"
        }
      ],
      "name": "GovernanceChanged",
      "type": "event"
    },
    {
      "anonymous": false,
      "inputs": [
        {
          "indexed": true,
          "internalType": "address",
          "name": "_tokenA",
          "type": "address"
        },
        {
          "indexed": true,
          "internalType": "address",
          "name": "_tokenB",
          "type": "address"
        },
        {
          "indexed": false,
          "internalType": "uint24",
          "name": "_fee",
          "type": "uint24"
        },
        {
          "indexed": true,
          "internalType": "address",
          "name": "_vault",
          "type": "address"
        }
      ],
      "name": "VaultCreated",
      "type": "event"
    },
    {
      "inputs": [
        {
          "internalType": "address",
          "name": "_tokenA",
          "type": "address"
        },
        {
          "internalType": "address",
          "name": "_tokenB",
          "type": "address"
        },
        {
          "internalType": "uint24",
          "name": "_fee",
          "type": "uint24"
        },
        {
          "internalType": "uint160",
          "name": "_sqrtPriceX96",
          "type": "uint160"
        },
        {
          "internalType": "string",
          "name": "_name",
          "type": "string"
        },
        {
          "internalType": "string",
          "name": "_symbol",
          "type": "string"
        }
      ],
      "name": "createVault",
      "outputs": [
        {
          "internalType": "address",
          "name": "_vault",
          "type": "address"
        },
        {
          "internalType": "address",
          "name": "pool",
          "type": "address"
        }
      ],
      "stateMutability": "nonpayable",
      "type": "function"
    },
    {
      "inputs": [],
      "name": "getUnipilotDetails",
      "outputs": [
        {
          "internalType": "address",
          "name": "",
          "type": "address"
        },
        {
          "internalType": "address",
          "name": "",
          "type": "address"
        },
        {
          "internalType": "address",
          "name": "",
          "type": "address"
        },
        {
          "internalType": "uint8",
          "name": "",
          "type": "uint8"
        }
      ],
      "stateMutability": "view",
      "type": "function"
    },
    {
      "inputs": [
        {
          "internalType": "address",
          "name": "_newGovernance",
          "type": "address"
        }
      ],
      "name": "setGovernance",
      "outputs": [],
      "stateMutability": "nonpayable",
      "type": "function"
    },
    {
      "inputs": [
        {
          "internalType": "address",
          "name": "_strategy",
          "type": "address"
        },
        {
          "internalType": "address",
          "name": "_indexFund",
          "type": "address"
        },
        {
          "internalType": "uint8",
          "name": "_indexFundPercentage",
          "type": "uint8"
        }
      ],
      "name": "setUnipilotDetails",
      "outputs": [],
      "stateMutability": "nonpayable",
      "type": "function"
    },
    {
      "inputs": [
        {
          "internalType": "address",
          "name": "",
          "type": "address"
        },
        {
          "internalType": "address",
          "name": "",
          "type": "address"
        },
        {
          "internalType": "uint24",
          "name": "",
          "type": "uint24"
        }
      ],
      "name": "vaults",
      "outputs": [
        {
          "internalType": "address",
          "name": "",
          "type": "address"
        }
      ],
      "stateMutability": "view",
      "type": "function"
    }
  ],
  "bytecode": {
    "object": "0x608060405234801561001057600080fd5b506040516154c33803806154c3833981810160405260c081101561003357600080fd5b508051602082015160408301516060840151608085015160a090950151600080546001600160a01b039586166001600160a01b03199182161790915560018054948616948216949094179093556004805495851695841695909517909455600280549184169183169190911790556003805460ff909416600160a01b0260ff60a01b19939095169390911692909217169190911790556153eb806100d86000396000f3fe60806040523480156200001157600080fd5b50600436106200005e5760003560e01c8063284c8acd146200006357806338d7728014620000be5780633f1e478b14620000ff578063ab033ea9146200013e578063beb905d41462000167575b600080fd5b620000a2600480360360608110156200007b57600080fd5b5080356001600160a01b03908116916020810135909116906040013562ffffff16620002f7565b604080516001600160a01b039092168252519081900360200190f35b620000c862000323565b604080516001600160a01b0395861681529385166020850152919093168282015260ff909216606082015290519081900360800190f35b6200013c600480360360608110156200011757600080fd5b5080356001600160a01b03908116916020810135909116906040013560ff1662000351565b005b6200013c600480360360208110156200015657600080fd5b50356001600160a01b0316620003f5565b620002c8600480360360c08110156200017f57600080fd5b6001600160a01b038235811692602081013582169262ffffff60408301351692606083013516919081019060a081016080820135640100000000811115620001c657600080fd5b820183602082011115620001d957600080fd5b80359060200191846001830284011164010000000083111715620001fc57600080fd5b91908080601f01602080910402602001604051908101604052809392919081815260200183838082843760009201919091525092959493602081019350359150506401000000008111156200025057600080fd5b8201836020820111156200026357600080fd5b803590602001918460018302840111640100000000831117156200028657600080fd5b91908080601f0160208091040260200160405190810160405280939291908181526020018383808284376000920191909152509295506200047c945050505050565b60405180836001600160a01b03168152602001826001600160a01b031681526020019250505060405180910390f35b60056020908152600093845260408085208252928452828420905282529020546001600160a01b031681565b6000546001546002546003546001600160a01b03938416949284169390911691600160a01b90910460ff1690565b6000546001600160a01b031633146200036957600080fd5b6001600160a01b038316158015906200038a57506001600160a01b03821615155b6200039457600080fd5b60008160ff1611620003a557600080fd5b600180546001600160a01b039485166001600160a01b03199182161790915560028054939094169216919091179091556003805460ff909216600160a01b0260ff60a01b19909216919091179055565b6000546001600160a01b031633146200040d57600080fd5b6001600160a01b0381166200042157600080fd5b600080546040516001600160a01b03808516939216917f3aaaebeb4821d6a7e5c77ece53cff0afcc56c82add2c978dbbb7f73e84cbcfd291a3600080546001600160a01b0319166001600160a01b0392909216919091179055565b600080866001600160a01b0316886001600160a01b031614156200049f57600080fd5b600080886001600160a01b03168a6001600160a01b031610620004c457888a620004c7565b89895b6001600160a01b0380831660009081526005602090815260408083208486168452825280832062ffffff8f16845290915290205492945090925016156200050d57600080fd5b6004805460408051630b4c774160e11b81526001600160a01b0386811694820194909452848416602482015262ffffff8c16604482015290519290911691631698ee8291606480820192602092909190829003018186803b1580156200057257600080fd5b505afa15801562000587573d6000803e3d6000fd5b505050506040513d60208110156200059e57600080fd5b505192506001600160a01b038316620006af57600480546040805163a167129560e01b81526001600160a01b0386811694820194909452848416602482015262ffffff8c1660448201529051929091169163a1671295916064808201926020929091908290030181600087803b1580156200061857600080fd5b505af11580156200062d573d6000803e3d6000fd5b505050506040513d60208110156200064457600080fd5b50516040805163f637731d60e01b81526001600160a01b038a8116600483015291519295509085169163f637731d9160248082019260009290919082900301818387803b1580156200069557600080fd5b505af1158015620006aa573d6000803e3d6000fd5b505050505b89898960405160200180846001600160a01b031660601b8152601401836001600160a01b031660601b81526014018262ffffff1660e81b81526003019350505050604051602081830303815290604052805190602001208330600360009054906101000a90046001600160a01b031689896040516200072e90620009d1565b80866001600160a01b03168152602001856001600160a01b03168152602001846001600160a01b031681526020018060200180602001838103835285818151815260200191508051906020019080838360005b838110156200079b57818101518382015260200162000781565b50505050905090810190601f168015620007c95780820380516001836020036101000a031916815260200191505b50838103825284518152845160209182019186019080838360005b83811015620007fe578181015183820152602001620007e4565b50505050905090810190601f1680156200082c5780820380516001836020036101000a031916815260200191505b509750505050505050508190604051809103906000f590508015801562000857573d6000803e3d6000fd5b5093508360056000846001600160a01b03166001600160a01b031681526020019081526020016000206000836001600160a01b03166001600160a01b0316815260200190815260200160002060008a62ffffff1662ffffff16815260200190815260200160002060006101000a8154816001600160a01b0302191690836001600160a01b031602179055508360056000836001600160a01b03166001600160a01b031681526020019081526020016000206000846001600160a01b03166001600160a01b0316815260200190815260200160002060008a62ffffff1662ffffff16815260200190815260200160002060006101000a8154816001600160a01b0302191690836001600160a01b03160217905550836001600160a01b0316816001600160a01b0316836001600160a01b03167faf0c778584d4b20d9768e68ed24ede73b034bc5747a377a69f1db53ff3933def8b604051808262ffffff16815260200191505060405180910390a45050965096945050505050565b6149d680620009e08339019056fe6101406040527f6e71edae12b1b97f4d1f60370fef10105fa2faae0126114a169c64845d6126c961012052600d805463ff000000191663010000001790553480156200004a57600080fd5b50604051620049d6380380620049d68339810160408190526200006d91620005ca565b8180604051806040016040528060018152602001603160f81b81525084848160039080519060200190620000a392919062000442565b508051620000b990600490602084019062000442565b50506005805460ff1916601217905550815160208084019190912082519183019190912060c082905260e08190527f8b73c3c69bb8fe3d512ecc4cf759cc79239f7b179b0ffacaa9a75d522b39400f62000112620003da565b60a05262000122818484620003de565b608052610100525050600b80546001600160a01b038089166001600160a01b031992831617909255600a80548a8416908316179055600980548b84169216919091179081905560408051630dfe168160e01b81529051919092169450630dfe1681935060048083019350602092829003018186803b158015620001a457600080fd5b505afa158015620001b9573d6000803e3d6000fd5b505050506040513d601f19601f82011682018060405250810190620001df9190620005a6565b600780546001600160a01b0319166001600160a01b039283161790556009546040805163d21220a760e01b81529051919092169163d21220a7916004808301926020929190829003018186803b1580156200023957600080fd5b505afa1580156200024e573d6000803e3d6000fd5b505050506040513d601f19601f82011682018060405250810190620002749190620005a6565b600880546001600160a01b0319166001600160a01b039283161790556009546040805163ddca3f4360e01b81529051919092169163ddca3f43916004808301926020929190829003018186803b158015620002ce57600080fd5b505afa158015620002e3573d6000803e3d6000fd5b505050506040513d601f19601f820116820180604052508101906200030991906200068d565b600d60046101000a81548162ffffff021916908362ffffff160217905550600960009054906101000a90046001600160a01b03166001600160a01b031663d0c93a7c6040518163ffffffff1660e01b815260040160206040518083038186803b1580156200037657600080fd5b505afa1580156200038b573d6000803e3d6000fd5b505050506040513d601f19601f82011682018060405250810190620003b191906200066a565b600d805460029290920b62ffffff1662ffffff1990921691909117905550620006b29350505050565b4690565b6000838383620003ed620003da565b3060405160200180868152602001858152602001848152602001838152602001826001600160a01b03168152602001955050505050506040516020818303038152906040528051906020012090509392505050565b828054600181600116156101000203166002900490600052602060002090601f0160209004810192826200047a5760008555620004c5565b82601f106200049557805160ff1916838001178555620004c5565b82800160010185558215620004c5579182015b82811115620004c5578251825591602001919060010190620004a8565b50620004d3929150620004d7565b5090565b5b80821115620004d35760008155600101620004d8565b80516001600160a01b03811681146200050657600080fd5b919050565b600082601f8301126200051c578081fd5b81516001600160401b03808211156200053157fe5b6040516020601f8401601f19168201810183811183821017156200055157fe5b604052838252858401810187101562000568578485fd5b8492505b838310156200058b57858301810151828401820152918201916200056c565b838311156200059c57848185840101525b5095945050505050565b600060208284031215620005b8578081fd5b620005c382620004ee565b9392505050565b600080600080600060a08688031215620005e2578081fd5b620005ed86620004ee565b9450620005fd60208701620004ee565b93506200060d60408701620004ee565b60608701519093506001600160401b03808211156200062a578283fd5b6200063889838a016200050b565b935060808801519150808211156200064e578283fd5b506200065d888289016200050b565b9150509295509295909350565b6000602082840312156200067c578081fd5b81518060020b8114620005c3578182fd5b6000602082840312156200069f578081fd5b815162ffffff81168114620005c3578182fd5b60805160a05160c05160e05161010051610120516142da620006fc60003980610e14525080611c05525080611c47525080611c26525080611bac525080611bdc52506142da6000f3fe6080604052600436106101435760003560e01c80638dbdbe6d116100b6578063d34879971161006f578063d348799714610393578063d505accf146103b3578063dd62ed3e146103d3578063f8e35be7146103f3578063fa02165614610408578063fa461e331461041d5761014a565b80638dbdbe6d146102d057806395d89b41146102f2578063a457c2d714610307578063a9059cbb14610327578063ac2dc56214610347578063c86962321461036c5761014a565b8063313ce56711610108578063313ce567146102145780633644e51514610236578063395093511461024b57806370a082311461026b5780637ecebe001461028b5780637f98aa71146102ab5761014a565b8062ebf5dd1461014c57806306fdde0314610183578063095ea7b3146101a557806318160ddd146101d257806323b872dd146101f45761014a565b3661014a57005b005b34801561015857600080fd5b5061016c610167366004613ed9565b61043d565b60405161017a92919061405a565b60405180910390f35b34801561018f57600080fd5b506101986107e3565b60405161017a9190614007565b3480156101b157600080fd5b506101c56101c0366004613d9a565b61087a565b60405161017a9190613fa4565b3480156101de57600080fd5b506101e7610898565b60405161017a9190613fd9565b34801561020057600080fd5b506101c561020f366004613cea565b61089e565b34801561022057600080fd5b50610229610926565b60405161017a91906140b2565b34801561024257600080fd5b506101e761092f565b34801561025757600080fd5b506101c5610266366004613d9a565b61093e565b34801561027757600080fd5b506101e7610286366004613c38565b61098c565b34801561029757600080fd5b506101e76102a6366004613c38565b6109ab565b3480156102b757600080fd5b506102c06109cc565b60405161017a9493929190613f5b565b6102e36102de366004613f1a565b6109fc565b60405161017a93929190614068565b3480156102fe57600080fd5b50610198610bb7565b34801561031357600080fd5b506101c5610322366004613d9a565b610c18565b34801561033357600080fd5b506101c5610342366004613d9a565b610c80565b34801561035357600080fd5b5061035c610c94565b60405161017a9493929190613fe2565b34801561037857600080fd5b50610381610cbd565b60405161017a9695949392919061407e565b34801561039f57600080fd5b5061014a6103ae366004613e70565b610d48565b3480156103bf57600080fd5b5061014a6103ce366004613d2a565b610da5565b3480156103df57600080fd5b506101e76103ee366004613c54565b610f5c565b3480156103ff57600080fd5b5061014a610f87565b34801561041457600080fd5b5061014a61101a565b34801561042957600080fd5b5061014a610438366004613e70565b6112b2565b600080600d60039054906101000a900460ff1660ff1660011461045f57600080fd5b600d805463ff00000019169055600061047661131d565b505060095460405163051bb83360e01b81529193506001600160a01b03808516935063051bb833926104ae9290911690600401613f47565b60006040518083038186803b1580156104c657600080fd5b505afa1580156104da573d6000803e3d6000fd5b50505050600086116104eb57600080fd5b60408051608081018252600c54600281810b810b810b835263010000008204810b810b810b6020840152600160301b8204810b810b810b93830193909352600160481b9004820b820b90910b6060820152600954600091829161055b916001600160a01b039091169083906113b7565b909650945050508383019150506001600160801b038116156106075760006105938a670de0b6b3a764000061058e610898565b61144e565b600c5490915060009081906105b790600281810b9163010000009004900b856114fd565b600c54919350915060009081906105e490600160301b8104600290810b91600160481b9004900b876114fd565b90925090506105f38483611557565b9a506105ff8382611557565b995050505050505b600061062761061e88610618611567565b906115e8565b8b61058e610898565b9050600061064361063a886106186115f8565b8c61058e610898565b905061064f8883611557565b975061065b8782611557565b9650871561067d5760075461067d908a908c906001600160a01b03168b611629565b861561069d5760085461069d908a908c906001600160a01b03168a611629565b6106a7338c611668565b896001600160a01b03167f02f25270a4d87bea75db541cdfe559334a275b4a233520ed6c0a2429667cca948c8a8a6040516106e493929190614068565b60405180910390a26001600160801b038316156107bf57600c54600090819061073b90600281810b9163010000009004900b61071e611567565b6107266115f8565b6009546001600160a01b031693929190611764565b600c549193509150600090819061076a90600160301b8104600290810b91600160481b9004900b61071e611567565b90925090507f2fb985eb745b9e89bb1ab82e0f8ceb6bf94d4d60aed7e8196540c50161a5fe9161079a8584611557565b6107a48584611557565b6040516107b292919061405a565b60405180910390a1505050505b5050600d805463ff0000001916630100000017905550939792965091945050505050565b60038054604080516020601f600260001961010060018816150201909516949094049384018190048102820181019092528281526060939092909183018282801561086f5780601f106108445761010080835404028352916020019161086f565b820191906000526020600020905b81548152906001019060200180831161085257829003601f168201915b505050505090505b90565b600061088e6108876118c6565b84846118ca565b5060015b92915050565b60025490565b60006108ab8484846119b6565b61091b846108b76118c6565b610916856040518060600160405280602881526020016141ee602891396001600160a01b038a166000908152600160205260408120906108f56118c6565b6001600160a01b031681526020810191909152604001600020549190611b11565b6118ca565b5060015b9392505050565b60055460ff1690565b6000610939611ba8565b905090565b600061088e61094b6118c6565b84610916856001600061095c6118c6565b6001600160a01b03908116825260208083019390935260409182016000908120918c168152925290205490611c72565b6001600160a01b0381166000908152602081905260409020545b919050565b6001600160a01b038116600090815260066020526040812061089290611ccc565b600754600854600d546009546001600160a01b03938416949284169364010000000090920462ffffff1692911690565b600080600080610a0a6118c6565b90506000610a16610898565b9050610a9960008989610a27611567565b610a2f6115f8565b60408051608081018252600c54600281810b810b810b835263010000008204810b810b810b6020840152600160301b8204810b810b810b93830193909352600160481b9004820b820b90910b60608201526009546001600160a01b03169594939291908890611cd0565b6007549297509095509350610ab9906001600160a01b0316833087611d6c565b600854610ad1906001600160a01b0316833086611d6c565b80610ae757610ae08484611ea9565b5050610b53565b600c546009546000918291610b18916001600160a01b0390911690600281810b9163010000009004900b8989611764565b600c549193509150610b4e90600160301b8104600290810b91600160481b9004900b610b4489866115e8565b61072689866115e8565b505050505b610b5d8686612141565b856001600160a01b0316826001600160a01b03167f4e2ca0515ed1aef1395f66b5303bb5d6f1bf9d61a353fa53f73f8ac9973fa9f6868689604051610ba493929190614068565b60405180910390a3505093509350939050565b60048054604080516020601f600260001961010060018816150201909516949094049384018190048102820181019092528281526060939092909183018282801561086f5780601f106108445761010080835404028352916020019161086f565b600061088e610c256118c6565b84610916856040518060600160405280602581526020016142806025913960016000610c4f6118c6565b6001600160a01b03908116825260208083019390935260409182016000908120918d16815292529020549190611b11565b600061088e610c8d6118c6565b84846119b6565b600c54600281810b9163010000008104820b91600160301b8204810b91600160481b9004900b84565b60408051608081018252600c54600281810b810b810b835263010000008204810b810b810b6020840152600160301b8204810b810b810b93830193909352600160481b9004820b820b90910b606082015260095460009182918291829182918291610d35916001600160a01b039091169083906113b7565b949b939a50919850965094509092509050565b610d50612231565b336000610d5f83850185613c38565b90508515610d7f57600754610d7f906001600160a01b0316828489611d6c565b8415610d9d57600854610d9d906001600160a01b0316828488611d6c565b505050505050565b83421115610dfa576040805162461bcd60e51b815260206004820152601d60248201527f45524332305065726d69743a206578706972656420646561646c696e65000000604482015290519081900360640190fd5b6001600160a01b03871660009081526006602052604081207f000000000000000000000000000000000000000000000000000000000000000090899089908990610e4390611ccc565b8960405160200180878152602001866001600160a01b03168152602001856001600160a01b0316815260200184815260200183815260200182815260200196505050505050506040516020818303038152906040528051906020012090506000610eac8261224a565b90506000610ebc82878787612296565b9050896001600160a01b0316816001600160a01b031614610f24576040805162461bcd60e51b815260206004820152601e60248201527f45524332305065726d69743a20696e76616c6964207369676e61747572650000604482015290519081900360640190fd5b6001600160a01b038a166000908152600660205260409020610f4590612414565b610f508a8a8a6118ca565b50505050505050505050565b6001600160a01b03918216600090815260016020908152604080832093909416825291909152205490565b6000610f9161131d565b5050509050806001600160a01b0316336001600160a01b031614610fb457600080fd5b600c54600954610fdf916001600160a01b0390911690600281810b9163010000009004900b3061241d565b5050600c5460095461101393506001600160a01b03169150600160301b8104600290810b91600160481b9004900b3061241d565b5050505050565b600d546301000000900460ff1660011461103357600080fd5b600d805463ff00000019169055600061104a61131d565b505060095460405163051bb83360e01b81529193506001600160a01b03808516935063051bb833926110829290911690600401613f47565b60006040518083038186803b15801561109a57600080fd5b505afa1580156110ae573d6000803e3d6000fd5b505060408051608081018252600c54600281810b810b810b835263010000008204810b810b810b6020840152600160301b8204810b810b810b93830193909352600160481b9004820b820b90910b606082015260095460009350839250611122916001600160a01b039091169083906113b7565b90965094505050838301915060009050806001600160801b0383161561127757600c54600954600091829182918291611176916001600160a01b0390911690600281810b9163010000009004900b3061241d565b600c5460095494985092965090945092506000918291829182916111ba916001600160a01b031690600160301b8104600290810b91600160481b9004900b3061241d565b929650909450925090506000806111d18885611557565b6111db8885611557565b915091506111eb600183836125d1565b6111f58a87611557565b9b506112018986611557565b9a508b158061120e57508a155b1561126c576000808d11611223576000611226565b60015b90506000816112415761123c8d6032606461144e565b61124e565b61124e8e6032606461144e565b600954909150611269906001600160a01b0316308484612772565b50505b505050505050505050505b61127f611567565b91506112896115f8565b90506112958282611ea9565b5050600d805463ff00000019166301000000179055505050505050565b6112ba612231565b60008413806112c95750600083135b6112d257600080fd5b60006112e082840184613dc5565b9050801561130557600754611300906001600160a01b0316303388611d6c565b611013565b600854611013906001600160a01b0316303387611d6c565b600080600080600a60009054906101000a90046001600160a01b03166001600160a01b03166338d772806040518163ffffffff1660e01b815260040160806040518083038186803b15801561137157600080fd5b505afa158015611385573d6000803e3d6000fd5b505050506040513d601f19601f820116820180604052508101906113a99190613c8c565b935093509350935090919293565b6000806000806000806113d389886000015189602001516128ee565b939950919750955093509150876114425760008060008060006113ff8e8d604001518e606001516128ee565b9398509196509450925090506114158b86611557565b9a506114218a85611557565b995061142d8984611557565b98506114398883611557565b97509450505050505b93975093979195509350565b6000808060001985870986860292508281109083900303905080611484576000841161147957600080fd5b50829004905061091f565b80841161149057600080fd5b6000848688096000868103871696879004966002600389028118808a02820302808a02820302808a02820302808a02820302808a02820302808a02909103029181900381900460010186841190950394909402919094039290920491909117919091029150509392505050565b600954600090819061151b906001600160a01b031686868630612933565b6009549193509150600090819061153d906001600160a01b0316308989612b00565b9150915061154d600083836125d1565b5050935093915050565b8082018281101561089257600080fd5b6007546040516370a0823160e01b81526000916001600160a01b0316906370a0823190611598903090600401613f47565b60206040518083038186803b1580156115b057600080fd5b505afa1580156115c4573d6000803e3d6000fd5b505050506040513d601f19601f820116820180604052508101906109399190613ec1565b8082038281111561089257600080fd5b6008546040516370a0823160e01b81526000916001600160a01b0316906370a0823190611598903090600401613f47565b8380156116435750600b546001600160a01b038381169116145b15611657576116528184612bc7565b611662565b611662828483612c37565b50505050565b6001600160a01b0382166116ad5760405162461bcd60e51b81526004018080602001828103825260218152602001806142166021913960400191505060405180910390fd5b6116b982600083612d7e565b6116f681604051806060016040528060228152602001614119602291396001600160a01b0385166000908152602081905260409020549190611b11565b6001600160a01b03831660009081526020819052604090205560025461171c9082612d83565b6002556040805182815290516000916001600160a01b038516917fddf252ad1be2c89b69c2b068fc378daa952ba7f163c4a11628f55a4df523b3ef9181900360200190a35050565b6000808061177e6001600160a01b03891686868a8a612de0565b90506001600160801b038116156118bb576040805130602080830182905283518084038201815283850194859052633c8a7d8d60e01b9094526044830182815260028c810b60648601528b900b60848501526001600160801b03861660a485015260a060c48501908152855160e486015285516001600160a01b038f1696633c8a7d8d968f958f958b959394909392610104019185019080838360005b8381101561183357818101518382015260200161181b565b50505050905090810190601f1680156118605780820380516001836020036101000a031916815260200191505b5096505050505050506040805180830381600087803b15801561188257600080fd5b505af1158015611896573d6000803e3d6000fd5b505050506040513d60408110156118ac57600080fd5b50805160209091015190935091505b509550959350505050565b3390565b6001600160a01b03831661190f5760405162461bcd60e51b815260040180806020018281038252602481526020018061425c6024913960400191505060405180910390fd5b6001600160a01b0382166119545760405162461bcd60e51b815260040180806020018281038252602281526020018061413b6022913960400191505060405180910390fd5b6001600160a01b03808416600081815260016020908152604080832094871680845294825291829020859055815185815291517f8c5be1e5ebec7d5bd14f71427d1e84f3dd0314c0f7b2291e5b200ac8c7c3b9259281900390910190a3505050565b6001600160a01b0383166119fb5760405162461bcd60e51b81526004018080602001828103825260258152602001806142376025913960400191505060405180910390fd5b6001600160a01b038216611a405760405162461bcd60e51b81526004018080602001828103825260238152602001806140f66023913960400191505060405180910390fd5b611a4b838383612d7e565b611a888160405180606001604052806026815260200161415d602691396001600160a01b0386166000908152602081905260409020549190611b11565b6001600160a01b038085166000908152602081905260408082209390935590841681522054611ab79082611c72565b6001600160a01b038084166000818152602081815260409182902094909455805185815290519193928716927fddf252ad1be2c89b69c2b068fc378daa952ba7f163c4a11628f55a4df523b3ef92918290030190a3505050565b60008184841115611ba05760405162461bcd60e51b81526004018080602001828103825283818151815260200191508051906020019080838360005b83811015611b65578181015183820152602001611b4d565b50505050905090810190601f168015611b925780820380516001836020036101000a031916815260200191505b509250505060405180910390fd5b505050900390565b60007f0000000000000000000000000000000000000000000000000000000000000000611bd3612e72565b1415611c0057507f0000000000000000000000000000000000000000000000000000000000000000610877565b611c6b7f00000000000000000000000000000000000000000000000000000000000000007f00000000000000000000000000000000000000000000000000000000000000007f0000000000000000000000000000000000000000000000000000000000000000612e76565b9050610877565b60008282018381101561091f576040805162461bcd60e51b815260206004820152601b60248201527f536166654d6174683a206164646974696f6e206f766572666c6f770000000000604482015290519081900360640190fd5b5490565b6000806000806000806000611ce68f8f8a6113b7565b505093509350935093506000611d0f8c611d09858861155790919063ffffffff16565b90611557565b90506000611d218c611d098786611557565b90508a1580611d2f57508115155b80611d3957508015155b611d3f57fe5b611d4c8f8f84848f612ed8565b809950819a50829b50505050505050505050985098509895505050505050565b600b546001600160a01b038581169116148015611d895750804710155b15611e8157600b60009054906101000a90046001600160a01b03166001600160a01b031663d0e30db0826040518263ffffffff1660e01b81526004016000604051808303818588803b158015611dde57600080fd5b505af1158015611df2573d6000803e3d6000fd5b5050600b5460405163a9059cbb60e01b81526001600160a01b03909116935063a9059cbb9250611e29915085908590600401613f8b565b602060405180830381600087803b158015611e4357600080fd5b505af1158015611e57573d6000803e3d6000fd5b505050506040513d601f19601f82011682018060405250810190611e7b9190613de1565b50611662565b6001600160a01b038316301415611e9d57611652848383612c37565b61166284848484612f6c565b600080611eb4613baa565b600954611ec9906001600160a01b03166130bc565b600290810b810b60a088015290810b810b608087015290810b810b606086015290810b810b604085015290810b810b6020840181905291810b900b808352600954611f22926001600160a01b0390911691908888611764565b8251600c8054602086015162ffffff19909116600293840b62ffffff9081169190911765ffffff000000191663010000009290940b160291909117905590935091506000611f7086856115e8565b90506000611f7e86856115e8565b9050600080831180611f905750600082115b156120cf5760408401516060850151600954600092611fbe926001600160a01b039092169187918791612de0565b608086015160a0870151600954929350600092611fea926001600160a01b039091169188918891612de0565b9050816001600160801b0316816001600160801b0316101561205f576040860151600c80546060890151600290810b62ffffff908116600160481b0262ffffff60481b199590920b16600160301b0268ffffff00000000000019909216919091179290921691909117905590915081906120cc565b806001600160801b0316826001600160801b031610156120cc576080860151600c805460a0890151600290810b62ffffff908116600160481b0262ffffff60481b199590920b16600160301b0268ffffff0000000000001990921691909117929092169190911790559150815b50505b6001600160801b0381161561213657600c546009546000918291612116916001600160a01b0390911690600160301b8104600290810b91600160481b9004900b8888611764565b90925090506121258883611557565b97506121318782611557565b965050505b505050509250929050565b6001600160a01b03821661219c576040805162461bcd60e51b815260206004820152601f60248201527f45524332303a206d696e7420746f20746865207a65726f206164647265737300604482015290519081900360640190fd5b6121a860008383612d7e565b6002546121b59082611c72565b6002556001600160a01b0382166000908152602081905260409020546121db9082611c72565b6001600160a01b0383166000818152602081815260408083209490945583518581529351929391927fddf252ad1be2c89b69c2b068fc378daa952ba7f163c4a11628f55a4df523b3ef9281900390910190a35050565b6009546001600160a01b0316331461224857600080fd5b565b6000612254611ba8565b82604051602001808061190160f01b81525060020183815260200182815260200192505050604051602081830303815290604052805190602001209050919050565b60007f7fffffffffffffffffffffffffffffff5d576e7357a4501ddfe92f46681b20a08211156122f75760405162461bcd60e51b81526004018080602001828103825260228152602001806141aa6022913960400191505060405180910390fd5b8360ff16601b148061230c57508360ff16601c145b6123475760405162461bcd60e51b81526004018080602001828103825260228152602001806141cc6022913960400191505060405180910390fd5b600060018686868660405160008152602001604052604051808581526020018460ff1681526020018381526020018281526020019450505050506020604051602081039080840390855afa1580156123a3573d6000803e3d6000fd5b5050604051601f1901519150506001600160a01b03811661240b576040805162461bcd60e51b815260206004820152601860248201527f45434453413a20696e76616c6964207369676e61747572650000000000000000604482015290519081900360640190fd5b95945050505050565b80546001019055565b6000808080806124376001600160a01b038a168989613168565b50909150506001600160801b038116156125c5576040805163a34123a760e01b815260028a810b600483015289900b60248201526001600160801b038316604482015281516001600160a01b038c169263a34123a792606480820193918290030181600087803b1580156124aa57600080fd5b505af11580156124be573d6000803e3d6000fd5b505050506040513d60408110156124d457600080fd5b5080516020909101519095509350841515806124f05750600084115b156125c557604080516309e3d67b60e31b81526001600160a01b03888116600483015260028b810b60248401528a900b60448301526001600160801b0360648301819052608483015282516000938493928e1692634f1eb3d89260a4808301939282900301818787803b15801561256657600080fd5b505af115801561257a573d6000803e3d6000fd5b505050506040513d604081101561259057600080fd5b5080516020909101516001600160801b0391821693501690506125b382886115e8565b6125bd82886115e8565b909550935050505b50945094509450949050565b6000806125dc61131d565b935093505050600084111561267d576007546001600160a01b031663a9059cbb8361260c8760ff8616606461144e565b6040518363ffffffff1660e01b8152600401612629929190613f8b565b602060405180830381600087803b15801561264357600080fd5b505af1158015612657573d6000803e3d6000fd5b505050506040513d601f19601f8201168201806040525081019061267b9190613de1565b505b8215612715576008546001600160a01b031663a9059cbb836126a48660ff8616606461144e565b6040518363ffffffff1660e01b81526004016126c1929190613f8b565b602060405180830381600087803b1580156126db57600080fd5b505af11580156126ef573d6000803e3d6000fd5b505050506040513d601f19601f820116820180604052508101906127139190613de1565b505b7fbcc978db31dd08dc8adfad2608e266d446816cb7816fb50a1bd7e34699bbcf11858585612741611567565b6127496115f8565b612751610898565b60405161276396959493929190613faf565b60405180910390a15050505050565b6000612786856001600160a01b0316613206565b505090506000620f42408261c350026001600160a01b0316816127a557fe5b0490506000846127b7578183016127bb565b8183035b9050866001600160a01b031663128acb08878787858a6040516020018082151581526020019150506040516020818303038152906040526040518663ffffffff1660e01b815260040180866001600160a01b031681526020018515158152602001848152602001836001600160a01b0316815260200180602001828103825283818151815260200191508051906020019080838360005b8381101561286a578181015183820152602001612852565b50505050905090810190601f1680156128975780820380516001836020036101000a031916815260200191505b5096505050505050506040805180830381600087803b1580156128b957600080fd5b505af11580156128cd573d6000803e3d6000fd5b505050506040513d60408110156128e357600080fd5b505050505050505050565b6000806000806000612901888888613288565b90506001600160801b038116156129285761291d888888613341565b929750909550935091505b939792965093509350565b6000808061294b6001600160a01b0389168888613168565b50509050600061296d826001600160801b031687670de0b6b3a764000061144e565b9050886001600160a01b031663a34123a789896129898561338d565b6040518463ffffffff1660e01b8152600401808460020b81526020018360020b8152602001826001600160801b0316815260200193505050506040805180830381600087803b1580156129db57600080fd5b505af11580156129ef573d6000803e3d6000fd5b505050506040513d6040811015612a0557600080fd5b508051602090910151909450925083151580612a215750600083115b15612af457886001600160a01b0316634f1eb3d8868a8a612a418961338d565b612a4a8961338d565b6040518663ffffffff1660e01b815260040180866001600160a01b031681526020018560020b81526020018460020b8152602001836001600160801b03168152602001826001600160801b03168152602001955050505050506040805180830381600087803b158015612abc57600080fd5b505af1158015612ad0573d6000803e3d6000fd5b505050506040513d6040811015612ae657600080fd5b50516001600160801b031693505b50509550959350505050565b600080612b0e868585613288565b50604080516309e3d67b60e31b81526001600160a01b038781166004830152600287810b602484015286900b60448301526001600160801b03606483018190526084830152825190891692634f1eb3d89260a480820193918290030181600087803b158015612b7c57600080fd5b505af1158015612b90573d6000803e3d6000fd5b505050506040513d6040811015612ba657600080fd5b5080516020909101516001600160801b039182169891169650945050505050565b600b54604051632e1a7d4d60e01b81526001600160a01b0390911690632e1a7d4d90612bf7908590600401613fd9565b600060405180830381600087803b158015612c1157600080fd5b505af1158015612c25573d6000803e3d6000fd5b50505050612c3381836133d5565b5050565b604080516001600160a01b038481166024830152604480830185905283518084039091018152606490920183526020820180516001600160e01b031663a9059cbb60e01b1781529251825160009485949389169392918291908083835b60208310612cb35780518252601f199092019160209182019101612c94565b6001836020036101000a0380198251168184511680821785525050505050509050019150506000604051808303816000865af19150503d8060008114612d15576040519150601f19603f3d011682016040523d82523d6000602084013e612d1a565b606091505b5091509150818015612d48575080511580612d485750808060200190516020811015612d4557600080fd5b50515b611013576040805162461bcd60e51b815260206004820152600260248201526114d560f21b604482015290519081900360640190fd5b505050565b600082821115612dda576040805162461bcd60e51b815260206004820152601e60248201527f536166654d6174683a207375627472616374696f6e206f766572666c6f770000604482015290519081900360640190fd5b50900390565b600080866001600160a01b0316633850c7bd6040518163ffffffff1660e01b815260040160e06040518083038186803b158015612e1c57600080fd5b505afa158015612e30573d6000803e3d6000fd5b505050506040513d60e0811015612e4657600080fd5b50519050612e6781612e57866134c4565b612e60866134c4565b89896137f6565b979650505050505050565b4690565b6000838383612e83612e72565b3060405160200180868152602001858152602001848152602001838152602001826001600160a01b03168152602001955050505050506040516020818303038152906040528051906020012090509392505050565b6000808083612efc575086905085808211612ef35780612ef5565b815b9250612f61565b85612f0e575085612ef581858761144e565b84612f2157879150612ef582858861144e565b612f2c87878761144e565b915087821015612f43575085612ef581858761144e565b879150612f5182868861144e565b9050612f5e82858861144e565b92505b955095509592505050565b604080516001600160a01b0385811660248301528481166044830152606480830185905283518084039091018152608490920183526020820180516001600160e01b03166323b872dd60e01b178152925182516000948594938a169392918291908083835b60208310612ff05780518252601f199092019160209182019101612fd1565b6001836020036101000a0380198251168184511680821785525050505050509050019150506000604051808303816000865af19150503d8060008114613052576040519150601f19603f3d011682016040523d82523d6000602084013e613057565b606091505b5091509150818015613085575080511580613085575080806020019051602081101561308257600080fd5b50515b610d9d576040805162461bcd60e51b815260206004820152600360248201526229aa2360e91b604482015290519081900360640190fd5b60008060008060008060006130cf61131d565b505060405163802036f560e01b81529092506001600160a01b038316915063802036f590613101908b90600401613f47565b60c060405180830381600087803b15801561311b57600080fd5b505af115801561312f573d6000803e3d6000fd5b505050506040513d601f19601f820116820180604052508101906131539190613dfd565b949d939c50919a509850965090945092505050565b6000806000806131793087876138b8565b9050866001600160a01b031663514ea4bf826040518263ffffffff1660e01b81526004018082815260200191505060a06040518083038186803b1580156131bf57600080fd5b505afa1580156131d3573d6000803e3d6000fd5b505050506040513d60a08110156131e957600080fd5b508051606082015160809092015190999198509650945050505050565b6000806000836001600160a01b0316633850c7bd6040518163ffffffff1660e01b815260040160e06040518083038186803b15801561324457600080fd5b505afa158015613258573d6000803e3d6000fd5b505050506040513d60e081101561326e57600080fd5b508051602082015160609092015190969195509350915050565b600061329e6001600160a01b0385168484613168565b50909150506001600160801b0381161561091f57836001600160a01b031663a34123a7848460006040518463ffffffff1660e01b8152600401808460020b81526020018360020b815260200182815260200193505050506040805180830381600087803b15801561330e57600080fd5b505af1158015613322573d6000803e3d6000fd5b505050506040513d604081101561333857600080fd5b50509392505050565b60008060008060008060006133578a8a8a613168565b92509250925060008061336c8c868d8d61390e565b9099509750506001600160801b039283169550501691505093509350935093565b6000600160801b82106133d15760405162461bcd60e51b81526004018080602001828103825260278152602001806141836027913960400191505060405180910390fd5b5090565b604080516000808252602082019092526001600160a01b0384169083906040518082805190602001908083835b602083106134215780518252601f199092019160209182019101613402565b6001836020036101000a03801982511681845116808217855250505050505090500191505060006040518083038185875af1925050503d8060008114613483576040519150601f19603f3d011682016040523d82523d6000602084013e613488565b606091505b5050905080612d7e576040805162461bcd60e51b815260206004820152600360248201526253544560e81b604482015290519081900360640190fd5b60008060008360020b126134db578260020b6134e3565b8260020b6000035b9050620d89e8811115613521576040805162461bcd60e51b81526020600482015260016024820152601560fa1b604482015290519081900360640190fd5b60006001821661353557600160801b613547565b6ffffcb933bd6fad37aa2d162d1a5940015b70ffffffffffffffffffffffffffffffffff169050600282161561357b576ffff97272373d413259a46990580e213a0260801c5b600482161561359a576ffff2e50f5f656932ef12357cf3c7fdcc0260801c5b60088216156135b9576fffe5caca7e10e4e61c3624eaa0941cd00260801c5b60108216156135d8576fffcb9843d60f6159c9db58835c9266440260801c5b60208216156135f7576fff973b41fa98c081472e6896dfb254c00260801c5b6040821615613616576fff2ea16466c96a3843ec78b326b528610260801c5b6080821615613635576ffe5dee046a99a2a811c461f1969c30530260801c5b610100821615613655576ffcbe86c7900a88aedcffc83b479aa3a40260801c5b610200821615613675576ff987a7253ac413176f2b074cf7815e540260801c5b610400821615613695576ff3392b0822b70005940c7a398e4b70f30260801c5b6108008216156136b5576fe7159475a2c29b7443b29c7fa6e889d90260801c5b6110008216156136d5576fd097f3bdfd2022b8845ad8f792aa58250260801c5b6120008216156136f5576fa9f746462d870fdf8a65dc1f90e061e50260801c5b614000821615613715576f70d869a156d2a1b890bb3df62baf32f70260801c5b618000821615613735576f31be135f97d08fd981231505542fcfa60260801c5b62010000821615613756576f09aa508b5b7a84e1c677de54f3e99bc90260801c5b62020000821615613776576e5d6af8dedb81196699c329225ee6040260801c5b62040000821615613795576d2216e584f5fa1ea926041bedfe980260801c5b620800008216156137b2576b048a170391f7dc42444e8fa20260801c5b60008460020b13156137cd5780600019816137c957fe5b0490505b6401000000008106156137e15760016137e4565b60005b60ff16602082901c0192505050919050565b6000836001600160a01b0316856001600160a01b03161115613816579293925b846001600160a01b0316866001600160a01b0316116138415761383a8585856139a5565b905061240b565b836001600160a01b0316866001600160a01b031610156138a35760006138688786866139a5565b90506000613877878986613a08565b9050806001600160801b0316826001600160801b031610613898578061389a565b815b9250505061240b565b6138ae858584613a08565b9695505050505050565b6040805160609490941b6bffffffffffffffffffffffff1916602080860191909152600293840b60e890811b60348701529290930b90911b60378401528051808403601a018152603a9093019052815191012090565b6000806000866001600160a01b0316633850c7bd6040518163ffffffff1660e01b815260040160e06040518083038186803b15801561394c57600080fd5b505afa158015613960573d6000803e3d6000fd5b505050506040513d60e081101561397657600080fd5b5051905061399681613987876134c4565b613990876134c4565b89613a4d565b92509250505b94509492505050565b6000826001600160a01b0316846001600160a01b031611156139c5579192915b60006139e8856001600160a01b0316856001600160a01b0316600160601b61144e565b905061240b613a0384838888036001600160a01b031661144e565b613ae8565b6000826001600160a01b0316846001600160a01b03161115613a28579192915b613a45613a0383600160601b8787036001600160a01b031661144e565b949350505050565b600080836001600160a01b0316856001600160a01b03161115613a6e579293925b846001600160a01b0316866001600160a01b031611613a9957613a92858585613afe565b915061399c565b836001600160a01b0316866001600160a01b03161015613ad257613abe868585613afe565b9150613acb858785613b67565b905061399c565b613add858585613b67565b905094509492505050565b806001600160801b03811681146109a657600080fd5b6000826001600160a01b0316846001600160a01b03161115613b1e579192915b836001600160a01b0316613b57606060ff16846001600160801b0316901b8686036001600160a01b0316866001600160a01b031661144e565b81613b5e57fe5b04949350505050565b6000826001600160a01b0316846001600160a01b03161115613b87579192915b613a45826001600160801b03168585036001600160a01b0316600160601b61144e565b6040805160c081018252600080825260208201819052918101829052606081018290526080810182905260a081019190915290565b60008083601f840112613bf0578182fd5b50813567ffffffffffffffff811115613c07578182fd5b602083019150836020828501011115613c1f57600080fd5b9250929050565b8051600281900b81146109a657600080fd5b600060208284031215613c49578081fd5b813561091f816140c0565b60008060408385031215613c66578081fd5b8235613c71816140c0565b91506020830135613c81816140c0565b809150509250929050565b60008060008060808587031215613ca1578182fd5b8451613cac816140c0565b6020860151909450613cbd816140c0565b6040860151909350613cce816140c0565b6060860151909250613cdf816140e6565b939692955090935050565b600080600060608486031215613cfe578283fd5b8335613d09816140c0565b92506020840135613d19816140c0565b929592945050506040919091013590565b600080600080600080600060e0888a031215613d44578283fd5b8735613d4f816140c0565b96506020880135613d5f816140c0565b955060408801359450606088013593506080880135613d7d816140e6565b9699959850939692959460a0840135945060c09093013592915050565b60008060408385031215613dac578182fd5b8235613db7816140c0565b946020939093013593505050565b600060208284031215613dd6578081fd5b813561091f816140d8565b600060208284031215613df2578081fd5b815161091f816140d8565b60008060008060008060c08789031215613e15578182fd5b613e1e87613c26565b9550613e2c60208801613c26565b9450613e3a60408801613c26565b9350613e4860608801613c26565b9250613e5660808801613c26565b9150613e6460a08801613c26565b90509295509295509295565b60008060008060608587031215613e85578182fd5b8435935060208501359250604085013567ffffffffffffffff811115613ea9578283fd5b613eb587828801613bdf565b95989497509550505050565b600060208284031215613ed2578081fd5b5051919050565b600080600060608486031215613eed578081fd5b833592506020840135613eff816140c0565b91506040840135613f0f816140d8565b809150509250925092565b600080600060608486031215613f2e578081fd5b83359250602084013591506040840135613f0f816140c0565b6001600160a01b0391909116815260200190565b6001600160a01b039485168152928416602084015262ffffff919091166040830152909116606082015260800190565b6001600160a01b03929092168252602082015260400190565b901515815260200190565b9515158652602086019490945260408501929092526060840152608083015260a082015260c00190565b90815260200190565b600294850b815292840b602084015290830b604083015290910b606082015260800190565b6000602080835283518082850152825b8181101561403357858101830151858201604001528201614017565b818111156140445783604083870101525b50601f01601f1916929092016040019392505050565b918252602082015260400190565b9283526020830191909152604082015260600190565b9586526020860194909452604085019290925260608401526001600160801b0390811660808401521660a082015260c00190565b60ff91909116815260200190565b6001600160a01b03811681146140d557600080fd5b50565b80151581146140d557600080fd5b60ff811681146140d557600080fdfe45524332303a207472616e7366657220746f20746865207a65726f206164647265737345524332303a206275726e20616d6f756e7420657863656564732062616c616e636545524332303a20617070726f766520746f20746865207a65726f206164647265737345524332303a207472616e7366657220616d6f756e7420657863656564732062616c616e636553616665436173743a2076616c756520646f65736e27742066697420696e20313238206269747345434453413a20696e76616c6964207369676e6174757265202773272076616c756545434453413a20696e76616c6964207369676e6174757265202776272076616c756545524332303a207472616e7366657220616d6f756e74206578636565647320616c6c6f77616e636545524332303a206275726e2066726f6d20746865207a65726f206164647265737345524332303a207472616e736665722066726f6d20746865207a65726f206164647265737345524332303a20617070726f76652066726f6d20746865207a65726f206164647265737345524332303a2064656372656173656420616c6c6f77616e63652062656c6f77207a65726fa264697066735822122097749bbadd13013a9dfc3ba8e995c451fd45eb572d9d204c4f83a59d3f76718d64736f6c63430007060033a264697066735822122050f3992013fd4f9aa56435796d1d572e6a69f4c270e7e7289e3515558cf5973a64736f6c63430007060033",
    "linkReferences": {}
  }
}