{
  "abi": [
    {
      "inputs": [
        {
          "internalType": "string",
          "name": "what",
          "type": "string"
        }
      ],
      "name": "deployCode",
      "outputs": [
        {
          "internalType": "address",
          "name": "addr",
          "type": "address"
        }
      ],
      "stateMutability": "nonpayable",
      "type": "function"
    },
    {
      "inputs": [],
      "name": "vm",
      "outputs": [
        {
          "internalType": "contract Vm",
          "name": "",
          "type": "address"
        }
      ],
      "stateMutability": "view",
      "type": "function"
    }
  ],
  "bytecode": {
    "object": "0x608060405234801561001057600080fd5b50610313806100206000396000f3fe608060405234801561001057600080fd5b50600436106100365760003560e01c80633a7684631461003b5780639a8325a014610059575b600080fd5b61004361006c565b6040516100509190610220565b60405180910390f35b6100436100673660046101ac565b610090565b7f885cb69240a935d632d79c317109709ecfa91a80626ff3989d68f67f5b1dd12d81565b604051638d1cc92560e01b81526000908190737109709ecfa91a80626ff3989d68f67f5b1dd12d90638d1cc925906100cc908690600401610234565b600060405180830381600087803b1580156100e657600080fd5b505af11580156100fa573d6000803e3d6000fd5b505050506040513d6000823e601f3d908101601f191682016040526101229190810190610134565b90508051602082016000f09392505050565b600060208284031215610145578081fd5b815167ffffffffffffffff81111561015b578182fd5b8201601f8101841361016b578182fd5b805161017e6101798261028b565b610267565b818152856020838501011115610192578384fd5b6101a38260208301602086016102ad565b95945050505050565b6000602082840312156101bd578081fd5b813567ffffffffffffffff8111156101d3578182fd5b8201601f810184136101e3578182fd5b80356101f16101798261028b565b818152856020838501011115610205578384fd5b81602084016020830137908101602001929092525092915050565b6001600160a01b0391909116815260200190565b60006020825282518060208401526102538160408501602087016102ad565b601f01601f19169190910160400192915050565b60405181810167ffffffffffffffff8111828210171561028357fe5b604052919050565b600067ffffffffffffffff82111561029f57fe5b50601f01601f191660200190565b60005b838110156102c85781810151838201526020016102b0565b838111156102d7576000848401525b5050505056fea26469706673582212202874d9e7c00f0a7d554c3c4a8afbc96e0ca5c4e14959647e496acc06caa091b064736f6c63430007060033",
    "linkReferences": {}
  }
}