{
  "abi": [
    {
      "inputs": [
        {
          "internalType": "string",
          "name": "what",
          "type": "string"
        }
      ],
      "name": "deployCode",
      "outputs": [
        {
          "internalType": "address",
          "name": "addr",
          "type": "address"
        }
      ],
      "stateMutability": "nonpayable",
      "type": "function"
    },
    {
      "inputs": [
        {
          "internalType": "address",
          "name": "recipient",
          "type": "address"
        },
        {
          "internalType": "address",
          "name": "_pool",
          "type": "address"
        },
        {
          "internalType": "uint128",
          "name": "amount",
          "type": "uint128"
        },
        {
          "internalType": "address",
          "name": "payer",
          "type": "address"
        }
      ],
      "name": "mintToV3",
      "outputs": [],
      "stateMutability": "nonpayable",
      "type": "function"
    },
    {
      "inputs": [],
      "name": "setUp",
      "outputs": [],
      "stateMutability": "nonpayable",
      "type": "function"
    },
    {
      "inputs": [
        {
          "internalType": "address",
          "name": "_token0",
          "type": "address"
        },
        {
          "internalType": "address",
          "name": "_token1",
          "type": "address"
        },
        {
          "internalType": "uint256",
          "name": "_amountIn",
          "type": "uint256"
        },
        {
          "internalType": "uint24",
          "name": "_fee",
          "type": "uint24"
        }
      ],
      "name": "swapFunction",
      "outputs": [],
      "stateMutability": "nonpayable",
      "type": "function"
    },
    {
      "inputs": [],
      "name": "td",
      "outputs": [
        {
          "internalType": "int24",
          "name": "baseTickLower",
          "type": "int24"
        },
        {
          "internalType": "int24",
          "name": "baseTickUpper",
          "type": "int24"
        },
        {
          "internalType": "int24",
          "name": "rangeTickLower",
          "type": "int24"
        },
        {
          "internalType": "int24",
          "name": "rangeTickUpper",
          "type": "int24"
        }
      ],
      "stateMutability": "view",
      "type": "function"
    },
    {
      "inputs": [],
      "name": "vm",
      "outputs": [
        {
          "internalType": "contract Vm",
          "name": "",
          "type": "address"
        }
      ],
      "stateMutability": "view",
      "type": "function"
    }
  ],
  "bytecode": {
    "object": "0x60806040819052600c80546001600160a01b031990811673c02aaa39b223fe8d0a0e5c4f27ead9083c756cc217909155600d8054909116731f98431c8ad98523631ae4a59f267346ea31f9841790556001625e79b760e01b031990526000805160206200aa9a83398151915263ffa186496200007e6001608462000755565b602060405180830381600087803b1580156200009957600080fd5b505af1158015620000ae573d6000803e3d6000fd5b505050506040513d601f19601f82011682018060405250810190620000d4919062000725565b600e80546001600160a01b0319166001600160a01b03929092169190911790556040516001625e79b760e01b031981526000805160206200aa9a8339815191529063ffa18649906200012c9060029060040162000755565b602060405180830381600087803b1580156200014757600080fd5b505af11580156200015c573d6000803e3d6000fd5b505050506040513d601f19601f8201168201806040525081019062000182919062000725565b600f80546001600160a01b0319166001600160a01b03929092169190911790556040516001625e79b760e01b031981526000805160206200aa9a8339815191529063ffa1864990620001da9060039060040162000755565b602060405180830381600087803b158015620001f557600080fd5b505af11580156200020a573d6000803e3d6000fd5b505050506040513d601f19601f8201168201806040525081019062000230919062000725565b601080546001600160a01b0319166001600160a01b03929092169190911790556040516001625e79b760e01b031981526000805160206200aa9a8339815191529063ffa18649906200028790600490810162000755565b602060405180830381600087803b158015620002a257600080fd5b505af1158015620002b7573d6000803e3d6000fd5b505050506040513d601f19601f82011682018060405250810190620002dd919062000725565b601180546001600160a01b0319166001600160a01b03929092169190911790556040516001625e79b760e01b031981526000805160206200aa9a8339815191529063ffa1864990620003359060059060040162000755565b602060405180830381600087803b1580156200035057600080fd5b505af115801562000365573d6000803e3d6000fd5b505050506040513d601f19601f820116820180604052508101906200038b919062000725565b601280546001600160a01b0319166001600160a01b03929092169190911790556040516001625e79b760e01b031981526000805160206200aa9a8339815191529063ffa1864990620003e39060069060040162000755565b602060405180830381600087803b158015620003fe57600080fd5b505af115801562000413573d6000803e3d6000fd5b505050506040513d601f19601f8201168201806040525081019062000439919062000725565b601380546001600160a01b0319166001600160a01b03929092169190911790556040516001625e79b760e01b031981526000805160206200aa9a8339815191529063ffa1864990620004919060079060040162000755565b602060405180830381600087803b158015620004ac57600080fd5b505af1158015620004c1573d6000803e3d6000fd5b505050506040513d601f19601f82011682018060405250810190620004e7919062000725565b601480546001600160a01b0319166001600160a01b03929092169190911790556040516001625e79b760e01b031981526000805160206200aa9a8339815191529063ffa18649906200053f9060089060040162000755565b602060405180830381600087803b1580156200055a57600080fd5b505af11580156200056f573d6000803e3d6000fd5b505050506040513d601f19601f8201168201806040525081019062000595919062000725565b601580546001600160a01b0319166001600160a01b03929092169190911790556040516001625e79b760e01b031981526000805160206200aa9a8339815191529063ffa1864990620005ed9060099060040162000755565b602060405180830381600087803b1580156200060857600080fd5b505af11580156200061d573d6000803e3d6000fd5b505050506040513d601f19601f8201168201806040525081019062000643919062000725565b601680546001600160a01b0319166001600160a01b03929092169190911790556040516001625e79b760e01b031981526000805160206200aa9a8339815191529063ffa18649906200069b90600a9060040162000755565b602060405180830381600087803b158015620006b657600080fd5b505af1158015620006cb573d6000803e3d6000fd5b505050506040513d601f19601f82011682018060405250810190620006f1919062000725565b601780546001600160a01b0319166001600160a01b03929092169190911790553480156200071e57600080fd5b506200075e565b60006020828403121562000737578081fd5b81516001600160a01b03811681146200074e578182fd5b9392505050565b90815260200190565b61a32c806200076e6000396000f3fe608060405234801561001057600080fd5b50600436106100625760003560e01c80630a9254e4146100675780633a768463146100715780639a8325a01461008f578063a0e11097146100a2578063a3ffac0d146100b5578063bdc7d81c146100cd575b600080fd5b61006f6100e0565b005b610079610903565b6040516100869190610ea6565b60405180910390f35b61007961009d366004610dcb565b610927565b61006f6100b0366004610c77565b6109cb565b6100bd610a8d565b6040516100869493929190610f5d565b61006f6100db366004610cd7565b610abf565b600e54600f546100fc916001600160a01b039081169116610b4e565b6c0c9f2c9cd04674edea4000000060405161011690610c23565b6101209190610f82565b604051809103906000f08015801561013c573d6000803e3d6000fd5b50600080546001600160a01b0319166001600160a01b03929092169190911790556040516c0c9f2c9cd04674edea400000009061017890610c23565b6101829190610f82565b604051809103906000f08015801561019e573d6000803e3d6000fd5b50600180546001600160a01b0319166001600160a01b039290921691909117905560405173e592427a0aece92de3edee1f18e0157c05861564906101e190610c31565b6101eb9190610ea6565b604051809103906000f080158015610207573d6000803e3d6000fd5b50600280546001600160a01b0319166001600160a01b0392831617905560005460125460405163a9059cbb60e01b81529183169263a9059cbb9261025d929091169069152d02c7e14af680000090600401610f44565b602060405180830381600087803b15801561027757600080fd5b505af115801561028b573d6000803e3d6000fd5b505050506040513d601f19601f820116820180604052508101906102af9190610d2c565b5060015460125460405163a9059cbb60e01b81526001600160a01b039283169263a9059cbb926102f09291169069152d02c7e14af680000090600401610f44565b602060405180830381600087803b15801561030a57600080fd5b505af115801561031e573d6000803e3d6000fd5b505050506040513d601f19601f820116820180604052508101906103429190610d2c565b5060005460135460405163a9059cbb60e01b81526001600160a01b039283169263a9059cbb926103839291169069152d02c7e14af680000090600401610f44565b602060405180830381600087803b15801561039d57600080fd5b505af11580156103b1573d6000803e3d6000fd5b505050506040513d601f19601f820116820180604052508101906103d59190610d2c565b5060015460135460405163a9059cbb60e01b81526001600160a01b039283169263a9059cbb926104169291169069152d02c7e14af680000090600401610f44565b602060405180830381600087803b15801561043057600080fd5b505af1158015610444573d6000803e3d6000fd5b505050506040513d601f19601f820116820180604052508101906104689190610d2c565b5060005460145460405163a9059cbb60e01b81526001600160a01b039283169263a9059cbb926104a99291169069152d02c7e14af680000090600401610f44565b602060405180830381600087803b1580156104c357600080fd5b505af11580156104d7573d6000803e3d6000fd5b505050506040513d601f19601f820116820180604052508101906104fb9190610d2c565b5060015460145460405163a9059cbb60e01b81526001600160a01b039283169263a9059cbb9261053c9291169069152d02c7e14af680000090600401610f44565b602060405180830381600087803b15801561055657600080fd5b505af115801561056a573d6000803e3d6000fd5b505050506040513d601f19601f8201168201806040525081019061058e9190610d2c565b5060005460155460405163a9059cbb60e01b81526001600160a01b039283169263a9059cbb926105cf9291169069152d02c7e14af680000090600401610f44565b602060405180830381600087803b1580156105e957600080fd5b505af11580156105fd573d6000803e3d6000fd5b505050506040513d601f19601f820116820180604052508101906106219190610d2c565b5060015460155460405163a9059cbb60e01b81526001600160a01b039283169263a9059cbb926106629291169069152d02c7e14af680000090600401610f44565b602060405180830381600087803b15801561067c57600080fd5b505af1158015610690573d6000803e3d6000fd5b505050506040513d601f19601f820116820180604052508101906106b49190610d2c565b5060005460165460405163a9059cbb60e01b81526001600160a01b039283169263a9059cbb926106f59291169069152d02c7e14af680000090600401610f44565b602060405180830381600087803b15801561070f57600080fd5b505af1158015610723573d6000803e3d6000fd5b505050506040513d601f19601f820116820180604052508101906107479190610d2c565b5060015460165460405163a9059cbb60e01b81526001600160a01b039283169263a9059cbb926107889291169069152d02c7e14af680000090600401610f44565b602060405180830381600087803b1580156107a257600080fd5b505af11580156107b6573d6000803e3d6000fd5b505050506040513d601f19601f820116820180604052508101906107da9190610d2c565b5060005460175460405163a9059cbb60e01b81526001600160a01b039283169263a9059cbb9261081b9291169069152d02c7e14af680000090600401610f44565b602060405180830381600087803b15801561083557600080fd5b505af1158015610849573d6000803e3d6000fd5b505050506040513d601f19601f8201168201806040525081019061086d9190610d2c565b5060015460175460405163a9059cbb60e01b81526001600160a01b039283169263a9059cbb926108ae9291169069152d02c7e14af680000090600401610f44565b602060405180830381600087803b1580156108c857600080fd5b505af11580156108dc573d6000803e3d6000fd5b505050506040513d601f19601f820116820180604052508101906109009190610d2c565b50565b7f885cb69240a935d632d79c317109709ecfa91a80626ff3989d68f67f5b1dd12d81565b604051638d1cc92560e01b81526000908190737109709ecfa91a80626ff3989d68f67f5b1dd12d90638d1cc92590610963908690600401610f8b565b600060405180830381600087803b15801561097d57600080fd5b505af1158015610991573d6000803e3d6000fd5b505050506040513d6000823e601f3d908101601f191682016040526109b99190810190610d53565b90508051602082016000f09392505050565b6008546040516001600160a01b03851691633c8a7d8d918791600281810b926301000000909204900b908790610a05908890602001610ea6565b6040516020818303038152906040526040518663ffffffff1660e01b8152600401610a34959493929190610ef7565b6040805180830381600087803b158015610a4d57600080fd5b505af1158015610a61573d6000803e3d6000fd5b505050506040513d601f19601f82011682018060405250810190610a859190610e57565b505050505050565b600854600281810b9163010000008104820b9166010000000000008204810b9169010000000000000000009004900b84565b600254604051632f44cce360e21b81526001600160a01b039091169063bd13338c90610af5908590889088908790600401610f9e565b602060405180830381600087803b158015610b0f57600080fd5b505af1158015610b23573d6000803e3d6000fd5b505050506040513d601f19601f82011682018060405250810190610b479190610e3f565b5050505050565b81604051610b5b90610c3f565b610b659190610ea6565b604051809103906000f080158015610b81573d6000803e3d6000fd5b50600380546001600160a01b03199081166001600160a01b039384161791829055600f8054909116848416179055600d54600c54604051918416938693811692869290911690600a90610bd390610c4d565b610be296959493929190610eba565b604051809103906000f080158015610bfe573d6000803e3d6000fd5b50600680546001600160a01b0319166001600160a01b03929092169190911790555050565b61069d806200103f83390190565b61067b80620016dc83390190565b61261f8062001d5783390190565b615f81806200437683390190565b80356001600160a01b0381168114610c7257600080fd5b919050565b60008060008060808587031215610c8c578384fd5b610c9585610c5b565b9350610ca360208601610c5b565b925060408501356001600160801b0381168114610cbe578283fd5b9150610ccc60608601610c5b565b905092959194509250565b60008060008060808587031215610cec578384fd5b610cf585610c5b565b9350610d0360208601610c5b565b925060408501359150606085013562ffffff81168114610d21578182fd5b939692955090935050565b600060208284031215610d3d578081fd5b81518015158114610d4c578182fd5b9392505050565b600060208284031215610d64578081fd5b815167ffffffffffffffff811115610d7a578182fd5b8201601f81018413610d8a578182fd5b8051610d9d610d9882610fec565b610fc8565b818152856020838501011115610db1578384fd5b610dc282602083016020860161100e565b95945050505050565b600060208284031215610ddc578081fd5b813567ffffffffffffffff811115610df2578182fd5b8201601f81018413610e02578182fd5b8035610e10610d9882610fec565b818152856020838501011115610e24578384fd5b81602084016020830137908101602001929092525092915050565b600060208284031215610e50578081fd5b5051919050565b60008060408385031215610e69578182fd5b505080516020909101519092909150565b60008151808452610e9281602086016020860161100e565b601f01601f19169290920160200192915050565b6001600160a01b0391909116815260200190565b6001600160a01b039687168152948616602086015292851660408501529084166060840152909216608082015260ff90911660a082015260c00190565b600060018060a01b03871682528560020b60208301528460020b60408301526001600160801b038416606083015260a06080830152610f3960a0830184610e7a565b979650505050505050565b6001600160a01b03929092168252602082015260400190565b600294850b815292840b602084015290830b604083015290910b606082015260800190565b90815260200190565b600060208252610d4c6020830184610e7a565b9384526001600160a01b0392831660208501529116604083015262ffffff16606082015260800190565b60405181810167ffffffffffffffff81118282101715610fe457fe5b604052919050565b600067ffffffffffffffff82111561100057fe5b50601f01601f191660200190565b60005b83811015611029578181015183820152602001611011565b83811115611038576000848401525b5050505056fe608060405234801561001057600080fd5b5060405161069d38038061069d8339818101604052602081101561003357600080fd5b505161003f3382610045565b506100c8565b6001600160a01b0382166000908152602081905260409020548101818110156100a8576040805162461bcd60e51b815260206004820152601060248201526f6f766572666c6f772062616c616e636560801b604482015290519081900360640190fd5b6001600160a01b0390921660009081526020819052604090209190915550565b6105c6806100d76000396000f3fe608060405234801561001057600080fd5b506004361061007d5760003560e01c806370a082311161005b57806370a0823114610126578063a9059cbb1461015e578063dd62ed3e1461018a578063e3d670d7146101b85761007d565b8063095ea7b31461008257806323b872dd146100c257806340c10f19146100f8575b600080fd5b6100ae6004803603604081101561009857600080fd5b506001600160a01b0381351690602001356101de565b604080519115158252519081900360200190f35b6100ae600480360360608110156100d857600080fd5b506001600160a01b03813581169160208101359091169060400135610244565b6101246004803603604081101561010e57600080fd5b506001600160a01b038135169060200135610390565b005b61014c6004803603602081101561013c57600080fd5b50356001600160a01b0316610413565b60408051918252519081900360200190f35b6100ae6004803603604081101561017457600080fd5b506001600160a01b03813516906020013561042e565b61014c600480360360408110156101a057600080fd5b506001600160a01b0381358116916020013516610561565b61014c600480360360208110156101ce57600080fd5b50356001600160a01b031661057e565b3360008181526001602090815260408083206001600160a01b038716808552908352818420869055815186815291519394909390927f8c5be1e5ebec7d5bd14f71427d1e84f3dd0314c0f7b2291e5b200ac8c7c3b925928290030190a350600192915050565b6001600160a01b0382166000908152602081905260408120548281018111156102b4576040805162461bcd60e51b815260206004820152601a60248201527f6f766572666c6f772062616c616e636520726563697069656e74000000000000604482015290519081900360640190fd5b6001600160a01b038085166000908152602081905260408082208487019055918716815220548381101561032f576040805162461bcd60e51b815260206004820152601860248201527f756e646572666c6f772062616c616e63652073656e6465720000000000000000604482015290519081900360640190fd5b6001600160a01b0380871660008181526020818152604091829020888603905581518881529151938916937fddf252ad1be2c89b69c2b068fc378daa952ba7f163c4a11628f55a4df523b3ef9281900390910190a350600195945050505050565b6001600160a01b0382166000908152602081905260409020548101818110156103f3576040805162461bcd60e51b815260206004820152601060248201526f6f766572666c6f772062616c616e636560801b604482015290519081900360640190fd5b6001600160a01b0390921660009081526020819052604090209190915550565b6001600160a01b031660009081526020819052604090205490565b336000908152602081905260408120548281101561048a576040805162461bcd60e51b8152602060048201526014602482015273696e73756666696369656e742062616c616e636560601b604482015290519081900360640190fd5b3360009081526020819052604080822085840390556001600160a01b0386168252902054808401811115610505576040805162461bcd60e51b815260206004820152601a60248201527f726563697069656e742062616c616e6365206f766572666c6f77000000000000604482015290519081900360640190fd5b6001600160a01b0385166000818152602081815260409182902084880190558151878152915133927fddf252ad1be2c89b69c2b068fc378daa952ba7f163c4a11628f55a4df523b3ef92908290030190a3506001949350505050565b600160209081526000928352604080842090915290825290205481565b6000602081905290815260409020548156fea2646970667358221220ba907816087a94be36089afb835672aca94f1df9d6c8da2943d3e3e7f82b9a8364736f6c6343000706003360a060405234801561001057600080fd5b5060405161067b38038061067b83398101604081905261002f91610044565b60601b6001600160601b031916608052610072565b600060208284031215610055578081fd5b81516001600160a01b038116811461006b578182fd5b9392505050565b60805160601c6105e36100986000398060b3528061013352806101c652506105e36000f3fe608060405234801561001057600080fd5b50600436106100415760003560e01c8063089fe6aa14610046578063bd13338c14610064578063c31c9c0714610084575b600080fd5b61004e610099565b60405161005b9190610594565b60405180910390f35b6100776100723660046104c2565b61009f565b60405161005b91906105a4565b61008c6101c4565b60405161005b9190610517565b610bb881565b60006100ad843330886101e8565b6100d8847f000000000000000000000000000000000000000000000000000000000000000087610340565b60408051610100810182526001600160a01b038087168252858116602083015262ffffff85168284015233606083015242608083015260a08201889052600060c0830181905260e0830152915163414bf38960e01b815290917f0000000000000000000000000000000000000000000000000000000000000000169063414bf3899061016890849060040161052b565b602060405180830381600087803b15801561018257600080fd5b505af1158015610196573d6000803e3d6000fd5b505050506040513d601f19601f820116820180604052508101906101ba91906104aa565b9695505050505050565b7f000000000000000000000000000000000000000000000000000000000000000081565b604080516001600160a01b0385811660248301528481166044830152606480830185905283518084039091018152608490920183526020820180516001600160e01b03166323b872dd60e01b178152925182516000948594938a169392918291908083835b6020831061026c5780518252601f19909201916020918201910161024d565b6001836020036101000a0380198251168184511680821785525050505050509050019150506000604051808303816000865af19150503d80600081146102ce576040519150601f19603f3d011682016040523d82523d6000602084013e6102d3565b606091505b509150915081801561030157508051158061030157508080602001905160208110156102fe57600080fd5b50515b610338576040805162461bcd60e51b815260206004820152600360248201526229aa2360e91b604482015290519081900360640190fd5b505050505050565b604080516001600160a01b038481166024830152604480830185905283518084039091018152606490920183526020820180516001600160e01b031663095ea7b360e01b1781529251825160009485949389169392918291908083835b602083106103bc5780518252601f19909201916020918201910161039d565b6001836020036101000a0380198251168184511680821785525050505050509050019150506000604051808303816000865af19150503d806000811461041e576040519150601f19603f3d011682016040523d82523d6000602084013e610423565b606091505b5091509150818015610451575080511580610451575080806020019051602081101561044e57600080fd5b50515b610487576040805162461bcd60e51b8152602060048201526002602482015261534160f01b604482015290519081900360640190fd5b5050505050565b80356001600160a01b03811681146104a557600080fd5b919050565b6000602082840312156104bb578081fd5b5051919050565b600080600080608085870312156104d7578283fd5b843593506104e76020860161048e565b92506104f56040860161048e565b9150606085013562ffffff8116811461050c578182fd5b939692955090935050565b6001600160a01b0391909116815260200190565b81516001600160a01b03908116825260208084015182169083015260408084015162ffffff16908301526060808401518216908301526080808401519083015260a0838101519083015260c0808401519083015260e09283015116918101919091526101000190565b62ffffff91909116815260200190565b9081526020019056fea2646970667358221220fefa1d4eec6e81ac70efadcf1deee3a1a9ab5898fad2d1f07bbf8dffb5f223d664736f6c6343000706003360806040523480156200001157600080fd5b506040516200261f3803806200261f8339810160408190526200003491620000aa565b600080546001805461012c62ffffff199091161766ffffffff0000001916640e100000001790556001600160a01b0319166001600160a01b03929092169190911762ffffff60a01b191660e160a31b1762ffffff60b81b191660e160bb1b176001600160e81b0316600560e91b179055620000da565b600060208284031215620000bc578081fd5b81516001600160a01b0381168114620000d3578182fd5b9392505050565b61253580620000ea6000396000f3fe608060405234801561001057600080fd5b506004361061012c5760003560e01c8063ab033ea9116100ad578063d91e085311610071578063d91e085314610271578063dab62a2f14610284578063e7c7cb9114610297578063f8806a131461029f578063fd0679e9146102bf5761012c565b8063ab033ea914610212578063ab24f52614610225578063b7ab92e814610238578063c433c80a1461024b578063d4f9b7a71461025e5761012c565b80634ed8cf27116100f45780634ed8cf271461019f57806357044c6f146101b25780635aa6e675146101c5578063802036f5146101da57806387745a11146101ff5761012c565b8063051bb833146101315780631ca6aede1461014657806326d89545146101645780633cbff3fe146101795780633d47d2271461018c575b600080fd5b61014461013f366004611e8c565b6102c7565b005b61014e6102ca565b60405161015b9190612270565b60405180910390f35b61016c6102da565b60405161015b919061245f565b610144610187366004612067565b6102ed565b61014e61019a366004611e8c565b61039b565b61014e6101ad366004611e8c565b610528565b6101446101c0366004611ee0565b610553565b6101cd610619565b60405161015b9190612242565b6101ed6101e8366004611e8c565b610628565b60405161015b96959493929190612292565b61014461020d366004611fa2565b6109ef565b610144610220366004611e8c565b610a7e565b610144610233366004611ee0565b610b37565b610144610246366004612067565b610c01565b610144610259366004612183565b610cbd565b61014461026c366004612067565b610d67565b61014e61027f366004611ea8565b610e0d565b61014461029236600461209f565b610e3a565b61014e61107e565b6102b26102ad366004611e8c565b611087565b60405161015b91906123e5565b61014e61110e565b50565b600054600160a01b900460020b81565b6001546301000000900463ffffffff1681565b6000546001600160a01b031633146103205760405162461bcd60e51b815260040161031790612374565b60405180910390fd5b60148160020b12156103445760405162461bcd60e51b815260040161031790612301565b60018054600283810b62ffffff1662ffffff198316179092556040517fb32bf5279c25f60e729f297567e5882813fe72a29dec91009962465b6a98a15f9261039092900b90849061227e565b60405180910390a150565b600080829050600080826001600160a01b0316633850c7bd6040518163ffffffff1660e01b815260040160e06040518083038186803b1580156103dd57600080fd5b505afa1580156103f1573d6000803e3d6000fd5b505050506040513d601f19601f8201168201806040525081019061041591906120f2565b5050509350935050506000836001600160a01b031663252c09d78361ffff168560010161ffff168161044357fe5b066040518263ffffffff1660e01b81526004016104609190612450565b60806040518083038186803b15801561047857600080fd5b505afa15801561048c573d6000803e3d6000fd5b505050506040513d601f19601f820116820180604052508101906104b0919061219f565b5050506001600160a01b0387166000908152600260205260409020549091504282900390600160601b900463ffffffff16806104f857506001546301000000900463ffffffff165b61051c888263ffffffff168463ffffffff16116105155783610517565b825b61111e565b98975050505050505050565b6001600160a01b038116600090815260026020819052604090912054600160481b9004900b5b919050565b6000546001600160a01b0316331461057d5760405162461bcd60e51b815260040161031790612374565b805182511461059e5760405162461bcd60e51b81526004016103179061231d565b60005b8251811015610614578181815181106105b657fe5b6020026020010151600260008584815181106105ce57fe5b6020908102919091018101516001600160a01b03168252810191909152604001600020805460029290920b62ffffff1662ffffff199092169190911790556001016105a1565b505050565b6000546001600160a01b031681565b60008060008060008060008061063d8961141e565b6001600160a01b038b1660009081526002602081905260409091205492945090925090810b900b158061069457506001600160a01b03891660009081526002602081905260409091205463010000009004810b900b155b156107de57600080546106b190600160b81b900460020b8361151b565b90506040518060a001604052808260020b81526020016106e0600060149054906101000a900460020b8561151b565b600290810b8252600154810b810b6020830152600054604090920191606491600160e81b909104810b8502900b05600290810b825260015463ffffffff63010000009182900481166020948501526001600160a01b038f1660009081528385526040908190208651815496880151928801516060890151608090990151909416600160601b0263ffffffff60601b1998870b62ffffff908116600160481b0262ffffff60481b1996890b8216600160301b0262ffffff60301b19968a0b831690980265ffffff000000199490990b90911662ffffff199099169890981791909116959095179190911692909217169290921792909216919091179055505b6001600160a01b038916600090815260026020819052604082208054835462ffffff60d01b1916600160d01b62ffffff6301000000909304850b850b9290921682021780855591549104820b820b90820b90910b1361084957600054600160d01b900460020b610868565b6001600160a01b038a16600090815260026020819052604090912054900b5b90508181620d89e719010160020b8360020b13801561089757508181620d89e719600003030360020b8360020b125b6108b35760405162461bcd60e51b815260040161031790612390565b60006108be8b611569565b905060008160020b8560020b136108d7578482036108db565b8185035b6001600160a01b038d16600090815260026020819052604090912054919250600160301b909104810b810b9082900b13156109285760405162461bcd60e51b815260040161031790612357565b6000610934868661151b565b905060008582019050600260008f6001600160a01b03166001600160a01b0316815260200190815260200160002060000160009054906101000a900460020b82039c50600260008f6001600160a01b03166001600160a01b0316815260200190815260200160002060000160009054906101000a900460020b82019b506000601a9054906101000a900460020b82039a508199508098506000601a9054906101000a900460020b810197505050505050505091939550919395565b6000546001600160a01b03163314610a195760405162461bcd60e51b815260040161031790612374565b8051825114610a3a5760405162461bcd60e51b81526004016103179061231d565b60005b825181101561061457610a76838281518110610a5557fe5b6020026020010151838381518110610a6957fe5b6020026020010151610e3a565b600101610a3d565b6000546001600160a01b03163314610aa85760405162461bcd60e51b815260040161031790612374565b6001600160a01b038116610ace5760405162461bcd60e51b81526004016103179061233a565b6000546040517f434a2db650703b36c824e745330d6397cdaa9ee2cc891a4938ae853e1c50b68d91610b0d916001600160a01b03909116908490612256565b60405180910390a1600080546001600160a01b0319166001600160a01b0392909216919091179055565b6000546001600160a01b03163314610b615760405162461bcd60e51b815260040161031790612374565b8051825114610b825760405162461bcd60e51b81526004016103179061231d565b60005b825181101561061457818181518110610b9a57fe5b602002602001015160026000858481518110610bb257fe5b6020908102919091018101516001600160a01b03168252810191909152604001600020805460029290920b62ffffff16600160301b0262ffffff60301b19909216919091179055600101610b85565b6000546001600160a01b03163314610c2b5760405162461bcd60e51b815260040161031790612374565b60008160020b13610c4e5760405162461bcd60e51b8152600401610317906123c8565b6000546040517f5d57c30988c079327c7a2866b4ec81c1eb83dca7d6ecd954093458c50034c93891610c8d91600160a01b90910460020b90849061227e565b60405180910390a16000805460029290920b62ffffff16600160a01b0262ffffff60a01b19909216919091179055565b6000546001600160a01b03163314610ce75760405162461bcd60e51b815260040161031790612374565b60648163ffffffff161015610d0e5760405162461bcd60e51b8152600401610317906123ac565b6001805463ffffffff838116630100000090810266ffffffff000000198416179093556040517f1c373b0a9b89049c835cfc0851faad1f23dbb7e5bd46cf58eb88da4dd760378b93610390930491909116908490612470565b6000546001600160a01b03163314610d915760405162461bcd60e51b815260040161031790612374565b60008160020b13610db45760405162461bcd60e51b8152600401610317906122e3565b60008054600283810b62ffffff16600160e81b9081026001600160e81b038416179093556040517f6970a7f31fee92e8ced74d8833776ba308b9d4259e72a19b40ea53bdce8c8c4893610390930490910b90849061227e565b6001600160a01b0382166000908152600260208190526040822054610e33910b8361151b565b9392505050565b6000546001600160a01b03163314610e645760405162461bcd60e51b815260040161031790612374565b6001600160a01b038116600081815260026020818152604092839020835160a081018552905480840b840b840b825263010000008104840b840b840b82840152600160301b8104840b840b840b82860152600160481b8104840b840b90930b6060820152600160601b90920463ffffffff166080830152855183516334324e9f60e21b815293519294610f53949193909263d0c93a7c9260048082019391829003018186803b158015610f1657600080fd5b505afa158015610f2a573d6000803e3d6000fd5b505050506040513d601f19601f82011682018060405250810190610f4e9190612083565b61168b565b6040805160a0810182528451600290810b8252602080870151820b81840190815287850151830b8486019081526060808a0151850b9086019081526080808b015163ffffffff9081169188019182526001600160a01b038b1660009081529587905294889020965187549451935192519151909516600160601b0263ffffffff60601b1991870b62ffffff908116600160481b0262ffffff60481b1994890b8216600160301b0262ffffff60301b19968a0b831663010000000265ffffff0000001999909a0b90921662ffffff19909716969096179690961696909617929092169390931792909216171617815590517f4fbe17edcf333bc8ed37ac7def64da9ac2726f481aaa733d9c8a64e5fa481dfb91611071918491906123f3565b60405180910390a1505050565b60015460020b81565b61108f611d32565b506001600160a01b0316600090815260026020818152604092839020835160a081018552905480840b840b840b825263010000008104840b840b840b92820192909252600160301b8204830b830b830b93810193909352600160481b8104820b820b90910b6060830152600160601b900463ffffffff16608082015290565b600054600160b81b900460020b81565b600063ffffffff821661115d576040805162461bcd60e51b8152602060048201526002602482015261042560f41b604482015290519081900360640190fd5b604080516002808252606082018352600092602083019080368337019050509050828160008151811061118c57fe5b602002602001019063ffffffff16908163ffffffff16815250506000816001815181106111b557fe5b63ffffffff90921660209283029190910182015260405163883bdbfd60e01b8152600481018281528351602483015283516000936001600160a01b0389169363883bdbfd938793909283926044019185820191028083838b5b8381101561122657818101518382015260200161120e565b505050509050019250505060006040518083038186803b15801561124957600080fd5b505afa15801561125d573d6000803e3d6000fd5b505050506040513d6000823e601f3d908101601f19168201604090815281101561128657600080fd5b81019080805160405193929190846401000000008211156112a657600080fd5b9083019060208201858111156112bb57600080fd5b82518660208202830111640100000000821117156112d857600080fd5b82525081516020918201928201910280838360005b838110156113055781810151838201526020016112ed565b505050509050016040526020018051604051939291908464010000000082111561132e57600080fd5b90830190602082018581111561134357600080fd5b825186602082028301116401000000008211171561136057600080fd5b82525081516020918201928201910280838360005b8381101561138d578181015183820152602001611375565b505050509050016040525050505090506000816000815181106113ac57fe5b6020026020010151826001815181106113c157fe5b60200260200101510390508463ffffffff168160060b816113de57fe5b05935060008160060b12801561140857508463ffffffff168160060b8161140157fe5b0760060b15155b1561141557600019909301925b50505092915050565b600080826001600160a01b0316633850c7bd6040518163ffffffff1660e01b815260040160e06040518083038186803b15801561145a57600080fd5b505afa15801561146e573d6000803e3d6000fd5b505050506040513d601f19601f8201168201806040525081019061149291906120f2565b5050604080516334324e9f60e21b815290519497506001600160a01b038916955063d0c93a7c94600480830195506020945090925090829003018186803b1580156114dc57600080fd5b505afa1580156114f0573d6000803e3d6000fd5b505050506040513d601f19601f820116820180604052508101906115149190612083565b9050915091565b6000808260020b8460020b8161152d57fe5b05905060008460020b12801561155457508260020b8460020b8161154d57fe5b0760020b15155b1561155e57600019015b820290505b92915050565b600080826001600160a01b0316631a6865026040518163ffffffff1660e01b815260040160206040518083038186803b1580156115a557600080fd5b505afa1580156115b9573d6000803e3d6000fd5b505050506040513d601f19601f820116820180604052508101906115dd91906120cb565b90506001600160801b038116611679576000836001600160a01b0316633850c7bd6040518163ffffffff1660e01b815260040160e06040518083038186803b15801561162857600080fd5b505afa15801561163c573d6000803e3d6000fd5b505050506040513d601f19601f8201168201806040525081019061166091906120f2565b5050505050509050611671816116e1565b925050611685565b6116828361039b565b91505b50919050565b620d89e8600283900b138015906116b257508060020b8260020b816116ac57fe5b0760020b155b80156116c1575060008260020b135b6116dd5760405162461bcd60e51b8152600401610317906122c6565b5050565b60006401000276a36001600160a01b0383161080159061171d575073fffd8963efd1fc6a506488495d951d5263988d266001600160a01b038316105b611752576040805162461bcd60e51b81526020600482015260016024820152602960f91b604482015290519081900360640190fd5b640100000000600160c01b03602083901b166001600160801b03811160071b81811c67ffffffffffffffff811160061b90811c63ffffffff811160051b90811c61ffff811160041b90811c60ff8111600390811b91821c600f811160021b90811c918211600190811b92831c979088119617909417909217179091171717608081106117e657607f810383901c91506117f0565b80607f0383901b91505b908002607f81811c60ff83811c9190911c800280831c81831c1c800280841c81841c1c800280851c81851c1c800280861c81861c1c800280871c81871c1c800280881c81881c1c800280891c81891c1c8002808a1c818a1c1c8002808b1c818b1c1c8002808c1c818c1c1c8002808d1c818d1c1c8002808e1c9c81901c9c909c1c80029c8d901c9e9d607f198f0160401b60c09190911c678000000000000000161760c19b909b1c674000000000000000169a909a1760c29990991c672000000000000000169890981760c39790971c671000000000000000169690961760c49590951c670800000000000000169490941760c59390931c670400000000000000169290921760c69190911c670200000000000000161760c79190911c670100000000000000161760c89190911c6680000000000000161760c99190911c6640000000000000161760ca9190911c6620000000000000161760cb9190911c6610000000000000161760cc9190911c6608000000000000161760cd9190911c66040000000000001617693627a301d71055774c8581026f028f6481ab7f045a5af012a19d003aa9198101608090811d906fdb2df09e81959a81455e260799a0632f8301901d600281810b9083900b146119f157886001600160a01b03166119d582611a00565b6001600160a01b031611156119ea57816119ec565b805b6119f3565b815b9998505050505050505050565b60008060008360020b12611a17578260020b611a1f565b8260020b6000035b9050620d89e8811115611a5d576040805162461bcd60e51b81526020600482015260016024820152601560fa1b604482015290519081900360640190fd5b600060018216611a7157600160801b611a83565b6ffffcb933bd6fad37aa2d162d1a5940015b70ffffffffffffffffffffffffffffffffff1690506002821615611ab7576ffff97272373d413259a46990580e213a0260801c5b6004821615611ad6576ffff2e50f5f656932ef12357cf3c7fdcc0260801c5b6008821615611af5576fffe5caca7e10e4e61c3624eaa0941cd00260801c5b6010821615611b14576fffcb9843d60f6159c9db58835c9266440260801c5b6020821615611b33576fff973b41fa98c081472e6896dfb254c00260801c5b6040821615611b52576fff2ea16466c96a3843ec78b326b528610260801c5b6080821615611b71576ffe5dee046a99a2a811c461f1969c30530260801c5b610100821615611b91576ffcbe86c7900a88aedcffc83b479aa3a40260801c5b610200821615611bb1576ff987a7253ac413176f2b074cf7815e540260801c5b610400821615611bd1576ff3392b0822b70005940c7a398e4b70f30260801c5b610800821615611bf1576fe7159475a2c29b7443b29c7fa6e889d90260801c5b611000821615611c11576fd097f3bdfd2022b8845ad8f792aa58250260801c5b612000821615611c31576fa9f746462d870fdf8a65dc1f90e061e50260801c5b614000821615611c51576f70d869a156d2a1b890bb3df62baf32f70260801c5b618000821615611c71576f31be135f97d08fd981231505542fcfa60260801c5b62010000821615611c92576f09aa508b5b7a84e1c677de54f3e99bc90260801c5b62020000821615611cb2576e5d6af8dedb81196699c329225ee6040260801c5b62040000821615611cd1576d2216e584f5fa1ea926041bedfe980260801c5b62080000821615611cee576b048a170391f7dc42444e8fa20260801c5b60008460020b1315611d09578060001981611d0557fe5b0490505b640100000000810615611d1d576001611d20565b60005b60ff16602082901c0192505050919050565b6040805160a08101825260008082526020820181905291810182905260608101829052608081019190915290565b600082601f830112611d70578081fd5b81356020611d85611d80836124ab565b612487565b8281528181019085830183850287018401881015611da1578586fd5b855b85811015611dc8578135611db6816124c9565b84529284019290840190600101611da3565b5090979650505050505050565b8051801515811461054e57600080fd5b600060a08284031215611df6578081fd5b60405160a0810181811067ffffffffffffffff82111715611e1357fe5b6040529050808235611e24816124de565b81526020830135611e34816124de565b60208201526040830135611e47816124de565b60408201526060830135611e5a816124de565b60608201526080830135611e6d816124ed565b6080919091015292915050565b805161ffff8116811461054e57600080fd5b600060208284031215611e9d578081fd5b8135610e33816124c9565b60008060408385031215611eba578081fd5b8235611ec5816124c9565b91506020830135611ed5816124de565b809150509250929050565b60008060408385031215611ef2578182fd5b823567ffffffffffffffff80821115611f09578384fd5b611f1586838701611d60565b9350602091508185013581811115611f2b578384fd5b85019050601f81018613611f3d578283fd5b8035611f4b611d80826124ab565b81815283810190838501858402850186018a1015611f67578687fd5b8694505b83851015611f92578035611f7e816124de565b835260019490940193918501918501611f6b565b5080955050505050509250929050565b60008060408385031215611fb4578182fd5b823567ffffffffffffffff80821115611fcb578384fd5b818501915085601f830112611fde578384fd5b81356020611fee611d80836124ab565b8281528181019085830160a0808602880185018c101561200c57898afd5b8997505b85881015612038576120228c83611de5565b8452600197909701969284019290810190612010565b50909750505086013592505080821115612050578283fd5b5061205d85828601611d60565b9150509250929050565b600060208284031215612078578081fd5b8135610e33816124de565b600060208284031215612094578081fd5b8151610e33816124de565b60008060c083850312156120b1578182fd5b6120bb8484611de5565b915060a0830135611ed5816124c9565b6000602082840312156120dc578081fd5b81516001600160801b0381168114610e33578182fd5b600080600080600080600060e0888a03121561210c578283fd5b8751612117816124c9565b6020890151909750612128816124de565b955061213660408901611e7a565b945061214460608901611e7a565b935061215260808901611e7a565b925060a088015160ff81168114612167578283fd5b915061217560c08901611dd5565b905092959891949750929550565b600060208284031215612194578081fd5b8135610e33816124ed565b600080600080608085870312156121b4578182fd5b84516121bf816124ed565b8094505060208501518060060b81146121d6578283fd5b60408601519093506121e7816124c9565b91506121f560608601611dd5565b905092959194509250565b805160020b8252602081015160020b6020830152604081015160020b6040830152606081015160020b606083015263ffffffff60808201511660808301525050565b6001600160a01b0391909116815260200190565b6001600160a01b0392831681529116602082015260400190565b60029190910b815260200190565b600292830b8152910b602082015260400190565b600296870b815294860b602086015292850b604085015290840b6060840152830b608083015290910b60a082015260c00190565b602080825260039082015262494e5360e81b604082015260600190565b6020808252600490820152634952454d60e01b604082015260600190565b602080825260029082015261282360f11b604082015260600190565b60208082526003908201526249564960e81b604082015260600190565b60208082526003908201526249474160e81b604082015260600190565b60208082526003908201526226aa2360e91b604082015260600190565b6020808252600290820152614e4760f01b604082015260600190565b602080825260029082015261125560f21b604082015260600190565b602080825260029082015261151160f21b604082015260600190565b60208082526003908201526249524d60e81b604082015260600190565b60a081016115638284612200565b61014081016124028285612200565b9154600281810b810b60a0840152601882901c810b810b60c0840152603082901c810b810b60e0840152604882901c810b900b61010083015260601c63ffffffff1661012090910152919050565b61ffff91909116815260200190565b63ffffffff91909116815260200190565b63ffffffff92831681529116602082015260400190565b60405181810167ffffffffffffffff811182821017156124a357fe5b604052919050565b600067ffffffffffffffff8211156124bf57fe5b5060209081020190565b6001600160a01b03811681146102c757600080fd5b8060020b81146102c757600080fd5b63ffffffff811681146102c757600080fdfea2646970667358221220da5580151e9cb8c88c660d543406c01781b17589e8296ad21c2dfad84a5b7fa164736f6c63430007060033608060405234801561001057600080fd5b50604051615f81380380615f81833981810160405260c081101561003357600080fd5b5080516020808301516040808501516060860151608087015160a090970151600080546001600160a01b03199081166001600160a01b03978816178083556001805483169689169690961786556004805483169a89169a909a1790995560028054821694881694909417909355600380549093169886169890981760ff60a81b1916600160a81b60ff9092169190910217905593909116845260059091528220805460ff19169091179055615e939081906100ee90396000f3fe60806040523480156200001157600080fd5b5060043610620000885760003560e01c80639ba4920711620000635780639ba492071462000171578063ab033ea9146200019a578063beb905d414620001c3578063c683630d14620003245762000088565b8063284c8acd146200008d57806338d7728014620000e85780633f1e478b1462000132575b600080fd5b620000cc60048036036060811015620000a557600080fd5b5080356001600160a01b03908116916020810135909116906040013562ffffff1662000361565b604080516001600160a01b039092168252519081900360200190f35b620000f26200038d565b604080516001600160a01b0396871681529486166020860152929094168383015260ff908116606084015292909216608082015290519081900360a00190f35b6200016f600480360360608110156200014a57600080fd5b5080356001600160a01b03908116916020810135909116906040013560ff16620003c4565b005b6200016f600480360360208110156200018957600080fd5b50356001600160a01b031662000468565b6200016f60048036036020811015620001b257600080fd5b50356001600160a01b0316620004bd565b620000cc600480360360c0811015620001db57600080fd5b6001600160a01b038235811692602081013582169262ffffff60408301351692606083013516919081019060a0810160808201356401000000008111156200022257600080fd5b8201836020820111156200023557600080fd5b803590602001918460018302840111640100000000831117156200025857600080fd5b91908080601f0160208091040260200160405190810160405280939291908181526020018383808284376000920191909152509295949360208101935035915050640100000000811115620002ac57600080fd5b820183602082011115620002bf57600080fd5b80359060200191846001830284011164010000000083111715620002e257600080fd5b91908080601f01602080910402602001604051908101604052809392919081815260200183838082843760009201919091525092955062000544945050505050565b6200034d600480360360208110156200033c57600080fd5b50356001600160a01b031662000b03565b604080519115158252519081900360200190f35b60066020908152600093845260408085208252928452828420905282529020546001600160a01b031681565b6000546001546002546003546001600160a01b0393841694928416939091169160ff600160a81b8304811692600160a01b90041690565b6000546001600160a01b03163314620003dc57600080fd5b6001600160a01b03831615801590620003fd57506001600160a01b03821615155b6200040757600080fd5b60008160ff16116200041857600080fd5b600180546001600160a01b039485166001600160a01b03199182161790915560028054939094169216919091179091556003805460ff909216600160a81b0260ff60a81b19909216919091179055565b6000546001600160a01b031633146200048057600080fd5b6001600160a01b0381166200049457600080fd5b6001600160a01b03166000908152600560205260409020805460ff19811660ff90911615179055565b6000546001600160a01b03163314620004d557600080fd5b6001600160a01b038116620004e957600080fd5b600080546040516001600160a01b03808516939216917f3aaaebeb4821d6a7e5c77ece53cff0afcc56c82add2c978dbbb7f73e84cbcfd291a3600080546001600160a01b0319166001600160a01b0392909216919091179055565b600080546001600160a01b031633146200055d57600080fd5b856001600160a01b0316876001600160a01b031614156200057d57600080fd5b600080876001600160a01b0316896001600160a01b031610620005a2578789620005a5565b88885b6001600160a01b0380831660009081526006602090815260408083208486168452825280832062ffffff8e1684529091529020549294509092501615620005eb57600080fd5b6004805460408051630b4c774160e11b81526001600160a01b0386811694820194909452848416602482015262ffffff8b166044820152905160009390921691631698ee8291606480820192602092909190829003018186803b1580156200065257600080fd5b505afa15801562000667573d6000803e3d6000fd5b505050506040513d60208110156200067e57600080fd5b505190506001600160a01b0381166200078f57600480546040805163a167129560e01b81526001600160a01b0387811694820194909452858416602482015262ffffff8c1660448201529051929091169163a1671295916064808201926020929091908290030181600087803b158015620006f857600080fd5b505af11580156200070d573d6000803e3d6000fd5b505050506040513d60208110156200072457600080fd5b50516040805163f637731d60e01b81526001600160a01b038a8116600483015291519293509083169163f637731d9160248082019260009290919082900301818387803b1580156200077557600080fd5b505af11580156200078a573d6000803e3d6000fd5b505050505b6040805160608c811b6bffffffffffffffffffffffff19908116602080850191909152918d901b16603483015260e88b901b6001600160e81b03191660488301528251808303602b018152604b9092019283905281519101206003546000549192849230926001600160a01b03908116929116908b908b90620008129062000b18565b80876001600160a01b03168152602001866001600160a01b03168152602001856001600160a01b03168152602001846001600160a01b031681526020018060200180602001838103835285818151815260200191508051906020019080838360005b838110156200088e57818101518382015260200162000874565b50505050905090810190601f168015620008bc5780820380516001836020036101000a031916815260200191505b50838103825284518152845160209182019186019080838360005b83811015620008f1578181015183820152602001620008d7565b50505050905090810190601f1680156200091f5780820380516001836020036101000a031916815260200191505b50985050505050505050508190604051809103906000f59050801580156200094b573d6000803e3d6000fd5b509350600160056000866001600160a01b03166001600160a01b0316815260200190815260200160002060006101000a81548160ff0219169083151502179055508360066000856001600160a01b03166001600160a01b031681526020019081526020016000206000846001600160a01b03166001600160a01b0316815260200190815260200160002060008a62ffffff1662ffffff16815260200190815260200160002060006101000a8154816001600160a01b0302191690836001600160a01b031602179055508360066000846001600160a01b03166001600160a01b031681526020019081526020016000206000856001600160a01b03166001600160a01b0316815260200190815260200160002060008a62ffffff1662ffffff16815260200190815260200160002060006101000a8154816001600160a01b0302191690836001600160a01b03160217905550836001600160a01b0316826001600160a01b0316846001600160a01b03167faf0c778584d4b20d9768e68ed24ede73b034bc5747a377a69f1db53ff3933def8b604051808262ffffff16815260200191505060405180910390a45050509695505050505050565b60056020526000908152604090205460ff1681565b6153378062000b278339019056fe6101406040527f6e71edae12b1b97f4d1f60370fef10105fa2faae0126114a169c64845d6126c961012052600d805460ff60201b1963ff00000019909116630100000017166401000000001790553480156200005a57600080fd5b5060405162005337380380620053378339810160408190526200007d91620005fc565b8180604051806040016040528060018152602001603160f81b81525084848160039080519060200190620000b392919062000474565b508051620000c990600490602084019062000474565b50506005805460ff1916601217905550815160208084019190912082519183019190912060c082905260e08190527f8b73c3c69bb8fe3d512ecc4cf759cc79239f7b179b0ffacaa9a75d522b39400f620001226200040c565b60a0526200013281848462000410565b608052610100525050600b80546001600160a01b03808a166001600160a01b031992831617909255600a80548b8416908316179055600980548c84169216919091179081905560408051630dfe168160e01b81529051919092169450630dfe1681935060048083019350602092829003018186803b158015620001b457600080fd5b505afa158015620001c9573d6000803e3d6000fd5b505050506040513d601f19601f82011682018060405250810190620001ef9190620005d8565b600780546001600160a01b0319166001600160a01b039283161790556009546040805163d21220a760e01b81529051919092169163d21220a7916004808301926020929190829003018186803b1580156200024957600080fd5b505afa1580156200025e573d6000803e3d6000fd5b505050506040513d601f19601f82011682018060405250810190620002849190620005d8565b600880546001600160a01b0319166001600160a01b039283161790556009546040805163ddca3f4360e01b81529051919092169163ddca3f43916004808301926020929190829003018186803b158015620002de57600080fd5b505afa158015620002f3573d6000803e3d6000fd5b505050506040513d601f19601f82011682018060405250810190620003199190620006d0565b600d60056101000a81548162ffffff021916908362ffffff160217905550600960009054906101000a90046001600160a01b03166001600160a01b031663d0c93a7c6040518163ffffffff1660e01b815260040160206040518083038186803b1580156200038657600080fd5b505afa1580156200039b573d6000803e3d6000fd5b505050506040513d601f19601f82011682018060405250810190620003c19190620006ad565b600d805460029290920b62ffffff1662ffffff1990921691909117905550506001600160a01b03166000908152600e60205260409020805460ff1916600117905550620006f5915050565b4690565b60008383836200041f6200040c565b3060405160200180868152602001858152602001848152602001838152602001826001600160a01b03168152602001955050505050506040516020818303038152906040528051906020012090509392505050565b828054600181600116156101000203166002900490600052602060002090601f016020900481019282620004ac5760008555620004f7565b82601f10620004c757805160ff1916838001178555620004f7565b82800160010185558215620004f7579182015b82811115620004f7578251825591602001919060010190620004da565b506200050592915062000509565b5090565b5b808211156200050557600081556001016200050a565b80516001600160a01b03811681146200053857600080fd5b919050565b600082601f8301126200054e578081fd5b81516001600160401b03808211156200056357fe5b6040516020601f8401601f19168201810183811183821017156200058357fe5b60405283825285840181018710156200059a578485fd5b8492505b83831015620005bd57858301810151828401820152918201916200059e565b83831115620005ce57848185840101525b5095945050505050565b600060208284031215620005ea578081fd5b620005f58262000520565b9392505050565b60008060008060008060c0878903121562000615578182fd5b620006208762000520565b9550620006306020880162000520565b9450620006406040880162000520565b9350620006506060880162000520565b60808801519093506001600160401b03808211156200066d578384fd5b6200067b8a838b016200053d565b935060a089015191508082111562000691578283fd5b50620006a089828a016200053d565b9150509295509295509295565b600060208284031215620006bf578081fd5b81518060020b8114620005f5578182fd5b600060208284031215620006e2578081fd5b815162ffffff81168114620005f5578182fd5b60805160a05160c05160e0516101005161012051614bf86200073f60003980610f175250806121f652508061223852508061221752508061219d5250806121cd5250614bf86000f3fe6080604052600436106101845760003560e01c80637f98aa71116100d1578063c86962321161008a578063dd62ed3e11610064578063dd62ed3e14610474578063e1c7392a14610494578063fa021656146104a9578063fa461e33146104be5761018b565b8063c86962321461040d578063d348799714610434578063d505accf146104545761018b565b80637f98aa711461034c5780638dbdbe6d1461037157806395d89b4114610393578063a457c2d7146103a8578063a9059cbb146103c8578063ac2dc562146103e85761018b565b80633644e5151161013e578063631f81ae11610118578063631f81ae146102cc5780636d70f7ae146102ec57806370a082311461030c5780637ecebe001461032c5761018b565b80633644e51514610277578063395093511461028c5780633fe529f0146102ac5761018b565b8062ebf5dd1461018d57806306fdde03146101c4578063095ea7b3146101e657806318160ddd1461021357806323b872dd14610235578063313ce567146102555761018b565b3661018b57005b005b34801561019957600080fd5b506101ad6101a83660046147a2565b6104de565b6040516101bb929190614978565b60405180910390f35b3480156101d057600080fd5b506101d96107d2565b6040516101bb9190614925565b3480156101f257600080fd5b506102066102013660046146b5565b610869565b6040516101bb91906148c2565b34801561021f57600080fd5b50610228610887565b6040516101bb91906148f7565b34801561024157600080fd5b50610206610250366004614605565b61088d565b34801561026157600080fd5b5061026a610915565b6040516101bb91906149d0565b34801561028357600080fd5b5061022861091e565b34801561029857600080fd5b506102066102a73660046146b5565b61092d565b3480156102b857600080fd5b5061018b6102c736600461453d565b61097b565b3480156102d857600080fd5b5061018b6102e736600461453d565b6109d3565b3480156102f857600080fd5b5061020661030736600461453d565b610aaa565b34801561031857600080fd5b5061022861032736600461453d565b610acc565b34801561033857600080fd5b5061022861034736600461453d565b610ae7565b34801561035857600080fd5b50610361610b08565b6040516101bb949392919061485d565b61038461037f3660046147e3565b610b39565b6040516101bb93929190614986565b34801561039f57600080fd5b506101d9610cb9565b3480156103b457600080fd5b506102066103c33660046146b5565b610d1a565b3480156103d457600080fd5b506102066103e33660046146b5565b610d82565b3480156103f457600080fd5b506103fd610d96565b6040516101bb9493929190614900565b34801561041957600080fd5b50610422610dbf565b6040516101bb9695949392919061499c565b34801561044057600080fd5b5061018b61044f366004614810565b610e4b565b34801561046057600080fd5b5061018b61046f366004614645565b610ea8565b34801561048057600080fd5b5061022861048f366004614559565b61105f565b3480156104a057600080fd5b5061018b61108a565b3480156104b557600080fd5b5061018b611146565b3480156104ca57600080fd5b5061018b6104d9366004614739565b611559565b600080600d60039054906101000a900460ff1660ff1660011461050057600080fd5b600d805463ff0000001916905560006105176115c4565b505060095460405163051bb83360e01b81529294506001600160a01b03808616945063051bb8339361054f9350911690600401614849565b60006040518083038186803b15801561056757600080fd5b505afa15801561057b573d6000803e3d6000fd5b505050506000861161058c57600080fd5b6000610596610887565b600d54909150640100000000900460ff166001141561063a5760006105c488670de0b6b3a764000084611663565b600c546009549192506105f1916001600160a01b031690600281810b9163010000009004900b8430611712565b600c546009549297509095506000918291610626916001600160a01b0316903090600281810b9163010000009004900b6118df565b91509150610636600083836119a6565b5050505b60006106586106518661064b611b48565b90611bc9565b8984611663565b9050600061067261066b8661064b611bd9565b8a85611663565b905061067e8683611c0a565b955061068a8582611c0a565b945085156106ac576007546106ac9088908a906001600160a01b031689611c1a565b84156106cc576008546106cc9088908a906001600160a01b031688611c1a565b6106d6338a611c59565b876001600160a01b03167f02f25270a4d87bea75db541cdfe559334a275b4a233520ed6c0a2429667cca948a888860405161071393929190614986565b60405180910390a2600d54640100000000900460ff16600114156107b157600c54600090819061077190600281810b9163010000009004900b610754611b48565b61075c611bd9565b6009546001600160a01b031693929190611d55565b915091507f2fb985eb745b9e89bb1ab82e0f8ceb6bf94d4d60aed7e8196540c50161a5fe9182826040516107a6929190614978565b60405180910390a150505b5050600d805463ff0000001916630100000017905550919590945092505050565b60038054604080516020601f600260001961010060018816150201909516949094049384018190048102820181019092528281526060939092909183018282801561085e5780601f106108335761010080835404028352916020019161085e565b820191906000526020600020905b81548152906001019060200180831161084157829003601f168201915b505050505090505b90565b600061087d610876611eb7565b8484611ebb565b5060015b92915050565b60025490565b600061089a848484611fa7565b61090a846108a6611eb7565b61090585604051806060016040528060288152602001614b0c602891396001600160a01b038a166000908152600160205260408120906108e4611eb7565b6001600160a01b031681526020810191909152604001600020549190612102565b611ebb565b5060015b9392505050565b60055460ff1690565b6000610928612199565b905090565b600061087d61093a611eb7565b84610905856001600061094b611eb7565b6001600160a01b03908116825260208083019390935260409182016000908120918c168152925290205490612263565b60006109856115c4565b505050509050806001600160a01b0316336001600160a01b0316146109a957600080fd5b506001600160a01b03166000908152600e60205260409020805460ff19811660ff90911615179055565b336000908152600e602052604090205460ff166109ef57600080fd5b600a5460405163c683630d60e01b81526001600160a01b039091169063c683630d90610a1f908490600401614849565b60206040518083038186803b158015610a3757600080fd5b505afa158015610a4b573d6000803e3d6000fd5b505050506040513d601f19601f82011682018060405250810190610a6f91906146fc565b610a7857600080fd5b600c54600954610aa3916001600160a01b0390911690600281810b9163010000009004900b846122bd565b5050505050565b6001600160a01b0381166000908152600e602052604090205460ff165b919050565b6001600160a01b031660009081526020819052604090205490565b6001600160a01b038116600090815260066020526040812061088190612471565b600754600854600d546009546001600160a01b0393841694928416936501000000000090920462ffffff1692911690565b600080600080610b47611eb7565b9050610bd160018888610b58611b48565b610b60611bd9565b610b68610887565b60408051608081018252600c54600281810b810b810b835263010000008204810b810b810b6020840152600160301b8204810b810b810b93830193909352600160481b9004820b820b90910b60608201526009546001600160a01b031696959493929190612475565b6007549296509094509250610bf1906001600160a01b0316823086612511565b600854610c09906001600160a01b0316823085612511565b600d54640100000000900460ff1660011415610c4e57600c54600954610c4b916001600160a01b0390911690600281810b9163010000009004900b8686611d55565b50505b610c5661264e565b610c608585612660565b846001600160a01b0316816001600160a01b03167f4e2ca0515ed1aef1395f66b5303bb5d6f1bf9d61a353fa53f73f8ac9973fa9f6858588604051610ca793929190614986565b60405180910390a35093509350939050565b60048054604080516020601f600260001961010060018816150201909516949094049384018190048102820181019092528281526060939092909183018282801561085e5780601f106108335761010080835404028352916020019161085e565b600061087d610d27611eb7565b8461090585604051806060016040528060258152602001614b9e6025913960016000610d51611eb7565b6001600160a01b03908116825260208083019390935260409182016000908120918d16815292529020549190612102565b600061087d610d8f611eb7565b8484611fa7565b600c54600281810b9163010000008104820b91600160301b8204810b91600160481b9004900b84565b60408051608081018252600c54600281810b810b810b835263010000008204810b810b810b6020840152600160301b8204810b810b810b93830193909352600160481b9004820b820b90910b606082015260095460009182918291829182918291610e38916001600160a01b0390911690600190612750565b949b939a50919850965094509092509050565b610e536127e7565b336000610e628385018561453d565b90508515610e8257600754610e82906001600160a01b0316828489612511565b8415610ea057600854610ea0906001600160a01b0316828488612511565b505050505050565b83421115610efd576040805162461bcd60e51b815260206004820152601d60248201527f45524332305065726d69743a206578706972656420646561646c696e65000000604482015290519081900360640190fd5b6001600160a01b03871660009081526006602052604081207f000000000000000000000000000000000000000000000000000000000000000090899089908990610f4690612471565b8960405160200180878152602001866001600160a01b03168152602001856001600160a01b0316815260200184815260200183815260200182815260200196505050505050506040516020818303038152906040528051906020012090506000610faf826127fe565b90506000610fbf8287878761284a565b9050896001600160a01b0316816001600160a01b031614611027576040805162461bcd60e51b815260206004820152601e60248201527f45524332305065726d69743a20696e76616c6964207369676e61747572650000604482015290519081900360640190fd5b6001600160a01b038a166000908152600660205260409020611048906129ca565b6110538a8a8a611ebb565b50505050505050505050565b6001600160a01b03918216600090815260016020908152604080832093909416825291909152205490565b60006110946115c4565b505050509050806001600160a01b0316336001600160a01b0316146110b857600080fd5b600d5460020b60006110c86129d3565b60095490830291506000906110e5906001600160a01b0316612a76565b5091505060006110f58285612af8565b600c805462ffffff1916858303600290810b62ffffff9081169290921765ffffff00000019166301000000858901830b9390931683021792839055929350610aa39282810b9291909104900b612b44565b600d546301000000900460ff1660011461115f57600080fd5b600d805463ff00000019169055336000908152600e602052604090205460ff1661118857600080fd5b60006111926115c4565b505060095460405163051bb83360e01b81529294506001600160a01b03808616945063051bb833936111ca9350911690600401614849565b60006040518083038186803b1580156111e257600080fd5b505afa1580156111f6573d6000803e3d6000fd5b506112049250614461915050565b600c5460095460009161122f916001600160a01b031690600281810b9163010000009004900b612c0d565b5050600c5460095491925061125d916001600160a01b031690600281810b9163010000009004900b306122bd565b6020860181905281865260c086019290925260a0850192909252611283916001916119a6565b600061128d6129d3565b6009549091506112a5906001600160a01b0316612a76565b50600290810b810b60408601819052600d546112c7935090918491900b612cab565b600290810b810b608086015290810b900b60608401526001600160801b03821615801590611303575060a08301511580611303575060c0830151155b15611371576000808460a001511161131c57600061131f565b60015b905060008161133e576113398560c0015160326064611663565b61134f565b61134f8560a0015160326064611663565b60095490915061136a906001600160a01b0316308484612cc8565b5050611495565b611379611b48565b60a0840152611386611bd9565b60c0840181905260a0840151606085015160808601516009546113b7946001600160a01b0390911693929091612e44565b6001600160801b031660e08401819052606084015160808501516009546113eb936001600160a01b03909116929091612ed8565b6101208501819052610100850182905260a085015160c0860151611413939192909190612f6f565b1515610140840181905261144e576114496114408461012001518560c00151611bc990919063ffffffff16565b60326064611663565b61146d565b61146d6114408461010001518560a00151611bc990919063ffffffff16565b6101608401819052610140840151600954611495926001600160a01b03909116913091612cc8565b61149d611b48565b60a08401526114aa611bd9565b60c0840181905260a0840151600d546009546114d7936001600160a01b039091169291859060020b612faa565b600c805465ffffff00000019166301000000600293840b62ffffff90811682029290921762ffffff191694840b91909116939093179081905560a086015160c087015160095461153e956001600160a01b039091169484810b9491909104900b9190611d55565b5050600d805463ff0000001916630100000017905550505050565b6115616127e7565b60008413806115705750600083135b61157957600080fd5b6000611587828401846146e0565b905080156115ac576007546115a7906001600160a01b0316303388612511565b610aa3565b600854610aa3906001600160a01b0316303387612511565b6000806000806000600a60009054906101000a90046001600160a01b03166001600160a01b03166338d772806040518163ffffffff1660e01b815260040160a06040518083038186803b15801561161a57600080fd5b505afa15801561162e573d6000803e3d6000fd5b505050506040513d601f19601f820116820180604052508101906116529190614591565b945094509450945094509091929394565b6000808060001985870986860292508281109083900303905080611699576000841161168e57600080fd5b50829004905061090e565b8084116116a557600080fd5b6000848688096000868103871696879004966002600389028118808a02820302808a02820302808a02820302808a02820302808a02820302808a02909103029181900381900460010186841190950394909402919094039290920491909117919091029150509392505050565b6000808061172a6001600160a01b0389168888612c0d565b50509050600061174c826001600160801b031687670de0b6b3a7640000611663565b9050886001600160a01b031663a34123a78989611768856131a0565b6040518463ffffffff1660e01b8152600401808460020b81526020018360020b8152602001826001600160801b0316815260200193505050506040805180830381600087803b1580156117ba57600080fd5b505af11580156117ce573d6000803e3d6000fd5b505050506040513d60408110156117e457600080fd5b5080516020909101519094509250831515806118005750600083115b156118d357886001600160a01b0316634f1eb3d8868a8a611820896131a0565b611829896131a0565b6040518663ffffffff1660e01b815260040180866001600160a01b031681526020018560020b81526020018460020b8152602001836001600160801b03168152602001826001600160801b03168152602001955050505050506040805180830381600087803b15801561189b57600080fd5b505af11580156118af573d6000803e3d6000fd5b505050506040513d60408110156118c557600080fd5b50516001600160801b031693505b50509550959350505050565b6000806118ed8685856131e8565b50604080516309e3d67b60e31b81526001600160a01b038781166004830152600287810b602484015286900b60448301526001600160801b03606483018190526084830152825190891692634f1eb3d89260a480820193918290030181600087803b15801561195b57600080fd5b505af115801561196f573d6000803e3d6000fd5b505050506040513d604081101561198557600080fd5b5080516020909101516001600160801b039182169891169650945050505050565b6000806119b16115c4565b509350935050506000841115611a53576007546001600160a01b031663a9059cbb836119e28760ff86166064611663565b6040518363ffffffff1660e01b81526004016119ff9291906148a9565b602060405180830381600087803b158015611a1957600080fd5b505af1158015611a2d573d6000803e3d6000fd5b505050506040513d601f19601f82011682018060405250810190611a5191906146fc565b505b8215611aeb576008546001600160a01b031663a9059cbb83611a7a8660ff86166064611663565b6040518363ffffffff1660e01b8152600401611a979291906148a9565b602060405180830381600087803b158015611ab157600080fd5b505af1158015611ac5573d6000803e3d6000fd5b505050506040513d601f19601f82011682018060405250810190611ae991906146fc565b505b7fbcc978db31dd08dc8adfad2608e266d446816cb7816fb50a1bd7e34699bbcf11858585611b17611b48565b611b1f611bd9565b611b27610887565b604051611b39969594939291906148cd565b60405180910390a15050505050565b6007546040516370a0823160e01b81526000916001600160a01b0316906370a0823190611b79903090600401614849565b60206040518083038186803b158015611b9157600080fd5b505afa158015611ba5573d6000803e3d6000fd5b505050506040513d601f19601f82011682018060405250810190610928919061478a565b8082038281111561088157600080fd5b6008546040516370a0823160e01b81526000916001600160a01b0316906370a0823190611b79903090600401614849565b8082018281101561088157600080fd5b838015611c345750600b546001600160a01b038381169116145b15611c4857611c4381846132a1565b611c53565b611c5382848361330d565b50505050565b6001600160a01b038216611c9e5760405162461bcd60e51b8152600401808060200182810382526021815260200180614b346021913960400191505060405180910390fd5b611caa82600083613454565b611ce781604051806060016040528060228152602001614a37602291396001600160a01b0385166000908152602081905260409020549190612102565b6001600160a01b038316600090815260208190526040902055600254611d0d9082613459565b6002556040805182815290516000916001600160a01b038516917fddf252ad1be2c89b69c2b068fc378daa952ba7f163c4a11628f55a4df523b3ef9181900360200190a35050565b60008080611d6f6001600160a01b03891686868a8a612e44565b90506001600160801b03811615611eac576040805130602080830182905283518084038201815283850194859052633c8a7d8d60e01b9094526044830182815260028c810b60648601528b900b60848501526001600160801b03861660a485015260a060c48501908152855160e486015285516001600160a01b038f1696633c8a7d8d968f958f958b959394909392610104019185019080838360005b83811015611e24578181015183820152602001611e0c565b50505050905090810190601f168015611e515780820380516001836020036101000a031916815260200191505b5096505050505050506040805180830381600087803b158015611e7357600080fd5b505af1158015611e87573d6000803e3d6000fd5b505050506040513d6040811015611e9d57600080fd5b50805160209091015190935091505b509550959350505050565b3390565b6001600160a01b038316611f005760405162461bcd60e51b8152600401808060200182810382526024815260200180614b7a6024913960400191505060405180910390fd5b6001600160a01b038216611f455760405162461bcd60e51b8152600401808060200182810382526022815260200180614a596022913960400191505060405180910390fd5b6001600160a01b03808416600081815260016020908152604080832094871680845294825291829020859055815185815291517f8c5be1e5ebec7d5bd14f71427d1e84f3dd0314c0f7b2291e5b200ac8c7c3b9259281900390910190a3505050565b6001600160a01b038316611fec5760405162461bcd60e51b8152600401808060200182810382526025815260200180614b556025913960400191505060405180910390fd5b6001600160a01b0382166120315760405162461bcd60e51b8152600401808060200182810382526023815260200180614a146023913960400191505060405180910390fd5b61203c838383613454565b61207981604051806060016040528060268152602001614a7b602691396001600160a01b0386166000908152602081905260409020549190612102565b6001600160a01b0380851660009081526020819052604080822093909355908416815220546120a89082612263565b6001600160a01b038084166000818152602081815260409182902094909455805185815290519193928716927fddf252ad1be2c89b69c2b068fc378daa952ba7f163c4a11628f55a4df523b3ef92918290030190a3505050565b600081848411156121915760405162461bcd60e51b81526004018080602001828103825283818151815260200191508051906020019080838360005b8381101561215657818101518382015260200161213e565b50505050905090810190601f1680156121835780820380516001836020036101000a031916815260200191505b509250505060405180910390fd5b505050900390565b60007f00000000000000000000000000000000000000000000000000000000000000006121c46134b6565b14156121f157507f0000000000000000000000000000000000000000000000000000000000000000610866565b61225c7f00000000000000000000000000000000000000000000000000000000000000007f00000000000000000000000000000000000000000000000000000000000000007f00000000000000000000000000000000000000000000000000000000000000006134ba565b9050610866565b60008282018381101561090e576040805162461bcd60e51b815260206004820152601b60248201527f536166654d6174683a206164646974696f6e206f766572666c6f770000000000604482015290519081900360640190fd5b6000808080806122d76001600160a01b038a168989612c0d565b50909150506001600160801b03811615612465576040805163a34123a760e01b815260028a810b600483015289900b60248201526001600160801b038316604482015281516001600160a01b038c169263a34123a792606480820193918290030181600087803b15801561234a57600080fd5b505af115801561235e573d6000803e3d6000fd5b505050506040513d604081101561237457600080fd5b5080516020909101519095509350841515806123905750600084115b1561246557604080516309e3d67b60e31b81526001600160a01b03888116600483015260028b810b60248401528a900b60448301526001600160801b0360648301819052608483015282516000938493928e1692634f1eb3d89260a4808301939282900301818787803b15801561240657600080fd5b505af115801561241a573d6000803e3d6000fd5b505050506040513d604081101561243057600080fd5b5080516020909101516001600160801b0391821693501690506124538288611bc9565b61245d8288611bc9565b909550935050505b50945094509450949050565b5490565b600080600080600080600061248b8f8f8a612750565b5050935093509350935060006124b48c6124ae8588611c0a90919063ffffffff16565b90611c0a565b905060006124c68c6124ae8786611c0a565b90508a15806124d457508115155b806124de57508015155b6124e457fe5b6124f18f8f84848f61351c565b809950819a50829b50505050505050505050985098509895505050505050565b600b546001600160a01b03858116911614801561252e5750804710155b1561262657600b60009054906101000a90046001600160a01b03166001600160a01b031663d0e30db0826040518263ffffffff1660e01b81526004016000604051808303818588803b15801561258357600080fd5b505af1158015612597573d6000803e3d6000fd5b5050600b5460405163a9059cbb60e01b81526001600160a01b03909116935063a9059cbb92506125ce9150859085906004016148a9565b602060405180830381600087803b1580156125e857600080fd5b505af11580156125fc573d6000803e3d6000fd5b505050506040513d601f19601f8201168201806040525081019061262091906146fc565b50611c53565b6001600160a01b03831630141561264257611c4384838361330d565b611c53848484846135b0565b471561265e5761265e3347613700565b565b6001600160a01b0382166126bb576040805162461bcd60e51b815260206004820152601f60248201527f45524332303a206d696e7420746f20746865207a65726f206164647265737300604482015290519081900360640190fd5b6126c760008383613454565b6002546126d49082612263565b6002556001600160a01b0382166000908152602081905260409020546126fa9082612263565b6001600160a01b0383166000818152602081815260408083209490945583518581529351929391927fddf252ad1be2c89b69c2b068fc378daa952ba7f163c4a11628f55a4df523b3ef9281900390910190a35050565b60008060008060008061276c89886000015189602001516137ef565b939950919750955093509150876127db5760008060008060006127988e8d604001518e606001516137ef565b9398509196509450925090506127ae8b86611c0a565b9a506127ba8a85611c0a565b99506127c68984611c0a565b98506127d28883611c0a565b97509450505050505b93975093979195509350565b6009546001600160a01b0316331461265e57600080fd5b6000612808612199565b82604051602001808061190160f01b81525060020183815260200182815260200192505050604051602081830303815290604052805190602001209050919050565b60007f7fffffffffffffffffffffffffffffff5d576e7357a4501ddfe92f46681b20a08211156128ab5760405162461bcd60e51b8152600401808060200182810382526022815260200180614ac86022913960400191505060405180910390fd5b8360ff16601b14806128c057508360ff16601c145b6128fb5760405162461bcd60e51b8152600401808060200182810382526022815260200180614aea6022913960400191505060405180910390fd5b600060018686868660405160008152602001604052604051808581526020018460ff1681526020018381526020018281526020019450505050506020604051602081039080840390855afa158015612957573d6000803e3d6000fd5b5050604051601f1901519150506001600160a01b0381166129bf576040805162461bcd60e51b815260206004820152601860248201527f45434453413a20696e76616c6964207369676e61747572650000000000000000604482015290519081900360640190fd5b90505b949350505050565b80546001019055565b6000806129de6115c4565b5050600954600d5460405163d91e085360e01b81529395506001600160a01b03808716955063d91e085394612a20945092169160029190910b9060040161488d565b60206040518083038186803b158015612a3857600080fd5b505afa158015612a4c573d6000803e3d6000fd5b505050506040513d601f19601f82011682018060405250810190612a709190614718565b91505090565b6000806000836001600160a01b0316633850c7bd6040518163ffffffff1660e01b815260040160e06040518083038186803b158015612ab457600080fd5b505afa158015612ac8573d6000803e3d6000fd5b505050506040513d60e0811015612ade57600080fd5b508051602082015160609092015190969195509350915050565b6000808260020b8460020b81612b0a57fe5b05905060008460020b128015612b3157508260020b8460020b81612b2a57fe5b0760020b15155b15612b3b57600019015b90910292915050565b8060020b8260020b12612b84576040805162461bcd60e51b8152602060048201526003602482015262544c5560e81b604482015290519081900360640190fd5b620d89e719600283900b1215612bc7576040805162461bcd60e51b8152602060048201526003602482015262544c4d60e81b604482015290519081900360640190fd5b620d89e8600282900b1315612c09576040805162461bcd60e51b815260206004820152600360248201526254554d60e81b604482015290519081900360640190fd5b5050565b600080600080612c1e308787613834565b9050866001600160a01b031663514ea4bf826040518263ffffffff1660e01b81526004018082815260200191505060a06040518083038186803b158015612c6457600080fd5b505afa158015612c78573d6000803e3d6000fd5b505050506040513d60a0811015612c8e57600080fd5b508051606082015160809092015190999198509650945050505050565b6000806000612cba8685612af8565b858103979501955050505050565b6000612cdc856001600160a01b0316612a76565b505090506000620f42408261c350026001600160a01b031681612cfb57fe5b049050600084612d0d57818301612d11565b8183035b9050866001600160a01b031663128acb08878787858a6040516020018082151581526020019150506040516020818303038152906040526040518663ffffffff1660e01b815260040180866001600160a01b031681526020018515158152602001848152602001836001600160a01b0316815260200180602001828103825283818151815260200191508051906020019080838360005b83811015612dc0578181015183820152602001612da8565b50505050905090810190601f168015612ded5780820380516001836020036101000a031916815260200191505b5096505050505050506040805180830381600087803b158015612e0f57600080fd5b505af1158015612e23573d6000803e3d6000fd5b505050506040513d6040811015612e3957600080fd5b505050505050505050565b600080866001600160a01b0316633850c7bd6040518163ffffffff1660e01b815260040160e06040518083038186803b158015612e8057600080fd5b505afa158015612e94573d6000803e3d6000fd5b505050506040513d60e0811015612eaa57600080fd5b50519050612ecb81612ebb8661388a565b612ec48661388a565b8989613bbc565b9150505b95945050505050565b6000806000866001600160a01b0316633850c7bd6040518163ffffffff1660e01b815260040160e06040518083038186803b158015612f1657600080fd5b505afa158015612f2a573d6000803e3d6000fd5b505050506040513d60e0811015612f4057600080fd5b50519050612f6081612f518761388a565b612f5a8761388a565b89613c7e565b92509250505b94509492505050565b6000612f8585612f7f8685611bc9565b90613d19565b612f9385612f7f8887611bc9565b11612f9f576000612ecf565b600195945050505050565b60008060006040518060e00160405280888152602001878152602001600081526020016000815260200160006001600160801b03168152602001600060020b8152602001600060020b8152509050600080896001600160a01b0316633850c7bd6040518163ffffffff1660e01b815260040160e06040518083038186803b15801561303457600080fd5b505afa158015613048573d6000803e3d6000fd5b505050506040513d60e081101561305e57600080fd5b5080516020909101519092509050613077818888612cab565b600290810b810b60c0860181905291810b900b60a08501819052845160208601516130a4938e9390613d3d565b606085018190526040850182905260a085015160c08601516130cb938e9390929091612e44565b6001600160801b0316608084015282516020840151604085015160608601516000936130fa9390929091612f6f565b9050801561313f57600061311984866080015187600001516000613d6c565b905061312d61312782613e5d565b89612af8565b600290810b900b60c086015250613172565b60006131568486608001518760200151600061417c565b905061316461312782613e5d565b600290810b900b60a0860152505b6131848460a001518560c00151612b44565b8360a0015195508360c001519450505050509550959350505050565b6000600160801b82106131e45760405162461bcd60e51b8152600401808060200182810382526027815260200180614aa16027913960400191505060405180910390fd5b5090565b60006131fe6001600160a01b0385168484612c0d565b50909150506001600160801b0381161561090e57836001600160a01b031663a34123a7848460006040518463ffffffff1660e01b8152600401808460020b81526020018360020b815260200182815260200193505050506040805180830381600087803b15801561326e57600080fd5b505af1158015613282573d6000803e3d6000fd5b505050506040513d604081101561329857600080fd5b50509392505050565b600b54604051632e1a7d4d60e01b81526001600160a01b0390911690632e1a7d4d906132d19085906004016148f7565b600060405180830381600087803b1580156132eb57600080fd5b505af11580156132ff573d6000803e3d6000fd5b50505050612c098183613700565b604080516001600160a01b038481166024830152604480830185905283518084039091018152606490920183526020820180516001600160e01b031663a9059cbb60e01b1781529251825160009485949389169392918291908083835b602083106133895780518252601f19909201916020918201910161336a565b6001836020036101000a0380198251168184511680821785525050505050509050019150506000604051808303816000865af19150503d80600081146133eb576040519150601f19603f3d011682016040523d82523d6000602084013e6133f0565b606091505b509150915081801561341e57508051158061341e575080806020019051602081101561341b57600080fd5b50515b610aa3576040805162461bcd60e51b815260206004820152600260248201526114d560f21b604482015290519081900360640190fd5b505050565b6000828211156134b0576040805162461bcd60e51b815260206004820152601e60248201527f536166654d6174683a207375627472616374696f6e206f766572666c6f770000604482015290519081900360640190fd5b50900390565b4690565b60008383836134c76134b6565b3060405160200180868152602001858152602001848152602001838152602001826001600160a01b03168152602001955050505050506040516020818303038152906040528051906020012090509392505050565b60008080836135405750869050858082116135375780613539565b815b92506135a5565b85613552575085613539818587611663565b8461356557879150613539828588611663565b613570878787611663565b915087821015613587575085613539818587611663565b879150613595828688611663565b90506135a2828588611663565b92505b955095509592505050565b604080516001600160a01b0385811660248301528481166044830152606480830185905283518084039091018152608490920183526020820180516001600160e01b03166323b872dd60e01b178152925182516000948594938a169392918291908083835b602083106136345780518252601f199092019160209182019101613615565b6001836020036101000a0380198251168184511680821785525050505050509050019150506000604051808303816000865af19150503d8060008114613696576040519150601f19603f3d011682016040523d82523d6000602084013e61369b565b606091505b50915091508180156136c95750805115806136c957508080602001905160208110156136c657600080fd5b50515b610ea0576040805162461bcd60e51b815260206004820152600360248201526229aa2360e91b604482015290519081900360640190fd5b604080516000808252602082019092526001600160a01b0384169083906040518082805190602001908083835b6020831061374c5780518252601f19909201916020918201910161372d565b6001836020036101000a03801982511681845116808217855250505050505090500191505060006040518083038185875af1925050503d80600081146137ae576040519150601f19603f3d011682016040523d82523d6000602084013e6137b3565b606091505b5050905080613454576040805162461bcd60e51b815260206004820152600360248201526253544560e81b604482015290519081900360640190fd5b60008060008060006138028888886131e8565b90506001600160801b038116156138295761381e888888614258565b929750909550935091505b939792965093509350565b6040805160609490941b6bffffffffffffffffffffffff1916602080860191909152600293840b60e890811b60348701529290930b90911b60378401528051808403601a018152603a9093019052815191012090565b60008060008360020b126138a1578260020b6138a9565b8260020b6000035b9050620d89e88111156138e7576040805162461bcd60e51b81526020600482015260016024820152601560fa1b604482015290519081900360640190fd5b6000600182166138fb57600160801b61390d565b6ffffcb933bd6fad37aa2d162d1a5940015b70ffffffffffffffffffffffffffffffffff1690506002821615613941576ffff97272373d413259a46990580e213a0260801c5b6004821615613960576ffff2e50f5f656932ef12357cf3c7fdcc0260801c5b600882161561397f576fffe5caca7e10e4e61c3624eaa0941cd00260801c5b601082161561399e576fffcb9843d60f6159c9db58835c9266440260801c5b60208216156139bd576fff973b41fa98c081472e6896dfb254c00260801c5b60408216156139dc576fff2ea16466c96a3843ec78b326b528610260801c5b60808216156139fb576ffe5dee046a99a2a811c461f1969c30530260801c5b610100821615613a1b576ffcbe86c7900a88aedcffc83b479aa3a40260801c5b610200821615613a3b576ff987a7253ac413176f2b074cf7815e540260801c5b610400821615613a5b576ff3392b0822b70005940c7a398e4b70f30260801c5b610800821615613a7b576fe7159475a2c29b7443b29c7fa6e889d90260801c5b611000821615613a9b576fd097f3bdfd2022b8845ad8f792aa58250260801c5b612000821615613abb576fa9f746462d870fdf8a65dc1f90e061e50260801c5b614000821615613adb576f70d869a156d2a1b890bb3df62baf32f70260801c5b618000821615613afb576f31be135f97d08fd981231505542fcfa60260801c5b62010000821615613b1c576f09aa508b5b7a84e1c677de54f3e99bc90260801c5b62020000821615613b3c576e5d6af8dedb81196699c329225ee6040260801c5b62040000821615613b5b576d2216e584f5fa1ea926041bedfe980260801c5b62080000821615613b78576b048a170391f7dc42444e8fa20260801c5b60008460020b1315613b93578060001981613b8f57fe5b0490505b640100000000810615613ba7576001613baa565b60005b60ff16602082901c0192505050919050565b6000836001600160a01b0316856001600160a01b03161115613bdc579293925b846001600160a01b0316866001600160a01b031611613c0757613c008585856142a4565b9050612ecf565b836001600160a01b0316866001600160a01b03161015613c69576000613c2e8786866142a4565b90506000613c3d878986614307565b9050806001600160801b0316826001600160801b031610613c5e5780613c60565b815b92505050612ecf565b613c74858584614307565b9695505050505050565b600080836001600160a01b0316856001600160a01b03161115613c9f579293925b846001600160a01b0316866001600160a01b031611613cca57613cc3858585614344565b9150612f66565b836001600160a01b0316866001600160a01b03161015613d0357613cef868585614344565b9150613cfc8587856143ad565b9050612f66565b613d0e8585856143ad565b905094509492505050565b6000821580613d3457505081810281838281613d3157fe5b04145b61088157600080fd5b6000806000613d4f8888888888612e44565b9050613d5d88828787612ed8565b90999098509650505050505050565b600082613d7a5750836129c2565b6fffffffffffffffffffffffffffffffff60601b606085901b168215613e11576001600160a01b03861684810290858281613db157fe5b041415613de257818101828110613de057613dd683896001600160a01b0316836143f0565b93505050506129c2565b505b613e0882613e03878a6001600160a01b03168681613dfc57fe5b0490611c0a565b61442a565b925050506129c2565b6001600160a01b03861684810290858281613e2857fe5b04148015613e3557508082115b613e3e57600080fd5b808203613dd6613e58846001600160a01b038b16846143f0565b614435565b60006401000276a36001600160a01b03831610801590613e99575073fffd8963efd1fc6a506488495d951d5263988d266001600160a01b038316105b613ece576040805162461bcd60e51b81526020600482015260016024820152602960f91b604482015290519081900360640190fd5b640100000000600160c01b03602083901b166001600160801b03811160071b81811c67ffffffffffffffff811160061b90811c63ffffffff811160051b90811c61ffff811160041b90811c60ff8111600390811b91821c600f811160021b90811c918211600190811b92831c97908811961790941790921717909117171760808110613f6257607f810383901c9150613f6c565b80607f0383901b91505b908002607f81811c60ff83811c9190911c800280831c81831c1c800280841c81841c1c800280851c81851c1c800280861c81861c1c800280871c81871c1c800280881c81881c1c800280891c81891c1c8002808a1c818a1c1c8002808b1c818b1c1c8002808c1c818c1c1c8002808d1c818d1c1c8002808e1c9c81901c9c909c1c80029c8d901c9e9d607f198f0160401b60c09190911c678000000000000000161760c19b909b1c674000000000000000169a909a1760c29990991c672000000000000000169890981760c39790971c671000000000000000169690961760c49590951c670800000000000000169490941760c59390931c670400000000000000169290921760c69190911c670200000000000000161760c79190911c670100000000000000161760c89190911c6680000000000000161760c99190911c6640000000000000161760ca9190911c6620000000000000161760cb9190911c6610000000000000161760cc9190911c6608000000000000161760cd9190911c66040000000000001617693627a301d71055774c8581026f028f6481ab7f045a5af012a19d003aa9198101608090811d906fdb2df09e81959a81455e260799a0632f8301901d600281810b9083900b1461416d57886001600160a01b03166141518261388a565b6001600160a01b031611156141665781614168565b805b61416f565b815b9998505050505050505050565b600081156141ea5760006001600160a01b038411156141b2576141ad84600160601b876001600160801b0316611663565b6141ca565b6001600160801b038516606085901b816141c857fe5b045b90506141e2613e586001600160a01b03881683611c0a565b9150506129c2565b60006001600160a01b038411156142185761421384600160601b876001600160801b03166143f0565b61422f565b61422f606085901b6001600160801b03871661442a565b905080866001600160a01b03161161424657600080fd5b6001600160a01b0386160390506129c2565b600080600080600080600061426e8a8a8a612c0d565b9250925092506000806142838c868d8d612ed8565b9099509750506001600160801b039283169550501691505093509350935093565b6000826001600160a01b0316846001600160a01b031611156142c4579192915b60006142e7856001600160a01b0316856001600160a01b0316600160601b611663565b9050612ecf61430284838888036001600160a01b0316611663565b61444b565b6000826001600160a01b0316846001600160a01b03161115614327579192915b6129c261430283600160601b8787036001600160a01b0316611663565b6000826001600160a01b0316846001600160a01b03161115614364579192915b836001600160a01b031661439d606060ff16846001600160801b0316901b8686036001600160a01b0316866001600160a01b0316611663565b816143a457fe5b04949350505050565b6000826001600160a01b0316846001600160a01b031611156143cd579192915b6129c2826001600160801b03168585036001600160a01b0316600160601b611663565b60006143fd848484611663565b90506000828061440957fe5b848609111561090e57600019811061442057600080fd5b6001019392505050565b808204910615150190565b806001600160a01b0381168114610ac757600080fd5b806001600160801b0381168114610ac757600080fd5b604051806101c001604052806000815260200160008152602001600060020b8152602001600060020b8152602001600060020b8152602001600081526020016000815260200160006001600160801b0316815260200160008152602001600081526020016000151581526020016000815260200160006001600160a01b0316815260200160006001600160a01b031681525090565b60008083601f840112614507578182fd5b50813567ffffffffffffffff81111561451e578182fd5b60208301915083602082850101111561453657600080fd5b9250929050565b60006020828403121561454e578081fd5b813561090e816149de565b6000806040838503121561456b578081fd5b8235614576816149de565b91506020830135614586816149de565b809150509250929050565b600080600080600060a086880312156145a8578081fd5b85516145b3816149de565b60208701519095506145c4816149de565b60408701519094506145d5816149de565b60608701519093506145e681614a04565b60808701519092506145f781614a04565b809150509295509295909350565b600080600060608486031215614619578283fd5b8335614624816149de565b92506020840135614634816149de565b929592945050506040919091013590565b600080600080600080600060e0888a03121561465f578182fd5b873561466a816149de565b9650602088013561467a816149de565b95506040880135945060608801359350608088013561469881614a04565b9699959850939692959460a0840135945060c09093013592915050565b600080604083850312156146c7578182fd5b82356146d2816149de565b946020939093013593505050565b6000602082840312156146f1578081fd5b813561090e816149f6565b60006020828403121561470d578081fd5b815161090e816149f6565b600060208284031215614729578081fd5b81518060020b811461090e578182fd5b6000806000806060858703121561474e578081fd5b8435935060208501359250604085013567ffffffffffffffff811115614772578182fd5b61477e878288016144f6565b95989497509550505050565b60006020828403121561479b578081fd5b5051919050565b6000806000606084860312156147b6578081fd5b8335925060208401356147c8816149de565b915060408401356147d8816149f6565b809150509250925092565b6000806000606084860312156147f7578081fd5b833592506020840135915060408401356147d8816149de565b60008060008060608587031215614825578182fd5b8435935060208501359250604085013567ffffffffffffffff811115614772578283fd5b6001600160a01b0391909116815260200190565b6001600160a01b039485168152928416602084015262ffffff919091166040830152909116606082015260800190565b6001600160a01b0392909216825260020b602082015260400190565b6001600160a01b03929092168252602082015260400190565b901515815260200190565b9515158652602086019490945260408501929092526060840152608083015260a082015260c00190565b90815260200190565b600294850b815292840b602084015290830b604083015290910b606082015260800190565b6000602080835283518082850152825b8181101561495157858101830151858201604001528201614935565b818111156149625783604083870101525b50601f01601f1916929092016040019392505050565b918252602082015260400190565b9283526020830191909152604082015260600190565b9586526020860194909452604085019290925260608401526001600160801b0390811660808401521660a082015260c00190565b60ff91909116815260200190565b6001600160a01b03811681146149f357600080fd5b50565b80151581146149f357600080fd5b60ff811681146149f357600080fdfe45524332303a207472616e7366657220746f20746865207a65726f206164647265737345524332303a206275726e20616d6f756e7420657863656564732062616c616e636545524332303a20617070726f766520746f20746865207a65726f206164647265737345524332303a207472616e7366657220616d6f756e7420657863656564732062616c616e636553616665436173743a2076616c756520646f65736e27742066697420696e20313238206269747345434453413a20696e76616c6964207369676e6174757265202773272076616c756545434453413a20696e76616c6964207369676e6174757265202776272076616c756545524332303a207472616e7366657220616d6f756e74206578636565647320616c6c6f77616e636545524332303a206275726e2066726f6d20746865207a65726f206164647265737345524332303a207472616e736665722066726f6d20746865207a65726f206164647265737345524332303a20617070726f76652066726f6d20746865207a65726f206164647265737345524332303a2064656372656173656420616c6c6f77616e63652062656c6f77207a65726fa2646970667358221220a7d3a3dd1ebd13cc4b8d3ed042e6fe3cbe3422ee8db211830b6189b8393007e164736f6c63430007060033a26469706673582212207856412f8f62057a3dfb2710a35eec4b14da120c0f8c4f509a0b6f12dec00dcb64736f6c63430007060033a26469706673582212208dfafd8c5b08267893309b617437189ed7a1fc6083cd6f8fde811e9cf2f9f97164736f6c634300070600330000000000000000000000007109709ecfa91a80626ff3989d68f67f5b1dd12d",
    "linkReferences": {}
  }
}