{
  "abi": [
    {
      "inputs": [
        {
          "internalType": "address",
          "name": "_timelockAddress",
          "type": "address"
        },
        {
          "internalType": "address[]",
          "name": "_lockedFundAddresses",
          "type": "address[]"
        }
      ],
      "stateMutability": "nonpayable",
      "type": "constructor"
    },
    {
      "anonymous": false,
      "inputs": [
        {
          "indexed": true,
          "internalType": "address",
          "name": "tokenAddress",
          "type": "address"
        },
        {
          "indexed": true,
          "internalType": "uint256",
          "name": "pilotAmount",
          "type": "uint256"
        },
        {
          "indexed": true,
          "internalType": "uint256",
          "name": "tokenAmount",
          "type": "uint256"
        },
        {
          "indexed": false,
          "internalType": "uint256",
          "name": "circulatingPilotSupply",
          "type": "uint256"
        }
      ],
      "name": "Withdrawn",
      "type": "event"
    },
    {
      "stateMutability": "payable",
      "type": "fallback"
    },
    {
      "inputs": [
        {
          "internalType": "address[]",
          "name": "_accounts",
          "type": "address[]"
        }
      ],
      "name": "addLockedFundsAddresses",
      "outputs": [],
      "stateMutability": "nonpayable",
      "type": "function"
    },
    {
      "inputs": [],
      "name": "circulatingSupply",
      "outputs": [
        {
          "internalType": "uint256",
          "name": "supply",
          "type": "uint256"
        }
      ],
      "stateMutability": "view",
      "type": "function"
    },
    {
      "inputs": [
        {
          "internalType": "uint256",
          "name": "",
          "type": "uint256"
        }
      ],
      "name": "lockedFundAddresses",
      "outputs": [
        {
          "internalType": "address",
          "name": "",
          "type": "address"
        }
      ],
      "stateMutability": "view",
      "type": "function"
    },
    {
      "inputs": [
        {
          "internalType": "address payable",
          "name": "_newVersion",
          "type": "address"
        },
        {
          "internalType": "address[]",
          "name": "tokens",
          "type": "address[]"
        }
      ],
      "name": "migrateFunds",
      "outputs": [],
      "stateMutability": "nonpayable",
      "type": "function"
    },
    {
      "inputs": [
        {
          "internalType": "uint256",
          "name": "_index",
          "type": "uint256"
        }
      ],
      "name": "removeLockedFundsAddress",
      "outputs": [],
      "stateMutability": "nonpayable",
      "type": "function"
    },
    {
      "inputs": [
        {
          "internalType": "address[]",
          "name": "_tokenAddresses",
          "type": "address[]"
        },
        {
          "internalType": "uint256",
          "name": "_pilotAmount",
          "type": "uint256"
        }
      ],
      "name": "withdraw",
      "outputs": [],
      "stateMutability": "nonpayable",
      "type": "function"
    },
    {
      "stateMutability": "payable",
      "type": "receive"
    }
  ],
  "bytecode": {
    "object": "0x60806040523480156200001157600080fd5b506040516200115338038062001153833981810160405260408110156200003757600080fd5b8151602083018051604051929492938301929190846401000000008211156200005f57600080fd5b9083019060208201858111156200007557600080fd5b82518660208202830111640100000000821117156200009357600080fd5b82525081516020918201928201910280838360005b83811015620000c2578181015183820152602001620000a8565b50505050919091016040525050600080546001600160a01b0319166001600160a01b03861617905550508051620001019060019060208401906200010a565b5050506200018b565b82805482825590600052602060002090810192821562000162579160200282015b828111156200016257825182546001600160a01b0319166001600160a01b039091161782556020909201916001909101906200012b565b506200017092915062000174565b5090565b5b8082111562000170576000815560010162000175565b610fb8806200019b6000396000f3fe6080604052600436106100595760003560e01c806317764f0b146100625780634333c5a51461008c578063515fdde31461013c5780639358928b146101c957806397ecc0fb146101f0578063e3511faf1461023657610060565b3661006057005b005b34801561006e57600080fd5b506100606004803603602081101561008557600080fd5b50356102e8565b34801561009857600080fd5b50610060600480360360208110156100af57600080fd5b8101906020810181356401000000008111156100ca57600080fd5b8201836020820111156100dc57600080fd5b803590602001918460208302840111640100000000831117156100fe57600080fd5b9190808060200260200160405190810160405280939291908181526020018383602002808284376000920191909152509295506103ec945050505050565b34801561014857600080fd5b506100606004803603604081101561015f57600080fd5b6001600160a01b03823516919081019060408101602082013564010000000081111561018a57600080fd5b82018360208201111561019c57600080fd5b803590602001918460208302840111640100000000831117156101be57600080fd5b509092509050610534565b3480156101d557600080fd5b506101de6106d0565b60408051918252519081900360200190f35b3480156101fc57600080fd5b5061021a6004803603602081101561021357600080fd5b5035610823565b604080516001600160a01b039092168252519081900360200190f35b34801561024257600080fd5b506100606004803603604081101561025957600080fd5b81019060208101813564010000000081111561027457600080fd5b82018360208201111561028657600080fd5b803590602001918460208302840111640100000000831117156102a857600080fd5b919080806020026020016040519081016040528093929190818152602001838360200280828437600092019190915250929550509135925061084d915050565b6000546001600160a01b03163314610343576040805162461bcd60e51b8152602060048201526019602482015278494e4445585f46554e443a3a204e4f545f54494d454c4f434b60381b604482015290519081900360640190fd5b60006001600160a01b03166001828154811061035b57fe5b6000918252602090912001546001600160a01b031614156103c3576040805162461bcd60e51b815260206004820152601f60248201527f494e4445585f46554e443a3a20454c454d454e545f4e4f545f45584953545300604482015290519081900360640190fd5b600181815481106103d057fe5b600091825260209091200180546001600160a01b031916905550565b6000546001600160a01b03163314610447576040805162461bcd60e51b8152602060048201526019602482015278494e4445585f46554e443a3a204e4f545f54494d454c4f434b60381b604482015290519081900360640190fd5b60005b81518162ffffff1610156105305760006001600160a01b0316828262ffffff168151811061047457fe5b60200260200101516001600160a01b031614156104d8576040805162461bcd60e51b815260206004820152601960248201527f494e4445585f46554e443a3a205a45524f5f4144445245535300000000000000604482015290519081900360640190fd5b6001828262ffffff16815181106104eb57fe5b60209081029190910181015182546001808201855560009485529290932090920180546001600160a01b0319166001600160a01b03909316929092179091550161044a565b5050565b6000546001600160a01b0316331461058f576040805162461bcd60e51b8152602060048201526019602482015278494e4445585f46554e443a3a204e4f545f54494d454c4f434b60381b604482015290519081900360640190fd5b3060005b62ffffff811683111561067e576106768585858462ffffff168181106105b557fe5b905060200201356001600160a01b03166001600160a01b03166370a08231856040518263ffffffff1660e01b815260040180826001600160a01b0316815260200191505060206040518083038186803b15801561061157600080fd5b505afa158015610625573d6000803e3d6000fd5b505050506040513d602081101561063b57600080fd5b5051868662ffffff861681811061064e57fe5b905060200201356001600160a01b03166001600160a01b0316610ae09092919063ffffffff16565b600101610593565b506001600160a01b03811631156106ca576040516001600160a01b03808616919083163180156108fc02916000818181858888f193505050501580156106c8573d6000803e3d6000fd5b505b50505050565b60008060005b60015462ffffff821610156107a157732e53716051be4bcce9f546fcfb0ef7632e505dbd6001600160a01b03166370a0823160018362ffffff168154811061071a57fe5b60009182526020918290200154604080516001600160e01b031960e086901b1681526001600160a01b0390921660048301525160248083019392829003018186803b15801561076857600080fd5b505afa15801561077c573d6000803e3d6000fd5b505050506040513d602081101561079257600080fd5b505191909101906001016106d6565b5080732e53716051be4bcce9f546fcfb0ef7632e505dbd6001600160a01b03166318160ddd6040518163ffffffff1660e01b815260040160206040518083038186803b1580156107f057600080fd5b505afa158015610804573d6000803e3d6000fd5b505050506040513d602081101561081a57600080fd5b50510392915050565b6001818154811061083357600080fd5b6000918252602090912001546001600160a01b0316905081565b6000806108586106d0565b905042333083670de0b6b3a764000087028161087057fe5b049450732e53716051be4bcce9f546fcfb0ef7632e505dbd6001600160a01b03166379cc679083886040518363ffffffff1660e01b815260040180836001600160a01b0316815260200182815260200192505050600060405180830381600087803b1580156108de57600080fd5b505af11580156108f2573d6000803e3d6000fd5b5050505060005b8751811015610ad657600088828151811061091057fe5b602090810291909101810151604080516001600160a01b039283168185015291871682820152606080830189905281518084039091018152608090920181528151918301919091206000818152600290935291205490915060ff16156109a75760405162461bcd60e51b8152600401808060200182810382526023815260200180610f366023913960400191505060405180910390fd5b60006109c78a84815181106109b857fe5b6020026020010151858a610b37565b6000838152600260205260408120805460ff191660011790558b51919250908b90859081106109f257fe5b60200260200101516001600160a01b031614610a3e57610a3985828c8681518110610a1957fe5b60200260200101516001600160a01b0316610ae09092919063ffffffff16565b610a76565b6040516001600160a01b0386169082156108fc029083906000818181858888f19350505050158015610a74573d6000803e3d6000fd5b505b80898b8581518110610a8457fe5b60200260200101516001600160a01b03167f75e161b3e824b114fc1a33274bd7091918dd4e639cede50b78b15a4eea956a218a6040518082815260200191505060405180910390a450506001016108f9565b5050505050505050565b604080516001600160a01b038416602482015260448082018490528251808303909101815260649091019091526020810180516001600160e01b031663a9059cbb60e01b179052610b32908490610c40565b505050565b6000806001600160a01b03851615610bc757846001600160a01b03166370a08231856040518263ffffffff1660e01b815260040180826001600160a01b0316815260200191505060206040518083038186803b158015610b9657600080fd5b505afa158015610baa573d6000803e3d6000fd5b505050506040513d6020811015610bc057600080fd5b5051610bd3565b836001600160a01b0316315b905060008111610c2a576040805162461bcd60e51b815260206004820152601860248201527f494e44455846554e443a3a205a45524f5f42414c414e43450000000000000000604482015290519081900360640190fd5b670de0b6b3a76400008184020495945050505050565b6000610c95826040518060400160405280602081526020017f5361666545524332303a206c6f772d6c6576656c2063616c6c206661696c6564815250856001600160a01b0316610cf19092919063ffffffff16565b805190915015610b3257808060200190516020811015610cb457600080fd5b5051610b325760405162461bcd60e51b815260040180806020018281038252602a815260200180610f59602a913960400191505060405180910390fd5b6060610d008484600085610d0a565b90505b9392505050565b606082471015610d4b5760405162461bcd60e51b8152600401808060200182810382526026815260200180610f106026913960400191505060405180910390fd5b610d5485610e65565b610da5576040805162461bcd60e51b815260206004820152601d60248201527f416464726573733a2063616c6c20746f206e6f6e2d636f6e7472616374000000604482015290519081900360640190fd5b600080866001600160a01b031685876040518082805190602001908083835b60208310610de35780518252601f199092019160209182019101610dc4565b6001836020036101000a03801982511681845116808217855250505050505090500191505060006040518083038185875af1925050503d8060008114610e45576040519150601f19603f3d011682016040523d82523d6000602084013e610e4a565b606091505b5091509150610e5a828286610e6b565b979650505050505050565b3b151590565b60608315610e7a575081610d03565b825115610e8a5782518084602001fd5b8160405162461bcd60e51b81526004018080602001828103825283818151815260200191508051906020019080838360005b83811015610ed4578181015183820152602001610ebc565b50505050905090810190601f168015610f015780820380516001836020036101000a031916815260200191505b509250505060405180910390fdfe416464726573733a20696e73756666696369656e742062616c616e636520666f722063616c6c494e44455846554e443a3a20544f4b454e5f414c52454144595f57495448445241574e5361666545524332303a204552433230206f7065726174696f6e20646964206e6f742073756363656564a26469706673582212202ae74c9ed08bda2a79c3199315582af709e9f7535853281e728238cf7c51dc5564736f6c63430007060033",
    "linkReferences": {}
  }
}