{
  "contracts/test/UnipilotTokenProxy.sol": {
    "UnipilotTokenProxy": {
      "abi": [
        {
          "inputs": [
            {
              "internalType": "address",
              "name": "_timelock",
              "type": "address"
            }
          ],
          "stateMutability": "nonpayable",
          "type": "constructor"
        },
        {
          "anonymous": false,
          "inputs": [
            {
              "indexed": false,
              "internalType": "address",
              "name": "minter",
              "type": "address"
            },
            {
              "indexed": false,
              "internalType": "bool",
              "name": "status",
              "type": "bool"
            }
          ],
          "name": "MinterUpdated",
          "type": "event"
        },
        {
          "anonymous": false,
          "inputs": [
            {
              "indexed": false,
              "internalType": "address",
              "name": "previousTimelock",
              "type": "address"
            },
            {
              "indexed": false,
              "internalType": "address",
              "name": "newTimelock",
              "type": "address"
            }
          ],
          "name": "TimelockUpdated",
          "type": "event"
        },
        {
          "inputs": [
            {
              "internalType": "address",
              "name": "_to",
              "type": "address"
            },
            {
              "internalType": "uint256",
              "name": "_value",
              "type": "uint256"
            }
          ],
          "name": "mint",
          "outputs": [],
          "stateMutability": "nonpayable",
          "type": "function"
        },
        {
          "inputs": [
            {
              "internalType": "address",
              "name": "",
              "type": "address"
            }
          ],
          "name": "minter",
          "outputs": [
            {
              "internalType": "bool",
              "name": "",
              "type": "bool"
            }
          ],
          "stateMutability": "view",
          "type": "function"
        },
        {
          "inputs": [],
          "name": "timelock",
          "outputs": [
            {
              "internalType": "address",
              "name": "",
              "type": "address"
            }
          ],
          "stateMutability": "view",
          "type": "function"
        },
        {
          "inputs": [
            {
              "internalType": "address",
              "name": "_minter",
              "type": "address"
            }
          ],
          "name": "updateMinter",
          "outputs": [],
          "stateMutability": "nonpayable",
          "type": "function"
        },
        {
          "inputs": [
            {
              "internalType": "address",
              "name": "_timelock",
              "type": "address"
            }
          ],
          "name": "updateTimelock",
          "outputs": [],
          "stateMutability": "nonpayable",
          "type": "function"
        }
      ],
      "evm": {
        "bytecode": {
          "linkReferences": {},
          "object": "608060405234801561001057600080fd5b5060405161042e38038061042e8339818101604052602081101561003357600080fd5b5051600080546001600160a01b039092166001600160a01b03199092169190911790556103c9806100656000396000f3fe608060405234801561001057600080fd5b50600436106100575760003560e01c80633dd08c381461005c57806340c10f19146100965780634eb03f6e146100c4578063a890c910146100ea578063d33219b414610110575b600080fd5b6100826004803603602081101561007257600080fd5b50356001600160a01b0316610134565b604080519115158252519081900360200190f35b6100c2600480360360408110156100ac57600080fd5b506001600160a01b038135169060200135610149565b005b6100c2600480360360208110156100da57600080fd5b50356001600160a01b031661022b565b6100c26004803603602081101561010057600080fd5b50356001600160a01b03166102e2565b61011861038d565b604080516001600160a01b039092168252519081900360200190f35b60016020526000908152604090205460ff1681565b3360009081526001602052604090205460ff166101ad576040805162461bcd60e51b815260206004820152601e60248201527f50494c4f545f544f4b454e5f50524f58593a3a204e4f545f4d494e5445520000604482015290519081900360640190fd5b604080516340c10f1960e01b81526001600160a01b0384166004820152602481018390529051732e53716051be4bcce9f546fcfb0ef7632e505dbd916340c10f1991604480830192600092919082900301818387803b15801561020f57600080fd5b505af1158015610223573d6000803e3d6000fd5b505050505050565b6000546001600160a01b03163314610278576040805162461bcd60e51b8152602060048201819052602482015260008051602061039d833981519152604482015290519081900360640190fd5b6001600160a01b038116600081815260016020908152604091829020805460ff81161560ff1990911681179091558251938452908301819052815190927fb21afb9ce9be0a676f8f317ff0ca072fb89a4f8ce2d1b6fe80f8755c14f1cb1992908290030190a15050565b6000546001600160a01b0316331461032f576040805162461bcd60e51b8152602060048201819052602482015260008051602061039d833981519152604482015290519081900360640190fd5b600080546001600160a01b031981166001600160a01b0384811691821790935560408051939092168352602083015280517fae97011a27b5efe7b1d76fe38e75cc498fd64cc24e407a9c6b2185d27f611f7e9281900390910190a150565b6000546001600160a01b03168156fe50494c4f545f544f4b454e5f50524f58593a3a204e4f545f54494d454c4f434ba164736f6c6343000706000a",
          "opcodes": "PUSH1 0x80 PUSH1 0x40 MSTORE CALLVALUE DUP1 ISZERO PUSH2 0x10 JUMPI PUSH1 0x0 DUP1 REVERT JUMPDEST POP PUSH1 0x40 MLOAD PUSH2 0x42E CODESIZE SUB DUP1 PUSH2 0x42E DUP4 CODECOPY DUP2 DUP2 ADD PUSH1 0x40 MSTORE PUSH1 0x20 DUP2 LT ISZERO PUSH2 0x33 JUMPI PUSH1 0x0 DUP1 REVERT JUMPDEST POP MLOAD PUSH1 0x0 DUP1 SLOAD PUSH1 0x1 PUSH1 0x1 PUSH1 0xA0 SHL SUB SWAP1 SWAP3 AND PUSH1 0x1 PUSH1 0x1 PUSH1 0xA0 SHL SUB NOT SWAP1 SWAP3 AND SWAP2 SWAP1 SWAP2 OR SWAP1 SSTORE PUSH2 0x3C9 DUP1 PUSH2 0x65 PUSH1 0x0 CODECOPY PUSH1 0x0 RETURN INVALID PUSH1 0x80 PUSH1 0x40 MSTORE CALLVALUE DUP1 ISZERO PUSH2 0x10 JUMPI PUSH1 0x0 DUP1 REVERT JUMPDEST POP PUSH1 0x4 CALLDATASIZE LT PUSH2 0x57 JUMPI PUSH1 0x0 CALLDATALOAD PUSH1 0xE0 SHR DUP1 PUSH4 0x3DD08C38 EQ PUSH2 0x5C JUMPI DUP1 PUSH4 0x40C10F19 EQ PUSH2 0x96 JUMPI DUP1 PUSH4 0x4EB03F6E EQ PUSH2 0xC4 JUMPI DUP1 PUSH4 0xA890C910 EQ PUSH2 0xEA JUMPI DUP1 PUSH4 0xD33219B4 EQ PUSH2 0x110 JUMPI JUMPDEST PUSH1 0x0 DUP1 REVERT JUMPDEST PUSH2 0x82 PUSH1 0x4 DUP1 CALLDATASIZE SUB PUSH1 0x20 DUP2 LT ISZERO PUSH2 0x72 JUMPI PUSH1 0x0 DUP1 REVERT JUMPDEST POP CALLDATALOAD PUSH1 0x1 PUSH1 0x1 PUSH1 0xA0 SHL SUB AND PUSH2 0x134 JUMP JUMPDEST PUSH1 0x40 DUP1 MLOAD SWAP2 ISZERO ISZERO DUP3 MSTORE MLOAD SWAP1 DUP2 SWAP1 SUB PUSH1 0x20 ADD SWAP1 RETURN JUMPDEST PUSH2 0xC2 PUSH1 0x4 DUP1 CALLDATASIZE SUB PUSH1 0x40 DUP2 LT ISZERO PUSH2 0xAC JUMPI PUSH1 0x0 DUP1 REVERT JUMPDEST POP PUSH1 0x1 PUSH1 0x1 PUSH1 0xA0 SHL SUB DUP2 CALLDATALOAD AND SWAP1 PUSH1 0x20 ADD CALLDATALOAD PUSH2 0x149 JUMP JUMPDEST STOP JUMPDEST PUSH2 0xC2 PUSH1 0x4 DUP1 CALLDATASIZE SUB PUSH1 0x20 DUP2 LT ISZERO PUSH2 0xDA JUMPI PUSH1 0x0 DUP1 REVERT JUMPDEST POP CALLDATALOAD PUSH1 0x1 PUSH1 0x1 PUSH1 0xA0 SHL SUB AND PUSH2 0x22B JUMP JUMPDEST PUSH2 0xC2 PUSH1 0x4 DUP1 CALLDATASIZE SUB PUSH1 0x20 DUP2 LT ISZERO PUSH2 0x100 JUMPI PUSH1 0x0 DUP1 REVERT JUMPDEST POP CALLDATALOAD PUSH1 0x1 PUSH1 0x1 PUSH1 0xA0 SHL SUB AND PUSH2 0x2E2 JUMP JUMPDEST PUSH2 0x118 PUSH2 0x38D JUMP JUMPDEST PUSH1 0x40 DUP1 MLOAD PUSH1 0x1 PUSH1 0x1 PUSH1 0xA0 SHL SUB SWAP1 SWAP3 AND DUP3 MSTORE MLOAD SWAP1 DUP2 SWAP1 SUB PUSH1 0x20 ADD SWAP1 RETURN JUMPDEST PUSH1 0x1 PUSH1 0x20 MSTORE PUSH1 0x0 SWAP1 DUP2 MSTORE PUSH1 0x40 SWAP1 KECCAK256 SLOAD PUSH1 0xFF AND DUP2 JUMP JUMPDEST CALLER PUSH1 0x0 SWAP1 DUP2 MSTORE PUSH1 0x1 PUSH1 0x20 MSTORE PUSH1 0x40 SWAP1 KECCAK256 SLOAD PUSH1 0xFF AND PUSH2 0x1AD JUMPI PUSH1 0x40 DUP1 MLOAD PUSH3 0x461BCD PUSH1 0xE5 SHL DUP2 MSTORE PUSH1 0x20 PUSH1 0x4 DUP3 ADD MSTORE PUSH1 0x1E PUSH1 0x24 DUP3 ADD MSTORE PUSH32 0x50494C4F545F544F4B454E5F50524F58593A3A204E4F545F4D494E5445520000 PUSH1 0x44 DUP3 ADD MSTORE SWAP1 MLOAD SWAP1 DUP2 SWAP1 SUB PUSH1 0x64 ADD SWAP1 REVERT JUMPDEST PUSH1 0x40 DUP1 MLOAD PUSH4 0x40C10F19 PUSH1 0xE0 SHL DUP2 MSTORE PUSH1 0x1 PUSH1 0x1 PUSH1 0xA0 SHL SUB DUP5 AND PUSH1 0x4 DUP3 ADD MSTORE PUSH1 0x24 DUP2 ADD DUP4 SWAP1 MSTORE SWAP1 MLOAD PUSH20 0x2E53716051BE4BCCE9F546FCFB0EF7632E505DBD SWAP2 PUSH4 0x40C10F19 SWAP2 PUSH1 0x44 DUP1 DUP4 ADD SWAP3 PUSH1 0x0 SWAP3 SWAP2 SWAP1 DUP3 SWAP1 SUB ADD DUP2 DUP4 DUP8 DUP1 EXTCODESIZE ISZERO DUP1 ISZERO PUSH2 0x20F JUMPI PUSH1 0x0 DUP1 REVERT JUMPDEST POP GAS CALL ISZERO DUP1 ISZERO PUSH2 0x223 JUMPI RETURNDATASIZE PUSH1 0x0 DUP1 RETURNDATACOPY RETURNDATASIZE PUSH1 0x0 REVERT JUMPDEST POP POP POP POP POP POP JUMP JUMPDEST PUSH1 0x0 SLOAD PUSH1 0x1 PUSH1 0x1 PUSH1 0xA0 SHL SUB AND CALLER EQ PUSH2 0x278 JUMPI PUSH1 0x40 DUP1 MLOAD PUSH3 0x461BCD PUSH1 0xE5 SHL DUP2 MSTORE PUSH1 0x20 PUSH1 0x4 DUP3 ADD DUP2 SWAP1 MSTORE PUSH1 0x24 DUP3 ADD MSTORE PUSH1 0x0 DUP1 MLOAD PUSH1 0x20 PUSH2 0x39D DUP4 CODECOPY DUP2 MLOAD SWAP2 MSTORE PUSH1 0x44 DUP3 ADD MSTORE SWAP1 MLOAD SWAP1 DUP2 SWAP1 SUB PUSH1 0x64 ADD SWAP1 REVERT JUMPDEST PUSH1 0x1 PUSH1 0x1 PUSH1 0xA0 SHL SUB DUP2 AND PUSH1 0x0 DUP2 DUP2 MSTORE PUSH1 0x1 PUSH1 0x20 SWAP1 DUP2 MSTORE PUSH1 0x40 SWAP2 DUP3 SWAP1 KECCAK256 DUP1 SLOAD PUSH1 0xFF DUP2 AND ISZERO PUSH1 0xFF NOT SWAP1 SWAP2 AND DUP2 OR SWAP1 SWAP2 SSTORE DUP3 MLOAD SWAP4 DUP5 MSTORE SWAP1 DUP4 ADD DUP2 SWAP1 MSTORE DUP2 MLOAD SWAP1 SWAP3 PUSH32 0xB21AFB9CE9BE0A676F8F317FF0CA072FB89A4F8CE2D1B6FE80F8755C14F1CB19 SWAP3 SWAP1 DUP3 SWAP1 SUB ADD SWAP1 LOG1 POP POP JUMP JUMPDEST PUSH1 0x0 SLOAD PUSH1 0x1 PUSH1 0x1 PUSH1 0xA0 SHL SUB AND CALLER EQ PUSH2 0x32F JUMPI PUSH1 0x40 DUP1 MLOAD PUSH3 0x461BCD PUSH1 0xE5 SHL DUP2 MSTORE PUSH1 0x20 PUSH1 0x4 DUP3 ADD DUP2 SWAP1 MSTORE PUSH1 0x24 DUP3 ADD MSTORE PUSH1 0x0 DUP1 MLOAD PUSH1 0x20 PUSH2 0x39D DUP4 CODECOPY DUP2 MLOAD SWAP2 MSTORE PUSH1 0x44 DUP3 ADD MSTORE SWAP1 MLOAD SWAP1 DUP2 SWAP1 SUB PUSH1 0x64 ADD SWAP1 REVERT JUMPDEST PUSH1 0x0 DUP1 SLOAD PUSH1 0x1 PUSH1 0x1 PUSH1 0xA0 SHL SUB NOT DUP2 AND PUSH1 0x1 PUSH1 0x1 PUSH1 0xA0 SHL SUB DUP5 DUP2 AND SWAP2 DUP3 OR SWAP1 SWAP4 SSTORE PUSH1 0x40 DUP1 MLOAD SWAP4 SWAP1 SWAP3 AND DUP4 MSTORE PUSH1 0x20 DUP4 ADD MSTORE DUP1 MLOAD PUSH32 0xAE97011A27B5EFE7B1D76FE38E75CC498FD64CC24E407A9C6B2185D27F611F7E SWAP3 DUP2 SWAP1 SUB SWAP1 SWAP2 ADD SWAP1 LOG1 POP JUMP JUMPDEST PUSH1 0x0 SLOAD PUSH1 0x1 PUSH1 0x1 PUSH1 0xA0 SHL SUB AND DUP2 JUMP INVALID POP 0x49 0x4C 0x4F SLOAD 0x5F SLOAD 0x4F 0x4B GASLIMIT 0x4E 0x5F POP MSTORE 0x4F PC MSIZE GASPRICE GASPRICE KECCAK256 0x4E 0x4F SLOAD 0x5F SLOAD 0x49 0x4D GASLIMIT 0x4C 0x4F NUMBER 0x4B LOG1 PUSH5 0x736F6C6343 STOP SMOD MOD STOP EXP "
        },
        "methodIdentifiers": {
          "mint(address,uint256)": "40c10f19",
          "minter(address)": "3dd08c38",
          "timelock()": "d33219b4",
          "updateMinter(address)": "4eb03f6e",
          "updateTimelock(address)": "a890c910"
        }
      }
    }
  }
}