{
  "_format": "hh-sol-artifact-1",
  "contractName": "Pilot",
  "sourceName": "contracts/test/PilotToken.sol",
  "abi": [
    {
      "inputs": [
        {
          "internalType": "address",
          "name": "_timelock",
          "type": "address"
        },
        {
          "internalType": "address[]",
          "name": "vestingAddresses",
          "type": "address[]"
        },
        {
          "internalType": "uint256[]",
          "name": "vestingAmounts",
          "type": "uint256[]"
        }
      ],
      "stateMutability": "nonpayable",
      "type": "constructor"
    },
    {
      "anonymous": false,
      "inputs": [
        {
          "indexed": true,
          "internalType": "address",
          "name": "owner",
          "type": "address"
        },
        {
          "indexed": true,
          "internalType": "address",
          "name": "spender",
          "type": "address"
        },
        {
          "indexed": false,
          "internalType": "uint256",
          "name": "value",
          "type": "uint256"
        }
      ],
      "name": "Approval",
      "type": "event"
    },
    {
      "anonymous": false,
      "inputs": [
        {
          "indexed": true,
          "internalType": "address",
          "name": "authorizer",
          "type": "address"
        },
        {
          "indexed": true,
          "internalType": "bytes32",
          "name": "nonce",
          "type": "bytes32"
        }
      ],
      "name": "AuthorizationUsed",
      "type": "event"
    },
    {
      "anonymous": false,
      "inputs": [
        {
          "indexed": true,
          "internalType": "address",
          "name": "from",
          "type": "address"
        },
        {
          "indexed": true,
          "internalType": "address",
          "name": "to",
          "type": "address"
        },
        {
          "indexed": false,
          "internalType": "uint256",
          "name": "value",
          "type": "uint256"
        }
      ],
      "name": "Transfer",
      "type": "event"
    },
    {
      "inputs": [],
      "name": "PERMIT_TYPEHASH",
      "outputs": [
        {
          "internalType": "bytes32",
          "name": "",
          "type": "bytes32"
        }
      ],
      "stateMutability": "view",
      "type": "function"
    },
    {
      "inputs": [],
      "name": "TRANSFER_WITH_AUTHORIZATION_TYPEHASH",
      "outputs": [
        {
          "internalType": "bytes32",
          "name": "",
          "type": "bytes32"
        }
      ],
      "stateMutability": "view",
      "type": "function"
    },
    {
      "inputs": [
        {
          "internalType": "address",
          "name": "owner",
          "type": "address"
        },
        {
          "internalType": "address",
          "name": "spender",
          "type": "address"
        }
      ],
      "name": "allowance",
      "outputs": [
        {
          "internalType": "uint256",
          "name": "",
          "type": "uint256"
        }
      ],
      "stateMutability": "view",
      "type": "function"
    },
    {
      "inputs": [
        {
          "internalType": "address",
          "name": "spender",
          "type": "address"
        },
        {
          "internalType": "uint256",
          "name": "amount",
          "type": "uint256"
        }
      ],
      "name": "approve",
      "outputs": [
        {
          "internalType": "bool",
          "name": "",
          "type": "bool"
        }
      ],
      "stateMutability": "nonpayable",
      "type": "function"
    },
    {
      "inputs": [
        {
          "internalType": "address",
          "name": "",
          "type": "address"
        },
        {
          "internalType": "bytes32",
          "name": "",
          "type": "bytes32"
        }
      ],
      "name": "authorizationState",
      "outputs": [
        {
          "internalType": "bool",
          "name": "",
          "type": "bool"
        }
      ],
      "stateMutability": "view",
      "type": "function"
    },
    {
      "inputs": [
        {
          "internalType": "address",
          "name": "account",
          "type": "address"
        }
      ],
      "name": "balanceOf",
      "outputs": [
        {
          "internalType": "uint256",
          "name": "",
          "type": "uint256"
        }
      ],
      "stateMutability": "view",
      "type": "function"
    },
    {
      "inputs": [
        {
          "internalType": "uint256",
          "name": "amount",
          "type": "uint256"
        }
      ],
      "name": "burn",
      "outputs": [],
      "stateMutability": "nonpayable",
      "type": "function"
    },
    {
      "inputs": [
        {
          "internalType": "address",
          "name": "account",
          "type": "address"
        },
        {
          "internalType": "uint256",
          "name": "amount",
          "type": "uint256"
        }
      ],
      "name": "burnFrom",
      "outputs": [],
      "stateMutability": "nonpayable",
      "type": "function"
    },
    {
      "inputs": [],
      "name": "decimals",
      "outputs": [
        {
          "internalType": "uint8",
          "name": "",
          "type": "uint8"
        }
      ],
      "stateMutability": "view",
      "type": "function"
    },
    {
      "inputs": [
        {
          "internalType": "address",
          "name": "spender",
          "type": "address"
        },
        {
          "internalType": "uint256",
          "name": "subtractedValue",
          "type": "uint256"
        }
      ],
      "name": "decreaseAllowance",
      "outputs": [
        {
          "internalType": "bool",
          "name": "",
          "type": "bool"
        }
      ],
      "stateMutability": "nonpayable",
      "type": "function"
    },
    {
      "inputs": [],
      "name": "getChainId",
      "outputs": [
        {
          "internalType": "uint256",
          "name": "chainId",
          "type": "uint256"
        }
      ],
      "stateMutability": "view",
      "type": "function"
    },
    {
      "inputs": [],
      "name": "getDomainSeparator",
      "outputs": [
        {
          "internalType": "bytes32",
          "name": "",
          "type": "bytes32"
        }
      ],
      "stateMutability": "view",
      "type": "function"
    },
    {
      "inputs": [
        {
          "internalType": "address",
          "name": "spender",
          "type": "address"
        },
        {
          "internalType": "uint256",
          "name": "addedValue",
          "type": "uint256"
        }
      ],
      "name": "increaseAllowance",
      "outputs": [
        {
          "internalType": "bool",
          "name": "",
          "type": "bool"
        }
      ],
      "stateMutability": "nonpayable",
      "type": "function"
    },
    {
      "inputs": [
        {
          "internalType": "address",
          "name": "to",
          "type": "address"
        },
        {
          "internalType": "uint256",
          "name": "value",
          "type": "uint256"
        }
      ],
      "name": "mint",
      "outputs": [],
      "stateMutability": "nonpayable",
      "type": "function"
    },
    {
      "inputs": [],
      "name": "name",
      "outputs": [
        {
          "internalType": "string",
          "name": "",
          "type": "string"
        }
      ],
      "stateMutability": "view",
      "type": "function"
    },
    {
      "inputs": [
        {
          "internalType": "address",
          "name": "",
          "type": "address"
        }
      ],
      "name": "nonces",
      "outputs": [
        {
          "internalType": "uint256",
          "name": "",
          "type": "uint256"
        }
      ],
      "stateMutability": "view",
      "type": "function"
    },
    {
      "inputs": [
        {
          "internalType": "address",
          "name": "owner",
          "type": "address"
        },
        {
          "internalType": "address",
          "name": "spender",
          "type": "address"
        },
        {
          "internalType": "uint256",
          "name": "value",
          "type": "uint256"
        },
        {
          "internalType": "uint256",
          "name": "deadline",
          "type": "uint256"
        },
        {
          "internalType": "uint8",
          "name": "v",
          "type": "uint8"
        },
        {
          "internalType": "bytes32",
          "name": "r",
          "type": "bytes32"
        },
        {
          "internalType": "bytes32",
          "name": "s",
          "type": "bytes32"
        }
      ],
      "name": "permit",
      "outputs": [],
      "stateMutability": "nonpayable",
      "type": "function"
    },
    {
      "inputs": [],
      "name": "symbol",
      "outputs": [
        {
          "internalType": "string",
          "name": "",
          "type": "string"
        }
      ],
      "stateMutability": "view",
      "type": "function"
    },
    {
      "inputs": [],
      "name": "timelock",
      "outputs": [
        {
          "internalType": "address",
          "name": "",
          "type": "address"
        }
      ],
      "stateMutability": "view",
      "type": "function"
    },
    {
      "inputs": [],
      "name": "totalSupply",
      "outputs": [
        {
          "internalType": "uint256",
          "name": "",
          "type": "uint256"
        }
      ],
      "stateMutability": "view",
      "type": "function"
    },
    {
      "inputs": [
        {
          "internalType": "address",
          "name": "recipient",
          "type": "address"
        },
        {
          "internalType": "uint256",
          "name": "amount",
          "type": "uint256"
        }
      ],
      "name": "transfer",
      "outputs": [
        {
          "internalType": "bool",
          "name": "",
          "type": "bool"
        }
      ],
      "stateMutability": "nonpayable",
      "type": "function"
    },
    {
      "inputs": [
        {
          "internalType": "address",
          "name": "sender",
          "type": "address"
        },
        {
          "internalType": "address",
          "name": "recipient",
          "type": "address"
        },
        {
          "internalType": "uint256",
          "name": "amount",
          "type": "uint256"
        }
      ],
      "name": "transferFrom",
      "outputs": [
        {
          "internalType": "bool",
          "name": "",
          "type": "bool"
        }
      ],
      "stateMutability": "nonpayable",
      "type": "function"
    },
    {
      "inputs": [
        {
          "internalType": "address",
          "name": "from",
          "type": "address"
        },
        {
          "internalType": "address",
          "name": "to",
          "type": "address"
        },
        {
          "internalType": "uint256",
          "name": "value",
          "type": "uint256"
        },
        {
          "internalType": "uint256",
          "name": "validAfter",
          "type": "uint256"
        },
        {
          "internalType": "uint256",
          "name": "validBefore",
          "type": "uint256"
        },
        {
          "internalType": "bytes32",
          "name": "nonce",
          "type": "bytes32"
        },
        {
          "internalType": "uint8",
          "name": "v",
          "type": "uint8"
        },
        {
          "internalType": "bytes32",
          "name": "r",
          "type": "bytes32"
        },
        {
          "internalType": "bytes32",
          "name": "s",
          "type": "bytes32"
        }
      ],
      "name": "transferWithAuthorization",
      "outputs": [],
      "stateMutability": "nonpayable",
      "type": "function"
    },
    {
      "inputs": [
        {
          "internalType": "address",
          "name": "newMinter",
          "type": "address"
        }
      ],
      "name": "updateMinter",
      "outputs": [],
      "stateMutability": "nonpayable",
      "type": "function"
    }
  ],
  "bytecode": "0x60806040523480156200001157600080fd5b5060405162001a3138038062001a31833981810160405260608110156200003757600080fd5b8151602083018051604051929492938301929190846401000000008211156200005f57600080fd5b9083019060208201858111156200007557600080fd5b82518660208202830111640100000000821117156200009357600080fd5b82525081516020918201928201910280838360005b83811015620000c2578181015183820152602001620000a8565b5050505090500160405260200180516040519392919084640100000000821115620000ec57600080fd5b9083019060208201858111156200010257600080fd5b82518660208202830111640100000000821117156200012057600080fd5b82525081516020918201928201910280838360005b838110156200014f57818101518382015260200162000135565b50505050909101604081810181526008825267155b9a5c1a5b1bdd60c21b60208084019182528251808401909352600583526414125313d560da1b908301528251929650909450620001a793506003925090620003cd565b508051620001bd906004906020840190620003cd565b50506005805460ff1916601217905550620001d9828262000207565b5050600580546001600160a01b0390921661010002610100600160a81b031990921691909117905562000479565b60005b825181101562000257576200024e8382815181106200022557fe5b60200260200101518383815181106200023a57fe5b60200260200101516200025c60201b60201c565b6001016200020a565b505050565b6001600160a01b038216620002b8576040805162461bcd60e51b815260206004820152601f60248201527f45524332303a206d696e7420746f20746865207a65726f206164647265737300604482015290519081900360640190fd5b620002c66000838362000257565b620002e2816002546200036b60201b62000d2e1790919060201c565b6002556001600160a01b038216600090815260208181526040909120546200031591839062000d2e6200036b821b17901c565b6001600160a01b0383166000818152602081815260408083209490945583518581529351929391927fddf252ad1be2c89b69c2b068fc378daa952ba7f163c4a11628f55a4df523b3ef9281900390910190a35050565b600082820183811015620003c6576040805162461bcd60e51b815260206004820152601b60248201527f536166654d6174683a206164646974696f6e206f766572666c6f770000000000604482015290519081900360640190fd5b9392505050565b828054600181600116156101000203166002900490600052602060002090601f01602090048101928262000405576000855562000450565b82601f106200042057805160ff191683800117855562000450565b8280016001018555821562000450579182015b828111156200045057825182559160200191906001019062000433565b506200045e92915062000462565b5090565b5b808211156200045e576000815560010162000463565b6115a880620004896000396000f3fe608060405234801561001057600080fd5b50600436106101285760003560e01c806306fdde031461012d578063095ea7b3146101aa57806318160ddd146101ea57806323b872dd1461020457806330adf81f1461023a578063313ce567146102425780633408e47014610260578063395093511461026857806340c10f191461029457806342966c68146102c25780634eb03f6e146102df57806370a082311461030557806379cc67901461032b5780637ecebe001461035757806395d89b411461037d578063a0cc6a6814610385578063a457c2d71461038d578063a9059cbb146103b9578063d33219b4146103e5578063d505accf14610409578063dd62ed3e1461045a578063e3ee160e14610488578063e94a0102146104e7578063ed24911d14610513575b600080fd5b61013561051b565b6040805160208082528351818301528351919283929083019185019080838360005b8381101561016f578181015183820152602001610157565b50505050905090810190601f16801561019c5780820380516001836020036101000a031916815260200191505b509250505060405180910390f35b6101d6600480360360408110156101c057600080fd5b506001600160a01b0381351690602001356105b1565b604080519115158252519081900360200190f35b6101f26105ce565b60408051918252519081900360200190f35b6101d66004803603606081101561021a57600080fd5b506001600160a01b038135811691602081013590911690604001356105d4565b6101f261065b565b61024a61066d565b6040805160ff9092168252519081900360200190f35b6101f2610676565b6101d66004803603604081101561027e57600080fd5b506001600160a01b03813516906020013561067a565b6102c0600480360360408110156102aa57600080fd5b506001600160a01b0381351690602001356106c8565b005b6102c0600480360360208110156102d857600080fd5b50356106d6565b6102c0600480360360208110156102f557600080fd5b50356001600160a01b03166106ea565b6101f26004803603602081101561031b57600080fd5b50356001600160a01b03166107be565b6102c06004803603604081101561034157600080fd5b506001600160a01b0381351690602001356107d9565b6101f26004803603602081101561036d57600080fd5b50356001600160a01b0316610833565b610135610845565b6101f26108a6565b6101d6600480360360408110156103a357600080fd5b506001600160a01b0381351690602001356108b8565b6101d6600480360360408110156103cf57600080fd5b506001600160a01b038135169060200135610920565b6103ed610934565b604080516001600160a01b039092168252519081900360200190f35b6102c0600480360360e081101561041f57600080fd5b506001600160a01b03813581169160208101359091169060408101359060608101359060ff6080820135169060a08101359060c00135610948565b6101f26004803603604081101561047057600080fd5b506001600160a01b0381358116916020013516610a33565b6102c0600480360361012081101561049f57600080fd5b506001600160a01b03813581169160208101359091169060408101359060608101359060808101359060a08101359060ff60c0820135169060e0810135906101000135610a5e565b6101d6600480360360408110156104fd57600080fd5b506001600160a01b038135169060200135610c50565b6101f2610c70565b60038054604080516020601f60026000196101006001881615020190951694909404938401819004810282018101909252828152606093909290918301828280156105a75780601f1061057c576101008083540402835291602001916105a7565b820191906000526020600020905b81548152906001019060200180831161058a57829003601f168201915b5050505050905090565b60006105c56105be610d8d565b8484610d91565b50600192915050565b60025490565b60006105e1848484610e7d565b610651846105ed610d8d565b61064c8560405180606001604052806028815260200161145f602891396001600160a01b038a1660009081526001602052604081209061062b610d8d565b6001600160a01b031681526020810191909152604001600020549190610fc6565b610d91565b5060019392505050565b60008051602061150e83398151915281565b60055460ff1690565b4690565b60006105c5610687610d8d565b8461064c8560016000610698610d8d565b6001600160a01b03908116825260208083019390935260409182016000908120918c168152925290205490610d2e565b6106d2828261105d565b5050565b6106e76106e1610d8d565b8261113b565b50565b600654600160a01b900460ff16156107335760405162461bcd60e51b81526004018080602001828103825260228152602001806114ab6022913960400191505060405180910390fd5b6001600160a01b03811661078e576040805162461bcd60e51b815260206004820152601e60248201527f50494c4f543a3a20494e56414c49445f4d494e5445525f414444524553530000604482015290519081900360640190fd5b6006805460ff60a01b196001600160a01b039093166001600160a01b03199091161791909116600160a01b179055565b6001600160a01b031660009081526020819052604090205490565b6000610810826040518060600160405280602481526020016114876024913961080986610804610d8d565b610a33565b9190610fc6565b90506108248361081e610d8d565b83610d91565b61082e838361113b565b505050565b60076020526000908152604090205481565b60048054604080516020601f60026000196101006001881615020190951694909404938401819004810282018101909252828152606093909290918301828280156105a75780601f1061057c576101008083540402835291602001916105a7565b6000805160206113f783398151915281565b60006105c56108c5610d8d565b8461064c8560405180606001604052806025815260200161157760259139600160006108ef610d8d565b6001600160a01b03908116825260208083019390935260409182016000908120918d16815292529020549190610fc6565b60006105c561092d610d8d565b8484610e7d565b60055461010090046001600160a01b031681565b42841015610994576040805162461bcd60e51b815260206004820152601460248201527314125313d50e8e881055551217d156141254915160621b604482015290519081900360640190fd5b6001600160a01b0380881660008181526007602081815260408084208054825160008051602061150e83398151915281860152808401889052978e166060890152608088018d905260a0880181905260c08089018d90528351808a03909101815260e09098019092528651968301969096209490935252600101909155610a1e8882868686611225565b610a29888888610d91565b5050505050505050565b6001600160a01b03918216600090815260016020908152604080832093909416825291909152205490565b854211610aaf576040805162461bcd60e51b815260206004820152601a60248201527914125313d50e8e881055551217d393d517d6515517d59053125160321b604482015290519081900360640190fd5b844210610afa576040805162461bcd60e51b815260206004820152601460248201527314125313d50e8e881055551217d156141254915160621b604482015290519081900360640190fd5b6001600160a01b038916600090815260086020908152604080832087845290915290205460ff1615610b6f576040805162461bcd60e51b815260206004820152601960248201527814125313d50e8e881055551217d053149150511657d554d151603a1b604482015290519081900360640190fd5b604080516000805160206113f78339815191526020808301919091526001600160a01b03808d16838501528b166060830152608082018a905260a0820189905260c0820188905260e0808301889052835180840390910181526101009092019092528051910120610be38a82868686611225565b6001600160a01b038a166000818152600860209081526040808320898452909152808220805460ff19166001179055518792917f98de503528ee59b575ef0c0a2576a82497bfc029a5685b209e9ec333479b10a591a3610c448a8a8a610e7d565b50505050505050505050565b600860209081526000928352604080842090915290825290205460ff1681565b60007f8b73c3c69bb8fe3d512ecc4cf759cc79239f7b179b0ffacaa9a75d522b39400f7f96f8699b9d60ee03e2ae096e7ed75448335015f6b0f67e4f1540d650607f9ed97fc89efdaa54c0f20c7adf612882df0950f5a951637e0307cdcb4c672f298b8bc6610cdd610676565b3060405160200180868152602001858152602001848152602001838152602001826001600160a01b031681526020019550505050505060405160208183030381529060405280519060200120905090565b600082820183811015610d86576040805162461bcd60e51b815260206004820152601b60248201527a536166654d6174683a206164646974696f6e206f766572666c6f7760281b604482015290519081900360640190fd5b9392505050565b3390565b6001600160a01b038316610dd65760405162461bcd60e51b81526004018080602001828103825260248152602001806115536024913960400191505060405180910390fd5b6001600160a01b038216610e1b5760405162461bcd60e51b81526004018080602001828103825260228152602001806114176022913960400191505060405180910390fd5b6001600160a01b03808416600081815260016020908152604080832094871680845294825291829020859055815185815291517f8c5be1e5ebec7d5bd14f71427d1e84f3dd0314c0f7b2291e5b200ac8c7c3b9259281900390910190a3505050565b6001600160a01b038316610ec25760405162461bcd60e51b815260040180806020018281038252602581526020018061152e6025913960400191505060405180910390fd5b6001600160a01b038216610f075760405162461bcd60e51b81526004018080602001828103825260238152602001806113b26023913960400191505060405180910390fd5b610f1283838361082e565b610f4f81604051806060016040528060268152602001611439602691396001600160a01b0386166000908152602081905260409020549190610fc6565b6001600160a01b038085166000908152602081905260408082209390935590841681522054610f7e9082610d2e565b6001600160a01b038084166000818152602081815260409182902094909455805185815290519193928716926000805160206114cd83398151915292918290030190a3505050565b600081848411156110555760405162461bcd60e51b81526004018080602001828103825283818151815260200191508051906020019080838360005b8381101561101a578181015183820152602001611002565b50505050905090810190601f1680156110475780820380516001836020036101000a031916815260200191505b509250505060405180910390fd5b505050900390565b6001600160a01b0382166110b8576040805162461bcd60e51b815260206004820152601f60248201527f45524332303a206d696e7420746f20746865207a65726f206164647265737300604482015290519081900360640190fd5b6110c46000838361082e565b6002546110d19082610d2e565b6002556001600160a01b0382166000908152602081905260409020546110f79082610d2e565b6001600160a01b0383166000818152602081815260408083209490945583518581529351929391926000805160206114cd8339815191529281900390910190a35050565b6001600160a01b0382166111805760405162461bcd60e51b81526004018080602001828103825260218152602001806114ed6021913960400191505060405180910390fd5b61118c8260008361082e565b6111c9816040518060600160405280602281526020016113d5602291396001600160a01b0385166000908152602081905260409020549190610fc6565b6001600160a01b0383166000908152602081905260409020556002546111ef9082611354565b6002556040805182815290516000916001600160a01b038516916000805160206114cd8339815191529181900360200190a35050565b600061122f610c70565b85604051602001808061190160f01b81525060020183815260200182815260200192505050604051602081830303815290604052805190602001209050600060018286868660405160008152602001604052604051808581526020018460ff1681526020018381526020018281526020019450505050506020604051602081039080840390855afa1580156112c8573d6000803e3d6000fd5b5050604051601f1901519150506001600160a01b038116158015906112fe5750866001600160a01b0316816001600160a01b0316145b61134b576040805162461bcd60e51b815260206004820152601960248201527850494c4f543a3a20494e56414c49445f5349474e415455524560381b604482015290519081900360640190fd5b50505050505050565b6000828211156113ab576040805162461bcd60e51b815260206004820152601e60248201527f536166654d6174683a207375627472616374696f6e206f766572666c6f770000604482015290519081900360640190fd5b5090039056fe45524332303a207472616e7366657220746f20746865207a65726f206164647265737345524332303a206275726e20616d6f756e7420657863656564732062616c616e63657c7c6cdb67a18743f49ec6fa9b35f50d52ed05cbed4cc592e13b44501c1a226745524332303a20617070726f766520746f20746865207a65726f206164647265737345524332303a207472616e7366657220616d6f756e7420657863656564732062616c616e636545524332303a207472616e7366657220616d6f756e74206578636565647320616c6c6f77616e636545524332303a206275726e20616d6f756e74206578636565647320616c6c6f77616e636550494c4f543a3a204d494e5445525f414c52454144595f494e495449414c495a4544ddf252ad1be2c89b69c2b068fc378daa952ba7f163c4a11628f55a4df523b3ef45524332303a206275726e2066726f6d20746865207a65726f20616464726573736e71edae12b1b97f4d1f60370fef10105fa2faae0126114a169c64845d6126c945524332303a207472616e736665722066726f6d20746865207a65726f206164647265737345524332303a20617070726f76652066726f6d20746865207a65726f206164647265737345524332303a2064656372656173656420616c6c6f77616e63652062656c6f77207a65726fa164736f6c6343000706000a",
  "linkReferences": {},
  "deployedLinkReferences": {}
}