{
  "_format": "hh-sol-artifact-1",
  "contractName": "UnipilotMigrator",
  "sourceName": "contracts/UnipilotMigrator.sol",
  "abi": [
    {
      "inputs": [
        {
          "internalType": "address",
          "name": "_positionManager",
          "type": "address"
        },
        {
          "internalType": "address",
          "name": "_uniswapFactory",
          "type": "address"
        },
        {
          "internalType": "address",
          "name": "_unipilot",
          "type": "address"
        },
        {
          "internalType": "address",
          "name": "_ulm",
          "type": "address"
        }
      ],
      "stateMutability": "nonpayable",
      "type": "constructor"
    },
    {
      "anonymous": false,
      "inputs": [
        {
          "indexed": false,
          "internalType": "address",
          "name": "pool",
          "type": "address"
        },
        {
          "indexed": false,
          "internalType": "address",
          "name": "vault",
          "type": "address"
        },
        {
          "indexed": false,
          "internalType": "address",
          "name": "owner",
          "type": "address"
        },
        {
          "indexed": false,
          "internalType": "uint256",
          "name": "amount0",
          "type": "uint256"
        },
        {
          "indexed": false,
          "internalType": "uint256",
          "name": "amount1",
          "type": "uint256"
        }
      ],
      "name": "LiquidityMigratedFromV2",
      "type": "event"
    },
    {
      "anonymous": false,
      "inputs": [
        {
          "indexed": false,
          "internalType": "address",
          "name": "vault",
          "type": "address"
        },
        {
          "indexed": false,
          "internalType": "address",
          "name": "owner",
          "type": "address"
        },
        {
          "indexed": false,
          "internalType": "uint256",
          "name": "amount0",
          "type": "uint256"
        },
        {
          "indexed": false,
          "internalType": "uint256",
          "name": "amount1",
          "type": "uint256"
        }
      ],
      "name": "LiquidityMigratedFromV3",
      "type": "event"
    },
    {
      "stateMutability": "payable",
      "type": "fallback"
    },
    {
      "inputs": [
        {
          "components": [
            {
              "internalType": "address",
              "name": "pair",
              "type": "address"
            },
            {
              "internalType": "address",
              "name": "vault",
              "type": "address"
            },
            {
              "internalType": "address",
              "name": "token0",
              "type": "address"
            },
            {
              "internalType": "address",
              "name": "token1",
              "type": "address"
            },
            {
              "internalType": "uint24",
              "name": "fee",
              "type": "uint24"
            },
            {
              "internalType": "uint8",
              "name": "percentageToMigrate",
              "type": "uint8"
            },
            {
              "internalType": "uint256",
              "name": "liquidityToMigrate",
              "type": "uint256"
            },
            {
              "internalType": "uint256",
              "name": "unipilotTokenId",
              "type": "uint256"
            },
            {
              "internalType": "bool",
              "name": "refundAsETH",
              "type": "bool"
            }
          ],
          "internalType": "struct IUnipilotMigrator.MigrateV2Params",
          "name": "params",
          "type": "tuple"
        }
      ],
      "name": "migrateLixirLiquidity",
      "outputs": [],
      "stateMutability": "nonpayable",
      "type": "function"
    },
    {
      "inputs": [
        {
          "components": [
            {
              "internalType": "address",
              "name": "pair",
              "type": "address"
            },
            {
              "internalType": "address",
              "name": "vault",
              "type": "address"
            },
            {
              "internalType": "address",
              "name": "token0",
              "type": "address"
            },
            {
              "internalType": "address",
              "name": "token1",
              "type": "address"
            },
            {
              "internalType": "uint24",
              "name": "fee",
              "type": "uint24"
            },
            {
              "internalType": "uint8",
              "name": "percentageToMigrate",
              "type": "uint8"
            },
            {
              "internalType": "uint256",
              "name": "liquidityToMigrate",
              "type": "uint256"
            },
            {
              "internalType": "uint256",
              "name": "unipilotTokenId",
              "type": "uint256"
            },
            {
              "internalType": "bool",
              "name": "refundAsETH",
              "type": "bool"
            }
          ],
          "internalType": "struct IUnipilotMigrator.MigrateV2Params",
          "name": "params",
          "type": "tuple"
        }
      ],
      "name": "migratePopsicleLiquidity",
      "outputs": [],
      "stateMutability": "nonpayable",
      "type": "function"
    },
    {
      "inputs": [
        {
          "components": [
            {
              "internalType": "address",
              "name": "vault",
              "type": "address"
            },
            {
              "internalType": "address",
              "name": "token0",
              "type": "address"
            },
            {
              "internalType": "address",
              "name": "token1",
              "type": "address"
            },
            {
              "internalType": "uint24",
              "name": "fee",
              "type": "uint24"
            },
            {
              "internalType": "address",
              "name": "recipient",
              "type": "address"
            },
            {
              "internalType": "uint256",
              "name": "tokenId",
              "type": "uint256"
            },
            {
              "internalType": "bool",
              "name": "refundAsETH",
              "type": "bool"
            }
          ],
          "internalType": "struct IUnipilotMigrator.MigrateV3Params",
          "name": "params",
          "type": "tuple"
        }
      ],
      "name": "migrateUnipilotLiquididty",
      "outputs": [],
      "stateMutability": "nonpayable",
      "type": "function"
    },
    {
      "inputs": [
        {
          "components": [
            {
              "internalType": "address",
              "name": "pair",
              "type": "address"
            },
            {
              "internalType": "address",
              "name": "vault",
              "type": "address"
            },
            {
              "internalType": "address",
              "name": "token0",
              "type": "address"
            },
            {
              "internalType": "address",
              "name": "token1",
              "type": "address"
            },
            {
              "internalType": "uint24",
              "name": "fee",
              "type": "uint24"
            },
            {
              "internalType": "uint8",
              "name": "percentageToMigrate",
              "type": "uint8"
            },
            {
              "internalType": "uint256",
              "name": "liquidityToMigrate",
              "type": "uint256"
            },
            {
              "internalType": "uint256",
              "name": "unipilotTokenId",
              "type": "uint256"
            },
            {
              "internalType": "bool",
              "name": "refundAsETH",
              "type": "bool"
            }
          ],
          "internalType": "struct IUnipilotMigrator.MigrateV2Params",
          "name": "params",
          "type": "tuple"
        }
      ],
      "name": "migrateV2Liquidity",
      "outputs": [],
      "stateMutability": "nonpayable",
      "type": "function"
    },
    {
      "inputs": [
        {
          "components": [
            {
              "internalType": "address",
              "name": "vault",
              "type": "address"
            },
            {
              "internalType": "address",
              "name": "token0",
              "type": "address"
            },
            {
              "internalType": "address",
              "name": "token1",
              "type": "address"
            },
            {
              "internalType": "uint24",
              "name": "fee",
              "type": "uint24"
            },
            {
              "internalType": "address",
              "name": "recipient",
              "type": "address"
            },
            {
              "internalType": "uint256",
              "name": "tokenId",
              "type": "uint256"
            },
            {
              "internalType": "bool",
              "name": "refundAsETH",
              "type": "bool"
            }
          ],
          "internalType": "struct IUnipilotMigrator.MigrateV3Params",
          "name": "params",
          "type": "tuple"
        }
      ],
      "name": "migrateV3Liquidity",
      "outputs": [],
      "stateMutability": "nonpayable",
      "type": "function"
    },
    {
      "inputs": [
        {
          "components": [
            {
              "internalType": "address",
              "name": "pair",
              "type": "address"
            },
            {
              "internalType": "address",
              "name": "vault",
              "type": "address"
            },
            {
              "internalType": "address",
              "name": "token0",
              "type": "address"
            },
            {
              "internalType": "address",
              "name": "token1",
              "type": "address"
            },
            {
              "internalType": "uint24",
              "name": "fee",
              "type": "uint24"
            },
            {
              "internalType": "uint8",
              "name": "percentageToMigrate",
              "type": "uint8"
            },
            {
              "internalType": "uint256",
              "name": "liquidityToMigrate",
              "type": "uint256"
            },
            {
              "internalType": "uint256",
              "name": "unipilotTokenId",
              "type": "uint256"
            },
            {
              "internalType": "bool",
              "name": "refundAsETH",
              "type": "bool"
            }
          ],
          "internalType": "struct IUnipilotMigrator.MigrateV2Params",
          "name": "params",
          "type": "tuple"
        }
      ],
      "name": "migrateVisorLiquidity",
      "outputs": [],
      "stateMutability": "nonpayable",
      "type": "function"
    },
    {
      "inputs": [
        {
          "internalType": "address",
          "name": "operator",
          "type": "address"
        },
        {
          "internalType": "address",
          "name": "from",
          "type": "address"
        },
        {
          "internalType": "uint256",
          "name": "tokenId",
          "type": "uint256"
        },
        {
          "internalType": "bytes",
          "name": "data",
          "type": "bytes"
        }
      ],
      "name": "onERC721Received",
      "outputs": [
        {
          "internalType": "bytes4",
          "name": "",
          "type": "bytes4"
        }
      ],
      "stateMutability": "nonpayable",
      "type": "function"
    },
    {
      "stateMutability": "payable",
      "type": "receive"
    }
  ],
  "bytecode": "0x6101006040523480156200001257600080fd5b506040516200280838038062002808833981016040819052620000359162000082565b6001600160601b0319606094851b811660e05292841b831660c05290831b821660a05290911b16608052620000de565b80516001600160a01b03811681146200007d57600080fd5b919050565b6000806000806080858703121562000098578384fd5b620000a38562000065565b9350620000b36020860162000065565b9250620000c36040860162000065565b9150620000d36060860162000065565b905092959194509250565b60805160601c60a05160601c60c05160601c60e05160601c6126de6200012a6000398061044b52806104f052505080610da75280610e63525080610cbe5280610d6452506126de6000f3fe6080604052600436106100645760003560e01c8063150b7a021461006d5780633974c31a146100a35780637578e5b9146100c35780637f2200d5146100e3578063ce39b63614610103578063eb02af2c14610123578063ff034030146101435761006b565b3661006b57005b005b34801561007957600080fd5b5061008d610088366004611fc9565b610163565b60405161009a9190612431565b60405180910390f35b3480156100af57600080fd5b5061006b6100be36600461209a565b610174565b3480156100cf57600080fd5b5061006b6100de3660046120b2565b610449565b3480156100ef57600080fd5b5061006b6100fe36600461209a565b610882565b34801561010f57600080fd5b5061006b61011e36600461209a565b6109b4565b34801561012f57600080fd5b5061006b61013e3660046120c3565b610c9f565b34801561014f57600080fd5b5061006b61015e36600461209a565b611219565b630a85bd0160e11b95945050505050565b600061018660c0830160a0840161224d565b60ff161180156101a9575060646101a360c0830160a0840161224d565b60ff1611155b6101ce5760405162461bcd60e51b81526004016101c590612462565b60405180910390fd5b6101fd6101d9611344565b3060c08401356101ec6020860186611fad565b6001600160a01b0316929190611348565b60008061020d6020840184611fad565b6001600160a01b031663b460af948460c0013530306040518463ffffffff1660e01b8152600401610240939291906125af565b6040805180830381600087803b15801561025957600080fd5b505af115801561026d573d6000803e3d6000fd5b505050506040513d601f19601f8201168201806040525081019061029191906121fd565b909250905060006102b6836102ac60c0870160a0880161224d565b60ff1660646113a8565b905060006102ce836102ac60c0880160a0890161224d565b90506102f96102e36060870160408801611fad565b6102f36040880160208901611fad565b84611458565b61032261030c6080870160608801611fad565b61031c6040880160208901611fad565b83611458565b6000806103406103386040890160208a01611fad565b858533611468565b915091506103f16040518061014001604052808960200160208101906103669190611fad565b6001600160a01b0316815260200161038460608b0160408c01611fad565b6001600160a01b031681526020016103a260808b0160608c01611fad565b6001600160a01b03168152602001848152602001838152602001888152602001878152602001868152602001858152602001896101000160208101906103e89190612062565b151590526114fb565b60008051602061266883398151915261040d6020890189611fad565b61041d60408a0160208b01611fad565b610425611344565b85856040516104389594939291906123fd565b60405180910390a150505050505050565b7f00000000000000000000000000000000000000000000000000000000000000006001600160a01b0381166342842e0e610481611344565b308560a001356040518463ffffffff1660e01b81526004016104a59392919061235c565b600060405180830381600087803b1580156104bf57600080fd5b505af11580156104d3573d6000803e3d6000fd5b505060405163133f757160e31b8152600092506001600160a01b037f00000000000000000000000000000000000000000000000000000000000000001691506399fbab889061052a9060a08701359060040161258f565b6101806040518083038186803b15801561054357600080fd5b505afa158015610557573d6000803e3d6000fd5b505050506040513d601f19601f8201168201806040525081019061057b919061226e565b50505050975050505050505050816001600160a01b0316630c49ccbe6040518060a001604052808660a001358152602001846001600160801b031681526020016000815260200160008152602001426078018152506040518263ffffffff1660e01b81526004016105ec91906124c2565b6040805180830381600087803b15801561060557600080fd5b505af1158015610619573d6000803e3d6000fd5b505050506040513d601f19601f8201168201806040525081019061063d91906121fd565b50506040805160808101825260a085013581523060208201526001600160801b038183018190526060820152905163fc6f786560e01b815260009182916001600160a01b0386169163fc6f786591610698919060040161247f565b6040805180830381600087803b1580156106b157600080fd5b505af11580156106c5573d6000803e3d6000fd5b505050506040513d601f19601f820116820180604052508101906106e991906121fd565b909250905061070e6107016040870160208801611fad565b6102f36020880188611fad565b61072e6107216060870160408801611fad565b61031c6020880188611fad565b6000806107416103386020890189611fad565b60408051610140810190915291935091506107e8908061076460208b018b611fad565b6001600160a01b031681526020018960200160208101906107859190611fad565b6001600160a01b031681526020016107a360608b0160408c01611fad565b6001600160a01b031681526020018481526020018381526020018681526020018581526020018681526020018581526020018960c00160208101906103e89190612062565b604051630852cd8d60e31b81526001600160a01b038716906342966c68906108189060a08b01359060040161258f565b600060405180830381600087803b15801561083257600080fd5b505af1158015610846573d6000803e3d6000fd5b5060008051602061268883398151915292506108689150506020890189611fad565b610870611344565b848460405161043894939291906123d4565b600061089460c0830160a0840161224d565b60ff161180156108b7575060646108b160c0830160a0840161224d565b60ff1611155b6108d35760405162461bcd60e51b81526004016101c590612462565b6108e06020820182611fad565b6001600160a01b03166323b872dd6108f6611344565b6109036020850185611fad565b8460c001356040518463ffffffff1660e01b81526004016109269392919061235c565b602060405180830381600087803b15801561094057600080fd5b505af1158015610954573d6000803e3d6000fd5b505050506040513d601f19601f82011682018060405250810190610978919061207e565b506000806109896020840184611fad565b6001600160a01b03166389afcb44306040518263ffffffff1660e01b81526004016102409190612348565b60006109c660c0830160a0840161224d565b60ff161180156109e9575060646109e360c0830160a0840161224d565b60ff1611155b610a055760405162461bcd60e51b81526004016101c590612462565b600080610a156020840184611fad565b6001600160a01b0316639fef182b610a2b611344565b8560c0013560008030426078016040518763ffffffff1660e01b8152600401610a5996959493929190612399565b6040805180830381600087803b158015610a7257600080fd5b505af1158015610a86573d6000803e3d6000fd5b505050506040513d601f19601f82011682018060405250810190610aaa91906121fd565b90925090506000808080610ade610ac76060890160408a01611fad565b610ad760808a0160608b01611fad565b8888611618565b93509350935093506000805160206126228339815191526001600160a01b031663d0e30db0826040518263ffffffff1660e01b81526004016000604051808303818588803b158015610b2f57600080fd5b505af1158015610b43573d6000803e3d6000fd5b50505050506000610b61828960a00160208101906102ac919061224d565b90506000610b79856102ac60c08c0160a08d0161224d565b9050610b8f846102f360408c0160208d01611fad565b610ba38661031c60408c0160208d01611fad565b600080610bb961033860408d0160208e01611fad565b91509150610c436040518061014001604052808d6020016020810190610bdf9190611fad565b6001600160a01b031681526020018a6001600160a01b03168152602001886001600160a01b031681526020018481526020018381526020018981526020018781526020018581526020018681526020018d6101000160208101906103e89190612062565b600080516020612668833981519152610c5f60208d018d611fad565b610c6f60408e0160208f01611fad565b610c77611344565b8585604051610c8a9594939291906123fd565b60405180910390a15050505050505050505050565b60a08101516040516301e7f13760e41b81526000916001600160a01b037f00000000000000000000000000000000000000000000000000000000000000001691631e7f137091610cf19160040161258f565b60e06040518083038186803b158015610d0957600080fd5b505afa158015610d1d573d6000803e3d6000fd5b505050506040513d601f19601f82011682018060405250810190610d419190612164565b905060006040518060a001604052806000151581526020016000151581526020017f00000000000000000000000000000000000000000000000000000000000000006001600160a01b03168152602001836040015181526020018460a0015181525090507f00000000000000000000000000000000000000000000000000000000000000006001600160a01b0316637ec12df4828560800151604051602001610dea9190612348565b6040516020818303038152906040526040518363ffffffff1660e01b8152600401610e16929190612500565b600060405180830381600087803b158015610e3057600080fd5b505af1158015610e44573d6000803e3d6000fd5b50505060a0840151604051632142170760e11b81526001600160a01b037f00000000000000000000000000000000000000000000000000000000000000001692506342842e0e91610e9b913391309160040161235c565b600060405180830381600087803b158015610eb557600080fd5b505af1158015610ec9573d6000803e3d6000fd5b50505050600083602001516001600160a01b03166370a08231306040518263ffffffff1660e01b8152600401610eff9190612348565b60206040518083038186803b158015610f1757600080fd5b505afa158015610f2b573d6000803e3d6000fd5b505050506040513d601f19601f82011682018060405250810190610f4f91906121e5565b9050600084604001516001600160a01b03166370a08231306040518263ffffffff1660e01b8152600401610f839190612348565b60206040518083038186803b158015610f9b57600080fd5b505afa158015610faf573d6000803e3d6000fd5b505050506040513d601f19601f82011682018060405250810190610fd391906121e5565b9050600082118015610fe55750600081115b6110015760405162461bcd60e51b81526004016101c590612446565b6110148560200151866000015184611458565b6110278560400151866000015183611458565b60008061103a8760000151858533611468565b91509150818411156110d55760208701516001600160a01b031663a9059cbb3361106487866116a0565b6040518363ffffffff1660e01b8152600401611081929190612380565b602060405180830381600087803b15801561109b57600080fd5b505af11580156110af573d6000803e3d6000fd5b505050506040513d601f19601f820116820180604052508101906110d3919061207e565b505b8083111561116c5760408701516001600160a01b031663a9059cbb336110fb86856116a0565b6040518363ffffffff1660e01b8152600401611118929190612380565b602060405180830381600087803b15801561113257600080fd5b505af1158015611146573d6000803e3d6000fd5b505050506040513d601f19601f8201168201806040525081019061116a919061207e565b505b6111ff60405180610140016040528089600001516001600160a01b0316815260200189602001516001600160a01b0316815260200189604001516001600160a01b031681526020018481526020018381526020016111d385886116a090919063ffffffff16565b81526020016111e286856116a0565b8152602001868152602001858152602001600015158152506114fb565b865160008051602061268883398151915290610870611344565b600061122b60c0830160a0840161224d565b60ff1611801561124e5750606461124860c0830160a0840161224d565b60ff1611155b61126a5760405162461bcd60e51b81526004016101c590612462565b6112776020820182611fad565b6001600160a01b03166323b872dd61128d611344565b308460c001356040518463ffffffff1660e01b81526004016112b19392919061235c565b602060405180830381600087803b1580156112cb57600080fd5b505af11580156112df573d6000803e3d6000fd5b505050506040513d601f19601f82011682018060405250810190611303919061207e565b506000806113146020840184611fad565b6001600160a01b031662f714ce8460c00135306040518363ffffffff1660e01b8152600401610240929190612598565b3390565b604080516001600160a01b0380861660248301528416604482015260648082018490528251808303909101815260849091019091526020810180516001600160e01b03166323b872dd60e01b1790526113a29085906116fd565b50505050565b60008080600019858709868602925082811090839003039050806113de57600084116113d357600080fd5b508290049050611451565b8084116113ea57600080fd5b6000848688096000868103871696879004966002600389028118808a02820302808a02820302808a02820302808a02820302808a02820302808a02909103029181900381900460010186841190950394909402919094039290920491909117919091029150505b9392505050565b6114638383836117ae565b505050565b600080856001600160a01b0316638dbdbe6d8686866040518463ffffffff1660e01b815260040161149b939291906125ce565b606060405180830381600087803b1580156114b557600080fd5b505af11580156114c9573d6000803e3d6000fd5b505050506040513d601f19601f820116820180604052508101906114ed9190612220565b909890975095505050505050565b8060a001518160600151101561158e578060e001518160600151101561152f5761152f8160200151826000015160006117ae565b806101200151801561155b575060208101516001600160a01b0316600080516020612622833981519152145b1561157757611572600061156d611344565b6118fc565b61158e565b61158e81602001516000611589611344565b611a2f565b8060c001518160800151101561161557806101000151816080015110156115c3576115c38160400151826000015160006117ae565b80610120015180156115ef575060408101516001600160a01b0316600080516020612622833981519152145b1561160657611601600061156d611344565b611615565b806040015160006113a2611344565b50565b6000808080808080806001600160a01b038c1660008051602061262283398151915214611648578b8b8a8c61164d565b8b8b8b8b5b93509350935093506000805160206126228339815191526001600160a01b0316846001600160a01b031614611685578382848361168a565b828185845b929f919e509c50909a5098505050505050505050565b6000828211156116f7576040805162461bcd60e51b815260206004820152601e60248201527f536166654d6174683a207375627472616374696f6e206f766572666c6f770000604482015290519081900360640190fd5b50900390565b6000611752826040518060400160405280602081526020017f5361666545524332303a206c6f772d6c6576656c2063616c6c206661696c6564815250856001600160a01b0316611af79092919063ffffffff16565b8051909150156114635780806020019051602081101561177157600080fd5b50516114635760405162461bcd60e51b815260040180806020018281038252602a8152602001806126a8602a913960400191505060405180910390fd5b604080516001600160a01b038481166024830152604480830185905283518084039091018152606490920183526020820180516001600160e01b031663095ea7b360e01b1781529251825160009485949389169392918291908083835b6020831061182a5780518252601f19909201916020918201910161180b565b6001836020036101000a0380198251168184511680821785525050505050509050019150506000604051808303816000865af19150503d806000811461188c576040519150601f19603f3d011682016040523d82523d6000602084013e611891565b606091505b50915091508180156118bf5750805115806118bf57508080602001905160208110156118bc57600080fd5b50515b6118f5576040805162461bcd60e51b8152602060048201526002602482015261534160f01b604482015290519081900360640190fd5b5050505050565b604080516370a0823160e01b81523060048201529051600091600080516020612622833981519152916370a0823191602480820192602092909190829003018186803b15801561194b57600080fd5b505afa15801561195f573d6000803e3d6000fd5b505050506040513d602081101561197557600080fd5b50519050828110156119b3576040805162461bcd60e51b8152602060048201526002602482015261495760f01b604482015290519081900360640190fd5b8015611463576000805160206126228339815191526001600160a01b0316632e1a7d4d826040518263ffffffff1660e01b815260040180828152602001915050600060405180830381600087803b158015611a0d57600080fd5b505af1158015611a21573d6000803e3d6000fd5b505050506114638282611b0e565b6000836001600160a01b03166370a08231306040518263ffffffff1660e01b815260040180826001600160a01b0316815260200191505060206040518083038186803b158015611a7e57600080fd5b505afa158015611a92573d6000803e3d6000fd5b505050506040513d6020811015611aa857600080fd5b5051905082811015611ae6576040805162461bcd60e51b8152602060048201526002602482015261125560f21b604482015290519081900360640190fd5b80156113a2576113a2848383611bfd565b6060611b068484600085611d44565b949350505050565b604080516000808252602082019092526001600160a01b0384169083906040518082805190602001908083835b60208310611b5a5780518252601f199092019160209182019101611b3b565b6001836020036101000a03801982511681845116808217855250505050505090500191505060006040518083038185875af1925050503d8060008114611bbc576040519150601f19603f3d011682016040523d82523d6000602084013e611bc1565b606091505b5050905080611463576040805162461bcd60e51b815260206004820152600360248201526253544560e81b604482015290519081900360640190fd5b604080516001600160a01b038481166024830152604480830185905283518084039091018152606490920183526020820180516001600160e01b031663a9059cbb60e01b1781529251825160009485949389169392918291908083835b60208310611c795780518252601f199092019160209182019101611c5a565b6001836020036101000a0380198251168184511680821785525050505050509050019150506000604051808303816000865af19150503d8060008114611cdb576040519150601f19603f3d011682016040523d82523d6000602084013e611ce0565b606091505b5091509150818015611d0e575080511580611d0e5750808060200190516020811015611d0b57600080fd5b50515b6118f5576040805162461bcd60e51b815260206004820152600260248201526114d560f21b604482015290519081900360640190fd5b606082471015611d855760405162461bcd60e51b81526004018080602001828103825260268152602001806126426026913960400191505060405180910390fd5b611d8e85611e9f565b611ddf576040805162461bcd60e51b815260206004820152601d60248201527f416464726573733a2063616c6c20746f206e6f6e2d636f6e7472616374000000604482015290519081900360640190fd5b600080866001600160a01b031685876040518082805190602001908083835b60208310611e1d5780518252601f199092019160209182019101611dfe565b6001836020036101000a03801982511681845116808217855250505050505090500191505060006040518083038185875af1925050503d8060008114611e7f576040519150601f19603f3d011682016040523d82523d6000602084013e611e84565b606091505b5091509150611e94828286611ea9565b979650505050505050565b803b15155b919050565b60608315611eb8575081611451565b825115611ec85782518084602001fd5b8160405162461bcd60e51b81526004018080602001828103825283818151815260200191508051906020019080838360005b83811015611f12578181015183820152602001611efa565b50505050905090810190601f168015611f3f5780820380516001836020036101000a031916815260200191505b509250505060405180910390fd5b8035611ea4816125ed565b8051611ea4816125ed565b8035611ea481612602565b8051600281900b8114611ea457600080fd5b80516001600160801b0381168114611ea457600080fd5b8035611ea481612610565b8051611ea481612610565b600060208284031215611fbe578081fd5b8135611451816125ed565b600080600080600060808688031215611fe0578081fd5b8535611feb816125ed565b94506020860135611ffb816125ed565b93506040860135925060608601356001600160401b038082111561201d578283fd5b818801915088601f830112612030578283fd5b81358181111561203e578384fd5b89602082850101111561204f578384fd5b9699959850939650602001949392505050565b600060208284031215612073578081fd5b813561145181612602565b60006020828403121561208f578081fd5b815161145181612602565b600061012082840312156120ac578081fd5b50919050565b600060e082840312156120ac578081fd5b600060e082840312156120d4578081fd5b60405160e081016001600160401b03811182821017156120f057fe5b6040526120fc83611f4d565b815261210a60208401611f4d565b602082015261211b60408401611f4d565b604082015261212c60608401611f97565b606082015261213d60808401611f4d565b608082015260a083013560a082015261215860c08401611f63565b60c08201529392505050565b600060e08284031215612175578081fd5b60405160e081016001600160401b038111828210171561219157fe5b604052825181526121a460208401611f58565b602082015260408301516040820152606083015160608201526080830151608082015260a083015160a082015260c083015160c08201528091505092915050565b6000602082840312156121f6578081fd5b5051919050565b6000806040838503121561220f578182fd5b505080516020909101519092909150565b600080600060608486031215612234578081fd5b8351925060208401519150604084015190509250925092565b60006020828403121561225e578081fd5b813560ff81168114611451578182fd5b6000806000806000806000806000806000806101808d8f03121561229057898afd5b8c516001600160601b03811681146122a6578a8bfd5b9b506122b460208e01611f58565b9a506122c260408e01611f58565b99506122d060608e01611f58565b98506122de60808e01611fa2565b97506122ec60a08e01611f6e565b96506122fa60c08e01611f6e565b955061230860e08e01611f80565b94506101008d015193506101208d015192506123276101408e01611f80565b91506123366101608e01611f80565b90509295989b509295989b509295989b565b6001600160a01b0391909116815260200190565b6001600160a01b039384168152919092166020820152604081019190915260600190565b6001600160a01b03929092168252602082015260400190565b6001600160a01b039687168152602081019590955260408501939093526060840191909152909216608082015260a081019190915260c00190565b6001600160a01b0394851681529290931660208301526040820152606081019190915260800190565b6001600160a01b03958616815293851660208501529190931660408301526060820192909252608081019190915260a00190565b6001600160e01b031991909116815260200190565b60208082526002908201526124a360f11b604082015260600190565b60208082526003908201526249504160e81b604082015260600190565b815181526020808301516001600160a01b0316908201526040808301516001600160801b0390811691830191909152606092830151169181019190915260800190565b815181526020808301516001600160801b03169082015260408083015190820152606080830151908201526080918201519181019190915260a00190565b600083511515825260208085015115158184015260018060a01b036040860151166040840152606085015160608401526080850151608084015260c060a084015283518060c0850152825b818110156125675785810183015185820160e00152820161254b565b81811115612578578360e083870101525b50601f01601f19169290920160e001949350505050565b90815260200190565b9182526001600160a01b0316602082015260400190565b9283526001600160a01b03918216602084015216604082015260600190565b92835260208301919091526001600160a01b0316604082015260600190565b6001600160a01b038116811461161557600080fd5b801515811461161557600080fd5b62ffffff8116811461161557600080fdfe000000000000000000000000c778417e063141139fce010982780140aa0cd5ab416464726573733a20696e73756666696369656e742062616c616e636520666f722063616c6c5d3c3c12c41dcd95ca847b54dbfe0211dbd38232e1576fb69eb3f87f20e995d90e5649cd75b5cec880237f755592af15c577aacb28a3efb11522e4773b5a5cf65361666545524332303a204552433230206f7065726174696f6e20646964206e6f742073756363656564a164736f6c6343000706000a",
  "linkReferences": {},
  "deployedLinkReferences": {}
}