{
  "_format": "hh-sol-artifact-1",
  "contractName": "UnipilotPassiveVault",
  "sourceName": "contracts/UnipilotPassiveVault.sol",
  "abi": [
    {
      "inputs": [
        {
          "internalType": "address",
          "name": "_pool",
          "type": "address"
        },
        {
          "internalType": "address",
          "name": "_unipilotFactory",
          "type": "address"
        },
        {
          "internalType": "address",
          "name": "_WETH",
          "type": "address"
        },
        {
          "internalType": "string",
          "name": "_name",
          "type": "string"
        },
        {
          "internalType": "string",
          "name": "_symbol",
          "type": "string"
        }
      ],
      "stateMutability": "nonpayable",
      "type": "constructor"
    },
    {
      "anonymous": false,
      "inputs": [
        {
          "indexed": true,
          "internalType": "address",
          "name": "owner",
          "type": "address"
        },
        {
          "indexed": true,
          "internalType": "address",
          "name": "spender",
          "type": "address"
        },
        {
          "indexed": false,
          "internalType": "uint256",
          "name": "value",
          "type": "uint256"
        }
      ],
      "name": "Approval",
      "type": "event"
    },
    {
      "anonymous": false,
      "inputs": [
        {
          "indexed": false,
          "internalType": "uint256",
          "name": "amount0",
          "type": "uint256"
        },
        {
          "indexed": false,
          "internalType": "uint256",
          "name": "amount1",
          "type": "uint256"
        }
      ],
      "name": "CompoundFees",
      "type": "event"
    },
    {
      "anonymous": false,
      "inputs": [
        {
          "indexed": true,
          "internalType": "address",
          "name": "depositor",
          "type": "address"
        },
        {
          "indexed": true,
          "internalType": "address",
          "name": "recipient",
          "type": "address"
        },
        {
          "indexed": false,
          "internalType": "uint256",
          "name": "amount0",
          "type": "uint256"
        },
        {
          "indexed": false,
          "internalType": "uint256",
          "name": "amount1",
          "type": "uint256"
        },
        {
          "indexed": false,
          "internalType": "uint256",
          "name": "lpShares",
          "type": "uint256"
        }
      ],
      "name": "Deposit",
      "type": "event"
    },
    {
      "anonymous": false,
      "inputs": [
        {
          "indexed": false,
          "internalType": "bool",
          "name": "isReadjustLiquidity",
          "type": "bool"
        },
        {
          "indexed": false,
          "internalType": "uint256",
          "name": "fees0",
          "type": "uint256"
        },
        {
          "indexed": false,
          "internalType": "uint256",
          "name": "fees1",
          "type": "uint256"
        },
        {
          "indexed": false,
          "internalType": "uint256",
          "name": "balance0",
          "type": "uint256"
        },
        {
          "indexed": false,
          "internalType": "uint256",
          "name": "balance1",
          "type": "uint256"
        },
        {
          "indexed": false,
          "internalType": "uint256",
          "name": "totalSupply",
          "type": "uint256"
        }
      ],
      "name": "FeesSnapshot",
      "type": "event"
    },
    {
      "anonymous": false,
      "inputs": [
        {
          "indexed": true,
          "internalType": "address",
          "name": "from",
          "type": "address"
        },
        {
          "indexed": true,
          "internalType": "address",
          "name": "to",
          "type": "address"
        },
        {
          "indexed": false,
          "internalType": "uint256",
          "name": "value",
          "type": "uint256"
        }
      ],
      "name": "Transfer",
      "type": "event"
    },
    {
      "anonymous": false,
      "inputs": [
        {
          "indexed": true,
          "internalType": "address",
          "name": "recipient",
          "type": "address"
        },
        {
          "indexed": false,
          "internalType": "uint256",
          "name": "shares",
          "type": "uint256"
        },
        {
          "indexed": false,
          "internalType": "uint256",
          "name": "amount0",
          "type": "uint256"
        },
        {
          "indexed": false,
          "internalType": "uint256",
          "name": "amount1",
          "type": "uint256"
        }
      ],
      "name": "Withdraw",
      "type": "event"
    },
    {
      "stateMutability": "payable",
      "type": "fallback"
    },
    {
      "inputs": [],
      "name": "DOMAIN_SEPARATOR",
      "outputs": [
        {
          "internalType": "bytes32",
          "name": "",
          "type": "bytes32"
        }
      ],
      "stateMutability": "view",
      "type": "function"
    },
    {
      "inputs": [
        {
          "internalType": "address",
          "name": "owner",
          "type": "address"
        },
        {
          "internalType": "address",
          "name": "spender",
          "type": "address"
        }
      ],
      "name": "allowance",
      "outputs": [
        {
          "internalType": "uint256",
          "name": "",
          "type": "uint256"
        }
      ],
      "stateMutability": "view",
      "type": "function"
    },
    {
      "inputs": [
        {
          "internalType": "address",
          "name": "spender",
          "type": "address"
        },
        {
          "internalType": "uint256",
          "name": "amount",
          "type": "uint256"
        }
      ],
      "name": "approve",
      "outputs": [
        {
          "internalType": "bool",
          "name": "",
          "type": "bool"
        }
      ],
      "stateMutability": "nonpayable",
      "type": "function"
    },
    {
      "inputs": [
        {
          "internalType": "address",
          "name": "account",
          "type": "address"
        }
      ],
      "name": "balanceOf",
      "outputs": [
        {
          "internalType": "uint256",
          "name": "",
          "type": "uint256"
        }
      ],
      "stateMutability": "view",
      "type": "function"
    },
    {
      "inputs": [],
      "name": "decimals",
      "outputs": [
        {
          "internalType": "uint8",
          "name": "",
          "type": "uint8"
        }
      ],
      "stateMutability": "view",
      "type": "function"
    },
    {
      "inputs": [
        {
          "internalType": "address",
          "name": "spender",
          "type": "address"
        },
        {
          "internalType": "uint256",
          "name": "subtractedValue",
          "type": "uint256"
        }
      ],
      "name": "decreaseAllowance",
      "outputs": [
        {
          "internalType": "bool",
          "name": "",
          "type": "bool"
        }
      ],
      "stateMutability": "nonpayable",
      "type": "function"
    },
    {
      "inputs": [
        {
          "internalType": "uint256",
          "name": "amount0Desired",
          "type": "uint256"
        },
        {
          "internalType": "uint256",
          "name": "amount1Desired",
          "type": "uint256"
        },
        {
          "internalType": "address",
          "name": "recipient",
          "type": "address"
        }
      ],
      "name": "deposit",
      "outputs": [
        {
          "internalType": "uint256",
          "name": "lpShares",
          "type": "uint256"
        },
        {
          "internalType": "uint256",
          "name": "amount0",
          "type": "uint256"
        },
        {
          "internalType": "uint256",
          "name": "amount1",
          "type": "uint256"
        }
      ],
      "stateMutability": "payable",
      "type": "function"
    },
    {
      "inputs": [],
      "name": "getPositionDetails",
      "outputs": [
        {
          "internalType": "uint256",
          "name": "amount0",
          "type": "uint256"
        },
        {
          "internalType": "uint256",
          "name": "amount1",
          "type": "uint256"
        },
        {
          "internalType": "uint256",
          "name": "fees0",
          "type": "uint256"
        },
        {
          "internalType": "uint256",
          "name": "fees1",
          "type": "uint256"
        },
        {
          "internalType": "uint128",
          "name": "baseLiquidity",
          "type": "uint128"
        },
        {
          "internalType": "uint128",
          "name": "rangeLiquidity",
          "type": "uint128"
        }
      ],
      "stateMutability": "nonpayable",
      "type": "function"
    },
    {
      "inputs": [],
      "name": "getVaultInfo",
      "outputs": [
        {
          "internalType": "address",
          "name": "",
          "type": "address"
        },
        {
          "internalType": "address",
          "name": "",
          "type": "address"
        },
        {
          "internalType": "uint24",
          "name": "",
          "type": "uint24"
        },
        {
          "internalType": "address",
          "name": "",
          "type": "address"
        }
      ],
      "stateMutability": "view",
      "type": "function"
    },
    {
      "inputs": [
        {
          "internalType": "address",
          "name": "spender",
          "type": "address"
        },
        {
          "internalType": "uint256",
          "name": "addedValue",
          "type": "uint256"
        }
      ],
      "name": "increaseAllowance",
      "outputs": [
        {
          "internalType": "bool",
          "name": "",
          "type": "bool"
        }
      ],
      "stateMutability": "nonpayable",
      "type": "function"
    },
    {
      "inputs": [],
      "name": "name",
      "outputs": [
        {
          "internalType": "string",
          "name": "",
          "type": "string"
        }
      ],
      "stateMutability": "view",
      "type": "function"
    },
    {
      "inputs": [
        {
          "internalType": "address",
          "name": "owner",
          "type": "address"
        }
      ],
      "name": "nonces",
      "outputs": [
        {
          "internalType": "uint256",
          "name": "",
          "type": "uint256"
        }
      ],
      "stateMutability": "view",
      "type": "function"
    },
    {
      "inputs": [
        {
          "internalType": "address",
          "name": "owner",
          "type": "address"
        },
        {
          "internalType": "address",
          "name": "spender",
          "type": "address"
        },
        {
          "internalType": "uint256",
          "name": "value",
          "type": "uint256"
        },
        {
          "internalType": "uint256",
          "name": "deadline",
          "type": "uint256"
        },
        {
          "internalType": "uint8",
          "name": "v",
          "type": "uint8"
        },
        {
          "internalType": "bytes32",
          "name": "r",
          "type": "bytes32"
        },
        {
          "internalType": "bytes32",
          "name": "s",
          "type": "bytes32"
        }
      ],
      "name": "permit",
      "outputs": [],
      "stateMutability": "nonpayable",
      "type": "function"
    },
    {
      "inputs": [],
      "name": "pullLiquidity",
      "outputs": [],
      "stateMutability": "nonpayable",
      "type": "function"
    },
    {
      "inputs": [],
      "name": "readjustLiquidity",
      "outputs": [],
      "stateMutability": "nonpayable",
      "type": "function"
    },
    {
      "inputs": [],
      "name": "symbol",
      "outputs": [
        {
          "internalType": "string",
          "name": "",
          "type": "string"
        }
      ],
      "stateMutability": "view",
      "type": "function"
    },
    {
      "inputs": [],
      "name": "ticksData",
      "outputs": [
        {
          "internalType": "int24",
          "name": "baseTickLower",
          "type": "int24"
        },
        {
          "internalType": "int24",
          "name": "baseTickUpper",
          "type": "int24"
        },
        {
          "internalType": "int24",
          "name": "rangeTickLower",
          "type": "int24"
        },
        {
          "internalType": "int24",
          "name": "rangeTickUpper",
          "type": "int24"
        }
      ],
      "stateMutability": "view",
      "type": "function"
    },
    {
      "inputs": [],
      "name": "totalSupply",
      "outputs": [
        {
          "internalType": "uint256",
          "name": "",
          "type": "uint256"
        }
      ],
      "stateMutability": "view",
      "type": "function"
    },
    {
      "inputs": [
        {
          "internalType": "address",
          "name": "recipient",
          "type": "address"
        },
        {
          "internalType": "uint256",
          "name": "amount",
          "type": "uint256"
        }
      ],
      "name": "transfer",
      "outputs": [
        {
          "internalType": "bool",
          "name": "",
          "type": "bool"
        }
      ],
      "stateMutability": "nonpayable",
      "type": "function"
    },
    {
      "inputs": [
        {
          "internalType": "address",
          "name": "sender",
          "type": "address"
        },
        {
          "internalType": "address",
          "name": "recipient",
          "type": "address"
        },
        {
          "internalType": "uint256",
          "name": "amount",
          "type": "uint256"
        }
      ],
      "name": "transferFrom",
      "outputs": [
        {
          "internalType": "bool",
          "name": "",
          "type": "bool"
        }
      ],
      "stateMutability": "nonpayable",
      "type": "function"
    },
    {
      "inputs": [
        {
          "internalType": "uint256",
          "name": "amount0Owed",
          "type": "uint256"
        },
        {
          "internalType": "uint256",
          "name": "amount1Owed",
          "type": "uint256"
        },
        {
          "internalType": "bytes",
          "name": "data",
          "type": "bytes"
        }
      ],
      "name": "uniswapV3MintCallback",
      "outputs": [],
      "stateMutability": "nonpayable",
      "type": "function"
    },
    {
      "inputs": [
        {
          "internalType": "int256",
          "name": "amount0",
          "type": "int256"
        },
        {
          "internalType": "int256",
          "name": "amount1",
          "type": "int256"
        },
        {
          "internalType": "bytes",
          "name": "data",
          "type": "bytes"
        }
      ],
      "name": "uniswapV3SwapCallback",
      "outputs": [],
      "stateMutability": "nonpayable",
      "type": "function"
    },
    {
      "inputs": [
        {
          "internalType": "uint256",
          "name": "liquidity",
          "type": "uint256"
        },
        {
          "internalType": "address",
          "name": "recipient",
          "type": "address"
        },
        {
          "internalType": "bool",
          "name": "refundAsETH",
          "type": "bool"
        }
      ],
      "name": "withdraw",
      "outputs": [
        {
          "internalType": "uint256",
          "name": "amount0",
          "type": "uint256"
        },
        {
          "internalType": "uint256",
          "name": "amount1",
          "type": "uint256"
        }
      ],
      "stateMutability": "nonpayable",
      "type": "function"
    },
    {
      "stateMutability": "payable",
      "type": "receive"
    }
  ],
  "bytecode": "0x6101406040527f6e71edae12b1b97f4d1f60370fef10105fa2faae0126114a169c64845d6126c961012052600d805463ff000000191663010000001790553480156200004a57600080fd5b506040516200493d3803806200493d8339810160408190526200006d91620005ca565b8180604051806040016040528060018152602001603160f81b81525084848160039080519060200190620000a392919062000442565b508051620000b990600490602084019062000442565b50506005805460ff1916601217905550815160208084019190912082519183019190912060c082905260e08190527f8b73c3c69bb8fe3d512ecc4cf759cc79239f7b179b0ffacaa9a75d522b39400f62000112620003da565b60a05262000122818484620003de565b608052610100525050600b80546001600160a01b038089166001600160a01b031992831617909255600a80548a8416908316179055600980548b84169216919091179081905560408051630dfe168160e01b81529051919092169450630dfe1681935060048083019350602092829003018186803b158015620001a457600080fd5b505afa158015620001b9573d6000803e3d6000fd5b505050506040513d601f19601f82011682018060405250810190620001df9190620005a6565b600780546001600160a01b0319166001600160a01b039283161790556009546040805163d21220a760e01b81529051919092169163d21220a7916004808301926020929190829003018186803b1580156200023957600080fd5b505afa1580156200024e573d6000803e3d6000fd5b505050506040513d601f19601f82011682018060405250810190620002749190620005a6565b600880546001600160a01b0319166001600160a01b039283161790556009546040805163ddca3f4360e01b81529051919092169163ddca3f43916004808301926020929190829003018186803b158015620002ce57600080fd5b505afa158015620002e3573d6000803e3d6000fd5b505050506040513d601f19601f820116820180604052508101906200030991906200068d565b600d60046101000a81548162ffffff021916908362ffffff160217905550600960009054906101000a90046001600160a01b03166001600160a01b031663d0c93a7c6040518163ffffffff1660e01b815260040160206040518083038186803b1580156200037657600080fd5b505afa1580156200038b573d6000803e3d6000fd5b505050506040513d601f19601f82011682018060405250810190620003b191906200066a565b600d805460029290920b62ffffff1662ffffff1990921691909117905550620006b29350505050565b4690565b6000838383620003ed620003da565b3060405160200180868152602001858152602001848152602001838152602001826001600160a01b03168152602001955050505050506040516020818303038152906040528051906020012090509392505050565b828054600181600116156101000203166002900490600052602060002090601f0160209004810192826200047a5760008555620004c5565b82601f106200049557805160ff1916838001178555620004c5565b82800160010185558215620004c5579182015b82811115620004c5578251825591602001919060010190620004a8565b50620004d3929150620004d7565b5090565b5b80821115620004d35760008155600101620004d8565b80516001600160a01b03811681146200050657600080fd5b919050565b600082601f8301126200051c578081fd5b81516001600160401b03808211156200053157fe5b6040516020601f8401601f19168201810183811183821017156200055157fe5b604052838252858401810187101562000568578485fd5b8492505b838310156200058b57858301810151828401820152918201916200056c565b838311156200059c57848185840101525b5095945050505050565b600060208284031215620005b8578081fd5b620005c382620004ee565b9392505050565b600080600080600060a08688031215620005e2578081fd5b620005ed86620004ee565b9450620005fd60208701620004ee565b93506200060d60408701620004ee565b60608701519093506001600160401b03808211156200062a578283fd5b6200063889838a016200050b565b935060808801519150808211156200064e578283fd5b506200065d888289016200050b565b9150509295509295909350565b6000602082840312156200067c578081fd5b81518060020b8114620005c3578182fd5b6000602082840312156200069f578081fd5b815162ffffff81168114620005c3578182fd5b60805160a05160c05160e0516101005161012051614241620006fc60003980610de3525080611bb0525080611bf2525080611bd1525080611b57525080611b8752506142416000f3fe6080604052600436106101135760003560e01c8062ebf5dd1461011c57806306fdde0314610153578063095ea7b31461017557806318160ddd146101a257806323b872dd146101c4578063313ce567146101e45780633644e51514610206578063395093511461021b57806370a082311461023b5780637ecebe001461025b5780637f98aa711461027b5780638dbdbe6d146102a057806395d89b41146102c2578063a457c2d7146102d7578063a9059cbb146102f7578063ac2dc56214610317578063c86962321461033c578063d348799714610363578063d505accf14610383578063dd62ed3e146103a3578063f8e35be7146103c3578063fa021656146103d8578063fa461e33146103ed5761011a565b3661011a57005b005b34801561012857600080fd5b5061013c610137366004613e49565b61040d565b60405161014a929190613fca565b60405180910390f35b34801561015f57600080fd5b506101686107b3565b60405161014a9190613f77565b34801561018157600080fd5b50610195610190366004613d0b565b61084a565b60405161014a9190613f14565b3480156101ae57600080fd5b506101b7610868565b60405161014a9190613f49565b3480156101d057600080fd5b506101956101df366004613c5b565b61086e565b3480156101f057600080fd5b506101f96108f6565b60405161014a9190614022565b34801561021257600080fd5b506101b76108ff565b34801561022757600080fd5b50610195610236366004613d0b565b61090e565b34801561024757600080fd5b506101b7610256366004613ba9565b61095c565b34801561026757600080fd5b506101b7610276366004613ba9565b61097b565b34801561028757600080fd5b5061029061099c565b60405161014a9493929190613ecb565b6102b36102ae366004613e8a565b6109cb565b60405161014a93929190613fd8565b3480156102ce57600080fd5b50610168610b86565b3480156102e357600080fd5b506101956102f2366004613d0b565b610be7565b34801561030357600080fd5b50610195610312366004613d0b565b610c4f565b34801561032357600080fd5b5061032c610c63565b60405161014a9493929190613f52565b34801561034857600080fd5b50610351610c8c565b60405161014a96959493929190613fee565b34801561036f57600080fd5b5061011a61037e366004613de1565b610d17565b34801561038f57600080fd5b5061011a61039e366004613c9b565b610d74565b3480156103af57600080fd5b506101b76103be366004613bc5565b610f2b565b3480156103cf57600080fd5b5061011a610f56565b3480156103e457600080fd5b5061011a610fe9565b3480156103f957600080fd5b5061011a610408366004613de1565b611281565b600080600d60039054906101000a900460ff1660ff1660011461042f57600080fd5b600d805463ff0000001916905560006104466112ec565b505060095460405163051bb83360e01b81529193506001600160a01b03808516935063051bb8339261047e9290911690600401613eb7565b60006040518083038186803b15801561049657600080fd5b505afa1580156104aa573d6000803e3d6000fd5b50505050600086116104bb57600080fd5b60408051608081018252600c54600281810b810b810b835263010000008204810b810b810b6020840152600160301b8204810b810b810b93830193909352600160481b9004820b820b90910b6060820152600954600091829161052b916001600160a01b03909116908390611386565b909650945050508383019150506001600160801b038116156105d75760006105638a670de0b6b3a764000061055e610868565b61141d565b600c54909150600090819061058790600281810b9163010000009004900b856114cc565b600c54919350915060009081906105b490600160301b8104600290810b91600160481b9004900b876114cc565b90925090506105c38483611526565b9a506105cf8382611526565b995050505050505b60006105f76105ee886105e8611536565b906115b7565b8b61055e610868565b9050600061061361060a886105e86115c7565b8c61055e610868565b905061061f8883611526565b975061062b8782611526565b9650871561064d5760075461064d908a908c906001600160a01b03168b6115f8565b861561066d5760085461066d908a908c906001600160a01b03168a6115f8565b610677338c611637565b896001600160a01b03167f02f25270a4d87bea75db541cdfe559334a275b4a233520ed6c0a2429667cca948c8a8a6040516106b493929190613fd8565b60405180910390a26001600160801b0383161561078f57600c54600090819061070b90600281810b9163010000009004900b6106ee611536565b6106f66115c7565b6009546001600160a01b031693929190611721565b600c549193509150600090819061073a90600160301b8104600290810b91600160481b9004900b6106ee611536565b90925090507f2fb985eb745b9e89bb1ab82e0f8ceb6bf94d4d60aed7e8196540c50161a5fe9161076a8584611526565b6107748584611526565b604051610782929190613fca565b60405180910390a1505050505b5050600d805463ff0000001916630100000017905550939792965091945050505050565b60038054604080516020601f600260001961010060018816150201909516949094049384018190048102820181019092528281526060939092909183018282801561083f5780601f106108145761010080835404028352916020019161083f565b820191906000526020600020905b81548152906001019060200180831161082257829003601f168201915b505050505090505b90565b600061085e610857611883565b8484611887565b5060015b92915050565b60025490565b600061087b848484611973565b6108eb84610887611883565b6108e68560405180606001604052806028815260200161415e602891396001600160a01b038a166000908152600160205260408120906108c5611883565b6001600160a01b031681526020810191909152604001600020549190611abc565b611887565b5060015b9392505050565b60055460ff1690565b6000610909611b53565b905090565b600061085e61091b611883565b846108e6856001600061092c611883565b6001600160a01b03908116825260208083019390935260409182016000908120918c168152925290205490611c1d565b6001600160a01b0381166000908152602081905260409020545b919050565b6001600160a01b038116600090815260066020526040812061086290611c75565b600754600854600d546009546001600160a01b039384169492841693600160201b90920462ffffff1692911690565b6000806000806109d9611883565b905060006109e5610868565b9050610a68600089896109f6611536565b6109fe6115c7565b60408051608081018252600c54600281810b810b810b835263010000008204810b810b810b6020840152600160301b8204810b810b810b93830193909352600160481b9004820b820b90910b60608201526009546001600160a01b03169594939291908890611c79565b6007549297509095509350610a88906001600160a01b0316833087611d15565b600854610aa0906001600160a01b0316833086611d15565b80610ab657610aaf8484611e52565b5050610b22565b600c546009546000918291610ae7916001600160a01b0390911690600281810b9163010000009004900b8989611721565b600c549193509150610b1d90600160301b8104600290810b91600160481b9004900b610b1389866115b7565b6106f689866115b7565b505050505b610b2c86866120e4565b856001600160a01b0316826001600160a01b03167f4e2ca0515ed1aef1395f66b5303bb5d6f1bf9d61a353fa53f73f8ac9973fa9f6868689604051610b7393929190613fd8565b60405180910390a3505093509350939050565b60048054604080516020601f600260001961010060018816150201909516949094049384018190048102820181019092528281526060939092909183018282801561083f5780601f106108145761010080835404028352916020019161083f565b600061085e610bf4611883565b846108e6856040518060600160405280602581526020016142106025913960016000610c1e611883565b6001600160a01b03908116825260208083019390935260409182016000908120918d16815292529020549190611abc565b600061085e610c5c611883565b8484611973565b600c54600281810b9163010000008104820b91600160301b8204810b91600160481b9004900b84565b60408051608081018252600c54600281810b810b810b835263010000008204810b810b810b6020840152600160301b8204810b810b810b93830193909352600160481b9004820b820b90910b606082015260095460009182918291829182918291610d04916001600160a01b03909116908390611386565b949b939a50919850965094509092509050565b610d1f6121c2565b336000610d2e83850185613ba9565b90508515610d4e57600754610d4e906001600160a01b0316828489611d15565b8415610d6c57600854610d6c906001600160a01b0316828488611d15565b505050505050565b83421115610dc9576040805162461bcd60e51b815260206004820152601d60248201527f45524332305065726d69743a206578706972656420646561646c696e65000000604482015290519081900360640190fd5b6001600160a01b03871660009081526006602052604081207f000000000000000000000000000000000000000000000000000000000000000090899089908990610e1290611c75565b8960405160200180878152602001866001600160a01b03168152602001856001600160a01b0316815260200184815260200183815260200182815260200196505050505050506040516020818303038152906040528051906020012090506000610e7b826121db565b90506000610e8b82878787612227565b9050896001600160a01b0316816001600160a01b031614610ef3576040805162461bcd60e51b815260206004820152601e60248201527f45524332305065726d69743a20696e76616c6964207369676e61747572650000604482015290519081900360640190fd5b6001600160a01b038a166000908152600660205260409020610f1490612396565b610f1f8a8a8a611887565b50505050505050505050565b6001600160a01b03918216600090815260016020908152604080832093909416825291909152205490565b6000610f606112ec565b5050509050806001600160a01b0316336001600160a01b031614610f8357600080fd5b600c54600954610fae916001600160a01b0390911690600281810b9163010000009004900b3061239f565b5050600c54600954610fe293506001600160a01b03169150600160301b8104600290810b91600160481b9004900b3061239f565b5050505050565b600d546301000000900460ff1660011461100257600080fd5b600d805463ff0000001916905560006110196112ec565b505060095460405163051bb83360e01b81529193506001600160a01b03808516935063051bb833926110519290911690600401613eb7565b60006040518083038186803b15801561106957600080fd5b505afa15801561107d573d6000803e3d6000fd5b505060408051608081018252600c54600281810b810b810b835263010000008204810b810b810b6020840152600160301b8204810b810b810b93830193909352600160481b9004820b820b90910b6060820152600954600093508392506110f1916001600160a01b03909116908390611386565b90965094505050838301915060009050806001600160801b0383161561124657600c54600954600091829182918291611145916001600160a01b0390911690600281810b9163010000009004900b3061239f565b600c546009549498509296509094509250600091829182918291611189916001600160a01b031690600160301b8104600290810b91600160481b9004900b3061239f565b929650909450925090506000806111a08885611526565b6111aa8885611526565b915091506111ba60018383612553565b6111c48a87611526565b9b506111d08986611526565b9a508b15806111dd57508a155b1561123b576000808d116111f25760006111f5565b60015b90506000816112105761120b8d6032606461141d565b61121d565b61121d8e6032606461141d565b600954909150611238906001600160a01b03163084846126f4565b50505b505050505050505050505b61124e611536565b91506112586115c7565b90506112648282611e52565b5050600d805463ff00000019166301000000179055505050505050565b6112896121c2565b60008413806112985750600083135b6112a157600080fd5b60006112af82840184613d36565b905080156112d4576007546112cf906001600160a01b0316303388611d15565b610fe2565b600854610fe2906001600160a01b0316303387611d15565b600080600080600a60009054906101000a90046001600160a01b03166001600160a01b03166338d772806040518163ffffffff1660e01b815260040160806040518083038186803b15801561134057600080fd5b505afa158015611354573d6000803e3d6000fd5b505050506040513d601f19601f820116820180604052508101906113789190613bfd565b935093509350935090919293565b6000806000806000806113a28988600001518960200151612870565b939950919750955093509150876114115760008060008060006113ce8e8d604001518e60600151612870565b9398509196509450925090506113e48b86611526565b9a506113f08a85611526565b99506113fc8984611526565b98506114088883611526565b97509450505050505b93975093979195509350565b6000808060001985870986860292508281109083900303905080611453576000841161144857600080fd5b5082900490506108ef565b80841161145f57600080fd5b6000848688096000868103871696879004966002600389028118808a02820302808a02820302808a02820302808a02820302808a02820302808a02909103029181900381900460010186841190950394909402919094039290920491909117919091029150509392505050565b60095460009081906114ea906001600160a01b0316868686306128b5565b6009549193509150600090819061150c906001600160a01b0316308989612a82565b9150915061151c60008383612553565b5050935093915050565b8082018281101561086257600080fd5b6007546040516370a0823160e01b81526000916001600160a01b0316906370a0823190611567903090600401613eb7565b60206040518083038186803b15801561157f57600080fd5b505afa158015611593573d6000803e3d6000fd5b505050506040513d601f19601f820116820180604052508101906109099190613e31565b8082038281111561086257600080fd5b6008546040516370a0823160e01b81526000916001600160a01b0316906370a0823190611567903090600401613eb7565b8380156116125750600b546001600160a01b038381169116145b15611626576116218184612b49565b611631565b611631828483612bb9565b50505050565b6001600160a01b03821661167c5760405162461bcd60e51b81526004018080602001828103825260218152602001806141a66021913960400191505060405180910390fd5b61168882600083612d00565b6116c581604051806060016040528060228152602001614089602291396001600160a01b0385166000908152602081905260409020549190611abc565b6001600160a01b0383166000908152602081905260409020556002546116eb9082612d05565b6002556040805182815290516000916001600160a01b038516916000805160206141868339815191529181900360200190a35050565b6000808061173b6001600160a01b03891686868a8a612d62565b90506001600160801b03811615611878576040805130602080830182905283518084038201815283850194859052633c8a7d8d60e01b9094526044830182815260028c810b60648601528b900b60848501526001600160801b03861660a485015260a060c48501908152855160e486015285516001600160a01b038f1696633c8a7d8d968f958f958b959394909392610104019185019080838360005b838110156117f05781810151838201526020016117d8565b50505050905090810190601f16801561181d5780820380516001836020036101000a031916815260200191505b5096505050505050506040805180830381600087803b15801561183f57600080fd5b505af1158015611853573d6000803e3d6000fd5b505050506040513d604081101561186957600080fd5b50805160209091015190935091505b509550959350505050565b3390565b6001600160a01b0383166118cc5760405162461bcd60e51b81526004018080602001828103825260248152602001806141ec6024913960400191505060405180910390fd5b6001600160a01b0382166119115760405162461bcd60e51b81526004018080602001828103825260228152602001806140ab6022913960400191505060405180910390fd5b6001600160a01b03808416600081815260016020908152604080832094871680845294825291829020859055815185815291517f8c5be1e5ebec7d5bd14f71427d1e84f3dd0314c0f7b2291e5b200ac8c7c3b9259281900390910190a3505050565b6001600160a01b0383166119b85760405162461bcd60e51b81526004018080602001828103825260258152602001806141c76025913960400191505060405180910390fd5b6001600160a01b0382166119fd5760405162461bcd60e51b81526004018080602001828103825260238152602001806140666023913960400191505060405180910390fd5b611a08838383612d00565b611a45816040518060600160405280602681526020016140cd602691396001600160a01b0386166000908152602081905260409020549190611abc565b6001600160a01b038085166000908152602081905260408082209390935590841681522054611a749082611c1d565b6001600160a01b0380841660008181526020818152604091829020949094558051858152905191939287169260008051602061418683398151915292918290030190a3505050565b60008184841115611b4b5760405162461bcd60e51b81526004018080602001828103825283818151815260200191508051906020019080838360005b83811015611b10578181015183820152602001611af8565b50505050905090810190601f168015611b3d5780820380516001836020036101000a031916815260200191505b509250505060405180910390fd5b505050900390565b60007f0000000000000000000000000000000000000000000000000000000000000000611b7e612df4565b1415611bab57507f0000000000000000000000000000000000000000000000000000000000000000610847565b611c167f00000000000000000000000000000000000000000000000000000000000000007f00000000000000000000000000000000000000000000000000000000000000007f0000000000000000000000000000000000000000000000000000000000000000612df8565b9050610847565b6000828201838110156108ef576040805162461bcd60e51b815260206004820152601b60248201527a536166654d6174683a206164646974696f6e206f766572666c6f7760281b604482015290519081900360640190fd5b5490565b6000806000806000806000611c8f8f8f8a611386565b505093509350935093506000611cb88c611cb2858861152690919063ffffffff16565b90611526565b90506000611cca8c611cb28786611526565b90508a1580611cd857508115155b80611ce257508015155b611ce857fe5b611cf58f8f84848f612e5a565b809950819a50829b50505050505050505050985098509895505050505050565b600b546001600160a01b038581169116148015611d325750804710155b15611e2a57600b60009054906101000a90046001600160a01b03166001600160a01b031663d0e30db0826040518263ffffffff1660e01b81526004016000604051808303818588803b158015611d8757600080fd5b505af1158015611d9b573d6000803e3d6000fd5b5050600b5460405163a9059cbb60e01b81526001600160a01b03909116935063a9059cbb9250611dd2915085908590600401613efb565b602060405180830381600087803b158015611dec57600080fd5b505af1158015611e00573d6000803e3d6000fd5b505050506040513d601f19601f82011682018060405250810190611e249190613d52565b50611631565b6001600160a01b038316301415611e4657611621848383612bb9565b61163184848484612eee565b600080611e5d613b1c565b600954611e72906001600160a01b031661303e565b600290810b810b60a088015290810b810b608087015290810b810b606086015290810b810b604085015290810b810b6020840181905291810b900b808352600954611ecb926001600160a01b0390911691908888611721565b8251600c8054602086015162ffffff19909116600293840b62ffffff9081169190911765ffffff000000191663010000009290940b160291909117905590935091506000611f1986856115b7565b90506000611f2786856115b7565b9050600080831180611f395750600082115b156120725760408401516060850151600954600092611f67926001600160a01b039092169187918791612d62565b608086015160a0870151600954929350600092611f93926001600160a01b039091169188918891612d62565b9050816001600160801b0316816001600160801b03161015612005576040860151600c80546060890151600290810b62ffffff908116600160481b0262ffffff60481b199590920b16600160301b0262ffffff60301b199092169190911792909216919091179055909150819061206f565b806001600160801b0316826001600160801b0316101561206f576080860151600c805460a0890151600290810b62ffffff908116600160481b0262ffffff60481b199590920b16600160301b0262ffffff60301b1990921691909117929092169190911790559150815b50505b6001600160801b038116156120d957600c5460095460009182916120b9916001600160a01b0390911690600160301b8104600290810b91600160481b9004900b8888611721565b90925090506120c88883611526565b97506120d48782611526565b965050505b505050509250929050565b6001600160a01b03821661213f576040805162461bcd60e51b815260206004820152601f60248201527f45524332303a206d696e7420746f20746865207a65726f206164647265737300604482015290519081900360640190fd5b61214b60008383612d00565b6002546121589082611c1d565b6002556001600160a01b03821660009081526020819052604090205461217e9082611c1d565b6001600160a01b0383166000818152602081815260408083209490945583518581529351929391926000805160206141868339815191529281900390910190a35050565b6009546001600160a01b031633146121d957600080fd5b565b60006121e5611b53565b82604051602001808061190160f01b81525060020183815260200182815260200192505050604051602081830303815290604052805190602001209050919050565b60006fa2a8918ca85bafe22016d0b997e4df60600160ff1b0382111561227e5760405162461bcd60e51b815260040180806020018281038252602281526020018061411a6022913960400191505060405180910390fd5b8360ff16601b148061229357508360ff16601c145b6122ce5760405162461bcd60e51b815260040180806020018281038252602281526020018061413c6022913960400191505060405180910390fd5b600060018686868660405160008152602001604052604051808581526020018460ff1681526020018381526020018281526020019450505050506020604051602081039080840390855afa15801561232a573d6000803e3d6000fd5b5050604051601f1901519150506001600160a01b03811661238d576040805162461bcd60e51b815260206004820152601860248201527745434453413a20696e76616c6964207369676e617475726560401b604482015290519081900360640190fd5b95945050505050565b80546001019055565b6000808080806123b96001600160a01b038a1689896130ea565b50909150506001600160801b03811615612547576040805163a34123a760e01b815260028a810b600483015289900b60248201526001600160801b038316604482015281516001600160a01b038c169263a34123a792606480820193918290030181600087803b15801561242c57600080fd5b505af1158015612440573d6000803e3d6000fd5b505050506040513d604081101561245657600080fd5b5080516020909101519095509350841515806124725750600084115b1561254757604080516309e3d67b60e31b81526001600160a01b03888116600483015260028b810b60248401528a900b60448301526001600160801b0360648301819052608483015282516000938493928e1692634f1eb3d89260a4808301939282900301818787803b1580156124e857600080fd5b505af11580156124fc573d6000803e3d6000fd5b505050506040513d604081101561251257600080fd5b5080516020909101516001600160801b03918216935016905061253582886115b7565b61253f82886115b7565b909550935050505b50945094509450949050565b60008061255e6112ec565b93509350505060008411156125ff576007546001600160a01b031663a9059cbb8361258e8760ff8616606461141d565b6040518363ffffffff1660e01b81526004016125ab929190613efb565b602060405180830381600087803b1580156125c557600080fd5b505af11580156125d9573d6000803e3d6000fd5b505050506040513d601f19601f820116820180604052508101906125fd9190613d52565b505b8215612697576008546001600160a01b031663a9059cbb836126268660ff8616606461141d565b6040518363ffffffff1660e01b8152600401612643929190613efb565b602060405180830381600087803b15801561265d57600080fd5b505af1158015612671573d6000803e3d6000fd5b505050506040513d601f19601f820116820180604052508101906126959190613d52565b505b7fbcc978db31dd08dc8adfad2608e266d446816cb7816fb50a1bd7e34699bbcf118585856126c3611536565b6126cb6115c7565b6126d3610868565b6040516126e596959493929190613f1f565b60405180910390a15050505050565b6000612708856001600160a01b0316613188565b505090506000620f42408261c350026001600160a01b03168161272757fe5b0490506000846127395781830161273d565b8183035b9050866001600160a01b031663128acb08878787858a6040516020018082151581526020019150506040516020818303038152906040526040518663ffffffff1660e01b815260040180866001600160a01b031681526020018515158152602001848152602001836001600160a01b0316815260200180602001828103825283818151815260200191508051906020019080838360005b838110156127ec5781810151838201526020016127d4565b50505050905090810190601f1680156128195780820380516001836020036101000a031916815260200191505b5096505050505050506040805180830381600087803b15801561283b57600080fd5b505af115801561284f573d6000803e3d6000fd5b505050506040513d604081101561286557600080fd5b505050505050505050565b600080600080600061288388888861320a565b90506001600160801b038116156128aa5761289f8888886132c3565b929750909550935091505b939792965093509350565b600080806128cd6001600160a01b03891688886130ea565b5050905060006128ef826001600160801b031687670de0b6b3a764000061141d565b9050886001600160a01b031663a34123a7898961290b8561330f565b6040518463ffffffff1660e01b8152600401808460020b81526020018360020b8152602001826001600160801b0316815260200193505050506040805180830381600087803b15801561295d57600080fd5b505af1158015612971573d6000803e3d6000fd5b505050506040513d604081101561298757600080fd5b5080516020909101519094509250831515806129a35750600083115b15612a7657886001600160a01b0316634f1eb3d8868a8a6129c38961330f565b6129cc8961330f565b6040518663ffffffff1660e01b815260040180866001600160a01b031681526020018560020b81526020018460020b8152602001836001600160801b03168152602001826001600160801b03168152602001955050505050506040805180830381600087803b158015612a3e57600080fd5b505af1158015612a52573d6000803e3d6000fd5b505050506040513d6040811015612a6857600080fd5b50516001600160801b031693505b50509550959350505050565b600080612a9086858561320a565b50604080516309e3d67b60e31b81526001600160a01b038781166004830152600287810b602484015286900b60448301526001600160801b03606483018190526084830152825190891692634f1eb3d89260a480820193918290030181600087803b158015612afe57600080fd5b505af1158015612b12573d6000803e3d6000fd5b505050506040513d6040811015612b2857600080fd5b5080516020909101516001600160801b039182169891169650945050505050565b600b54604051632e1a7d4d60e01b81526001600160a01b0390911690632e1a7d4d90612b79908590600401613f49565b600060405180830381600087803b158015612b9357600080fd5b505af1158015612ba7573d6000803e3d6000fd5b50505050612bb58183613357565b5050565b604080516001600160a01b038481166024830152604480830185905283518084039091018152606490920183526020820180516001600160e01b031663a9059cbb60e01b1781529251825160009485949389169392918291908083835b60208310612c355780518252601f199092019160209182019101612c16565b6001836020036101000a0380198251168184511680821785525050505050509050019150506000604051808303816000865af19150503d8060008114612c97576040519150601f19603f3d011682016040523d82523d6000602084013e612c9c565b606091505b5091509150818015612cca575080511580612cca5750808060200190516020811015612cc757600080fd5b50515b610fe2576040805162461bcd60e51b815260206004820152600260248201526114d560f21b604482015290519081900360640190fd5b505050565b600082821115612d5c576040805162461bcd60e51b815260206004820152601e60248201527f536166654d6174683a207375627472616374696f6e206f766572666c6f770000604482015290519081900360640190fd5b50900390565b600080866001600160a01b0316633850c7bd6040518163ffffffff1660e01b815260040160e06040518083038186803b158015612d9e57600080fd5b505afa158015612db2573d6000803e3d6000fd5b505050506040513d60e0811015612dc857600080fd5b50519050612de981612dd986613446565b612de286613446565b898961376d565b979650505050505050565b4690565b6000838383612e05612df4565b3060405160200180868152602001858152602001848152602001838152602001826001600160a01b03168152602001955050505050506040516020818303038152906040528051906020012090509392505050565b6000808083612e7e575086905085808211612e755780612e77565b815b9250612ee3565b85612e90575085612e7781858761141d565b84612ea357879150612e7782858861141d565b612eae87878761141d565b915087821015612ec5575085612e7781858761141d565b879150612ed382868861141d565b9050612ee082858861141d565b92505b955095509592505050565b604080516001600160a01b0385811660248301528481166044830152606480830185905283518084039091018152608490920183526020820180516001600160e01b03166323b872dd60e01b178152925182516000948594938a169392918291908083835b60208310612f725780518252601f199092019160209182019101612f53565b6001836020036101000a0380198251168184511680821785525050505050509050019150506000604051808303816000865af19150503d8060008114612fd4576040519150601f19603f3d011682016040523d82523d6000602084013e612fd9565b606091505b5091509150818015613007575080511580613007575080806020019051602081101561300457600080fd5b50515b610d6c576040805162461bcd60e51b815260206004820152600360248201526229aa2360e91b604482015290519081900360640190fd5b60008060008060008060006130516112ec565b505060405163802036f560e01b81529092506001600160a01b038316915063802036f590613083908b90600401613eb7565b60c060405180830381600087803b15801561309d57600080fd5b505af11580156130b1573d6000803e3d6000fd5b505050506040513d601f19601f820116820180604052508101906130d59190613d6e565b949d939c50919a509850965090945092505050565b6000806000806130fb30878761382f565b9050866001600160a01b031663514ea4bf826040518263ffffffff1660e01b81526004018082815260200191505060a06040518083038186803b15801561314157600080fd5b505afa158015613155573d6000803e3d6000fd5b505050506040513d60a081101561316b57600080fd5b508051606082015160809092015190999198509650945050505050565b6000806000836001600160a01b0316633850c7bd6040518163ffffffff1660e01b815260040160e06040518083038186803b1580156131c657600080fd5b505afa1580156131da573d6000803e3d6000fd5b505050506040513d60e08110156131f057600080fd5b508051602082015160609092015190969195509350915050565b60006132206001600160a01b03851684846130ea565b50909150506001600160801b038116156108ef57836001600160a01b031663a34123a7848460006040518463ffffffff1660e01b8152600401808460020b81526020018360020b815260200182815260200193505050506040805180830381600087803b15801561329057600080fd5b505af11580156132a4573d6000803e3d6000fd5b505050506040513d60408110156132ba57600080fd5b50509392505050565b60008060008060008060006132d98a8a8a6130ea565b9250925092506000806132ee8c868d8d613880565b9099509750506001600160801b039283169550501691505093509350935093565b6000600160801b82106133535760405162461bcd60e51b81526004018080602001828103825260278152602001806140f36027913960400191505060405180910390fd5b5090565b604080516000808252602082019092526001600160a01b0384169083906040518082805190602001908083835b602083106133a35780518252601f199092019160209182019101613384565b6001836020036101000a03801982511681845116808217855250505050505090500191505060006040518083038185875af1925050503d8060008114613405576040519150601f19603f3d011682016040523d82523d6000602084013e61340a565b606091505b5050905080612d00576040805162461bcd60e51b815260206004820152600360248201526253544560e81b604482015290519081900360640190fd5b60008060008360020b1261345d578260020b613465565b8260020b6000035b9050620d89e88111156134a3576040805162461bcd60e51b81526020600482015260016024820152601560fa1b604482015290519081900360640190fd5b6000600182166134b757600160801b6134c9565b6ffffcb933bd6fad37aa2d162d1a5940015b6001600160881b0316905060028216156134f3576ffff97272373d413259a46990580e213a0260801c5b6004821615613512576ffff2e50f5f656932ef12357cf3c7fdcc0260801c5b6008821615613531576fffe5caca7e10e4e61c3624eaa0941cd00260801c5b6010821615613550576fffcb9843d60f6159c9db58835c9266440260801c5b602082161561356f576fff973b41fa98c081472e6896dfb254c00260801c5b604082161561358e576fff2ea16466c96a3843ec78b326b528610260801c5b60808216156135ad576ffe5dee046a99a2a811c461f1969c30530260801c5b6101008216156135cd576ffcbe86c7900a88aedcffc83b479aa3a40260801c5b6102008216156135ed576ff987a7253ac413176f2b074cf7815e540260801c5b61040082161561360d576ff3392b0822b70005940c7a398e4b70f30260801c5b61080082161561362d576fe7159475a2c29b7443b29c7fa6e889d90260801c5b61100082161561364d576fd097f3bdfd2022b8845ad8f792aa58250260801c5b61200082161561366d576fa9f746462d870fdf8a65dc1f90e061e50260801c5b61400082161561368d576f70d869a156d2a1b890bb3df62baf32f70260801c5b6180008216156136ad576f31be135f97d08fd981231505542fcfa60260801c5b620100008216156136ce576f09aa508b5b7a84e1c677de54f3e99bc90260801c5b620200008216156136ee576e5d6af8dedb81196699c329225ee6040260801c5b6204000082161561370d576d2216e584f5fa1ea926041bedfe980260801c5b6208000082161561372a576b048a170391f7dc42444e8fa20260801c5b60008460020b131561374557806000198161374157fe5b0490505b600160201b81061561375857600161375b565b60005b60ff16602082901c0192505050919050565b6000836001600160a01b0316856001600160a01b0316111561378d579293925b846001600160a01b0316866001600160a01b0316116137b8576137b1858585613917565b905061238d565b836001600160a01b0316866001600160a01b0316101561381a5760006137df878686613917565b905060006137ee87898661397a565b9050806001600160801b0316826001600160801b03161061380f5780613811565b815b9250505061238d565b61382585858461397a565b9695505050505050565b6040805160609490941b6001600160601b031916602080860191909152600293840b60e890811b60348701529290930b90911b60378401528051808403601a018152603a9093019052815191012090565b6000806000866001600160a01b0316633850c7bd6040518163ffffffff1660e01b815260040160e06040518083038186803b1580156138be57600080fd5b505afa1580156138d2573d6000803e3d6000fd5b505050506040513d60e08110156138e857600080fd5b50519050613908816138f987613446565b61390287613446565b896139bf565b92509250505b94509492505050565b6000826001600160a01b0316846001600160a01b03161115613937579192915b600061395a856001600160a01b0316856001600160a01b0316600160601b61141d565b905061238d61397584838888036001600160a01b031661141d565b613a5a565b6000826001600160a01b0316846001600160a01b0316111561399a579192915b6139b761397583600160601b8787036001600160a01b031661141d565b949350505050565b600080836001600160a01b0316856001600160a01b031611156139e0579293925b846001600160a01b0316866001600160a01b031611613a0b57613a04858585613a70565b915061390e565b836001600160a01b0316866001600160a01b03161015613a4457613a30868585613a70565b9150613a3d858785613ad9565b905061390e565b613a4f858585613ad9565b905094509492505050565b806001600160801b038116811461097657600080fd5b6000826001600160a01b0316846001600160a01b03161115613a90579192915b836001600160a01b0316613ac9606060ff16846001600160801b0316901b8686036001600160a01b0316866001600160a01b031661141d565b81613ad057fe5b04949350505050565b6000826001600160a01b0316846001600160a01b03161115613af9579192915b6139b7826001600160801b03168585036001600160a01b0316600160601b61141d565b6040805160c081018252600080825260208201819052918101829052606081018290526080810182905260a081019190915290565b60008083601f840112613b62578182fd5b5081356001600160401b03811115613b78578182fd5b602083019150836020828501011115613b9057600080fd5b9250929050565b8051600281900b811461097657600080fd5b600060208284031215613bba578081fd5b81356108ef81614030565b60008060408385031215613bd7578081fd5b8235613be281614030565b91506020830135613bf281614030565b809150509250929050565b60008060008060808587031215613c12578182fd5b8451613c1d81614030565b6020860151909450613c2e81614030565b6040860151909350613c3f81614030565b6060860151909250613c5081614056565b939692955090935050565b600080600060608486031215613c6f578283fd5b8335613c7a81614030565b92506020840135613c8a81614030565b929592945050506040919091013590565b600080600080600080600060e0888a031215613cb5578283fd5b8735613cc081614030565b96506020880135613cd081614030565b955060408801359450606088013593506080880135613cee81614056565b9699959850939692959460a0840135945060c09093013592915050565b60008060408385031215613d1d578182fd5b8235613d2881614030565b946020939093013593505050565b600060208284031215613d47578081fd5b81356108ef81614048565b600060208284031215613d63578081fd5b81516108ef81614048565b60008060008060008060c08789031215613d86578182fd5b613d8f87613b97565b9550613d9d60208801613b97565b9450613dab60408801613b97565b9350613db960608801613b97565b9250613dc760808801613b97565b9150613dd560a08801613b97565b90509295509295509295565b60008060008060608587031215613df6578182fd5b843593506020850135925060408501356001600160401b03811115613e19578283fd5b613e2587828801613b51565b95989497509550505050565b600060208284031215613e42578081fd5b5051919050565b600080600060608486031215613e5d578081fd5b833592506020840135613e6f81614030565b91506040840135613e7f81614048565b809150509250925092565b600080600060608486031215613e9e578081fd5b83359250602084013591506040840135613e7f81614030565b6001600160a01b0391909116815260200190565b6001600160a01b039485168152928416602084015262ffffff919091166040830152909116606082015260800190565b6001600160a01b03929092168252602082015260400190565b901515815260200190565b9515158652602086019490945260408501929092526060840152608083015260a082015260c00190565b90815260200190565b600294850b815292840b602084015290830b604083015290910b606082015260800190565b6000602080835283518082850152825b81811015613fa357858101830151858201604001528201613f87565b81811115613fb45783604083870101525b50601f01601f1916929092016040019392505050565b918252602082015260400190565b9283526020830191909152604082015260600190565b9586526020860194909452604085019290925260608401526001600160801b0390811660808401521660a082015260c00190565b60ff91909116815260200190565b6001600160a01b038116811461404557600080fd5b50565b801515811461404557600080fd5b60ff8116811461404557600080fdfe45524332303a207472616e7366657220746f20746865207a65726f206164647265737345524332303a206275726e20616d6f756e7420657863656564732062616c616e636545524332303a20617070726f766520746f20746865207a65726f206164647265737345524332303a207472616e7366657220616d6f756e7420657863656564732062616c616e636553616665436173743a2076616c756520646f65736e27742066697420696e20313238206269747345434453413a20696e76616c6964207369676e6174757265202773272076616c756545434453413a20696e76616c6964207369676e6174757265202776272076616c756545524332303a207472616e7366657220616d6f756e74206578636565647320616c6c6f77616e6365ddf252ad1be2c89b69c2b068fc378daa952ba7f163c4a11628f55a4df523b3ef45524332303a206275726e2066726f6d20746865207a65726f206164647265737345524332303a207472616e736665722066726f6d20746865207a65726f206164647265737345524332303a20617070726f76652066726f6d20746865207a65726f206164647265737345524332303a2064656372656173656420616c6c6f77616e63652062656c6f77207a65726fa164736f6c6343000706000a",
  "linkReferences": {},
  "deployedLinkReferences": {}
}