{
  "_format": "hh-sol-artifact-1",
  "contractName": "NonfungiblePositionManager",
  "sourceName": "contracts/test/NonfungiblePositionManager.sol",
  "abi": [
    {
      "inputs": [
        {
          "internalType": "address",
          "name": "_factory",
          "type": "address"
        },
        {
          "internalType": "address",
          "name": "_WETH9",
          "type": "address"
        },
        {
          "internalType": "address",
          "name": "_tokenDescriptor_",
          "type": "address"
        }
      ],
      "stateMutability": "nonpayable",
      "type": "constructor"
    },
    {
      "anonymous": false,
      "inputs": [
        {
          "indexed": true,
          "internalType": "address",
          "name": "owner",
          "type": "address"
        },
        {
          "indexed": true,
          "internalType": "address",
          "name": "approved",
          "type": "address"
        },
        {
          "indexed": true,
          "internalType": "uint256",
          "name": "tokenId",
          "type": "uint256"
        }
      ],
      "name": "Approval",
      "type": "event"
    },
    {
      "anonymous": false,
      "inputs": [
        {
          "indexed": true,
          "internalType": "address",
          "name": "owner",
          "type": "address"
        },
        {
          "indexed": true,
          "internalType": "address",
          "name": "operator",
          "type": "address"
        },
        {
          "indexed": false,
          "internalType": "bool",
          "name": "approved",
          "type": "bool"
        }
      ],
      "name": "ApprovalForAll",
      "type": "event"
    },
    {
      "anonymous": false,
      "inputs": [
        {
          "indexed": true,
          "internalType": "uint256",
          "name": "tokenId",
          "type": "uint256"
        },
        {
          "indexed": false,
          "internalType": "address",
          "name": "recipient",
          "type": "address"
        },
        {
          "indexed": false,
          "internalType": "uint256",
          "name": "amount0",
          "type": "uint256"
        },
        {
          "indexed": false,
          "internalType": "uint256",
          "name": "amount1",
          "type": "uint256"
        }
      ],
      "name": "Collect",
      "type": "event"
    },
    {
      "anonymous": false,
      "inputs": [
        {
          "indexed": true,
          "internalType": "uint256",
          "name": "tokenId",
          "type": "uint256"
        },
        {
          "indexed": false,
          "internalType": "uint128",
          "name": "liquidity",
          "type": "uint128"
        },
        {
          "indexed": false,
          "internalType": "uint256",
          "name": "amount0",
          "type": "uint256"
        },
        {
          "indexed": false,
          "internalType": "uint256",
          "name": "amount1",
          "type": "uint256"
        }
      ],
      "name": "DecreaseLiquidity",
      "type": "event"
    },
    {
      "anonymous": false,
      "inputs": [
        {
          "indexed": true,
          "internalType": "uint256",
          "name": "tokenId",
          "type": "uint256"
        },
        {
          "indexed": false,
          "internalType": "uint128",
          "name": "liquidity",
          "type": "uint128"
        },
        {
          "indexed": false,
          "internalType": "uint256",
          "name": "amount0",
          "type": "uint256"
        },
        {
          "indexed": false,
          "internalType": "uint256",
          "name": "amount1",
          "type": "uint256"
        }
      ],
      "name": "IncreaseLiquidity",
      "type": "event"
    },
    {
      "anonymous": false,
      "inputs": [
        {
          "indexed": true,
          "internalType": "address",
          "name": "from",
          "type": "address"
        },
        {
          "indexed": true,
          "internalType": "address",
          "name": "to",
          "type": "address"
        },
        {
          "indexed": true,
          "internalType": "uint256",
          "name": "tokenId",
          "type": "uint256"
        }
      ],
      "name": "Transfer",
      "type": "event"
    },
    {
      "inputs": [],
      "name": "DOMAIN_SEPARATOR",
      "outputs": [
        {
          "internalType": "bytes32",
          "name": "",
          "type": "bytes32"
        }
      ],
      "stateMutability": "view",
      "type": "function"
    },
    {
      "inputs": [],
      "name": "PERMIT_TYPEHASH",
      "outputs": [
        {
          "internalType": "bytes32",
          "name": "",
          "type": "bytes32"
        }
      ],
      "stateMutability": "view",
      "type": "function"
    },
    {
      "inputs": [],
      "name": "WETH9",
      "outputs": [
        {
          "internalType": "address",
          "name": "",
          "type": "address"
        }
      ],
      "stateMutability": "view",
      "type": "function"
    },
    {
      "inputs": [
        {
          "internalType": "address",
          "name": "to",
          "type": "address"
        },
        {
          "internalType": "uint256",
          "name": "tokenId",
          "type": "uint256"
        }
      ],
      "name": "approve",
      "outputs": [],
      "stateMutability": "nonpayable",
      "type": "function"
    },
    {
      "inputs": [
        {
          "internalType": "address",
          "name": "owner",
          "type": "address"
        }
      ],
      "name": "balanceOf",
      "outputs": [
        {
          "internalType": "uint256",
          "name": "",
          "type": "uint256"
        }
      ],
      "stateMutability": "view",
      "type": "function"
    },
    {
      "inputs": [],
      "name": "baseURI",
      "outputs": [
        {
          "internalType": "string",
          "name": "",
          "type": "string"
        }
      ],
      "stateMutability": "pure",
      "type": "function"
    },
    {
      "inputs": [
        {
          "internalType": "uint256",
          "name": "tokenId",
          "type": "uint256"
        }
      ],
      "name": "burn",
      "outputs": [],
      "stateMutability": "payable",
      "type": "function"
    },
    {
      "inputs": [
        {
          "components": [
            {
              "internalType": "uint256",
              "name": "tokenId",
              "type": "uint256"
            },
            {
              "internalType": "address",
              "name": "recipient",
              "type": "address"
            },
            {
              "internalType": "uint128",
              "name": "amount0Max",
              "type": "uint128"
            },
            {
              "internalType": "uint128",
              "name": "amount1Max",
              "type": "uint128"
            }
          ],
          "internalType": "struct INonfungiblePositionManager.CollectParams",
          "name": "params",
          "type": "tuple"
        }
      ],
      "name": "collect",
      "outputs": [
        {
          "internalType": "uint256",
          "name": "amount0",
          "type": "uint256"
        },
        {
          "internalType": "uint256",
          "name": "amount1",
          "type": "uint256"
        }
      ],
      "stateMutability": "payable",
      "type": "function"
    },
    {
      "inputs": [
        {
          "internalType": "address",
          "name": "token0",
          "type": "address"
        },
        {
          "internalType": "address",
          "name": "token1",
          "type": "address"
        },
        {
          "internalType": "uint24",
          "name": "fee",
          "type": "uint24"
        },
        {
          "internalType": "uint160",
          "name": "sqrtPriceX96",
          "type": "uint160"
        }
      ],
      "name": "createAndInitializePoolIfNecessary",
      "outputs": [
        {
          "internalType": "address",
          "name": "pool",
          "type": "address"
        }
      ],
      "stateMutability": "payable",
      "type": "function"
    },
    {
      "inputs": [
        {
          "components": [
            {
              "internalType": "uint256",
              "name": "tokenId",
              "type": "uint256"
            },
            {
              "internalType": "uint128",
              "name": "liquidity",
              "type": "uint128"
            },
            {
              "internalType": "uint256",
              "name": "amount0Min",
              "type": "uint256"
            },
            {
              "internalType": "uint256",
              "name": "amount1Min",
              "type": "uint256"
            },
            {
              "internalType": "uint256",
              "name": "deadline",
              "type": "uint256"
            }
          ],
          "internalType": "struct INonfungiblePositionManager.DecreaseLiquidityParams",
          "name": "params",
          "type": "tuple"
        }
      ],
      "name": "decreaseLiquidity",
      "outputs": [
        {
          "internalType": "uint256",
          "name": "amount0",
          "type": "uint256"
        },
        {
          "internalType": "uint256",
          "name": "amount1",
          "type": "uint256"
        }
      ],
      "stateMutability": "payable",
      "type": "function"
    },
    {
      "inputs": [],
      "name": "factory",
      "outputs": [
        {
          "internalType": "address",
          "name": "",
          "type": "address"
        }
      ],
      "stateMutability": "view",
      "type": "function"
    },
    {
      "inputs": [
        {
          "internalType": "uint256",
          "name": "tokenId",
          "type": "uint256"
        }
      ],
      "name": "getApproved",
      "outputs": [
        {
          "internalType": "address",
          "name": "",
          "type": "address"
        }
      ],
      "stateMutability": "view",
      "type": "function"
    },
    {
      "inputs": [
        {
          "components": [
            {
              "internalType": "uint256",
              "name": "tokenId",
              "type": "uint256"
            },
            {
              "internalType": "uint256",
              "name": "amount0Desired",
              "type": "uint256"
            },
            {
              "internalType": "uint256",
              "name": "amount1Desired",
              "type": "uint256"
            },
            {
              "internalType": "uint256",
              "name": "amount0Min",
              "type": "uint256"
            },
            {
              "internalType": "uint256",
              "name": "amount1Min",
              "type": "uint256"
            },
            {
              "internalType": "uint256",
              "name": "deadline",
              "type": "uint256"
            }
          ],
          "internalType": "struct INonfungiblePositionManager.IncreaseLiquidityParams",
          "name": "params",
          "type": "tuple"
        }
      ],
      "name": "increaseLiquidity",
      "outputs": [
        {
          "internalType": "uint128",
          "name": "liquidity",
          "type": "uint128"
        },
        {
          "internalType": "uint256",
          "name": "amount0",
          "type": "uint256"
        },
        {
          "internalType": "uint256",
          "name": "amount1",
          "type": "uint256"
        }
      ],
      "stateMutability": "payable",
      "type": "function"
    },
    {
      "inputs": [
        {
          "internalType": "address",
          "name": "owner",
          "type": "address"
        },
        {
          "internalType": "address",
          "name": "operator",
          "type": "address"
        }
      ],
      "name": "isApprovedForAll",
      "outputs": [
        {
          "internalType": "bool",
          "name": "",
          "type": "bool"
        }
      ],
      "stateMutability": "view",
      "type": "function"
    },
    {
      "inputs": [
        {
          "components": [
            {
              "internalType": "address",
              "name": "token0",
              "type": "address"
            },
            {
              "internalType": "address",
              "name": "token1",
              "type": "address"
            },
            {
              "internalType": "uint24",
              "name": "fee",
              "type": "uint24"
            },
            {
              "internalType": "int24",
              "name": "tickLower",
              "type": "int24"
            },
            {
              "internalType": "int24",
              "name": "tickUpper",
              "type": "int24"
            },
            {
              "internalType": "uint256",
              "name": "amount0Desired",
              "type": "uint256"
            },
            {
              "internalType": "uint256",
              "name": "amount1Desired",
              "type": "uint256"
            },
            {
              "internalType": "uint256",
              "name": "amount0Min",
              "type": "uint256"
            },
            {
              "internalType": "uint256",
              "name": "amount1Min",
              "type": "uint256"
            },
            {
              "internalType": "address",
              "name": "recipient",
              "type": "address"
            },
            {
              "internalType": "uint256",
              "name": "deadline",
              "type": "uint256"
            }
          ],
          "internalType": "struct INonfungiblePositionManager.MintParams",
          "name": "params",
          "type": "tuple"
        }
      ],
      "name": "mint",
      "outputs": [
        {
          "internalType": "uint256",
          "name": "tokenId",
          "type": "uint256"
        },
        {
          "internalType": "uint128",
          "name": "liquidity",
          "type": "uint128"
        },
        {
          "internalType": "uint256",
          "name": "amount0",
          "type": "uint256"
        },
        {
          "internalType": "uint256",
          "name": "amount1",
          "type": "uint256"
        }
      ],
      "stateMutability": "payable",
      "type": "function"
    },
    {
      "inputs": [
        {
          "internalType": "bytes[]",
          "name": "data",
          "type": "bytes[]"
        }
      ],
      "name": "multicall",
      "outputs": [
        {
          "internalType": "bytes[]",
          "name": "results",
          "type": "bytes[]"
        }
      ],
      "stateMutability": "payable",
      "type": "function"
    },
    {
      "inputs": [],
      "name": "name",
      "outputs": [
        {
          "internalType": "string",
          "name": "",
          "type": "string"
        }
      ],
      "stateMutability": "view",
      "type": "function"
    },
    {
      "inputs": [
        {
          "internalType": "uint256",
          "name": "tokenId",
          "type": "uint256"
        }
      ],
      "name": "ownerOf",
      "outputs": [
        {
          "internalType": "address",
          "name": "",
          "type": "address"
        }
      ],
      "stateMutability": "view",
      "type": "function"
    },
    {
      "inputs": [
        {
          "internalType": "address",
          "name": "spender",
          "type": "address"
        },
        {
          "internalType": "uint256",
          "name": "tokenId",
          "type": "uint256"
        },
        {
          "internalType": "uint256",
          "name": "deadline",
          "type": "uint256"
        },
        {
          "internalType": "uint8",
          "name": "v",
          "type": "uint8"
        },
        {
          "internalType": "bytes32",
          "name": "r",
          "type": "bytes32"
        },
        {
          "internalType": "bytes32",
          "name": "s",
          "type": "bytes32"
        }
      ],
      "name": "permit",
      "outputs": [],
      "stateMutability": "payable",
      "type": "function"
    },
    {
      "inputs": [
        {
          "internalType": "uint256",
          "name": "tokenId",
          "type": "uint256"
        }
      ],
      "name": "positions",
      "outputs": [
        {
          "internalType": "uint96",
          "name": "nonce",
          "type": "uint96"
        },
        {
          "internalType": "address",
          "name": "operator",
          "type": "address"
        },
        {
          "internalType": "address",
          "name": "token0",
          "type": "address"
        },
        {
          "internalType": "address",
          "name": "token1",
          "type": "address"
        },
        {
          "internalType": "uint24",
          "name": "fee",
          "type": "uint24"
        },
        {
          "internalType": "int24",
          "name": "tickLower",
          "type": "int24"
        },
        {
          "internalType": "int24",
          "name": "tickUpper",
          "type": "int24"
        },
        {
          "internalType": "uint128",
          "name": "liquidity",
          "type": "uint128"
        },
        {
          "internalType": "uint256",
          "name": "feeGrowthInside0LastX128",
          "type": "uint256"
        },
        {
          "internalType": "uint256",
          "name": "feeGrowthInside1LastX128",
          "type": "uint256"
        },
        {
          "internalType": "uint128",
          "name": "tokensOwed0",
          "type": "uint128"
        },
        {
          "internalType": "uint128",
          "name": "tokensOwed1",
          "type": "uint128"
        }
      ],
      "stateMutability": "view",
      "type": "function"
    },
    {
      "inputs": [],
      "name": "refundETH",
      "outputs": [],
      "stateMutability": "payable",
      "type": "function"
    },
    {
      "inputs": [
        {
          "internalType": "address",
          "name": "from",
          "type": "address"
        },
        {
          "internalType": "address",
          "name": "to",
          "type": "address"
        },
        {
          "internalType": "uint256",
          "name": "tokenId",
          "type": "uint256"
        }
      ],
      "name": "safeTransferFrom",
      "outputs": [],
      "stateMutability": "nonpayable",
      "type": "function"
    },
    {
      "inputs": [
        {
          "internalType": "address",
          "name": "from",
          "type": "address"
        },
        {
          "internalType": "address",
          "name": "to",
          "type": "address"
        },
        {
          "internalType": "uint256",
          "name": "tokenId",
          "type": "uint256"
        },
        {
          "internalType": "bytes",
          "name": "_data",
          "type": "bytes"
        }
      ],
      "name": "safeTransferFrom",
      "outputs": [],
      "stateMutability": "nonpayable",
      "type": "function"
    },
    {
      "inputs": [
        {
          "internalType": "address",
          "name": "token",
          "type": "address"
        },
        {
          "internalType": "uint256",
          "name": "value",
          "type": "uint256"
        },
        {
          "internalType": "uint256",
          "name": "deadline",
          "type": "uint256"
        },
        {
          "internalType": "uint8",
          "name": "v",
          "type": "uint8"
        },
        {
          "internalType": "bytes32",
          "name": "r",
          "type": "bytes32"
        },
        {
          "internalType": "bytes32",
          "name": "s",
          "type": "bytes32"
        }
      ],
      "name": "selfPermit",
      "outputs": [],
      "stateMutability": "payable",
      "type": "function"
    },
    {
      "inputs": [
        {
          "internalType": "address",
          "name": "token",
          "type": "address"
        },
        {
          "internalType": "uint256",
          "name": "nonce",
          "type": "uint256"
        },
        {
          "internalType": "uint256",
          "name": "expiry",
          "type": "uint256"
        },
        {
          "internalType": "uint8",
          "name": "v",
          "type": "uint8"
        },
        {
          "internalType": "bytes32",
          "name": "r",
          "type": "bytes32"
        },
        {
          "internalType": "bytes32",
          "name": "s",
          "type": "bytes32"
        }
      ],
      "name": "selfPermitAllowed",
      "outputs": [],
      "stateMutability": "payable",
      "type": "function"
    },
    {
      "inputs": [
        {
          "internalType": "address",
          "name": "token",
          "type": "address"
        },
        {
          "internalType": "uint256",
          "name": "nonce",
          "type": "uint256"
        },
        {
          "internalType": "uint256",
          "name": "expiry",
          "type": "uint256"
        },
        {
          "internalType": "uint8",
          "name": "v",
          "type": "uint8"
        },
        {
          "internalType": "bytes32",
          "name": "r",
          "type": "bytes32"
        },
        {
          "internalType": "bytes32",
          "name": "s",
          "type": "bytes32"
        }
      ],
      "name": "selfPermitAllowedIfNecessary",
      "outputs": [],
      "stateMutability": "payable",
      "type": "function"
    },
    {
      "inputs": [
        {
          "internalType": "address",
          "name": "token",
          "type": "address"
        },
        {
          "internalType": "uint256",
          "name": "value",
          "type": "uint256"
        },
        {
          "internalType": "uint256",
          "name": "deadline",
          "type": "uint256"
        },
        {
          "internalType": "uint8",
          "name": "v",
          "type": "uint8"
        },
        {
          "internalType": "bytes32",
          "name": "r",
          "type": "bytes32"
        },
        {
          "internalType": "bytes32",
          "name": "s",
          "type": "bytes32"
        }
      ],
      "name": "selfPermitIfNecessary",
      "outputs": [],
      "stateMutability": "payable",
      "type": "function"
    },
    {
      "inputs": [
        {
          "internalType": "address",
          "name": "operator",
          "type": "address"
        },
        {
          "internalType": "bool",
          "name": "approved",
          "type": "bool"
        }
      ],
      "name": "setApprovalForAll",
      "outputs": [],
      "stateMutability": "nonpayable",
      "type": "function"
    },
    {
      "inputs": [
        {
          "internalType": "bytes4",
          "name": "interfaceId",
          "type": "bytes4"
        }
      ],
      "name": "supportsInterface",
      "outputs": [
        {
          "internalType": "bool",
          "name": "",
          "type": "bool"
        }
      ],
      "stateMutability": "view",
      "type": "function"
    },
    {
      "inputs": [
        {
          "internalType": "address",
          "name": "token",
          "type": "address"
        },
        {
          "internalType": "uint256",
          "name": "amountMinimum",
          "type": "uint256"
        },
        {
          "internalType": "address",
          "name": "recipient",
          "type": "address"
        }
      ],
      "name": "sweepToken",
      "outputs": [],
      "stateMutability": "payable",
      "type": "function"
    },
    {
      "inputs": [],
      "name": "symbol",
      "outputs": [
        {
          "internalType": "string",
          "name": "",
          "type": "string"
        }
      ],
      "stateMutability": "view",
      "type": "function"
    },
    {
      "inputs": [
        {
          "internalType": "uint256",
          "name": "index",
          "type": "uint256"
        }
      ],
      "name": "tokenByIndex",
      "outputs": [
        {
          "internalType": "uint256",
          "name": "",
          "type": "uint256"
        }
      ],
      "stateMutability": "view",
      "type": "function"
    },
    {
      "inputs": [
        {
          "internalType": "address",
          "name": "owner",
          "type": "address"
        },
        {
          "internalType": "uint256",
          "name": "index",
          "type": "uint256"
        }
      ],
      "name": "tokenOfOwnerByIndex",
      "outputs": [
        {
          "internalType": "uint256",
          "name": "",
          "type": "uint256"
        }
      ],
      "stateMutability": "view",
      "type": "function"
    },
    {
      "inputs": [
        {
          "internalType": "uint256",
          "name": "tokenId",
          "type": "uint256"
        }
      ],
      "name": "tokenURI",
      "outputs": [
        {
          "internalType": "string",
          "name": "",
          "type": "string"
        }
      ],
      "stateMutability": "view",
      "type": "function"
    },
    {
      "inputs": [],
      "name": "totalSupply",
      "outputs": [
        {
          "internalType": "uint256",
          "name": "",
          "type": "uint256"
        }
      ],
      "stateMutability": "view",
      "type": "function"
    },
    {
      "inputs": [
        {
          "internalType": "address",
          "name": "from",
          "type": "address"
        },
        {
          "internalType": "address",
          "name": "to",
          "type": "address"
        },
        {
          "internalType": "uint256",
          "name": "tokenId",
          "type": "uint256"
        }
      ],
      "name": "transferFrom",
      "outputs": [],
      "stateMutability": "nonpayable",
      "type": "function"
    },
    {
      "inputs": [
        {
          "internalType": "uint256",
          "name": "amount0Owed",
          "type": "uint256"
        },
        {
          "internalType": "uint256",
          "name": "amount1Owed",
          "type": "uint256"
        },
        {
          "internalType": "bytes",
          "name": "data",
          "type": "bytes"
        }
      ],
      "name": "uniswapV3MintCallback",
      "outputs": [],
      "stateMutability": "nonpayable",
      "type": "function"
    },
    {
      "inputs": [
        {
          "internalType": "uint256",
          "name": "amountMinimum",
          "type": "uint256"
        },
        {
          "internalType": "address",
          "name": "recipient",
          "type": "address"
        }
      ],
      "name": "unwrapWETH9",
      "outputs": [],
      "stateMutability": "payable",
      "type": "function"
    },
    {
      "stateMutability": "payable",
      "type": "receive"
    }
  ],
  "bytecode": "0x610120604052600d80546001600160b01b0319166001176001600160b01b0316600160b01b1790553480156200003457600080fd5b50604051620056ba380380620056ba8339810160408190526200005791620002db565b82826040518060400160405280601b81526020017f556e697377617020563320506f736974696f6e73204e46542d563100000000008152506040518060400160405280600a815260200169554e492d56332d504f5360b01b815250604051806040016040528060018152602001603160f81b8152508282620000e66301ffc9a760e01b6200018d60201b60201c565b8151620000fb90600690602085019062000212565b5080516200011190600790602084019062000212565b50620001246380ac58cd60e01b6200018d565b62000136635b5e139f60e01b6200018d565b6200014863780e9d6360e01b6200018d565b50508251602093840120608052805192019190912060a052506001600160601b0319606092831b811660c05290821b811660e05291901b166101005250620003249050565b6001600160e01b03198082161415620001ed576040805162461bcd60e51b815260206004820152601c60248201527f4552433136353a20696e76616c696420696e7465726661636520696400000000604482015290519081900360640190fd5b6001600160e01b0319166000908152602081905260409020805460ff19166001179055565b828054600181600116156101000203166002900490600052602060002090601f0160209004810192826200024a576000855562000295565b82601f106200026557805160ff191683800117855562000295565b8280016001018555821562000295579182015b828111156200029557825182559160200191906001019062000278565b50620002a3929150620002a7565b5090565b5b80821115620002a35760008155600101620002a8565b80516001600160a01b0381168114620002d657600080fd5b919050565b600080600060608486031215620002f0578283fd5b620002fb84620002be565b92506200030b60208501620002be565b91506200031b60408501620002be565b90509250925092565b60805160a05160c05160601c60e05160601c6101005160601c615311620003a9600039806123685250806101c95280611587528061167252806116fa52806133d5528061341b528061348f5250806109955280610cb55280610d7c528061231b528061240852806127025280612f0552508061138752508061136652506153116000f3fe6080604052600436106101b95760003560e01c806301ffc9a71461022e57806306fdde0314610264578063081812fc14610286578063095ea7b3146102b35780630c49ccbe146102d357806312210e8a146102f457806313ead562146102fc57806318160ddd1461030f578063219f5d171461033157806323b872dd146103535780632f745c591461037357806330adf81f146103935780633644e515146103a857806342842e0e146103bd57806342966c68146103dd5780634659a494146103f057806349404b7c146104035780634aa4a4fc146104165780634f6ccce71461042b5780636352211e1461044b5780636c0360eb1461046b57806370a08231146104805780637ac2ff7b146104a057806388316456146104b357806395d89b41146104d657806399fbab88146104eb578063a22cb46514610523578063a4a78f0c14610543578063ac9650d814610556578063b88d4fde14610576578063c2e3140a14610596578063c45a0155146105a9578063c87b56dd146105be578063d3487997146105de578063df2ab5bb146105fe578063e985e9c514610611578063f3995c6714610631578063fc6f78651461064457610229565b3661022957336001600160a01b037f00000000000000000000000000000000000000000000000000000000000000001614610227576040805162461bcd60e51b81526020600482015260096024820152684e6f7420574554483960b81b604482015290519081900360640190fd5b005b600080fd5b34801561023a57600080fd5b5061024e6102493660046147de565b610657565b60405161025b9190614d1f565b60405180910390f35b34801561027057600080fd5b5061027961067a565b60405161025b9190614d72565b34801561029257600080fd5b506102a66102a1366004614ad6565b610710565b60405161025b9190614bff565b3480156102bf57600080fd5b506102276102ce3660046146a9565b610763565b6102e66102e13660046148a2565b610839565b60405161025b929190614ef9565b610227610c81565b6102a661030a36600461453d565b610c93565b34801561031b57600080fd5b50610324610f87565b60405161025b9190614d2a565b61034461033f3660046148b3565b610f98565b60405161025b93929190614eb4565b34801561035f57600080fd5b5061022761036e366004614596565b6112ad565b34801561037f57600080fd5b5061032461038e3660046146a9565b611304565b34801561039f57600080fd5b5061032461132f565b3480156103b457600080fd5b50610324611341565b3480156103c957600080fd5b506102276103d8366004614596565b6113ff565b6102276103eb366004614ad6565b61141a565b6102276103fe366004614715565b6114e9565b610227610411366004614aee565b611583565b34801561042257600080fd5b506102a66116f8565b34801561043757600080fd5b50610324610446366004614ad6565b61171c565b34801561045757600080fd5b506102a6610466366004614ad6565b611732565b34801561047757600080fd5b5061027961175a565b34801561048c57600080fd5b5061032461049b3660046144e9565b61175f565b6102276104ae366004614715565b6117c7565b6104c66104c136600461496e565b611ba7565b60405161025b9493929190614ed5565b3480156104e257600080fd5b50610279611ce1565b3480156104f757600080fd5b5061050b610506366004614ad6565b611d42565b60405161025b9c9b9a99989796959493929190614f07565b34801561052f57600080fd5b5061022761053e36600461467c565b611f53565b610227610551366004614715565b612054565b610569610564366004614770565b6120ed565b60405161025b9190614cbf565b34801561058257600080fd5b506102276105913660046145d6565b61222c565b6102276105a4366004614715565b61228a565b3480156105b557600080fd5b506102a6612319565b3480156105ca57600080fd5b506102796105d9366004614ad6565b61233d565b3480156105ea57600080fd5b506102276105f9366004614b35565b6123f3565b61022761060c3660046146d4565b612471565b34801561061d57600080fd5b5061024e61062c366004614505565b612549565b61022761063f366004614715565b612577565b6102e661065236600461488b565b6125e9565b6001600160e01b0319811660009081526020819052604090205460ff165b919050565b60068054604080516020601f60026000196101006001881615020190951694909404938401819004810282018101909252828152606093909290918301828280156107065780601f106106db57610100808354040283529160200191610706565b820191906000526020600020905b8154815290600101906020018083116106e957829003601f168201915b5050505050905090565b600061071b82612ab4565b6107405760405162461bcd60e51b815260040161073790614dab565b60405180910390fd5b506000908152600c6020526040902054600160601b90046001600160a01b031690565b600061076e82611732565b9050806001600160a01b0316836001600160a01b031614156107c15760405162461bcd60e51b81526004018080602001828103825260218152602001806152b36021913960400191505060405180910390fd5b806001600160a01b03166107d3612ac1565b6001600160a01b031614806107ef57506107ef8161062c612ac1565b61082a5760405162461bcd60e51b815260040180806020018281038252603881526020018061519d6038913960400191505060405180910390fd5b6108348383612ac5565b505050565b60008082356108483382612b3b565b6108645760405162461bcd60e51b815260040161073790614d85565b836080013580610872612bd7565b11156108bb576040805162461bcd60e51b8152602060048201526013602482015272151c985b9cd858dd1a5bdb881d1bdbc81bdb19606a1b604482015290519081900360640190fd5b60006108cd6040870160208801614980565b6001600160801b0316116108e057600080fd5b84356000908152600c602090815260409182902060018101549092600160801b9091046001600160801b03169161091b918901908901614980565b6001600160801b0316816001600160801b0316101561093957600080fd5b6001828101546001600160501b03166000908152600b60209081526040808320815160608101835281546001600160a01b039081168252919095015490811692850192909252600160a01b90910462ffffff16908301526109ba7f000000000000000000000000000000000000000000000000000000000000000083612bdb565b60018501549091506001600160a01b0382169063a34123a790600160501b8104600290810b91600160681b9004900b6109f960408e0160208f01614980565b6040518463ffffffff1660e01b8152600401610a1793929190614d4c565b6040805180830381600087803b158015610a3057600080fd5b505af1158015610a44573d6000803e3d6000fd5b505050506040513d601f19601f82011682018060405250810190610a689190614b12565b909850965060408901358810801590610a85575088606001358710155b610aa15760405162461bcd60e51b815260040161073790614df7565b6001840154600090610aca903090600160501b8104600290810b91600160681b9004900b612cba565b9050600080836001600160a01b031663514ea4bf846040518263ffffffff1660e01b8152600401610afb9190614d2a565b60a06040518083038186803b158015610b1357600080fd5b505afa158015610b27573d6000803e3d6000fd5b505050506040513d601f19601f82011682018060405250810190610b4b91906149ca565b50509250925050610b7087600201548303876001600160801b0316600160801b612d0f565b6004880180546001600160801b03198116928e016001600160801b039182160181169290921790556003880154610bb191908303908816600160801b612d0f565b6004880180546001600160801b03808216938e01600160801b9283900482160116029190911790556002870182905560038701819055610bf760408d0160208e01614980565b86038760010160106101000a8154816001600160801b0302191690836001600160801b031602179055508b600001357f26f6a048ee9138f2c0ce266f322cb99228e8d619ae2bff30c67f8dcf9d2377b48d6020016020810190610c5a9190614980565b8d8d604051610c6b93929190614eb4565b60405180910390a2505050505050505050915091565b4715610c9157610c913347612dbe565b565b6000836001600160a01b0316856001600160a01b031610610cb357600080fd5b7f00000000000000000000000000000000000000000000000000000000000000006001600160a01b0316631698ee828686866040518463ffffffff1660e01b815260040180846001600160a01b03168152602001836001600160a01b031681526020018262ffffff168152602001935050505060206040518083038186803b158015610d3e57600080fd5b505afa158015610d52573d6000803e3d6000fd5b505050506040513d6020811015610d6857600080fd5b505190506001600160a01b038116610e9e577f00000000000000000000000000000000000000000000000000000000000000006001600160a01b031663a16712958686866040518463ffffffff1660e01b815260040180846001600160a01b03168152602001836001600160a01b031681526020018262ffffff1681526020019350505050602060405180830381600087803b158015610e0757600080fd5b505af1158015610e1b573d6000803e3d6000fd5b505050506040513d6020811015610e3157600080fd5b50516040805163f637731d60e01b81526001600160a01b03858116600483015291519293509083169163f637731d9160248082019260009290919082900301818387803b158015610e8157600080fd5b505af1158015610e95573d6000803e3d6000fd5b50505050610f7f565b6000816001600160a01b0316633850c7bd6040518163ffffffff1660e01b815260040160e06040518083038186803b158015610ed957600080fd5b505afa158015610eed573d6000803e3d6000fd5b505050506040513d60e0811015610f0357600080fd5b505190506001600160a01b038116610f7d57816001600160a01b031663f637731d846040518263ffffffff1660e01b815260040180826001600160a01b03168152602001915050600060405180830381600087803b158015610f6457600080fd5b505af1158015610f78573d6000803e3d6000fd5b505050505b505b949350505050565b6000610f936002612ead565b905090565b60008060008360a0013580610fab612bd7565b1115610ff4576040805162461bcd60e51b8152602060048201526013602482015272151c985b9cd858dd1a5bdb881d1bdbc81bdb19606a1b604482015290519081900360640190fd5b84356000908152600c602090815260408083206001808201546001600160501b0381168652600b855283862084516060808201875282546001600160a01b039081168352929094015480831682890190815262ffffff600160a01b9092048216838901908152885161014081018a528451861681529151909416818a0152925116828701523082850152600160501b8304600290810b810b608080850191909152600160681b909404810b900b60a0830152958c013560c0820152938b013560e0850152908a013561010084015289013561012083015292906110d690612eb8565b6001870154939a5091985096509150600090611109903090600160501b8104600290810b91600160681b9004900b612cba565b9050600080836001600160a01b031663514ea4bf846040518263ffffffff1660e01b815260040161113a9190614d2a565b60a06040518083038186803b15801561115257600080fd5b505afa158015611166573d6000803e3d6000fd5b505050506040513d601f19601f8201168201806040525081019061118a91906149ca565b505092509250506111c6866002015483038760010160109054906101000a90046001600160801b03166001600160801b0316600160801b612d0f565b6004870180546001600160801b0380821690930183166001600160801b03199091161790556003870154600188015461120d9291840391600160801b918290041690612d0f565b6004870180546001600160801b03600160801b80830482169094018116840291811691909117909155600288018490556003880183905560018801805483810483168e018316909302929091169190911790556040518b35907f3067048beee31b25b2f1681f88dac838c8bba36af25bfb2b7cf7473a5847e35f90611297908d908d908d90614eb4565b60405180910390a2505050505050509193909250565b6112be6112b8612ac1565b82612b3b565b6112f95760405162461bcd60e51b81526004018080602001828103825260318152602001806152d46031913960400191505060405180910390fd5b6108348383836130f3565b6001600160a01b0382166000908152600160205260408120611326908361322d565b90505b92915050565b60008051602061527383398151915281565b60007f8b73c3c69bb8fe3d512ecc4cf759cc79239f7b179b0ffacaa9a75d522b39400f7f00000000000000000000000000000000000000000000000000000000000000007f00000000000000000000000000000000000000000000000000000000000000006113ae613239565b3060405160200180868152602001858152602001848152602001838152602001826001600160a01b031681526020019550505050505060405160208183030381529060405280519060200120905090565b6108348383836040518060200160405280600081525061222c565b806114253382612b3b565b6114415760405162461bcd60e51b815260040161073790614d85565b6000828152600c602052604090206001810154600160801b90046001600160801b031615801561147c575060048101546001600160801b0316155b801561149a57506004810154600160801b90046001600160801b0316155b6114b65760405162461bcd60e51b815260040161073790614e4f565b6000838152600c60205260408120818155600181018290556002810182905560038101829055600401556108348361323d565b604080516323f2ebc360e21b815233600482015230602482015260448101879052606481018690526001608482015260ff851660a482015260c4810184905260e4810183905290516001600160a01b03881691638fcbaf0c9161010480830192600092919082900301818387803b15801561156357600080fd5b505af1158015611577573d6000803e3d6000fd5b50505050505050505050565b60007f00000000000000000000000000000000000000000000000000000000000000006001600160a01b03166370a08231306040518263ffffffff1660e01b815260040180826001600160a01b0316815260200191505060206040518083038186803b1580156115f257600080fd5b505afa158015611606573d6000803e3d6000fd5b505050506040513d602081101561161c57600080fd5b505190508281101561166a576040805162461bcd60e51b8152602060048201526012602482015271496e73756666696369656e7420574554483960701b604482015290519081900360640190fd5b8015610834577f00000000000000000000000000000000000000000000000000000000000000006001600160a01b0316632e1a7d4d826040518263ffffffff1660e01b815260040180828152602001915050600060405180830381600087803b1580156116d657600080fd5b505af11580156116ea573d6000803e3d6000fd5b505050506108348282612dbe565b7f000000000000000000000000000000000000000000000000000000000000000081565b60008061172a6002846132f8565b509392505050565b6000611329826040518060600160405280602981526020016151ff6029913960029190613316565b606090565b60006001600160a01b0382166117a65760405162461bcd60e51b815260040180806020018281038252602a8152602001806151d5602a913960400191505060405180910390fd5b6001600160a01b038216600090815260016020526040902061132990612ead565b836117d0612bd7565b1115611814576040805162461bcd60e51b815260206004820152600e60248201526d14195c9b5a5d08195e1c1a5c995960921b604482015290519081900360640190fd5b600061181e611341565b600080516020615273833981519152888861183881613323565b604080516020808201969096526001600160a01b03909416848201526060840192909252608083015260a08083018a90528151808403909101815260c08301825280519084012061190160f01b60e084015260e2830194909452610102808301949094528051808303909401845261012290910190528151910120905060006118c087611732565b9050806001600160a01b0316886001600160a01b031614156119135760405162461bcd60e51b81526004018080602001828103825260278152602001806151006027913960400191505060405180910390fd5b61191c81613358565b15611a84576040805160208082018790528183018690526001600160f81b031960f889901b1660608301528251604181840301815260618301808552630b135d3f60e11b90526065830186815260858401948552815160a585015281516001600160a01b03871695631626ba7e958995919260c59091019185019080838360005b838110156119b557818101518382015260200161199d565b50505050905090810190601f1680156119e25780820380516001836020036101000a031916815260200191505b50935050505060206040518083038186803b158015611a0057600080fd5b505afa158015611a14573d6000803e3d6000fd5b505050506040513d6020811015611a2a57600080fd5b50516001600160e01b031916630b135d3f60e11b14611a7f576040805162461bcd60e51b815260206004820152600c60248201526b155b985d5d1a1bdc9a5e995960a21b604482015290519081900360640190fd5b611b93565b600060018387878760405160008152602001604052604051808581526020018460ff1681526020018381526020018281526020019450505050506020604051602081039080840390855afa158015611ae0573d6000803e3d6000fd5b5050604051601f1901519150506001600160a01b038116611b3c576040805162461bcd60e51b8152602060048201526011602482015270496e76616c6964207369676e617475726560781b604482015290519081900360640190fd5b816001600160a01b0316816001600160a01b031614611b91576040805162461bcd60e51b815260206004820152600c60248201526b155b985d5d1a1bdc9a5e995960a21b604482015290519081900360640190fd5b505b611b9d8888612ac5565b5050505050505050565b60008060008084610140013580611bbc612bd7565b1115611c05576040805162461bcd60e51b8152602060048201526013602482015272151c985b9cd858dd1a5bdb881d1bdbc81bdb19606a1b604482015290519081900360640190fd5b604080516101408101909152600090611cd19080611c2660208b018b6144e9565b6001600160a01b03168152602001896020016020810190611c4791906144e9565b6001600160a01b03168152602001611c6560608b0160408c01614abc565b62ffffff168152306020820152604001611c8560808b0160608c01614806565b60020b8152602001611c9d60a08b0160808c01614806565b60020b81526020018960a0013581526020018960c0013581526020018960e001358152602001896101000135815250612eb8565b5097999198509695509350505050565b60078054604080516020601f60026000196101006001881615020190951694909404938401819004810282018101909252828152606093909290918301828280156107065780601f106106db57610100808354040283529160200191610706565b6000818152600c6020908152604080832081516101408101835281546001600160601b03811682526001600160a01b03600160601b909104169381019390935260018101546001600160501b038116928401839052600160501b8104600290810b810b810b6060860152600160681b8204810b810b810b60808601526001600160801b03600160801b92839004811660a08701529083015460c0860152600383015460e086015260049092015480831661010086015204166101208301528291829182918291829182918291829182918291829190611e335760405162461bcd60e51b815260040161073790614e25565b6000600b600083604001516001600160501b03166001600160501b031681526020019081526020016000206040518060600160405290816000820160009054906101000a90046001600160a01b03166001600160a01b03166001600160a01b031681526020016001820160009054906101000a90046001600160a01b03166001600160a01b03166001600160a01b031681526020016001820160149054906101000a900462ffffff1662ffffff1662ffffff1681525050905081600001518260200151826000015183602001518460400151866060015187608001518860a001518960c001518a60e001518b61010001518c61012001519d509d509d509d509d509d509d509d509d509d509d509d50505091939597999b5091939597999b565b611f5b612ac1565b6001600160a01b0316826001600160a01b03161415611fbd576040805162461bcd60e51b815260206004820152601960248201527822a9219b99189d1030b8383937bb32903a379031b0b63632b960391b604482015290519081900360640190fd5b8060056000611fca612ac1565b6001600160a01b03908116825260208083019390935260409182016000908120918716808252919093529120805460ff19169215159290921790915561200e612ac1565b6001600160a01b03167f17307eab39ab6107e8899845ad3d59bd9653f200f220920489ca2b5937696c318360405180821515815260200191505060405180910390a35050565b60408051636eb1769f60e11b81523360048201523060248201529051600019916001600160a01b0389169163dd62ed3e91604480820192602092909190829003018186803b1580156120a557600080fd5b505afa1580156120b9573d6000803e3d6000fd5b505050506040513d60208110156120cf57600080fd5b505110156120e5576120e58686868686866114e9565b505050505050565b6060816001600160401b038111801561210557600080fd5b5060405190808252806020026020018201604052801561213957816020015b60608152602001906001900390816121245790505b50905060005b82811015612225576000803086868581811061215757fe5b90506020028101906121699190614fa1565b604051612177929190614bef565b600060405180830381855af49150503d80600081146121b2576040519150601f19603f3d011682016040523d82523d6000602084013e6121b7565b606091505b509150915081612203576044815110156121d057600080fd5b600481019050808060200190518101906121ea9190614822565b60405162461bcd60e51b81526004016107379190614d72565b8084848151811061221057fe5b6020908102919091010152505060010161213f565b5092915050565b61223d612237612ac1565b83612b3b565b6122785760405162461bcd60e51b81526004018080602001828103825260318152602001806152d46031913960400191505060405180910390fd5b6122848484848461335e565b50505050565b60408051636eb1769f60e11b8152336004820152306024820152905186916001600160a01b0389169163dd62ed3e91604480820192602092909190829003018186803b1580156122d957600080fd5b505afa1580156122ed573d6000803e3d6000fd5b505050506040513d602081101561230357600080fd5b505110156120e5576120e5868686868686612577565b7f000000000000000000000000000000000000000000000000000000000000000081565b606061234882612ab4565b61235157600080fd5b60405163e9dc637560e01b81526001600160a01b037f0000000000000000000000000000000000000000000000000000000000000000169063e9dc63759061239f9030908690600401614d33565b60006040518083038186803b1580156123b757600080fd5b505afa1580156123cb573d6000803e3d6000fd5b505050506040513d6000823e601f3d908101601f191682016040526113299190810190614822565b6000612401828401846148c4565b90506124317f000000000000000000000000000000000000000000000000000000000000000082600001516133b0565b50841561244c57805151602082015161244c919033886133d3565b831561246a5761246a816000015160200151826020015133876133d3565b5050505050565b6000836001600160a01b03166370a08231306040518263ffffffff1660e01b815260040180826001600160a01b0316815260200191505060206040518083038186803b1580156124c057600080fd5b505afa1580156124d4573d6000803e3d6000fd5b505050506040513d60208110156124ea57600080fd5b5051905082811015612538576040805162461bcd60e51b815260206004820152601260248201527124b739bab33334b1b4b2b73a103a37b5b2b760711b604482015290519081900360640190fd5b801561228457612284848383613563565b6001600160a01b03918216600090815260056020908152604080832093909416825291909152205460ff1690565b6040805163d505accf60e01b8152336004820152306024820152604481018790526064810186905260ff8516608482015260a4810184905260c4810183905290516001600160a01b0388169163d505accf9160e480830192600092919082900301818387803b15801561156357600080fd5b60008082356125f83382612b3b565b6126145760405162461bcd60e51b815260040161073790614d85565b60006126266060860160408701614980565b6001600160801b03161180612653575060006126486080860160608701614980565b6001600160801b0316115b61265c57600080fd5b60008061266f60408701602088016144e9565b6001600160a01b0316146126925761268d60408601602087016144e9565b612694565b305b85356000908152600c602090815260408083206001808201546001600160501b03168552600b8452828520835160608101855281546001600160a01b039081168252919092015490811694820194909452600160a01b90930462ffffff1691830191909152929350906127277f000000000000000000000000000000000000000000000000000000000000000083612bdb565b600484015460018501549192506001600160801b0380821692600160801b928390048216929004161561291d57600185015460405163a34123a760e01b81526001600160a01b0385169163a34123a79161279e91600160501b8104600290810b92600160681b909204900b90600090600401614d4c565b6040805180830381600087803b1580156127b757600080fd5b505af11580156127cb573d6000803e3d6000fd5b505050506040513d601f19601f820116820180604052508101906127ef9190614b12565b5050600185015460009081906001600160a01b0386169063514ea4bf9061282d903090600160501b8104600290810b91600160681b9004900b612cba565b6040518263ffffffff1660e01b81526004016128499190614d2a565b60a06040518083038186803b15801561286157600080fd5b505afa158015612875573d6000803e3d6000fd5b505050506040513d601f19601f8201168201806040525081019061289991906149ca565b505092509250506128d5876002015483038860010160109054906101000a90046001600160801b03166001600160801b0316600160801b612d0f565b8401935061290e876003015482038860010160109054906101000a90046001600160801b03166001600160801b0316600160801b612d0f565b60028801929092556003870155015b6000806001600160801b03841661293a60608e0160408f01614980565b6001600160801b03161161295d5761295860608d0160408e01614980565b61295f565b835b836001600160801b03168d606001602081019061297c9190614980565b6001600160801b03161161299f5761299a60808e0160608f01614980565b6129a1565b835b60018901546040516309e3d67b60e31b81529294509092506001600160a01b03871691634f1eb3d8916129f4918c91600160501b8104600290810b92600160681b909204900b9088908890600401614c58565b6040805180830381600087803b158015612a0d57600080fd5b505af1158015612a21573d6000803e3d6000fd5b505050506040513d601f19601f82011682018060405250810190612a45919061499c565b6004890180546001600160801b03196001600160801b03918216600160801b878a0384160217168689038216179091556040519281169d50169a508c35907f40d0efd1a53d60ecbf40971b9daf7dc90178c3aadc7aab1765632738fa8b8f0190610c6b908b9086908690614c95565b60006113296002836136aa565b3390565b6000818152600c6020526040902080546001600160601b0316600160601b6001600160a01b038516908102919091179091558190612b0282611732565b6001600160a01b03167f8c5be1e5ebec7d5bd14f71427d1e84f3dd0314c0f7b2291e5b200ac8c7c3b92560405160405180910390a45050565b6000612b4682612ab4565b612b815760405162461bcd60e51b815260040180806020018281038252602c815260200180615171602c913960400191505060405180910390fd5b6000612b8c83611732565b9050806001600160a01b0316846001600160a01b03161480612bc75750836001600160a01b0316612bbc84610710565b6001600160a01b0316145b80610f7f5750610f7f8185612549565b4290565b600081602001516001600160a01b031682600001516001600160a01b031610612c0357600080fd5b50805160208083015160409384015184516001600160a01b0394851681850152939091168385015262ffffff166060808401919091528351808403820181526080840185528051908301206001600160f81b031960a085015294901b6001600160601b03191660a183015260b58201939093527fe34f199b19b2b4f47f68442619d555527d244f78a3297ea89325f843f87b8b5460d5808301919091528251808303909101815260f5909101909152805191012090565b604080516001600160601b0319606086901b16602080830191909152600285810b60e890811b60348501529085900b901b60378301528251601a818403018152603a90920190925280519101205b9392505050565b6000808060001985870986860292508281109083900303905080612d455760008411612d3a57600080fd5b508290049050612d08565b808411612d5157600080fd5b6000848688096000868103871696879004966002600389028118808a02820302808a02820302808a02820302808a02820302808a02820302808a02909103029181900381900460010186841190950394909402919094039290920491909117919091029150509392505050565b604080516000808252602082019092526001600160a01b0384169083906040518082805190602001908083835b60208310612e0a5780518252601f199092019160209182019101612deb565b6001836020036101000a03801982511681845116808217855250505050505090500191505060006040518083038185875af1925050503d8060008114612e6c576040519150601f19603f3d011682016040523d82523d6000602084013e612e71565b606091505b5050905080610834576040805162461bcd60e51b815260206004820152600360248201526253544560e81b604482015290519081900360640190fd5b6000611329826136b6565b6000806000806000604051806060016040528087600001516001600160a01b0316815260200187602001516001600160a01b03168152602001876040015162ffffff168152509050612f2a7f000000000000000000000000000000000000000000000000000000000000000082612bdb565b91506000826001600160a01b0316633850c7bd6040518163ffffffff1660e01b815260040160e06040518083038186803b158015612f6757600080fd5b505afa158015612f7b573d6000803e3d6000fd5b505050506040513d601f19601f82011682018060405250810190612f9f9190614a2b565b50505050505090506000612fb688608001516136ba565b90506000612fc78960a001516136ba565b9050612fde8383838c60c001518d60e001516139e1565b9750505050816001600160a01b0316633c8a7d8d876060015188608001518960a00151896040518060400160405280888152602001336001600160a01b03168152506040516020016130309190614e74565b6040516020818303038152906040526040518663ffffffff1660e01b815260040161305f959493929190614c13565b6040805180830381600087803b15801561307857600080fd5b505af115801561308c573d6000803e3d6000fd5b505050506040513d601f19601f820116820180604052508101906130b09190614b12565b610100880151919550935084108015906130cf57508561012001518310155b6130eb5760405162461bcd60e51b815260040161073790614df7565b509193509193565b826001600160a01b031661310682611732565b6001600160a01b03161461314b5760405162461bcd60e51b815260040180806020018281038252602981526020018061524a6029913960400191505060405180910390fd5b6001600160a01b0382166131905760405162461bcd60e51b81526004018080602001828103825260248152602001806151276024913960400191505060405180910390fd5b61319b838383610834565b6131a6600082612ac5565b6001600160a01b03831660009081526001602052604090206131c89082613aa5565b506001600160a01b03821660009081526001602052604090206131eb9082613ab1565b506131f860028284613abd565b5080826001600160a01b0316846001600160a01b031660008051602061529383398151915260405160405180910390a4505050565b60006113268383613ad3565b4690565b600061324882611732565b905061325681600084610834565b613261600083612ac5565b600082815260086020526040902054600260001961010060018416150201909116041561329f57600082815260086020526040812061329f91614459565b6001600160a01b03811660009081526001602052604090206132c19083613aa5565b506132cd600283613b37565b5060405182906000906001600160a01b03841690600080516020615293833981519152908390a45050565b60008080806133078686613b43565b909450925050505b9250929050565b6000610f7f848484613bbe565b6000908152600c6020526040902080546001600160601b0319811660016001600160601b039283169081019092161790915590565b3b151590565b6133698484846130f3565b61337584848484613c88565b6122845760405162461bcd60e51b81526004018080602001828103825260328152602001806150ce6032913960400191505060405180910390fd5b60006133bc8383612bdb565b9050336001600160a01b0382161461132957600080fd5b7f00000000000000000000000000000000000000000000000000000000000000006001600160a01b0316846001600160a01b03161480156134145750804710155b15613536577f00000000000000000000000000000000000000000000000000000000000000006001600160a01b031663d0e30db0826040518263ffffffff1660e01b81526004016000604051808303818588803b15801561347457600080fd5b505af1158015613488573d6000803e3d6000fd5b50505050507f00000000000000000000000000000000000000000000000000000000000000006001600160a01b031663a9059cbb83836040518363ffffffff1660e01b815260040180836001600160a01b0316815260200182815260200192505050602060405180830381600087803b15801561350457600080fd5b505af1158015613518573d6000803e3d6000fd5b505050506040513d602081101561352e57600080fd5b506122849050565b6001600160a01b03831630141561355757613552848383613563565b612284565b61228484848484613df0565b604080516001600160a01b038481166024830152604480830185905283518084039091018152606490920183526020820180516001600160e01b031663a9059cbb60e01b1781529251825160009485949389169392918291908083835b602083106135df5780518252601f1990920191602091820191016135c0565b6001836020036101000a0380198251168184511680821785525050505050509050019150506000604051808303816000865af19150503d8060008114613641576040519150601f19603f3d011682016040523d82523d6000602084013e613646565b606091505b5091509150818015613674575080511580613674575080806020019051602081101561367157600080fd5b50515b61246a576040805162461bcd60e51b815260206004820152600260248201526114d560f21b604482015290519081900360640190fd5b60006113268383613f40565b5490565b60008060008360020b126136d1578260020b6136d9565b8260020b6000035b9050620d89e8811115613717576040805162461bcd60e51b81526020600482015260016024820152601560fa1b604482015290519081900360640190fd5b60006001821661372b57600160801b61373d565b6ffffcb933bd6fad37aa2d162d1a5940015b6001600160881b031690506002821615613767576ffff97272373d413259a46990580e213a0260801c5b6004821615613786576ffff2e50f5f656932ef12357cf3c7fdcc0260801c5b60088216156137a5576fffe5caca7e10e4e61c3624eaa0941cd00260801c5b60108216156137c4576fffcb9843d60f6159c9db58835c9266440260801c5b60208216156137e3576fff973b41fa98c081472e6896dfb254c00260801c5b6040821615613802576fff2ea16466c96a3843ec78b326b528610260801c5b6080821615613821576ffe5dee046a99a2a811c461f1969c30530260801c5b610100821615613841576ffcbe86c7900a88aedcffc83b479aa3a40260801c5b610200821615613861576ff987a7253ac413176f2b074cf7815e540260801c5b610400821615613881576ff3392b0822b70005940c7a398e4b70f30260801c5b6108008216156138a1576fe7159475a2c29b7443b29c7fa6e889d90260801c5b6110008216156138c1576fd097f3bdfd2022b8845ad8f792aa58250260801c5b6120008216156138e1576fa9f746462d870fdf8a65dc1f90e061e50260801c5b614000821615613901576f70d869a156d2a1b890bb3df62baf32f70260801c5b618000821615613921576f31be135f97d08fd981231505542fcfa60260801c5b62010000821615613942576f09aa508b5b7a84e1c677de54f3e99bc90260801c5b62020000821615613962576e5d6af8dedb81196699c329225ee6040260801c5b62040000821615613981576d2216e584f5fa1ea926041bedfe980260801c5b6208000082161561399e576b048a170391f7dc42444e8fa20260801c5b60008460020b13156139b95780600019816139b557fe5b0490505b600160201b8106156139cc5760016139cf565b60005b60ff16602082901c0192505050919050565b6000836001600160a01b0316856001600160a01b03161115613a01579293925b846001600160a01b0316866001600160a01b031611613a2c57613a25858585613f58565b9050613a9c565b836001600160a01b0316866001600160a01b03161015613a8e576000613a53878686613f58565b90506000613a62878986613fbb565b9050806001600160801b0316826001600160801b031610613a835780613a85565b815b92505050613a9c565b613a99858584613fbb565b90505b95945050505050565b60006113268383613ff8565b600061132683836140be565b6000610f7f84846001600160a01b038516614108565b81546000908210613b155760405162461bcd60e51b81526004018080602001828103825260228152602001806150ac6022913960400191505060405180910390fd5b826000018281548110613b2457fe5b9060005260206000200154905092915050565b6000611326838361419f565b815460009081908310613b875760405162461bcd60e51b81526004018080602001828103825260228152602001806152286022913960400191505060405180910390fd5b6000846000018481548110613b9857fe5b906000526020600020906002020190508060000154816001015492509250509250929050565b60008281526001840160205260408120548281613c595760405162461bcd60e51b81526004018080602001828103825283818151815260200191508051906020019080838360005b83811015613c1e578181015183820152602001613c06565b50505050905090810190601f168015613c4b5780820380516001836020036101000a031916815260200191505b509250505060405180910390fd5b50846000016001820381548110613c6c57fe5b9060005260206000209060020201600101549150509392505050565b6000613c9c846001600160a01b0316613358565b613ca857506001610f7f565b6000613db6630a85bd0160e11b613cbd612ac1565b88878760405160240180856001600160a01b03168152602001846001600160a01b0316815260200183815260200180602001828103825283818151815260200191508051906020019080838360005b83811015613d24578181015183820152602001613d0c565b50505050905090810190601f168015613d515780820380516001836020036101000a031916815260200191505b5095505050505050604051602081830303815290604052906001600160e01b0319166020820180516001600160e01b0383818316178352505050506040518060600160405280603281526020016150ce603291396001600160a01b0388169190614273565b90506000818060200190516020811015613dcf57600080fd5b50516001600160e01b031916630a85bd0160e11b1492505050949350505050565b604080516001600160a01b0385811660248301528481166044830152606480830185905283518084039091018152608490920183526020820180516001600160e01b03166323b872dd60e01b178152925182516000948594938a169392918291908083835b60208310613e745780518252601f199092019160209182019101613e55565b6001836020036101000a0380198251168184511680821785525050505050509050019150506000604051808303816000865af19150503d8060008114613ed6576040519150601f19603f3d011682016040523d82523d6000602084013e613edb565b606091505b5091509150818015613f09575080511580613f095750808060200190516020811015613f0657600080fd5b50515b6120e5576040805162461bcd60e51b815260206004820152600360248201526229aa2360e91b604482015290519081900360640190fd5b60009081526001919091016020526040902054151590565b6000826001600160a01b0316846001600160a01b03161115613f78579192915b6000613f9b856001600160a01b0316856001600160a01b0316600160601b612d0f565b9050613a9c613fb684838888036001600160a01b0316612d0f565b614282565b6000826001600160a01b0316846001600160a01b03161115613fdb579192915b610f7f613fb683600160601b8787036001600160a01b0316612d0f565b600081815260018301602052604081205480156140b4578354600019808301919081019060009087908390811061402b57fe5b906000526020600020015490508087600001848154811061404857fe5b60009182526020808320909101929092558281526001898101909252604090209084019055865487908061407857fe5b60019003818190600052602060002001600090559055866001016000878152602001908152602001600020600090556001945050505050611329565b6000915050611329565b60006140ca8383613f40565b61410057508154600181810184556000848152602080822090930184905584548482528286019093526040902091909155611329565b506000611329565b60008281526001840160205260408120548061416d575050604080518082018252838152602080820184815286546001818101895560008981528481209551600290930290950191825591519082015586548684528188019092529290912055612d08565b8285600001600183038154811061418057fe5b9060005260206000209060020201600101819055506000915050612d08565b600081815260018301602052604081205480156140b457835460001980830191908101906000908790839081106141d257fe5b90600052602060002090600202019050808760000184815481106141f257fe5b60009182526020808320845460029093020191825560019384015491840191909155835482528983019052604090209084019055865487908061423157fe5b60008281526020808220600260001990940193840201828155600190810183905592909355888152898201909252604082209190915594506113299350505050565b6060610f7f8484600085614298565b806001600160801b038116811461067557600080fd5b6060824710156142d95760405162461bcd60e51b815260040180806020018281038252602681526020018061514b6026913960400191505060405180910390fd5b6142e285613358565b614333576040805162461bcd60e51b815260206004820152601d60248201527f416464726573733a2063616c6c20746f206e6f6e2d636f6e7472616374000000604482015290519081900360640190fd5b600080866001600160a01b031685876040518082805190602001908083835b602083106143715780518252601f199092019160209182019101614352565b6001836020036101000a03801982511681845116808217855250505050505090500191505060006040518083038185875af1925050503d80600081146143d3576040519150601f19603f3d011682016040523d82523d6000602084013e6143d8565b606091505b50915091506143e88282866143f3565b979650505050505050565b60608315614402575081612d08565b8251156144125782518084602001fd5b60405162461bcd60e51b8152602060048201818152845160248401528451859391928392604401919085019080838360008315613c1e578181015183820152602001613c06565b50805460018160011615610100020316600290046000825580601f1061447f575061449d565b601f01602090049060005260206000209081019061449d91906144a0565b50565b5b808211156144b557600081556001016144a1565b5090565b803561067581615055565b805161ffff8116811461067557600080fd5b803562ffffff8116811461067557600080fd5b6000602082840312156144fa578081fd5b8135612d0881615055565b60008060408385031215614517578081fd5b823561452281615055565b9150602083013561453281615055565b809150509250929050565b60008060008060808587031215614552578182fd5b843561455d81615055565b9350602085013561456d81615055565b925061457b604086016144d6565b9150606085013561458b81615055565b939692955090935050565b6000806000606084860312156145aa578081fd5b83356145b581615055565b925060208401356145c581615055565b929592945050506040919091013590565b600080600080608085870312156145eb578182fd5b84356145f681615055565b9350602085013561460681615055565b92506040850135915060608501356001600160401b03811115614627578182fd5b8501601f81018713614637578182fd5b803561464a61464582615008565b614fe5565b81815288602083850101111561465e578384fd5b81602084016020830137908101602001929092525092959194509250565b6000806040838503121561468e578182fd5b823561469981615055565b915060208301356145328161506a565b600080604083850312156146bb578182fd5b82356146c681615055565b946020939093013593505050565b6000806000606084860312156146e8578081fd5b83356146f381615055565b925060208401359150604084013561470a81615055565b809150509250925092565b60008060008060008060c0878903121561472d578384fd5b863561473881615055565b9550602087013594506040870135935060608701356147568161509c565b9598949750929560808101359460a0909101359350915050565b60008060208385031215614782578182fd5b82356001600160401b0380821115614798578384fd5b818501915085601f8301126147ab578384fd5b8135818111156147b9578485fd5b86602080830285010111156147cc578485fd5b60209290920196919550909350505050565b6000602082840312156147ef578081fd5b81356001600160e01b031981168114612d08578182fd5b600060208284031215614817578081fd5b8135612d0881615078565b600060208284031215614833578081fd5b81516001600160401b03811115614848578182fd5b8201601f81018413614858578182fd5b805161486661464582615008565b81815285602083850101111561487a578384fd5b613a9c826020830160208601615029565b60006080828403121561489c578081fd5b50919050565b600060a0828403121561489c578081fd5b600060c0828403121561489c578081fd5b600081830360808112156148d6578182fd5b604080519081016001600160401b0380821183831017156148f357fe5b816040526060841215614904578485fd5b60a083019350818410818511171561491857fe5b50826040528435925061492a83615055565b91825260208401359161493c83615055565b82606083015261494e604086016144d6565b60808301528152614961606085016144b9565b6020820152949350505050565b6000610160828403121561489c578081fd5b600060208284031215614991578081fd5b8135612d0881615087565b600080604083850312156149ae578182fd5b82516149b981615087565b602084015190925061453281615087565b600080600080600060a086880312156149e1578283fd5b85516149ec81615087565b8095505060208601519350604086015192506060860151614a0c81615087565b6080870151909250614a1d81615087565b809150509295509295909350565b600080600080600080600060e0888a031215614a45578485fd5b8751614a5081615055565b6020890151909750614a6181615078565b9550614a6f604089016144c4565b9450614a7d606089016144c4565b9350614a8b608089016144c4565b925060a0880151614a9b8161509c565b60c0890151909250614aac8161506a565b8091505092959891949750929550565b600060208284031215614acd578081fd5b611326826144d6565b600060208284031215614ae7578081fd5b5035919050565b60008060408385031215614b00578182fd5b82359150602083013561453281615055565b60008060408385031215614b24578182fd5b505080516020909101519092909150565b60008060008060608587031215614b4a578182fd5b843593506020850135925060408501356001600160401b0380821115614b6e578384fd5b818701915087601f830112614b81578384fd5b813581811115614b8f578485fd5b886020828501011115614ba0578485fd5b95989497505060200194505050565b60008151808452614bc7816020860160208601615029565b601f01601f19169290920160200192915050565b60020b9052565b6001600160801b03169052565b6000828483379101908152919050565b6001600160a01b0391909116815260200190565b6001600160a01b0386168152600285810b602083015284900b60408201526001600160801b038316606082015260a0608082018190526000906143e890830184614baf565b6001600160a01b03959095168552600293840b60208601529190920b60408401526001600160801b03918216606084015216608082015260a00190565b6001600160a01b039390931683526001600160801b03918216602084015216604082015260600190565b6000602080830181845280855180835260408601915060408482028701019250838701855b82811015614d1257603f19888603018452614d00858351614baf565b94509285019290850190600101614ce4565b5092979650505050505050565b901515815260200190565b90815260200190565b6001600160a01b03929092168252602082015260400190565b600293840b81529190920b60208201526001600160801b03909116604082015260600190565b6000602082526113266020830184614baf565b6020808252600c908201526b139bdd08185c1c1c9bdd995960a21b604082015260600190565b6020808252602c908201527f4552433732313a20617070726f76656420717565727920666f72206e6f6e657860408201526b34b9ba32b73a103a37b5b2b760a11b606082015260800190565b602080825260149082015273507269636520736c69707061676520636865636b60601b604082015260600190565b60208082526010908201526f125b9d985b1a59081d1bdad95b88125160821b604082015260600190565b6020808252600b908201526a139bdd0818db19585c995960aa1b604082015260600190565b815180516001600160a01b03908116835260208083015182168185015260409283015162ffffff1692840192909252920151909116606082015260800190565b6001600160801b039390931683526020830191909152604082015260600190565b9384526001600160801b039290921660208401526040830152606082015260800190565b918252602082015260400190565b6001600160601b038d1681526001600160a01b038c811660208301528b811660408301528a16606082015262ffffff89166080820152600288900b60a08201526101808101614f5960c0830189614bdb565b614f6660e0830188614be2565b8561010083015284610120830152614f82610140830185614be2565b614f90610160830184614be2565b9d9c50505050505050505050505050565b6000808335601e19843603018112614fb7578283fd5b8301803591506001600160401b03821115614fd0578283fd5b60200191503681900382131561330f57600080fd5b6040518181016001600160401b038111828210171561500057fe5b604052919050565b60006001600160401b0382111561501b57fe5b50601f01601f191660200190565b60005b8381101561504457818101518382015260200161502c565b838111156122845750506000910152565b6001600160a01b038116811461449d57600080fd5b801515811461449d57600080fd5b8060020b811461449d57600080fd5b6001600160801b038116811461449d57600080fd5b60ff8116811461449d57600080fdfe456e756d657261626c655365743a20696e646578206f7574206f6620626f756e64734552433732313a207472616e7366657220746f206e6f6e20455243373231526563656976657220696d706c656d656e7465724552433732315065726d69743a20617070726f76616c20746f2063757272656e74206f776e65724552433732313a207472616e7366657220746f20746865207a65726f2061646472657373416464726573733a20696e73756666696369656e742062616c616e636520666f722063616c6c4552433732313a206f70657261746f7220717565727920666f72206e6f6e6578697374656e7420746f6b656e4552433732313a20617070726f76652063616c6c6572206973206e6f74206f776e6572206e6f7220617070726f76656420666f7220616c6c4552433732313a2062616c616e636520717565727920666f7220746865207a65726f20616464726573734552433732313a206f776e657220717565727920666f72206e6f6e6578697374656e7420746f6b656e456e756d657261626c654d61703a20696e646578206f7574206f6620626f756e64734552433732313a207472616e73666572206f6620746f6b656e2074686174206973206e6f74206f776e49ecf333e5b8c95c40fdafc95c1ad136e8914a8fb55e9dc8bb01eaa83a2df9adddf252ad1be2c89b69c2b068fc378daa952ba7f163c4a11628f55a4df523b3ef4552433732313a20617070726f76616c20746f2063757272656e74206f776e65724552433732313a207472616e736665722063616c6c6572206973206e6f74206f776e6572206e6f7220617070726f766564a164736f6c6343000706000a",
  "linkReferences": {},
  "deployedLinkReferences": {}
}