{
  "abi": [
    {
      "inputs": [
        {
          "internalType": "address",
          "name": "_governance",
          "type": "address"
        }
      ],
      "stateMutability": "nonpayable",
      "type": "constructor"
    },
    {
      "anonymous": false,
      "inputs": [
        {
          "indexed": false,
          "internalType": "int24",
          "name": "oldBaseTicks",
          "type": "int24"
        },
        {
          "indexed": false,
          "internalType": "int24",
          "name": "newBaseTicks",
          "type": "int24"
        }
      ],
      "name": "BaseTicksUpdated",
      "type": "event"
    },
    {
      "anonymous": false,
      "inputs": [
        {
          "indexed": false,
          "internalType": "address",
          "name": "oldGovernance",
          "type": "address"
        },
        {
          "indexed": false,
          "internalType": "address",
          "name": "newGovernance",
          "type": "address"
        }
      ],
      "name": "GovernanceUpdated",
      "type": "event"
    },
    {
      "anonymous": false,
      "inputs": [
        {
          "indexed": false,
          "internalType": "int24",
          "name": "oldDeviation",
          "type": "int24"
        },
        {
          "indexed": false,
          "internalType": "int24",
          "name": "newDeviation",
          "type": "int24"
        }
      ],
      "name": "MaxTwapDeviationUpdated",
      "type": "event"
    },
    {
      "anonymous": false,
      "inputs": [
        {
          "indexed": false,
          "internalType": "int24",
          "name": "oldRangeTicks",
          "type": "int24"
        },
        {
          "indexed": false,
          "internalType": "int24",
          "name": "newRangeTicks",
          "type": "int24"
        }
      ],
      "name": "RangeTicksUpdated",
      "type": "event"
    },
    {
      "anonymous": false,
      "inputs": [
        {
          "indexed": false,
          "internalType": "int24",
          "name": "oldMultiplier",
          "type": "int24"
        },
        {
          "indexed": false,
          "internalType": "int24",
          "name": "newMultiplier",
          "type": "int24"
        }
      ],
      "name": "ReadjustMultiplierUpdated",
      "type": "event"
    },
    {
      "anonymous": false,
      "inputs": [
        {
          "components": [
            {
              "internalType": "int24",
              "name": "baseThreshold",
              "type": "int24"
            },
            {
              "internalType": "int24",
              "name": "rangeThreshold",
              "type": "int24"
            },
            {
              "internalType": "int24",
              "name": "maxTwapDeviation",
              "type": "int24"
            },
            {
              "internalType": "int24",
              "name": "readjustThreshold",
              "type": "int24"
            },
            {
              "internalType": "uint32",
              "name": "twapDuration",
              "type": "uint32"
            }
          ],
          "indexed": false,
          "internalType": "struct IUnipilotStrategy.PoolStrategy",
          "name": "oldStrategy",
          "type": "tuple"
        },
        {
          "components": [
            {
              "internalType": "int24",
              "name": "baseThreshold",
              "type": "int24"
            },
            {
              "internalType": "int24",
              "name": "rangeThreshold",
              "type": "int24"
            },
            {
              "internalType": "int24",
              "name": "maxTwapDeviation",
              "type": "int24"
            },
            {
              "internalType": "int24",
              "name": "readjustThreshold",
              "type": "int24"
            },
            {
              "internalType": "uint32",
              "name": "twapDuration",
              "type": "uint32"
            }
          ],
          "indexed": false,
          "internalType": "struct IUnipilotStrategy.PoolStrategy",
          "name": "newStrategy",
          "type": "tuple"
        }
      ],
      "name": "StrategyUpdated",
      "type": "event"
    },
    {
      "anonymous": false,
      "inputs": [
        {
          "indexed": false,
          "internalType": "uint32",
          "name": "oldDuration",
          "type": "uint32"
        },
        {
          "indexed": false,
          "internalType": "uint32",
          "name": "newDuration",
          "type": "uint32"
        }
      ],
      "name": "TwapDurationUpdated",
      "type": "event"
    },
    {
      "inputs": [],
      "name": "baseTicks",
      "outputs": [
        {
          "internalType": "int24",
          "name": "",
          "type": "int24"
        }
      ],
      "stateMutability": "view",
      "type": "function"
    },
    {
      "inputs": [
        {
          "components": [
            {
              "internalType": "int24",
              "name": "baseThreshold",
              "type": "int24"
            },
            {
              "internalType": "int24",
              "name": "rangeThreshold",
              "type": "int24"
            },
            {
              "internalType": "int24",
              "name": "maxTwapDeviation",
              "type": "int24"
            },
            {
              "internalType": "int24",
              "name": "readjustThreshold",
              "type": "int24"
            },
            {
              "internalType": "uint32",
              "name": "twapDuration",
              "type": "uint32"
            }
          ],
          "internalType": "struct IUnipilotStrategy.PoolStrategy",
          "name": "params",
          "type": "tuple"
        },
        {
          "internalType": "address",
          "name": "_pool",
          "type": "address"
        }
      ],
      "name": "changeStrategy",
      "outputs": [],
      "stateMutability": "nonpayable",
      "type": "function"
    },
    {
      "inputs": [
        {
          "internalType": "address",
          "name": "pool",
          "type": "address"
        }
      ],
      "name": "checkDeviation",
      "outputs": [],
      "stateMutability": "view",
      "type": "function"
    },
    {
      "inputs": [
        {
          "internalType": "address",
          "name": "_pool",
          "type": "address"
        },
        {
          "internalType": "int24",
          "name": "_tickSpacing",
          "type": "int24"
        }
      ],
      "name": "getBaseThreshold",
      "outputs": [
        {
          "internalType": "int24",
          "name": "baseThreshold",
          "type": "int24"
        }
      ],
      "stateMutability": "view",
      "type": "function"
    },
    {
      "inputs": [
        {
          "internalType": "address",
          "name": "_pool",
          "type": "address"
        }
      ],
      "name": "getReadjustThreshold",
      "outputs": [
        {
          "internalType": "int24",
          "name": "readjustThreshold",
          "type": "int24"
        }
      ],
      "stateMutability": "view",
      "type": "function"
    },
    {
      "inputs": [
        {
          "internalType": "address",
          "name": "_pool",
          "type": "address"
        }
      ],
      "name": "getStrategy",
      "outputs": [
        {
          "components": [
            {
              "internalType": "int24",
              "name": "baseThreshold",
              "type": "int24"
            },
            {
              "internalType": "int24",
              "name": "rangeThreshold",
              "type": "int24"
            },
            {
              "internalType": "int24",
              "name": "maxTwapDeviation",
              "type": "int24"
            },
            {
              "internalType": "int24",
              "name": "readjustThreshold",
              "type": "int24"
            },
            {
              "internalType": "uint32",
              "name": "twapDuration",
              "type": "uint32"
            }
          ],
          "internalType": "struct IUnipilotStrategy.PoolStrategy",
          "name": "strategy",
          "type": "tuple"
        }
      ],
      "stateMutability": "view",
      "type": "function"
    },
    {
      "inputs": [
        {
          "internalType": "address",
          "name": "_pool",
          "type": "address"
        }
      ],
      "name": "getTicks",
      "outputs": [
        {
          "internalType": "int24",
          "name": "baseLower",
          "type": "int24"
        },
        {
          "internalType": "int24",
          "name": "baseUpper",
          "type": "int24"
        },
        {
          "internalType": "int24",
          "name": "bidLower",
          "type": "int24"
        },
        {
          "internalType": "int24",
          "name": "bidUpper",
          "type": "int24"
        },
        {
          "internalType": "int24",
          "name": "askLower",
          "type": "int24"
        },
        {
          "internalType": "int24",
          "name": "askUpper",
          "type": "int24"
        }
      ],
      "stateMutability": "nonpayable",
      "type": "function"
    },
    {
      "inputs": [
        {
          "internalType": "address",
          "name": "_pool",
          "type": "address"
        }
      ],
      "name": "getTwap",
      "outputs": [
        {
          "internalType": "int24",
          "name": "twap",
          "type": "int24"
        }
      ],
      "stateMutability": "view",
      "type": "function"
    },
    {
      "inputs": [],
      "name": "governance",
      "outputs": [
        {
          "internalType": "address",
          "name": "",
          "type": "address"
        }
      ],
      "stateMutability": "view",
      "type": "function"
    },
    {
      "inputs": [],
      "name": "maxTwapDeviation",
      "outputs": [
        {
          "internalType": "int24",
          "name": "",
          "type": "int24"
        }
      ],
      "stateMutability": "view",
      "type": "function"
    },
    {
      "inputs": [],
      "name": "rangeTicks",
      "outputs": [
        {
          "internalType": "int24",
          "name": "",
          "type": "int24"
        }
      ],
      "stateMutability": "view",
      "type": "function"
    },
    {
      "inputs": [
        {
          "components": [
            {
              "internalType": "int24",
              "name": "baseThreshold",
              "type": "int24"
            },
            {
              "internalType": "int24",
              "name": "rangeThreshold",
              "type": "int24"
            },
            {
              "internalType": "int24",
              "name": "maxTwapDeviation",
              "type": "int24"
            },
            {
              "internalType": "int24",
              "name": "readjustThreshold",
              "type": "int24"
            },
            {
              "internalType": "uint32",
              "name": "twapDuration",
              "type": "uint32"
            }
          ],
          "internalType": "struct IUnipilotStrategy.PoolStrategy[]",
          "name": "params",
          "type": "tuple[]"
        },
        {
          "internalType": "address[]",
          "name": "pools",
          "type": "address[]"
        }
      ],
      "name": "setAllStrategies",
      "outputs": [],
      "stateMutability": "nonpayable",
      "type": "function"
    },
    {
      "inputs": [
        {
          "internalType": "address[]",
          "name": "_pools",
          "type": "address[]"
        },
        {
          "internalType": "int24[]",
          "name": "_baseTicks",
          "type": "int24[]"
        }
      ],
      "name": "setBaseTicks",
      "outputs": [],
      "stateMutability": "nonpayable",
      "type": "function"
    },
    {
      "inputs": [
        {
          "internalType": "address",
          "name": "_governance",
          "type": "address"
        }
      ],
      "name": "setGovernance",
      "outputs": [],
      "stateMutability": "nonpayable",
      "type": "function"
    },
    {
      "inputs": [
        {
          "internalType": "int24",
          "name": "_twapDeviation",
          "type": "int24"
        }
      ],
      "name": "setMaxTwapDeviation",
      "outputs": [],
      "stateMutability": "nonpayable",
      "type": "function"
    },
    {
      "inputs": [
        {
          "internalType": "address[]",
          "name": "_pools",
          "type": "address[]"
        },
        {
          "internalType": "int24[]",
          "name": "_twapDeviations",
          "type": "int24[]"
        }
      ],
      "name": "setPoolTwapDeviation",
      "outputs": [],
      "stateMutability": "nonpayable",
      "type": "function"
    },
    {
      "inputs": [
        {
          "internalType": "int24",
          "name": "_rangeTicks",
          "type": "int24"
        }
      ],
      "name": "setRangeTicks",
      "outputs": [],
      "stateMutability": "nonpayable",
      "type": "function"
    },
    {
      "inputs": [
        {
          "internalType": "int24",
          "name": "_readjustMultipier",
          "type": "int24"
        }
      ],
      "name": "setReadjustMultiplier",
      "outputs": [],
      "stateMutability": "nonpayable",
      "type": "function"
    },
    {
      "inputs": [
        {
          "internalType": "uint32",
          "name": "_twapDuration",
          "type": "uint32"
        }
      ],
      "name": "setTwapDuration",
      "outputs": [],
      "stateMutability": "nonpayable",
      "type": "function"
    },
    {
      "inputs": [],
      "name": "twapDuration",
      "outputs": [
        {
          "internalType": "uint32",
          "name": "",
          "type": "uint32"
        }
      ],
      "stateMutability": "view",
      "type": "function"
    }
  ],
  "bytecode": {
    "object": "0x60806040523480156200001157600080fd5b506040516200261f3803806200261f8339810160408190526200003491620000aa565b600080546001805461012c62ffffff199091161766ffffffff0000001916640e100000001790556001600160a01b0319166001600160a01b03929092169190911762ffffff60a01b191660e160a31b1762ffffff60b81b191660e160bb1b176001600160e81b0316600560e91b179055620000da565b600060208284031215620000bc578081fd5b81516001600160a01b0381168114620000d3578182fd5b9392505050565b61253580620000ea6000396000f3fe608060405234801561001057600080fd5b506004361061012c5760003560e01c8063ab033ea9116100ad578063d91e085311610071578063d91e085314610271578063dab62a2f14610284578063e7c7cb9114610297578063f8806a131461029f578063fd0679e9146102bf5761012c565b8063ab033ea914610212578063ab24f52614610225578063b7ab92e814610238578063c433c80a1461024b578063d4f9b7a71461025e5761012c565b80634ed8cf27116100f45780634ed8cf271461019f57806357044c6f146101b25780635aa6e675146101c5578063802036f5146101da57806387745a11146101ff5761012c565b8063051bb833146101315780631ca6aede1461014657806326d89545146101645780633cbff3fe146101795780633d47d2271461018c575b600080fd5b61014461013f366004611e8c565b6102c7565b005b61014e6102ca565b60405161015b9190612270565b60405180910390f35b61016c6102da565b60405161015b919061245f565b610144610187366004612067565b6102ed565b61014e61019a366004611e8c565b61039b565b61014e6101ad366004611e8c565b610528565b6101446101c0366004611ee0565b610553565b6101cd610619565b60405161015b9190612242565b6101ed6101e8366004611e8c565b610628565b60405161015b96959493929190612292565b61014461020d366004611fa2565b6109ef565b610144610220366004611e8c565b610a7e565b610144610233366004611ee0565b610b37565b610144610246366004612067565b610c01565b610144610259366004612183565b610cbd565b61014461026c366004612067565b610d67565b61014e61027f366004611ea8565b610e0d565b61014461029236600461209f565b610e3a565b61014e61107e565b6102b26102ad366004611e8c565b611087565b60405161015b91906123e5565b61014e61110e565b50565b600054600160a01b900460020b81565b6001546301000000900463ffffffff1681565b6000546001600160a01b031633146103205760405162461bcd60e51b815260040161031790612374565b60405180910390fd5b60148160020b12156103445760405162461bcd60e51b815260040161031790612301565b60018054600283810b62ffffff1662ffffff198316179092556040517fb32bf5279c25f60e729f297567e5882813fe72a29dec91009962465b6a98a15f9261039092900b90849061227e565b60405180910390a150565b600080829050600080826001600160a01b0316633850c7bd6040518163ffffffff1660e01b815260040160e06040518083038186803b1580156103dd57600080fd5b505afa1580156103f1573d6000803e3d6000fd5b505050506040513d601f19601f8201168201806040525081019061041591906120f2565b5050509350935050506000836001600160a01b031663252c09d78361ffff168560010161ffff168161044357fe5b066040518263ffffffff1660e01b81526004016104609190612450565b60806040518083038186803b15801561047857600080fd5b505afa15801561048c573d6000803e3d6000fd5b505050506040513d601f19601f820116820180604052508101906104b0919061219f565b5050506001600160a01b0387166000908152600260205260409020549091504282900390600160601b900463ffffffff16806104f857506001546301000000900463ffffffff165b61051c888263ffffffff168463ffffffff16116105155783610517565b825b61111e565b98975050505050505050565b6001600160a01b038116600090815260026020819052604090912054600160481b9004900b5b919050565b6000546001600160a01b0316331461057d5760405162461bcd60e51b815260040161031790612374565b805182511461059e5760405162461bcd60e51b81526004016103179061231d565b60005b8251811015610614578181815181106105b657fe5b6020026020010151600260008584815181106105ce57fe5b6020908102919091018101516001600160a01b03168252810191909152604001600020805460029290920b62ffffff1662ffffff199092169190911790556001016105a1565b505050565b6000546001600160a01b031681565b60008060008060008060008061063d8961141e565b6001600160a01b038b1660009081526002602081905260409091205492945090925090810b900b158061069457506001600160a01b03891660009081526002602081905260409091205463010000009004810b900b155b156107de57600080546106b190600160b81b900460020b8361151b565b90506040518060a001604052808260020b81526020016106e0600060149054906101000a900460020b8561151b565b600290810b8252600154810b810b6020830152600054604090920191606491600160e81b909104810b8502900b05600290810b825260015463ffffffff63010000009182900481166020948501526001600160a01b038f1660009081528385526040908190208651815496880151928801516060890151608090990151909416600160601b0263ffffffff60601b1998870b62ffffff908116600160481b0262ffffff60481b1996890b8216600160301b0262ffffff60301b19968a0b831690980265ffffff000000199490990b90911662ffffff199099169890981791909116959095179190911692909217169290921792909216919091179055505b6001600160a01b038916600090815260026020819052604082208054835462ffffff60d01b1916600160d01b62ffffff6301000000909304850b850b9290921682021780855591549104820b820b90820b90910b1361084957600054600160d01b900460020b610868565b6001600160a01b038a16600090815260026020819052604090912054900b5b90508181620d89e719010160020b8360020b13801561089757508181620d89e719600003030360020b8360020b125b6108b35760405162461bcd60e51b815260040161031790612390565b60006108be8b611569565b905060008160020b8560020b136108d7578482036108db565b8185035b6001600160a01b038d16600090815260026020819052604090912054919250600160301b909104810b810b9082900b13156109285760405162461bcd60e51b815260040161031790612357565b6000610934868661151b565b905060008582019050600260008f6001600160a01b03166001600160a01b0316815260200190815260200160002060000160009054906101000a900460020b82039c50600260008f6001600160a01b03166001600160a01b0316815260200190815260200160002060000160009054906101000a900460020b82019b506000601a9054906101000a900460020b82039a508199508098506000601a9054906101000a900460020b810197505050505050505091939550919395565b6000546001600160a01b03163314610a195760405162461bcd60e51b815260040161031790612374565b8051825114610a3a5760405162461bcd60e51b81526004016103179061231d565b60005b825181101561061457610a76838281518110610a5557fe5b6020026020010151838381518110610a6957fe5b6020026020010151610e3a565b600101610a3d565b6000546001600160a01b03163314610aa85760405162461bcd60e51b815260040161031790612374565b6001600160a01b038116610ace5760405162461bcd60e51b81526004016103179061233a565b6000546040517f434a2db650703b36c824e745330d6397cdaa9ee2cc891a4938ae853e1c50b68d91610b0d916001600160a01b03909116908490612256565b60405180910390a1600080546001600160a01b0319166001600160a01b0392909216919091179055565b6000546001600160a01b03163314610b615760405162461bcd60e51b815260040161031790612374565b8051825114610b825760405162461bcd60e51b81526004016103179061231d565b60005b825181101561061457818181518110610b9a57fe5b602002602001015160026000858481518110610bb257fe5b6020908102919091018101516001600160a01b03168252810191909152604001600020805460029290920b62ffffff16600160301b0262ffffff60301b19909216919091179055600101610b85565b6000546001600160a01b03163314610c2b5760405162461bcd60e51b815260040161031790612374565b60008160020b13610c4e5760405162461bcd60e51b8152600401610317906123c8565b6000546040517f5d57c30988c079327c7a2866b4ec81c1eb83dca7d6ecd954093458c50034c93891610c8d91600160a01b90910460020b90849061227e565b60405180910390a16000805460029290920b62ffffff16600160a01b0262ffffff60a01b19909216919091179055565b6000546001600160a01b03163314610ce75760405162461bcd60e51b815260040161031790612374565b60648163ffffffff161015610d0e5760405162461bcd60e51b8152600401610317906123ac565b6001805463ffffffff838116630100000090810266ffffffff000000198416179093556040517f1c373b0a9b89049c835cfc0851faad1f23dbb7e5bd46cf58eb88da4dd760378b93610390930491909116908490612470565b6000546001600160a01b03163314610d915760405162461bcd60e51b815260040161031790612374565b60008160020b13610db45760405162461bcd60e51b8152600401610317906122e3565b60008054600283810b62ffffff16600160e81b9081026001600160e81b038416179093556040517f6970a7f31fee92e8ced74d8833776ba308b9d4259e72a19b40ea53bdce8c8c4893610390930490910b90849061227e565b6001600160a01b0382166000908152600260208190526040822054610e33910b8361151b565b9392505050565b6000546001600160a01b03163314610e645760405162461bcd60e51b815260040161031790612374565b6001600160a01b038116600081815260026020818152604092839020835160a081018552905480840b840b840b825263010000008104840b840b840b82840152600160301b8104840b840b840b82860152600160481b8104840b840b90930b6060820152600160601b90920463ffffffff166080830152855183516334324e9f60e21b815293519294610f53949193909263d0c93a7c9260048082019391829003018186803b158015610f1657600080fd5b505afa158015610f2a573d6000803e3d6000fd5b505050506040513d601f19601f82011682018060405250810190610f4e9190612083565b61168b565b6040805160a0810182528451600290810b8252602080870151820b81840190815287850151830b8486019081526060808a0151850b9086019081526080808b015163ffffffff9081169188019182526001600160a01b038b1660009081529587905294889020965187549451935192519151909516600160601b0263ffffffff60601b1991870b62ffffff908116600160481b0262ffffff60481b1994890b8216600160301b0262ffffff60301b19968a0b831663010000000265ffffff0000001999909a0b90921662ffffff19909716969096179690961696909617929092169390931792909216171617815590517f4fbe17edcf333bc8ed37ac7def64da9ac2726f481aaa733d9c8a64e5fa481dfb91611071918491906123f3565b60405180910390a1505050565b60015460020b81565b61108f611d32565b506001600160a01b0316600090815260026020818152604092839020835160a081018552905480840b840b840b825263010000008104840b840b840b92820192909252600160301b8204830b830b830b93810193909352600160481b8104820b820b90910b6060830152600160601b900463ffffffff16608082015290565b600054600160b81b900460020b81565b600063ffffffff821661115d576040805162461bcd60e51b8152602060048201526002602482015261042560f41b604482015290519081900360640190fd5b604080516002808252606082018352600092602083019080368337019050509050828160008151811061118c57fe5b602002602001019063ffffffff16908163ffffffff16815250506000816001815181106111b557fe5b63ffffffff90921660209283029190910182015260405163883bdbfd60e01b8152600481018281528351602483015283516000936001600160a01b0389169363883bdbfd938793909283926044019185820191028083838b5b8381101561122657818101518382015260200161120e565b505050509050019250505060006040518083038186803b15801561124957600080fd5b505afa15801561125d573d6000803e3d6000fd5b505050506040513d6000823e601f3d908101601f19168201604090815281101561128657600080fd5b81019080805160405193929190846401000000008211156112a657600080fd5b9083019060208201858111156112bb57600080fd5b82518660208202830111640100000000821117156112d857600080fd5b82525081516020918201928201910280838360005b838110156113055781810151838201526020016112ed565b505050509050016040526020018051604051939291908464010000000082111561132e57600080fd5b90830190602082018581111561134357600080fd5b825186602082028301116401000000008211171561136057600080fd5b82525081516020918201928201910280838360005b8381101561138d578181015183820152602001611375565b505050509050016040525050505090506000816000815181106113ac57fe5b6020026020010151826001815181106113c157fe5b60200260200101510390508463ffffffff168160060b816113de57fe5b05935060008160060b12801561140857508463ffffffff168160060b8161140157fe5b0760060b15155b1561141557600019909301925b50505092915050565b600080826001600160a01b0316633850c7bd6040518163ffffffff1660e01b815260040160e06040518083038186803b15801561145a57600080fd5b505afa15801561146e573d6000803e3d6000fd5b505050506040513d601f19601f8201168201806040525081019061149291906120f2565b5050604080516334324e9f60e21b815290519497506001600160a01b038916955063d0c93a7c94600480830195506020945090925090829003018186803b1580156114dc57600080fd5b505afa1580156114f0573d6000803e3d6000fd5b505050506040513d601f19601f820116820180604052508101906115149190612083565b9050915091565b6000808260020b8460020b8161152d57fe5b05905060008460020b12801561155457508260020b8460020b8161154d57fe5b0760020b15155b1561155e57600019015b820290505b92915050565b600080826001600160a01b0316631a6865026040518163ffffffff1660e01b815260040160206040518083038186803b1580156115a557600080fd5b505afa1580156115b9573d6000803e3d6000fd5b505050506040513d601f19601f820116820180604052508101906115dd91906120cb565b90506001600160801b038116611679576000836001600160a01b0316633850c7bd6040518163ffffffff1660e01b815260040160e06040518083038186803b15801561162857600080fd5b505afa15801561163c573d6000803e3d6000fd5b505050506040513d601f19601f8201168201806040525081019061166091906120f2565b5050505050509050611671816116e1565b925050611685565b6116828361039b565b91505b50919050565b620d89e8600283900b138015906116b257508060020b8260020b816116ac57fe5b0760020b155b80156116c1575060008260020b135b6116dd5760405162461bcd60e51b8152600401610317906122c6565b5050565b60006401000276a36001600160a01b0383161080159061171d575073fffd8963efd1fc6a506488495d951d5263988d266001600160a01b038316105b611752576040805162461bcd60e51b81526020600482015260016024820152602960f91b604482015290519081900360640190fd5b640100000000600160c01b03602083901b166001600160801b03811160071b81811c67ffffffffffffffff811160061b90811c63ffffffff811160051b90811c61ffff811160041b90811c60ff8111600390811b91821c600f811160021b90811c918211600190811b92831c979088119617909417909217179091171717608081106117e657607f810383901c91506117f0565b80607f0383901b91505b908002607f81811c60ff83811c9190911c800280831c81831c1c800280841c81841c1c800280851c81851c1c800280861c81861c1c800280871c81871c1c800280881c81881c1c800280891c81891c1c8002808a1c818a1c1c8002808b1c818b1c1c8002808c1c818c1c1c8002808d1c818d1c1c8002808e1c9c81901c9c909c1c80029c8d901c9e9d607f198f0160401b60c09190911c678000000000000000161760c19b909b1c674000000000000000169a909a1760c29990991c672000000000000000169890981760c39790971c671000000000000000169690961760c49590951c670800000000000000169490941760c59390931c670400000000000000169290921760c69190911c670200000000000000161760c79190911c670100000000000000161760c89190911c6680000000000000161760c99190911c6640000000000000161760ca9190911c6620000000000000161760cb9190911c6610000000000000161760cc9190911c6608000000000000161760cd9190911c66040000000000001617693627a301d71055774c8581026f028f6481ab7f045a5af012a19d003aa9198101608090811d906fdb2df09e81959a81455e260799a0632f8301901d600281810b9083900b146119f157886001600160a01b03166119d582611a00565b6001600160a01b031611156119ea57816119ec565b805b6119f3565b815b9998505050505050505050565b60008060008360020b12611a17578260020b611a1f565b8260020b6000035b9050620d89e8811115611a5d576040805162461bcd60e51b81526020600482015260016024820152601560fa1b604482015290519081900360640190fd5b600060018216611a7157600160801b611a83565b6ffffcb933bd6fad37aa2d162d1a5940015b70ffffffffffffffffffffffffffffffffff1690506002821615611ab7576ffff97272373d413259a46990580e213a0260801c5b6004821615611ad6576ffff2e50f5f656932ef12357cf3c7fdcc0260801c5b6008821615611af5576fffe5caca7e10e4e61c3624eaa0941cd00260801c5b6010821615611b14576fffcb9843d60f6159c9db58835c9266440260801c5b6020821615611b33576fff973b41fa98c081472e6896dfb254c00260801c5b6040821615611b52576fff2ea16466c96a3843ec78b326b528610260801c5b6080821615611b71576ffe5dee046a99a2a811c461f1969c30530260801c5b610100821615611b91576ffcbe86c7900a88aedcffc83b479aa3a40260801c5b610200821615611bb1576ff987a7253ac413176f2b074cf7815e540260801c5b610400821615611bd1576ff3392b0822b70005940c7a398e4b70f30260801c5b610800821615611bf1576fe7159475a2c29b7443b29c7fa6e889d90260801c5b611000821615611c11576fd097f3bdfd2022b8845ad8f792aa58250260801c5b612000821615611c31576fa9f746462d870fdf8a65dc1f90e061e50260801c5b614000821615611c51576f70d869a156d2a1b890bb3df62baf32f70260801c5b618000821615611c71576f31be135f97d08fd981231505542fcfa60260801c5b62010000821615611c92576f09aa508b5b7a84e1c677de54f3e99bc90260801c5b62020000821615611cb2576e5d6af8dedb81196699c329225ee6040260801c5b62040000821615611cd1576d2216e584f5fa1ea926041bedfe980260801c5b62080000821615611cee576b048a170391f7dc42444e8fa20260801c5b60008460020b1315611d09578060001981611d0557fe5b0490505b640100000000810615611d1d576001611d20565b60005b60ff16602082901c0192505050919050565b6040805160a08101825260008082526020820181905291810182905260608101829052608081019190915290565b600082601f830112611d70578081fd5b81356020611d85611d80836124ab565b612487565b8281528181019085830183850287018401881015611da1578586fd5b855b85811015611dc8578135611db6816124c9565b84529284019290840190600101611da3565b5090979650505050505050565b8051801515811461054e57600080fd5b600060a08284031215611df6578081fd5b60405160a0810181811067ffffffffffffffff82111715611e1357fe5b6040529050808235611e24816124de565b81526020830135611e34816124de565b60208201526040830135611e47816124de565b60408201526060830135611e5a816124de565b60608201526080830135611e6d816124ed565b6080919091015292915050565b805161ffff8116811461054e57600080fd5b600060208284031215611e9d578081fd5b8135610e33816124c9565b60008060408385031215611eba578081fd5b8235611ec5816124c9565b91506020830135611ed5816124de565b809150509250929050565b60008060408385031215611ef2578182fd5b823567ffffffffffffffff80821115611f09578384fd5b611f1586838701611d60565b9350602091508185013581811115611f2b578384fd5b85019050601f81018613611f3d578283fd5b8035611f4b611d80826124ab565b81815283810190838501858402850186018a1015611f67578687fd5b8694505b83851015611f92578035611f7e816124de565b835260019490940193918501918501611f6b565b5080955050505050509250929050565b60008060408385031215611fb4578182fd5b823567ffffffffffffffff80821115611fcb578384fd5b818501915085601f830112611fde578384fd5b81356020611fee611d80836124ab565b8281528181019085830160a0808602880185018c101561200c57898afd5b8997505b85881015612038576120228c83611de5565b8452600197909701969284019290810190612010565b50909750505086013592505080821115612050578283fd5b5061205d85828601611d60565b9150509250929050565b600060208284031215612078578081fd5b8135610e33816124de565b600060208284031215612094578081fd5b8151610e33816124de565b60008060c083850312156120b1578182fd5b6120bb8484611de5565b915060a0830135611ed5816124c9565b6000602082840312156120dc578081fd5b81516001600160801b0381168114610e33578182fd5b600080600080600080600060e0888a03121561210c578283fd5b8751612117816124c9565b6020890151909750612128816124de565b955061213660408901611e7a565b945061214460608901611e7a565b935061215260808901611e7a565b925060a088015160ff81168114612167578283fd5b915061217560c08901611dd5565b905092959891949750929550565b600060208284031215612194578081fd5b8135610e33816124ed565b600080600080608085870312156121b4578182fd5b84516121bf816124ed565b8094505060208501518060060b81146121d6578283fd5b60408601519093506121e7816124c9565b91506121f560608601611dd5565b905092959194509250565b805160020b8252602081015160020b6020830152604081015160020b6040830152606081015160020b606083015263ffffffff60808201511660808301525050565b6001600160a01b0391909116815260200190565b6001600160a01b0392831681529116602082015260400190565b60029190910b815260200190565b600292830b8152910b602082015260400190565b600296870b815294860b602086015292850b604085015290840b6060840152830b608083015290910b60a082015260c00190565b602080825260039082015262494e5360e81b604082015260600190565b6020808252600490820152634952454d60e01b604082015260600190565b602080825260029082015261282360f11b604082015260600190565b60208082526003908201526249564960e81b604082015260600190565b60208082526003908201526249474160e81b604082015260600190565b60208082526003908201526226aa2360e91b604082015260600190565b6020808252600290820152614e4760f01b604082015260600190565b602080825260029082015261125560f21b604082015260600190565b602080825260029082015261151160f21b604082015260600190565b60208082526003908201526249524d60e81b604082015260600190565b60a081016115638284612200565b61014081016124028285612200565b9154600281810b810b60a0840152601882901c810b810b60c0840152603082901c810b810b60e0840152604882901c810b900b61010083015260601c63ffffffff1661012090910152919050565b61ffff91909116815260200190565b63ffffffff91909116815260200190565b63ffffffff92831681529116602082015260400190565b60405181810167ffffffffffffffff811182821017156124a357fe5b604052919050565b600067ffffffffffffffff8211156124bf57fe5b5060209081020190565b6001600160a01b03811681146102c757600080fd5b8060020b81146102c757600080fd5b63ffffffff811681146102c757600080fdfea2646970667358221220da5580151e9cb8c88c660d543406c01781b17589e8296ad21c2dfad84a5b7fa164736f6c63430007060033",
    "linkReferences": {}
  }
}