{
	"data": {
		"bytecode": {
			"linkReferences": {},
			"object": "60806040523480156200001157600080fd5b5060405162001f9438038062001f948339818101604052810190620000379190620001ff565b816000806101000a81548173ffffffffffffffffffffffffffffffffffffffff021916908373ffffffffffffffffffffffffffffffffffffffff16021790555080600190805190602001906200008f92919062000098565b50505062000375565b82805482825590600052602060002090810192821562000114579160200282015b82811115620001135782518260006101000a81548173ffffffffffffffffffffffffffffffffffffffff021916908373ffffffffffffffffffffffffffffffffffffffff16021790555091602001919060010190620000b9565b5b50905062000123919062000127565b5090565b5b808211156200014257600081600090555060010162000128565b5090565b60006200015d620001578462000282565b62000259565b905080838252602082019050828560208602820111156200017d57600080fd5b60005b85811015620001b15781620001968882620001bb565b84526020840193506020830192505060018101905062000180565b5050509392505050565b600081519050620001cc816200035b565b92915050565b600082601f830112620001e457600080fd5b8151620001f684826020860162000146565b91505092915050565b600080604083850312156200021357600080fd5b60006200022385828601620001bb565b925050602083015167ffffffffffffffff8111156200024157600080fd5b6200024f85828601620001d2565b9150509250929050565b60006200026562000278565b9050620002738282620002e5565b919050565b6000604051905090565b600067ffffffffffffffff821115620002a0576200029f6200031b565b5b602082029050602081019050919050565b6000620002be82620002c5565b9050919050565b600073ffffffffffffffffffffffffffffffffffffffff82169050919050565b620002f0826200034a565b810181811067ffffffffffffffff821117156200031257620003116200031b565b5b80604052505050565b7f4e487b7100000000000000000000000000000000000000000000000000000000600052604160045260246000fd5b6000601f19601f8301169050919050565b6200036681620002b1565b81146200037257600080fd5b50565b611c0f80620003856000396000f3fe60806040526004361061004e5760003560e01c806317764f0b146100575780634333c5a514610080578063515fdde3146100a95780639358928b146100d2578063e3511faf146100fd57610055565b3661005557005b005b34801561006357600080fd5b5061007e6004803603810190610079919061131a565b610126565b005b34801561008c57600080fd5b506100a760048036038101906100a2919061125c565b6102f2565b005b3480156100b557600080fd5b506100d060048036038101906100cb9190611204565b610505565b005b3480156100de57600080fd5b506100e761079d565b6040516100f49190611672565b60405180910390f35b34801561010957600080fd5b50610124600480360381019061011f919061129d565b61097f565b005b60008054906101000a900473ffffffffffffffffffffffffffffffffffffffff1673ffffffffffffffffffffffffffffffffffffffff163373ffffffffffffffffffffffffffffffffffffffff16146101b4576040517f08c379a00000000000000000000000000000000000000000000000000000000081526004016101ab906115b2565b60405180910390fd5b600073ffffffffffffffffffffffffffffffffffffffff1660018281548110610206577f4e487b7100000000000000000000000000000000000000000000000000000000600052603260045260246000fd5b9060005260206000200160009054906101000a900473ffffffffffffffffffffffffffffffffffffffff1673ffffffffffffffffffffffffffffffffffffffff161415610288576040517f08c379a000000000000000000000000000000000000000000000000000000000815260040161027f90611612565b60405180910390fd5b600181815481106102c2577f4e487b7100000000000000000000000000000000000000000000000000000000600052603260045260246000fd5b9060005260206000200160006101000a81549073ffffffffffffffffffffffffffffffffffffffff021916905550565b60008054906101000a900473ffffffffffffffffffffffffffffffffffffffff1673ffffffffffffffffffffffffffffffffffffffff163373ffffffffffffffffffffffffffffffffffffffff1614610380576040517f08c379a0000000000000000000000000000000000000000000000000000000008152600401610377906115b2565b60405180910390fd5b60005b81518162ffffff16101561050157600073ffffffffffffffffffffffffffffffffffffffff16828262ffffff16815181106103e7577f4e487b7100000000000000000000000000000000000000000000000000000000600052603260045260246000fd5b602002602001015173ffffffffffffffffffffffffffffffffffffffff161415610446576040517f08c379a000000000000000000000000000000000000000000000000000000000815260040161043d906115d2565b60405180910390fd5b6001828262ffffff1681518110610486577f4e487b7100000000000000000000000000000000000000000000000000000000600052603260045260246000fd5b60200260200101519080600181540180825580915050600190039060005260206000200160009091909190916101000a81548173ffffffffffffffffffffffffffffffffffffffff021916908373ffffffffffffffffffffffffffffffffffffffff16021790555080806104f990611928565b915050610383565b5050565b60008054906101000a900473ffffffffffffffffffffffffffffffffffffffff1673ffffffffffffffffffffffffffffffffffffffff163373ffffffffffffffffffffffffffffffffffffffff1614610593576040517f08c379a000000000000000000000000000000000000000000000000000000000815260040161058a906115b2565b60405180910390fd5b600030905060005b838390508162ffffff16101561071757610704828686868562ffffff168181106105ee577f4e487b7100000000000000000000000000000000000000000000000000000000600052603260045260246000fd5b905060200201602081019061060391906111db565b73ffffffffffffffffffffffffffffffffffffffff166370a08231866040518263ffffffff1660e01b815260040161063b91906114ec565b60206040518083038186803b15801561065357600080fd5b505afa158015610667573d6000803e3d6000fd5b505050506040513d601f19601f8201168201806040525081019061068b9190611343565b87878662ffffff168181106106c9577f4e487b7100000000000000000000000000000000000000000000000000000000600052603260045260246000fd5b90506020020160208101906106de91906111db565b73ffffffffffffffffffffffffffffffffffffffff16610d16909392919063ffffffff16565b808061070f90611928565b91505061059b565b5060008173ffffffffffffffffffffffffffffffffffffffff16311115610797578373ffffffffffffffffffffffffffffffffffffffff166108fc8273ffffffffffffffffffffffffffffffffffffffff16319081150290604051600060405180830381858888f19350505050158015610795573d6000803e3d6000fd5b505b50505050565b60008060005b6001805490508162ffffff1610156108db577337c997b35c619c21323f3518b9357914e8b9952573ffffffffffffffffffffffffffffffffffffffff166370a0823160018362ffffff1681548110610824577f4e487b7100000000000000000000000000000000000000000000000000000000600052603260045260246000fd5b9060005260206000200160009054906101000a900473ffffffffffffffffffffffffffffffffffffffff166040518263ffffffff1660e01b815260040161086b91906114ec565b60206040518083038186803b15801561088357600080fd5b505afa158015610897573d6000803e3d6000fd5b505050506040513d601f19601f820116820180604052508101906108bb9190611343565b826108c69190611710565b915080806108d390611928565b9150506107a3565b50807337c997b35c619c21323f3518b9357914e8b9952573ffffffffffffffffffffffffffffffffffffffff166318160ddd6040518163ffffffff1660e01b815260040160206040518083038186803b15801561093757600080fd5b505afa15801561094b573d6000803e3d6000fd5b505050506040513d601f19601f8201168201806040525081019061096f9190611343565b61097991906117f1565b91505090565b600080600061098c61079d565b905060004290506000339050600030905083670de0b6b3a7640000886109b29190611797565b6109bc9190611766565b95507337c997b35c619c21323f3518b9357914e8b9952573ffffffffffffffffffffffffffffffffffffffff166379cc679083896040518363ffffffff1660e01b8152600401610a0d929190611507565b600060405180830381600087803b158015610a2757600080fd5b505af1158015610a3b573d6000803e3d6000fd5b5050505060005b8851811015610d0b57600073ffffffffffffffffffffffffffffffffffffffff16898281518110610a9c577f4e487b7100000000000000000000000000000000000000000000000000000000600052603260045260246000fd5b602002602001015173ffffffffffffffffffffffffffffffffffffffff1614610b8d57888181518110610af8577f4e487b7100000000000000000000000000000000000000000000000000000000600052603260045260246000fd5b602002602001015173ffffffffffffffffffffffffffffffffffffffff166370a08231836040518263ffffffff1660e01b8152600401610b3891906114ec565b60206040518083038186803b158015610b5057600080fd5b505afa158015610b64573d6000803e3d6000fd5b505050506040513d601f19601f82011682018060405250810190610b889190611343565b610ba6565b8173ffffffffffffffffffffffffffffffffffffffff16315b95506000670de0b6b3a76400008888610bbf9190611797565b610bc99190611766565b9050600073ffffffffffffffffffffffffffffffffffffffff168a8381518110610c1c577f4e487b7100000000000000000000000000000000000000000000000000000000600052603260045260246000fd5b602002602001015173ffffffffffffffffffffffffffffffffffffffff1614610caf57610caa84828c8581518110610c7d577f4e487b7100000000000000000000000000000000000000000000000000000000600052603260045260246000fd5b602002602001015173ffffffffffffffffffffffffffffffffffffffff16610d9f9092919063ffffffff16565b610cf7565b8373ffffffffffffffffffffffffffffffffffffffff166108fc829081150290604051600060405180830381858888f19350505050158015610cf5573d6000803e3d6000fd5b505b508080610d0390611954565b915050610a42565b505050505050505050565b610d99846323b872dd60e01b858585604051602401610d3793929190611530565b604051602081830303815290604052907bffffffffffffffffffffffffffffffffffffffffffffffffffffffff19166020820180517bffffffffffffffffffffffffffffffffffffffffffffffffffffffff8381831617835250505050610e25565b50505050565b610e208363a9059cbb60e01b8484604051602401610dbe929190611567565b604051602081830303815290604052907bffffffffffffffffffffffffffffffffffffffffffffffffffffffff19166020820180517bffffffffffffffffffffffffffffffffffffffffffffffffffffffff8381831617835250505050610e25565b505050565b6000610e87826040518060400160405280602081526020017f5361666545524332303a206c6f772d6c6576656c2063616c6c206661696c65648152508573ffffffffffffffffffffffffffffffffffffffff16610eec9092919063ffffffff16565b9050600081511115610ee75780806020019051810190610ea791906112f1565b610ee6576040517f08c379a0000000000000000000000000000000000000000000000000000000008152600401610edd90611652565b60405180910390fd5b5b505050565b6060610efb8484600085610f04565b90509392505050565b606082471015610f49576040517f08c379a0000000000000000000000000000000000000000000000000000000008152600401610f40906115f2565b60405180910390fd5b610f5285611018565b610f91576040517f08c379a0000000000000000000000000000000000000000000000000000000008152600401610f8890611632565b60405180910390fd5b6000808673ffffffffffffffffffffffffffffffffffffffff168587604051610fba91906114d5565b60006040518083038185875af1925050503d8060008114610ff7576040519150601f19603f3d011682016040523d82523d6000602084013e610ffc565b606091505b509150915061100c82828661102b565b92505050949350505050565b600080823b905060008111915050919050565b6060831561103b5782905061108b565b60008351111561104e5782518084602001fd5b816040517f08c379a00000000000000000000000000000000000000000000000000000000081526004016110829190611590565b60405180910390fd5b9392505050565b60006110a56110a0846116b2565b61168d565b905080838252602082019050828560208602820111156110c457600080fd5b60005b858110156110f457816110da88826110fe565b8452602084019350602083019250506001810190506110c7565b5050509392505050565b60008135905061110d81611b7d565b92915050565b60008135905061112281611b94565b92915050565b60008083601f84011261113a57600080fd5b8235905067ffffffffffffffff81111561115357600080fd5b60208301915083602082028301111561116b57600080fd5b9250929050565b600082601f83011261118357600080fd5b8135611193848260208601611092565b91505092915050565b6000815190506111ab81611bab565b92915050565b6000813590506111c081611bc2565b92915050565b6000815190506111d581611bc2565b92915050565b6000602082840312156111ed57600080fd5b60006111fb848285016110fe565b91505092915050565b60008060006040848603121561121957600080fd5b600061122786828701611113565b935050602084013567ffffffffffffffff81111561124457600080fd5b61125086828701611128565b92509250509250925092565b60006020828403121561126e57600080fd5b600082013567ffffffffffffffff81111561128857600080fd5b61129484828501611172565b91505092915050565b600080604083850312156112b057600080fd5b600083013567ffffffffffffffff8111156112ca57600080fd5b6112d685828601611172565b92505060206112e7858286016111b1565b9150509250929050565b60006020828403121561130357600080fd5b60006113118482850161119c565b91505092915050565b60006020828403121561132c57600080fd5b600061133a848285016111b1565b91505092915050565b60006020828403121561135557600080fd5b6000611363848285016111c6565b91505092915050565b6113758161188e565b82525050565b61138481611825565b82525050565b6000611395826116de565b61139f81856116f4565b93506113af8185602086016118c4565b80840191505092915050565b60006113c6826116e9565b6113d081856116ff565b93506113e08185602086016118c4565b6113e981611a2a565b840191505092915050565b60006114016019836116ff565b915061140c82611a3b565b602082019050919050565b60006114246019836116ff565b915061142f82611a64565b602082019050919050565b60006114476026836116ff565b915061145282611a8d565b604082019050919050565b600061146a601f836116ff565b915061147582611adc565b602082019050919050565b600061148d601d836116ff565b915061149882611b05565b602082019050919050565b60006114b0602a836116ff565b91506114bb82611b2e565b604082019050919050565b6114cf81611884565b82525050565b60006114e1828461138a565b915081905092915050565b6000602082019050611501600083018461137b565b92915050565b600060408201905061151c600083018561136c565b61152960208301846114c6565b9392505050565b6000606082019050611545600083018661137b565b611552602083018561137b565b61155f60408301846114c6565b949350505050565b600060408201905061157c600083018561137b565b61158960208301846114c6565b9392505050565b600060208201905081810360008301526115aa81846113bb565b905092915050565b600060208201905081810360008301526115cb816113f4565b9050919050565b600060208201905081810360008301526115eb81611417565b9050919050565b6000602082019050818103600083015261160b8161143a565b9050919050565b6000602082019050818103600083015261162b8161145d565b9050919050565b6000602082019050818103600083015261164b81611480565b9050919050565b6000602082019050818103600083015261166b816114a3565b9050919050565b600060208201905061168760008301846114c6565b92915050565b60006116976116a8565b90506116a382826118f7565b919050565b6000604051905090565b600067ffffffffffffffff8211156116cd576116cc6119fb565b5b602082029050602081019050919050565b600081519050919050565b600081519050919050565b600081905092915050565b600082825260208201905092915050565b600061171b82611884565b915061172683611884565b9250827fffffffffffffffffffffffffffffffffffffffffffffffffffffffffffffffff0382111561175b5761175a61199d565b5b828201905092915050565b600061177182611884565b915061177c83611884565b92508261178c5761178b6119cc565b5b828204905092915050565b60006117a282611884565b91506117ad83611884565b9250817fffffffffffffffffffffffffffffffffffffffffffffffffffffffffffffffff04831182151516156117e6576117e561199d565b5b828202905092915050565b60006117fc82611884565b915061180783611884565b92508282101561181a5761181961199d565b5b828203905092915050565b600061183082611855565b9050919050565b600061184282611855565b9050919050565b60008115159050919050565b600073ffffffffffffffffffffffffffffffffffffffff82169050919050565b600062ffffff82169050919050565b6000819050919050565b6000611899826118a0565b9050919050565b60006118ab826118b2565b9050919050565b60006118bd82611855565b9050919050565b60005b838110156118e25780820151818401526020810190506118c7565b838111156118f1576000848401525b50505050565b61190082611a2a565b810181811067ffffffffffffffff8211171561191f5761191e6119fb565b5b80604052505050565b600061193382611875565b915062ffffff8214156119495761194861199d565b5b600182019050919050565b600061195f82611884565b91507fffffffffffffffffffffffffffffffffffffffffffffffffffffffffffffffff8214156119925761199161199d565b5b600182019050919050565b7f4e487b7100000000000000000000000000000000000000000000000000000000600052601160045260246000fd5b7f4e487b7100000000000000000000000000000000000000000000000000000000600052601260045260246000fd5b7f4e487b7100000000000000000000000000000000000000000000000000000000600052604160045260246000fd5b6000601f19601f8301169050919050565b7f494e4445585f46554e443a3a204e4f545f54494d454c4f434b00000000000000600082015250565b7f494e4445585f46554e443a3a205a45524f5f4144445245535300000000000000600082015250565b7f416464726573733a20696e73756666696369656e742062616c616e636520666f60008201527f722063616c6c0000000000000000000000000000000000000000000000000000602082015250565b7f494e4445585f46554e443a3a20454c454d454e545f4e4f545f45584953545300600082015250565b7f416464726573733a2063616c6c20746f206e6f6e2d636f6e7472616374000000600082015250565b7f5361666545524332303a204552433230206f7065726174696f6e20646964206e60008201527f6f74207375636365656400000000000000000000000000000000000000000000602082015250565b611b8681611825565b8114611b9157600080fd5b50565b611b9d81611837565b8114611ba857600080fd5b50565b611bb481611849565b8114611bbf57600080fd5b50565b611bcb81611884565b8114611bd657600080fd5b5056fea26469706673582212208b8bc0e4c03287b43db5531ba59ff73a262a4a817f3dbb108f61c6904314fd0964736f6c63430008040033",
			"opcodes": "PUSH1 0x80 PUSH1 0x40 MSTORE CALLVALUE DUP1 ISZERO PUSH3 0x11 JUMPI PUSH1 0x0 DUP1 REVERT JUMPDEST POP PUSH1 0x40 MLOAD PUSH3 0x1F94 CODESIZE SUB DUP1 PUSH3 0x1F94 DUP4 CODECOPY DUP2 DUP2 ADD PUSH1 0x40 MSTORE DUP2 ADD SWAP1 PUSH3 0x37 SWAP2 SWAP1 PUSH3 0x1FF JUMP JUMPDEST DUP2 PUSH1 0x0 DUP1 PUSH2 0x100 EXP DUP2 SLOAD DUP2 PUSH20 0xFFFFFFFFFFFFFFFFFFFFFFFFFFFFFFFFFFFFFFFF MUL NOT AND SWAP1 DUP4 PUSH20 0xFFFFFFFFFFFFFFFFFFFFFFFFFFFFFFFFFFFFFFFF AND MUL OR SWAP1 SSTORE POP DUP1 PUSH1 0x1 SWAP1 DUP1 MLOAD SWAP1 PUSH1 0x20 ADD SWAP1 PUSH3 0x8F SWAP3 SWAP2 SWAP1 PUSH3 0x98 JUMP JUMPDEST POP POP POP PUSH3 0x375 JUMP JUMPDEST DUP3 DUP1 SLOAD DUP3 DUP3 SSTORE SWAP1 PUSH1 0x0 MSTORE PUSH1 0x20 PUSH1 0x0 KECCAK256 SWAP1 DUP2 ADD SWAP3 DUP3 ISZERO PUSH3 0x114 JUMPI SWAP2 PUSH1 0x20 MUL DUP3 ADD JUMPDEST DUP3 DUP2 GT ISZERO PUSH3 0x113 JUMPI DUP3 MLOAD DUP3 PUSH1 0x0 PUSH2 0x100 EXP DUP2 SLOAD DUP2 PUSH20 0xFFFFFFFFFFFFFFFFFFFFFFFFFFFFFFFFFFFFFFFF MUL NOT AND SWAP1 DUP4 PUSH20 0xFFFFFFFFFFFFFFFFFFFFFFFFFFFFFFFFFFFFFFFF AND MUL OR SWAP1 SSTORE POP SWAP2 PUSH1 0x20 ADD SWAP2 SWAP1 PUSH1 0x1 ADD SWAP1 PUSH3 0xB9 JUMP JUMPDEST JUMPDEST POP SWAP1 POP PUSH3 0x123 SWAP2 SWAP1 PUSH3 0x127 JUMP JUMPDEST POP SWAP1 JUMP JUMPDEST JUMPDEST DUP1 DUP3 GT ISZERO PUSH3 0x142 JUMPI PUSH1 0x0 DUP2 PUSH1 0x0 SWAP1 SSTORE POP PUSH1 0x1 ADD PUSH3 0x128 JUMP JUMPDEST POP SWAP1 JUMP JUMPDEST PUSH1 0x0 PUSH3 0x15D PUSH3 0x157 DUP5 PUSH3 0x282 JUMP JUMPDEST PUSH3 0x259 JUMP JUMPDEST SWAP1 POP DUP1 DUP4 DUP3 MSTORE PUSH1 0x20 DUP3 ADD SWAP1 POP DUP3 DUP6 PUSH1 0x20 DUP7 MUL DUP3 ADD GT ISZERO PUSH3 0x17D JUMPI PUSH1 0x0 DUP1 REVERT JUMPDEST PUSH1 0x0 JUMPDEST DUP6 DUP2 LT ISZERO PUSH3 0x1B1 JUMPI DUP2 PUSH3 0x196 DUP9 DUP3 PUSH3 0x1BB JUMP JUMPDEST DUP5 MSTORE PUSH1 0x20 DUP5 ADD SWAP4 POP PUSH1 0x20 DUP4 ADD SWAP3 POP POP PUSH1 0x1 DUP2 ADD SWAP1 POP PUSH3 0x180 JUMP JUMPDEST POP POP POP SWAP4 SWAP3 POP POP POP JUMP JUMPDEST PUSH1 0x0 DUP2 MLOAD SWAP1 POP PUSH3 0x1CC DUP2 PUSH3 0x35B JUMP JUMPDEST SWAP3 SWAP2 POP POP JUMP JUMPDEST PUSH1 0x0 DUP3 PUSH1 0x1F DUP4 ADD SLT PUSH3 0x1E4 JUMPI PUSH1 0x0 DUP1 REVERT JUMPDEST DUP2 MLOAD PUSH3 0x1F6 DUP5 DUP3 PUSH1 0x20 DUP7 ADD PUSH3 0x146 JUMP JUMPDEST SWAP2 POP POP SWAP3 SWAP2 POP POP JUMP JUMPDEST PUSH1 0x0 DUP1 PUSH1 0x40 DUP4 DUP6 SUB SLT ISZERO PUSH3 0x213 JUMPI PUSH1 0x0 DUP1 REVERT JUMPDEST PUSH1 0x0 PUSH3 0x223 DUP6 DUP3 DUP7 ADD PUSH3 0x1BB JUMP JUMPDEST SWAP3 POP POP PUSH1 0x20 DUP4 ADD MLOAD PUSH8 0xFFFFFFFFFFFFFFFF DUP2 GT ISZERO PUSH3 0x241 JUMPI PUSH1 0x0 DUP1 REVERT JUMPDEST PUSH3 0x24F DUP6 DUP3 DUP7 ADD PUSH3 0x1D2 JUMP JUMPDEST SWAP2 POP POP SWAP3 POP SWAP3 SWAP1 POP JUMP JUMPDEST PUSH1 0x0 PUSH3 0x265 PUSH3 0x278 JUMP JUMPDEST SWAP1 POP PUSH3 0x273 DUP3 DUP3 PUSH3 0x2E5 JUMP JUMPDEST SWAP2 SWAP1 POP JUMP JUMPDEST PUSH1 0x0 PUSH1 0x40 MLOAD SWAP1 POP SWAP1 JUMP JUMPDEST PUSH1 0x0 PUSH8 0xFFFFFFFFFFFFFFFF DUP3 GT ISZERO PUSH3 0x2A0 JUMPI PUSH3 0x29F PUSH3 0x31B JUMP JUMPDEST JUMPDEST PUSH1 0x20 DUP3 MUL SWAP1 POP PUSH1 0x20 DUP2 ADD SWAP1 POP SWAP2 SWAP1 POP JUMP JUMPDEST PUSH1 0x0 PUSH3 0x2BE DUP3 PUSH3 0x2C5 JUMP JUMPDEST SWAP1 POP SWAP2 SWAP1 POP JUMP JUMPDEST PUSH1 0x0 PUSH20 0xFFFFFFFFFFFFFFFFFFFFFFFFFFFFFFFFFFFFFFFF DUP3 AND SWAP1 POP SWAP2 SWAP1 POP JUMP JUMPDEST PUSH3 0x2F0 DUP3 PUSH3 0x34A JUMP JUMPDEST DUP2 ADD DUP2 DUP2 LT PUSH8 0xFFFFFFFFFFFFFFFF DUP3 GT OR ISZERO PUSH3 0x312 JUMPI PUSH3 0x311 PUSH3 0x31B JUMP JUMPDEST JUMPDEST DUP1 PUSH1 0x40 MSTORE POP POP POP JUMP JUMPDEST PUSH32 0x4E487B7100000000000000000000000000000000000000000000000000000000 PUSH1 0x0 MSTORE PUSH1 0x41 PUSH1 0x4 MSTORE PUSH1 0x24 PUSH1 0x0 REVERT JUMPDEST PUSH1 0x0 PUSH1 0x1F NOT PUSH1 0x1F DUP4 ADD AND SWAP1 POP SWAP2 SWAP1 POP JUMP JUMPDEST PUSH3 0x366 DUP2 PUSH3 0x2B1 JUMP JUMPDEST DUP2 EQ PUSH3 0x372 JUMPI PUSH1 0x0 DUP1 REVERT JUMPDEST POP JUMP JUMPDEST PUSH2 0x1C0F DUP1 PUSH3 0x385 PUSH1 0x0 CODECOPY PUSH1 0x0 RETURN INVALID PUSH1 0x80 PUSH1 0x40 MSTORE PUSH1 0x4 CALLDATASIZE LT PUSH2 0x4E JUMPI PUSH1 0x0 CALLDATALOAD PUSH1 0xE0 SHR DUP1 PUSH4 0x17764F0B EQ PUSH2 0x57 JUMPI DUP1 PUSH4 0x4333C5A5 EQ PUSH2 0x80 JUMPI DUP1 PUSH4 0x515FDDE3 EQ PUSH2 0xA9 JUMPI DUP1 PUSH4 0x9358928B EQ PUSH2 0xD2 JUMPI DUP1 PUSH4 0xE3511FAF EQ PUSH2 0xFD JUMPI PUSH2 0x55 JUMP JUMPDEST CALLDATASIZE PUSH2 0x55 JUMPI STOP JUMPDEST STOP JUMPDEST CALLVALUE DUP1 ISZERO PUSH2 0x63 JUMPI PUSH1 0x0 DUP1 REVERT JUMPDEST POP PUSH2 0x7E PUSH1 0x4 DUP1 CALLDATASIZE SUB DUP2 ADD SWAP1 PUSH2 0x79 SWAP2 SWAP1 PUSH2 0x131A JUMP JUMPDEST PUSH2 0x126 JUMP JUMPDEST STOP JUMPDEST CALLVALUE DUP1 ISZERO PUSH2 0x8C JUMPI PUSH1 0x0 DUP1 REVERT JUMPDEST POP PUSH2 0xA7 PUSH1 0x4 DUP1 CALLDATASIZE SUB DUP2 ADD SWAP1 PUSH2 0xA2 SWAP2 SWAP1 PUSH2 0x125C JUMP JUMPDEST PUSH2 0x2F2 JUMP JUMPDEST STOP JUMPDEST CALLVALUE DUP1 ISZERO PUSH2 0xB5 JUMPI PUSH1 0x0 DUP1 REVERT JUMPDEST POP PUSH2 0xD0 PUSH1 0x4 DUP1 CALLDATASIZE SUB DUP2 ADD SWAP1 PUSH2 0xCB SWAP2 SWAP1 PUSH2 0x1204 JUMP JUMPDEST PUSH2 0x505 JUMP JUMPDEST STOP JUMPDEST CALLVALUE DUP1 ISZERO PUSH2 0xDE JUMPI PUSH1 0x0 DUP1 REVERT JUMPDEST POP PUSH2 0xE7 PUSH2 0x79D JUMP JUMPDEST PUSH1 0x40 MLOAD PUSH2 0xF4 SWAP2 SWAP1 PUSH2 0x1672 JUMP JUMPDEST PUSH1 0x40 MLOAD DUP1 SWAP2 SUB SWAP1 RETURN JUMPDEST CALLVALUE DUP1 ISZERO PUSH2 0x109 JUMPI PUSH1 0x0 DUP1 REVERT JUMPDEST POP PUSH2 0x124 PUSH1 0x4 DUP1 CALLDATASIZE SUB DUP2 ADD SWAP1 PUSH2 0x11F SWAP2 SWAP1 PUSH2 0x129D JUMP JUMPDEST PUSH2 0x97F JUMP JUMPDEST STOP JUMPDEST PUSH1 0x0 DUP1 SLOAD SWAP1 PUSH2 0x100 EXP SWAP1 DIV PUSH20 0xFFFFFFFFFFFFFFFFFFFFFFFFFFFFFFFFFFFFFFFF AND PUSH20 0xFFFFFFFFFFFFFFFFFFFFFFFFFFFFFFFFFFFFFFFF AND CALLER PUSH20 0xFFFFFFFFFFFFFFFFFFFFFFFFFFFFFFFFFFFFFFFF AND EQ PUSH2 0x1B4 JUMPI PUSH1 0x40 MLOAD PUSH32 0x8C379A000000000000000000000000000000000000000000000000000000000 DUP2 MSTORE PUSH1 0x4 ADD PUSH2 0x1AB SWAP1 PUSH2 0x15B2 JUMP JUMPDEST PUSH1 0x40 MLOAD DUP1 SWAP2 SUB SWAP1 REVERT JUMPDEST PUSH1 0x0 PUSH20 0xFFFFFFFFFFFFFFFFFFFFFFFFFFFFFFFFFFFFFFFF AND PUSH1 0x1 DUP3 DUP2 SLOAD DUP2 LT PUSH2 0x206 JUMPI PUSH32 0x4E487B7100000000000000000000000000000000000000000000000000000000 PUSH1 0x0 MSTORE PUSH1 0x32 PUSH1 0x4 MSTORE PUSH1 0x24 PUSH1 0x0 REVERT JUMPDEST SWAP1 PUSH1 0x0 MSTORE PUSH1 0x20 PUSH1 0x0 KECCAK256 ADD PUSH1 0x0 SWAP1 SLOAD SWAP1 PUSH2 0x100 EXP SWAP1 DIV PUSH20 0xFFFFFFFFFFFFFFFFFFFFFFFFFFFFFFFFFFFFFFFF AND PUSH20 0xFFFFFFFFFFFFFFFFFFFFFFFFFFFFFFFFFFFFFFFF AND EQ ISZERO PUSH2 0x288 JUMPI PUSH1 0x40 MLOAD PUSH32 0x8C379A000000000000000000000000000000000000000000000000000000000 DUP2 MSTORE PUSH1 0x4 ADD PUSH2 0x27F SWAP1 PUSH2 0x1612 JUMP JUMPDEST PUSH1 0x40 MLOAD DUP1 SWAP2 SUB SWAP1 REVERT JUMPDEST PUSH1 0x1 DUP2 DUP2 SLOAD DUP2 LT PUSH2 0x2C2 JUMPI PUSH32 0x4E487B7100000000000000000000000000000000000000000000000000000000 PUSH1 0x0 MSTORE PUSH1 0x32 PUSH1 0x4 MSTORE PUSH1 0x24 PUSH1 0x0 REVERT JUMPDEST SWAP1 PUSH1 0x0 MSTORE PUSH1 0x20 PUSH1 0x0 KECCAK256 ADD PUSH1 0x0 PUSH2 0x100 EXP DUP2 SLOAD SWAP1 PUSH20 0xFFFFFFFFFFFFFFFFFFFFFFFFFFFFFFFFFFFFFFFF MUL NOT AND SWAP1 SSTORE POP JUMP JUMPDEST PUSH1 0x0 DUP1 SLOAD SWAP1 PUSH2 0x100 EXP SWAP1 DIV PUSH20 0xFFFFFFFFFFFFFFFFFFFFFFFFFFFFFFFFFFFFFFFF AND PUSH20 0xFFFFFFFFFFFFFFFFFFFFFFFFFFFFFFFFFFFFFFFF AND CALLER PUSH20 0xFFFFFFFFFFFFFFFFFFFFFFFFFFFFFFFFFFFFFFFF AND EQ PUSH2 0x380 JUMPI PUSH1 0x40 MLOAD PUSH32 0x8C379A000000000000000000000000000000000000000000000000000000000 DUP2 MSTORE PUSH1 0x4 ADD PUSH2 0x377 SWAP1 PUSH2 0x15B2 JUMP JUMPDEST PUSH1 0x40 MLOAD DUP1 SWAP2 SUB SWAP1 REVERT JUMPDEST PUSH1 0x0 JUMPDEST DUP2 MLOAD DUP2 PUSH3 0xFFFFFF AND LT ISZERO PUSH2 0x501 JUMPI PUSH1 0x0 PUSH20 0xFFFFFFFFFFFFFFFFFFFFFFFFFFFFFFFFFFFFFFFF AND DUP3 DUP3 PUSH3 0xFFFFFF AND DUP2 MLOAD DUP2 LT PUSH2 0x3E7 JUMPI PUSH32 0x4E487B7100000000000000000000000000000000000000000000000000000000 PUSH1 0x0 MSTORE PUSH1 0x32 PUSH1 0x4 MSTORE PUSH1 0x24 PUSH1 0x0 REVERT JUMPDEST PUSH1 0x20 MUL PUSH1 0x20 ADD ADD MLOAD PUSH20 0xFFFFFFFFFFFFFFFFFFFFFFFFFFFFFFFFFFFFFFFF AND EQ ISZERO PUSH2 0x446 JUMPI PUSH1 0x40 MLOAD PUSH32 0x8C379A000000000000000000000000000000000000000000000000000000000 DUP2 MSTORE PUSH1 0x4 ADD PUSH2 0x43D SWAP1 PUSH2 0x15D2 JUMP JUMPDEST PUSH1 0x40 MLOAD DUP1 SWAP2 SUB SWAP1 REVERT JUMPDEST PUSH1 0x1 DUP3 DUP3 PUSH3 0xFFFFFF AND DUP2 MLOAD DUP2 LT PUSH2 0x486 JUMPI PUSH32 0x4E487B7100000000000000000000000000000000000000000000000000000000 PUSH1 0x0 MSTORE PUSH1 0x32 PUSH1 0x4 MSTORE PUSH1 0x24 PUSH1 0x0 REVERT JUMPDEST PUSH1 0x20 MUL PUSH1 0x20 ADD ADD MLOAD SWAP1 DUP1 PUSH1 0x1 DUP2 SLOAD ADD DUP1 DUP3 SSTORE DUP1 SWAP2 POP POP PUSH1 0x1 SWAP1 SUB SWAP1 PUSH1 0x0 MSTORE PUSH1 0x20 PUSH1 0x0 KECCAK256 ADD PUSH1 0x0 SWAP1 SWAP2 SWAP1 SWAP2 SWAP1 SWAP2 PUSH2 0x100 EXP DUP2 SLOAD DUP2 PUSH20 0xFFFFFFFFFFFFFFFFFFFFFFFFFFFFFFFFFFFFFFFF MUL NOT AND SWAP1 DUP4 PUSH20 0xFFFFFFFFFFFFFFFFFFFFFFFFFFFFFFFFFFFFFFFF AND MUL OR SWAP1 SSTORE POP DUP1 DUP1 PUSH2 0x4F9 SWAP1 PUSH2 0x1928 JUMP JUMPDEST SWAP2 POP POP PUSH2 0x383 JUMP JUMPDEST POP POP JUMP JUMPDEST PUSH1 0x0 DUP1 SLOAD SWAP1 PUSH2 0x100 EXP SWAP1 DIV PUSH20 0xFFFFFFFFFFFFFFFFFFFFFFFFFFFFFFFFFFFFFFFF AND PUSH20 0xFFFFFFFFFFFFFFFFFFFFFFFFFFFFFFFFFFFFFFFF AND CALLER PUSH20 0xFFFFFFFFFFFFFFFFFFFFFFFFFFFFFFFFFFFFFFFF AND EQ PUSH2 0x593 JUMPI PUSH1 0x40 MLOAD PUSH32 0x8C379A000000000000000000000000000000000000000000000000000000000 DUP2 MSTORE PUSH1 0x4 ADD PUSH2 0x58A SWAP1 PUSH2 0x15B2 JUMP JUMPDEST PUSH1 0x40 MLOAD DUP1 SWAP2 SUB SWAP1 REVERT JUMPDEST PUSH1 0x0 ADDRESS SWAP1 POP PUSH1 0x0 JUMPDEST DUP4 DUP4 SWAP1 POP DUP2 PUSH3 0xFFFFFF AND LT ISZERO PUSH2 0x717 JUMPI PUSH2 0x704 DUP3 DUP7 DUP7 DUP7 DUP6 PUSH3 0xFFFFFF AND DUP2 DUP2 LT PUSH2 0x5EE JUMPI PUSH32 0x4E487B7100000000000000000000000000000000000000000000000000000000 PUSH1 0x0 MSTORE PUSH1 0x32 PUSH1 0x4 MSTORE PUSH1 0x24 PUSH1 0x0 REVERT JUMPDEST SWAP1 POP PUSH1 0x20 MUL ADD PUSH1 0x20 DUP2 ADD SWAP1 PUSH2 0x603 SWAP2 SWAP1 PUSH2 0x11DB JUMP JUMPDEST PUSH20 0xFFFFFFFFFFFFFFFFFFFFFFFFFFFFFFFFFFFFFFFF AND PUSH4 0x70A08231 DUP7 PUSH1 0x40 MLOAD DUP3 PUSH4 0xFFFFFFFF AND PUSH1 0xE0 SHL DUP2 MSTORE PUSH1 0x4 ADD PUSH2 0x63B SWAP2 SWAP1 PUSH2 0x14EC JUMP JUMPDEST PUSH1 0x20 PUSH1 0x40 MLOAD DUP1 DUP4 SUB DUP2 DUP7 DUP1 EXTCODESIZE ISZERO DUP1 ISZERO PUSH2 0x653 JUMPI PUSH1 0x0 DUP1 REVERT JUMPDEST POP GAS STATICCALL ISZERO DUP1 ISZERO PUSH2 0x667 JUMPI RETURNDATASIZE PUSH1 0x0 DUP1 RETURNDATACOPY RETURNDATASIZE PUSH1 0x0 REVERT JUMPDEST POP POP POP POP PUSH1 0x40 MLOAD RETURNDATASIZE PUSH1 0x1F NOT PUSH1 0x1F DUP3 ADD AND DUP3 ADD DUP1 PUSH1 0x40 MSTORE POP DUP2 ADD SWAP1 PUSH2 0x68B SWAP2 SWAP1 PUSH2 0x1343 JUMP JUMPDEST DUP8 DUP8 DUP7 PUSH3 0xFFFFFF AND DUP2 DUP2 LT PUSH2 0x6C9 JUMPI PUSH32 0x4E487B7100000000000000000000000000000000000000000000000000000000 PUSH1 0x0 MSTORE PUSH1 0x32 PUSH1 0x4 MSTORE PUSH1 0x24 PUSH1 0x0 REVERT JUMPDEST SWAP1 POP PUSH1 0x20 MUL ADD PUSH1 0x20 DUP2 ADD SWAP1 PUSH2 0x6DE SWAP2 SWAP1 PUSH2 0x11DB JUMP JUMPDEST PUSH20 0xFFFFFFFFFFFFFFFFFFFFFFFFFFFFFFFFFFFFFFFF AND PUSH2 0xD16 SWAP1 SWAP4 SWAP3 SWAP2 SWAP1 PUSH4 0xFFFFFFFF AND JUMP JUMPDEST DUP1 DUP1 PUSH2 0x70F SWAP1 PUSH2 0x1928 JUMP JUMPDEST SWAP2 POP POP PUSH2 0x59B JUMP JUMPDEST POP PUSH1 0x0 DUP2 PUSH20 0xFFFFFFFFFFFFFFFFFFFFFFFFFFFFFFFFFFFFFFFF AND BALANCE GT ISZERO PUSH2 0x797 JUMPI DUP4 PUSH20 0xFFFFFFFFFFFFFFFFFFFFFFFFFFFFFFFFFFFFFFFF AND PUSH2 0x8FC DUP3 PUSH20 0xFFFFFFFFFFFFFFFFFFFFFFFFFFFFFFFFFFFFFFFF AND BALANCE SWAP1 DUP2 ISZERO MUL SWAP1 PUSH1 0x40 MLOAD PUSH1 0x0 PUSH1 0x40 MLOAD DUP1 DUP4 SUB DUP2 DUP6 DUP9 DUP9 CALL SWAP4 POP POP POP POP ISZERO DUP1 ISZERO PUSH2 0x795 JUMPI RETURNDATASIZE PUSH1 0x0 DUP1 RETURNDATACOPY RETURNDATASIZE PUSH1 0x0 REVERT JUMPDEST POP JUMPDEST POP POP POP POP JUMP JUMPDEST PUSH1 0x0 DUP1 PUSH1 0x0 JUMPDEST PUSH1 0x1 DUP1 SLOAD SWAP1 POP DUP2 PUSH3 0xFFFFFF AND LT ISZERO PUSH2 0x8DB JUMPI PUSH20 0x37C997B35C619C21323F3518B9357914E8B99525 PUSH20 0xFFFFFFFFFFFFFFFFFFFFFFFFFFFFFFFFFFFFFFFF AND PUSH4 0x70A08231 PUSH1 0x1 DUP4 PUSH3 0xFFFFFF AND DUP2 SLOAD DUP2 LT PUSH2 0x824 JUMPI PUSH32 0x4E487B7100000000000000000000000000000000000000000000000000000000 PUSH1 0x0 MSTORE PUSH1 0x32 PUSH1 0x4 MSTORE PUSH1 0x24 PUSH1 0x0 REVERT JUMPDEST SWAP1 PUSH1 0x0 MSTORE PUSH1 0x20 PUSH1 0x0 KECCAK256 ADD PUSH1 0x0 SWAP1 SLOAD SWAP1 PUSH2 0x100 EXP SWAP1 DIV PUSH20 0xFFFFFFFFFFFFFFFFFFFFFFFFFFFFFFFFFFFFFFFF AND PUSH1 0x40 MLOAD DUP3 PUSH4 0xFFFFFFFF AND PUSH1 0xE0 SHL DUP2 MSTORE PUSH1 0x4 ADD PUSH2 0x86B SWAP2 SWAP1 PUSH2 0x14EC JUMP JUMPDEST PUSH1 0x20 PUSH1 0x40 MLOAD DUP1 DUP4 SUB DUP2 DUP7 DUP1 EXTCODESIZE ISZERO DUP1 ISZERO PUSH2 0x883 JUMPI PUSH1 0x0 DUP1 REVERT JUMPDEST POP GAS STATICCALL ISZERO DUP1 ISZERO PUSH2 0x897 JUMPI RETURNDATASIZE PUSH1 0x0 DUP1 RETURNDATACOPY RETURNDATASIZE PUSH1 0x0 REVERT JUMPDEST POP POP POP POP PUSH1 0x40 MLOAD RETURNDATASIZE PUSH1 0x1F NOT PUSH1 0x1F DUP3 ADD AND DUP3 ADD DUP1 PUSH1 0x40 MSTORE POP DUP2 ADD SWAP1 PUSH2 0x8BB SWAP2 SWAP1 PUSH2 0x1343 JUMP JUMPDEST DUP3 PUSH2 0x8C6 SWAP2 SWAP1 PUSH2 0x1710 JUMP JUMPDEST SWAP2 POP DUP1 DUP1 PUSH2 0x8D3 SWAP1 PUSH2 0x1928 JUMP JUMPDEST SWAP2 POP POP PUSH2 0x7A3 JUMP JUMPDEST POP DUP1 PUSH20 0x37C997B35C619C21323F3518B9357914E8B99525 PUSH20 0xFFFFFFFFFFFFFFFFFFFFFFFFFFFFFFFFFFFFFFFF AND PUSH4 0x18160DDD PUSH1 0x40 MLOAD DUP2 PUSH4 0xFFFFFFFF AND PUSH1 0xE0 SHL DUP2 MSTORE PUSH1 0x4 ADD PUSH1 0x20 PUSH1 0x40 MLOAD DUP1 DUP4 SUB DUP2 DUP7 DUP1 EXTCODESIZE ISZERO DUP1 ISZERO PUSH2 0x937 JUMPI PUSH1 0x0 DUP1 REVERT JUMPDEST POP GAS STATICCALL ISZERO DUP1 ISZERO PUSH2 0x94B JUMPI RETURNDATASIZE PUSH1 0x0 DUP1 RETURNDATACOPY RETURNDATASIZE PUSH1 0x0 REVERT JUMPDEST POP POP POP POP PUSH1 0x40 MLOAD RETURNDATASIZE PUSH1 0x1F NOT PUSH1 0x1F DUP3 ADD AND DUP3 ADD DUP1 PUSH1 0x40 MSTORE POP DUP2 ADD SWAP1 PUSH2 0x96F SWAP2 SWAP1 PUSH2 0x1343 JUMP JUMPDEST PUSH2 0x979 SWAP2 SWAP1 PUSH2 0x17F1 JUMP JUMPDEST SWAP2 POP POP SWAP1 JUMP JUMPDEST PUSH1 0x0 DUP1 PUSH1 0x0 PUSH2 0x98C PUSH2 0x79D JUMP JUMPDEST SWAP1 POP PUSH1 0x0 TIMESTAMP SWAP1 POP PUSH1 0x0 CALLER SWAP1 POP PUSH1 0x0 ADDRESS SWAP1 POP DUP4 PUSH8 0xDE0B6B3A7640000 DUP9 PUSH2 0x9B2 SWAP2 SWAP1 PUSH2 0x1797 JUMP JUMPDEST PUSH2 0x9BC SWAP2 SWAP1 PUSH2 0x1766 JUMP JUMPDEST SWAP6 POP PUSH20 0x37C997B35C619C21323F3518B9357914E8B99525 PUSH20 0xFFFFFFFFFFFFFFFFFFFFFFFFFFFFFFFFFFFFFFFF AND PUSH4 0x79CC6790 DUP4 DUP10 PUSH1 0x40 MLOAD DUP4 PUSH4 0xFFFFFFFF AND PUSH1 0xE0 SHL DUP2 MSTORE PUSH1 0x4 ADD PUSH2 0xA0D SWAP3 SWAP2 SWAP1 PUSH2 0x1507 JUMP JUMPDEST PUSH1 0x0 PUSH1 0x40 MLOAD DUP1 DUP4 SUB DUP2 PUSH1 0x0 DUP8 DUP1 EXTCODESIZE ISZERO DUP1 ISZERO PUSH2 0xA27 JUMPI PUSH1 0x0 DUP1 REVERT JUMPDEST POP GAS CALL ISZERO DUP1 ISZERO PUSH2 0xA3B JUMPI RETURNDATASIZE PUSH1 0x0 DUP1 RETURNDATACOPY RETURNDATASIZE PUSH1 0x0 REVERT JUMPDEST POP POP POP POP PUSH1 0x0 JUMPDEST DUP9 MLOAD DUP2 LT ISZERO PUSH2 0xD0B JUMPI PUSH1 0x0 PUSH20 0xFFFFFFFFFFFFFFFFFFFFFFFFFFFFFFFFFFFFFFFF AND DUP10 DUP3 DUP2 MLOAD DUP2 LT PUSH2 0xA9C JUMPI PUSH32 0x4E487B7100000000000000000000000000000000000000000000000000000000 PUSH1 0x0 MSTORE PUSH1 0x32 PUSH1 0x4 MSTORE PUSH1 0x24 PUSH1 0x0 REVERT JUMPDEST PUSH1 0x20 MUL PUSH1 0x20 ADD ADD MLOAD PUSH20 0xFFFFFFFFFFFFFFFFFFFFFFFFFFFFFFFFFFFFFFFF AND EQ PUSH2 0xB8D JUMPI DUP9 DUP2 DUP2 MLOAD DUP2 LT PUSH2 0xAF8 JUMPI PUSH32 0x4E487B7100000000000000000000000000000000000000000000000000000000 PUSH1 0x0 MSTORE PUSH1 0x32 PUSH1 0x4 MSTORE PUSH1 0x24 PUSH1 0x0 REVERT JUMPDEST PUSH1 0x20 MUL PUSH1 0x20 ADD ADD MLOAD PUSH20 0xFFFFFFFFFFFFFFFFFFFFFFFFFFFFFFFFFFFFFFFF AND PUSH4 0x70A08231 DUP4 PUSH1 0x40 MLOAD DUP3 PUSH4 0xFFFFFFFF AND PUSH1 0xE0 SHL DUP2 MSTORE PUSH1 0x4 ADD PUSH2 0xB38 SWAP2 SWAP1 PUSH2 0x14EC JUMP JUMPDEST PUSH1 0x20 PUSH1 0x40 MLOAD DUP1 DUP4 SUB DUP2 DUP7 DUP1 EXTCODESIZE ISZERO DUP1 ISZERO PUSH2 0xB50 JUMPI PUSH1 0x0 DUP1 REVERT JUMPDEST POP GAS STATICCALL ISZERO DUP1 ISZERO PUSH2 0xB64 JUMPI RETURNDATASIZE PUSH1 0x0 DUP1 RETURNDATACOPY RETURNDATASIZE PUSH1 0x0 REVERT JUMPDEST POP POP POP POP PUSH1 0x40 MLOAD RETURNDATASIZE PUSH1 0x1F NOT PUSH1 0x1F DUP3 ADD AND DUP3 ADD DUP1 PUSH1 0x40 MSTORE POP DUP2 ADD SWAP1 PUSH2 0xB88 SWAP2 SWAP1 PUSH2 0x1343 JUMP JUMPDEST PUSH2 0xBA6 JUMP JUMPDEST DUP2 PUSH20 0xFFFFFFFFFFFFFFFFFFFFFFFFFFFFFFFFFFFFFFFF AND BALANCE JUMPDEST SWAP6 POP PUSH1 0x0 PUSH8 0xDE0B6B3A7640000 DUP9 DUP9 PUSH2 0xBBF SWAP2 SWAP1 PUSH2 0x1797 JUMP JUMPDEST PUSH2 0xBC9 SWAP2 SWAP1 PUSH2 0x1766 JUMP JUMPDEST SWAP1 POP PUSH1 0x0 PUSH20 0xFFFFFFFFFFFFFFFFFFFFFFFFFFFFFFFFFFFFFFFF AND DUP11 DUP4 DUP2 MLOAD DUP2 LT PUSH2 0xC1C JUMPI PUSH32 0x4E487B7100000000000000000000000000000000000000000000000000000000 PUSH1 0x0 MSTORE PUSH1 0x32 PUSH1 0x4 MSTORE PUSH1 0x24 PUSH1 0x0 REVERT JUMPDEST PUSH1 0x20 MUL PUSH1 0x20 ADD ADD MLOAD PUSH20 0xFFFFFFFFFFFFFFFFFFFFFFFFFFFFFFFFFFFFFFFF AND EQ PUSH2 0xCAF JUMPI PUSH2 0xCAA DUP5 DUP3 DUP13 DUP6 DUP2 MLOAD DUP2 LT PUSH2 0xC7D JUMPI PUSH32 0x4E487B7100000000000000000000000000000000000000000000000000000000 PUSH1 0x0 MSTORE PUSH1 0x32 PUSH1 0x4 MSTORE PUSH1 0x24 PUSH1 0x0 REVERT JUMPDEST PUSH1 0x20 MUL PUSH1 0x20 ADD ADD MLOAD PUSH20 0xFFFFFFFFFFFFFFFFFFFFFFFFFFFFFFFFFFFFFFFF AND PUSH2 0xD9F SWAP1 SWAP3 SWAP2 SWAP1 PUSH4 0xFFFFFFFF AND JUMP JUMPDEST PUSH2 0xCF7 JUMP JUMPDEST DUP4 PUSH20 0xFFFFFFFFFFFFFFFFFFFFFFFFFFFFFFFFFFFFFFFF AND PUSH2 0x8FC DUP3 SWAP1 DUP2 ISZERO MUL SWAP1 PUSH1 0x40 MLOAD PUSH1 0x0 PUSH1 0x40 MLOAD DUP1 DUP4 SUB DUP2 DUP6 DUP9 DUP9 CALL SWAP4 POP POP POP POP ISZERO DUP1 ISZERO PUSH2 0xCF5 JUMPI RETURNDATASIZE PUSH1 0x0 DUP1 RETURNDATACOPY RETURNDATASIZE PUSH1 0x0 REVERT JUMPDEST POP JUMPDEST POP DUP1 DUP1 PUSH2 0xD03 SWAP1 PUSH2 0x1954 JUMP JUMPDEST SWAP2 POP POP PUSH2 0xA42 JUMP JUMPDEST POP POP POP POP POP POP POP POP POP JUMP JUMPDEST PUSH2 0xD99 DUP5 PUSH4 0x23B872DD PUSH1 0xE0 SHL DUP6 DUP6 DUP6 PUSH1 0x40 MLOAD PUSH1 0x24 ADD PUSH2 0xD37 SWAP4 SWAP3 SWAP2 SWAP1 PUSH2 0x1530 JUMP JUMPDEST PUSH1 0x40 MLOAD PUSH1 0x20 DUP2 DUP4 SUB SUB DUP2 MSTORE SWAP1 PUSH1 0x40 MSTORE SWAP1 PUSH28 0xFFFFFFFFFFFFFFFFFFFFFFFFFFFFFFFFFFFFFFFFFFFFFFFFFFFFFFFF NOT AND PUSH1 0x20 DUP3 ADD DUP1 MLOAD PUSH28 0xFFFFFFFFFFFFFFFFFFFFFFFFFFFFFFFFFFFFFFFFFFFFFFFFFFFFFFFF DUP4 DUP2 DUP4 AND OR DUP4 MSTORE POP POP POP POP PUSH2 0xE25 JUMP JUMPDEST POP POP POP POP JUMP JUMPDEST PUSH2 0xE20 DUP4 PUSH4 0xA9059CBB PUSH1 0xE0 SHL DUP5 DUP5 PUSH1 0x40 MLOAD PUSH1 0x24 ADD PUSH2 0xDBE SWAP3 SWAP2 SWAP1 PUSH2 0x1567 JUMP JUMPDEST PUSH1 0x40 MLOAD PUSH1 0x20 DUP2 DUP4 SUB SUB DUP2 MSTORE SWAP1 PUSH1 0x40 MSTORE SWAP1 PUSH28 0xFFFFFFFFFFFFFFFFFFFFFFFFFFFFFFFFFFFFFFFFFFFFFFFFFFFFFFFF NOT AND PUSH1 0x20 DUP3 ADD DUP1 MLOAD PUSH28 0xFFFFFFFFFFFFFFFFFFFFFFFFFFFFFFFFFFFFFFFFFFFFFFFFFFFFFFFF DUP4 DUP2 DUP4 AND OR DUP4 MSTORE POP POP POP POP PUSH2 0xE25 JUMP JUMPDEST POP POP POP JUMP JUMPDEST PUSH1 0x0 PUSH2 0xE87 DUP3 PUSH1 0x40 MLOAD DUP1 PUSH1 0x40 ADD PUSH1 0x40 MSTORE DUP1 PUSH1 0x20 DUP2 MSTORE PUSH1 0x20 ADD PUSH32 0x5361666545524332303A206C6F772D6C6576656C2063616C6C206661696C6564 DUP2 MSTORE POP DUP6 PUSH20 0xFFFFFFFFFFFFFFFFFFFFFFFFFFFFFFFFFFFFFFFF AND PUSH2 0xEEC SWAP1 SWAP3 SWAP2 SWAP1 PUSH4 0xFFFFFFFF AND JUMP JUMPDEST SWAP1 POP PUSH1 0x0 DUP2 MLOAD GT ISZERO PUSH2 0xEE7 JUMPI DUP1 DUP1 PUSH1 0x20 ADD SWAP1 MLOAD DUP2 ADD SWAP1 PUSH2 0xEA7 SWAP2 SWAP1 PUSH2 0x12F1 JUMP JUMPDEST PUSH2 0xEE6 JUMPI PUSH1 0x40 MLOAD PUSH32 0x8C379A000000000000000000000000000000000000000000000000000000000 DUP2 MSTORE PUSH1 0x4 ADD PUSH2 0xEDD SWAP1 PUSH2 0x1652 JUMP JUMPDEST PUSH1 0x40 MLOAD DUP1 SWAP2 SUB SWAP1 REVERT JUMPDEST JUMPDEST POP POP POP JUMP JUMPDEST PUSH1 0x60 PUSH2 0xEFB DUP5 DUP5 PUSH1 0x0 DUP6 PUSH2 0xF04 JUMP JUMPDEST SWAP1 POP SWAP4 SWAP3 POP POP POP JUMP JUMPDEST PUSH1 0x60 DUP3 SELFBALANCE LT ISZERO PUSH2 0xF49 JUMPI PUSH1 0x40 MLOAD PUSH32 0x8C379A000000000000000000000000000000000000000000000000000000000 DUP2 MSTORE PUSH1 0x4 ADD PUSH2 0xF40 SWAP1 PUSH2 0x15F2 JUMP JUMPDEST PUSH1 0x40 MLOAD DUP1 SWAP2 SUB SWAP1 REVERT JUMPDEST PUSH2 0xF52 DUP6 PUSH2 0x1018 JUMP JUMPDEST PUSH2 0xF91 JUMPI PUSH1 0x40 MLOAD PUSH32 0x8C379A000000000000000000000000000000000000000000000000000000000 DUP2 MSTORE PUSH1 0x4 ADD PUSH2 0xF88 SWAP1 PUSH2 0x1632 JUMP JUMPDEST PUSH1 0x40 MLOAD DUP1 SWAP2 SUB SWAP1 REVERT JUMPDEST PUSH1 0x0 DUP1 DUP7 PUSH20 0xFFFFFFFFFFFFFFFFFFFFFFFFFFFFFFFFFFFFFFFF AND DUP6 DUP8 PUSH1 0x40 MLOAD PUSH2 0xFBA SWAP2 SWAP1 PUSH2 0x14D5 JUMP JUMPDEST PUSH1 0x0 PUSH1 0x40 MLOAD DUP1 DUP4 SUB DUP2 DUP6 DUP8 GAS CALL SWAP3 POP POP POP RETURNDATASIZE DUP1 PUSH1 0x0 DUP2 EQ PUSH2 0xFF7 JUMPI PUSH1 0x40 MLOAD SWAP2 POP PUSH1 0x1F NOT PUSH1 0x3F RETURNDATASIZE ADD AND DUP3 ADD PUSH1 0x40 MSTORE RETURNDATASIZE DUP3 MSTORE RETURNDATASIZE PUSH1 0x0 PUSH1 0x20 DUP5 ADD RETURNDATACOPY PUSH2 0xFFC JUMP JUMPDEST PUSH1 0x60 SWAP2 POP JUMPDEST POP SWAP2 POP SWAP2 POP PUSH2 0x100C DUP3 DUP3 DUP7 PUSH2 0x102B JUMP JUMPDEST SWAP3 POP POP POP SWAP5 SWAP4 POP POP POP POP JUMP JUMPDEST PUSH1 0x0 DUP1 DUP3 EXTCODESIZE SWAP1 POP PUSH1 0x0 DUP2 GT SWAP2 POP POP SWAP2 SWAP1 POP JUMP JUMPDEST PUSH1 0x60 DUP4 ISZERO PUSH2 0x103B JUMPI DUP3 SWAP1 POP PUSH2 0x108B JUMP JUMPDEST PUSH1 0x0 DUP4 MLOAD GT ISZERO PUSH2 0x104E JUMPI DUP3 MLOAD DUP1 DUP5 PUSH1 0x20 ADD REVERT JUMPDEST DUP2 PUSH1 0x40 MLOAD PUSH32 0x8C379A000000000000000000000000000000000000000000000000000000000 DUP2 MSTORE PUSH1 0x4 ADD PUSH2 0x1082 SWAP2 SWAP1 PUSH2 0x1590 JUMP JUMPDEST PUSH1 0x40 MLOAD DUP1 SWAP2 SUB SWAP1 REVERT JUMPDEST SWAP4 SWAP3 POP POP POP JUMP JUMPDEST PUSH1 0x0 PUSH2 0x10A5 PUSH2 0x10A0 DUP5 PUSH2 0x16B2 JUMP JUMPDEST PUSH2 0x168D JUMP JUMPDEST SWAP1 POP DUP1 DUP4 DUP3 MSTORE PUSH1 0x20 DUP3 ADD SWAP1 POP DUP3 DUP6 PUSH1 0x20 DUP7 MUL DUP3 ADD GT ISZERO PUSH2 0x10C4 JUMPI PUSH1 0x0 DUP1 REVERT JUMPDEST PUSH1 0x0 JUMPDEST DUP6 DUP2 LT ISZERO PUSH2 0x10F4 JUMPI DUP2 PUSH2 0x10DA DUP9 DUP3 PUSH2 0x10FE JUMP JUMPDEST DUP5 MSTORE PUSH1 0x20 DUP5 ADD SWAP4 POP PUSH1 0x20 DUP4 ADD SWAP3 POP POP PUSH1 0x1 DUP2 ADD SWAP1 POP PUSH2 0x10C7 JUMP JUMPDEST POP POP POP SWAP4 SWAP3 POP POP POP JUMP JUMPDEST PUSH1 0x0 DUP2 CALLDATALOAD SWAP1 POP PUSH2 0x110D DUP2 PUSH2 0x1B7D JUMP JUMPDEST SWAP3 SWAP2 POP POP JUMP JUMPDEST PUSH1 0x0 DUP2 CALLDATALOAD SWAP1 POP PUSH2 0x1122 DUP2 PUSH2 0x1B94 JUMP JUMPDEST SWAP3 SWAP2 POP POP JUMP JUMPDEST PUSH1 0x0 DUP1 DUP4 PUSH1 0x1F DUP5 ADD SLT PUSH2 0x113A JUMPI PUSH1 0x0 DUP1 REVERT JUMPDEST DUP3 CALLDATALOAD SWAP1 POP PUSH8 0xFFFFFFFFFFFFFFFF DUP2 GT ISZERO PUSH2 0x1153 JUMPI PUSH1 0x0 DUP1 REVERT JUMPDEST PUSH1 0x20 DUP4 ADD SWAP2 POP DUP4 PUSH1 0x20 DUP3 MUL DUP4 ADD GT ISZERO PUSH2 0x116B JUMPI PUSH1 0x0 DUP1 REVERT JUMPDEST SWAP3 POP SWAP3 SWAP1 POP JUMP JUMPDEST PUSH1 0x0 DUP3 PUSH1 0x1F DUP4 ADD SLT PUSH2 0x1183 JUMPI PUSH1 0x0 DUP1 REVERT JUMPDEST DUP2 CALLDATALOAD PUSH2 0x1193 DUP5 DUP3 PUSH1 0x20 DUP7 ADD PUSH2 0x1092 JUMP JUMPDEST SWAP2 POP POP SWAP3 SWAP2 POP POP JUMP JUMPDEST PUSH1 0x0 DUP2 MLOAD SWAP1 POP PUSH2 0x11AB DUP2 PUSH2 0x1BAB JUMP JUMPDEST SWAP3 SWAP2 POP POP JUMP JUMPDEST PUSH1 0x0 DUP2 CALLDATALOAD SWAP1 POP PUSH2 0x11C0 DUP2 PUSH2 0x1BC2 JUMP JUMPDEST SWAP3 SWAP2 POP POP JUMP JUMPDEST PUSH1 0x0 DUP2 MLOAD SWAP1 POP PUSH2 0x11D5 DUP2 PUSH2 0x1BC2 JUMP JUMPDEST SWAP3 SWAP2 POP POP JUMP JUMPDEST PUSH1 0x0 PUSH1 0x20 DUP3 DUP5 SUB SLT ISZERO PUSH2 0x11ED JUMPI PUSH1 0x0 DUP1 REVERT JUMPDEST PUSH1 0x0 PUSH2 0x11FB DUP5 DUP3 DUP6 ADD PUSH2 0x10FE JUMP JUMPDEST SWAP2 POP POP SWAP3 SWAP2 POP POP JUMP JUMPDEST PUSH1 0x0 DUP1 PUSH1 0x0 PUSH1 0x40 DUP5 DUP7 SUB SLT ISZERO PUSH2 0x1219 JUMPI PUSH1 0x0 DUP1 REVERT JUMPDEST PUSH1 0x0 PUSH2 0x1227 DUP7 DUP3 DUP8 ADD PUSH2 0x1113 JUMP JUMPDEST SWAP4 POP POP PUSH1 0x20 DUP5 ADD CALLDATALOAD PUSH8 0xFFFFFFFFFFFFFFFF DUP2 GT ISZERO PUSH2 0x1244 JUMPI PUSH1 0x0 DUP1 REVERT JUMPDEST PUSH2 0x1250 DUP7 DUP3 DUP8 ADD PUSH2 0x1128 JUMP JUMPDEST SWAP3 POP SWAP3 POP POP SWAP3 POP SWAP3 POP SWAP3 JUMP JUMPDEST PUSH1 0x0 PUSH1 0x20 DUP3 DUP5 SUB SLT ISZERO PUSH2 0x126E JUMPI PUSH1 0x0 DUP1 REVERT JUMPDEST PUSH1 0x0 DUP3 ADD CALLDATALOAD PUSH8 0xFFFFFFFFFFFFFFFF DUP2 GT ISZERO PUSH2 0x1288 JUMPI PUSH1 0x0 DUP1 REVERT JUMPDEST PUSH2 0x1294 DUP5 DUP3 DUP6 ADD PUSH2 0x1172 JUMP JUMPDEST SWAP2 POP POP SWAP3 SWAP2 POP POP JUMP JUMPDEST PUSH1 0x0 DUP1 PUSH1 0x40 DUP4 DUP6 SUB SLT ISZERO PUSH2 0x12B0 JUMPI PUSH1 0x0 DUP1 REVERT JUMPDEST PUSH1 0x0 DUP4 ADD CALLDATALOAD PUSH8 0xFFFFFFFFFFFFFFFF DUP2 GT ISZERO PUSH2 0x12CA JUMPI PUSH1 0x0 DUP1 REVERT JUMPDEST PUSH2 0x12D6 DUP6 DUP3 DUP7 ADD PUSH2 0x1172 JUMP JUMPDEST SWAP3 POP POP PUSH1 0x20 PUSH2 0x12E7 DUP6 DUP3 DUP7 ADD PUSH2 0x11B1 JUMP JUMPDEST SWAP2 POP POP SWAP3 POP SWAP3 SWAP1 POP JUMP JUMPDEST PUSH1 0x0 PUSH1 0x20 DUP3 DUP5 SUB SLT ISZERO PUSH2 0x1303 JUMPI PUSH1 0x0 DUP1 REVERT JUMPDEST PUSH1 0x0 PUSH2 0x1311 DUP5 DUP3 DUP6 ADD PUSH2 0x119C JUMP JUMPDEST SWAP2 POP POP SWAP3 SWAP2 POP POP JUMP JUMPDEST PUSH1 0x0 PUSH1 0x20 DUP3 DUP5 SUB SLT ISZERO PUSH2 0x132C JUMPI PUSH1 0x0 DUP1 REVERT JUMPDEST PUSH1 0x0 PUSH2 0x133A DUP5 DUP3 DUP6 ADD PUSH2 0x11B1 JUMP JUMPDEST SWAP2 POP POP SWAP3 SWAP2 POP POP JUMP JUMPDEST PUSH1 0x0 PUSH1 0x20 DUP3 DUP5 SUB SLT ISZERO PUSH2 0x1355 JUMPI PUSH1 0x0 DUP1 REVERT JUMPDEST PUSH1 0x0 PUSH2 0x1363 DUP5 DUP3 DUP6 ADD PUSH2 0x11C6 JUMP JUMPDEST SWAP2 POP POP SWAP3 SWAP2 POP POP JUMP JUMPDEST PUSH2 0x1375 DUP2 PUSH2 0x188E JUMP JUMPDEST DUP3 MSTORE POP POP JUMP JUMPDEST PUSH2 0x1384 DUP2 PUSH2 0x1825 JUMP JUMPDEST DUP3 MSTORE POP POP JUMP JUMPDEST PUSH1 0x0 PUSH2 0x1395 DUP3 PUSH2 0x16DE JUMP JUMPDEST PUSH2 0x139F DUP2 DUP6 PUSH2 0x16F4 JUMP JUMPDEST SWAP4 POP PUSH2 0x13AF DUP2 DUP6 PUSH1 0x20 DUP7 ADD PUSH2 0x18C4 JUMP JUMPDEST DUP1 DUP5 ADD SWAP2 POP POP SWAP3 SWAP2 POP POP JUMP JUMPDEST PUSH1 0x0 PUSH2 0x13C6 DUP3 PUSH2 0x16E9 JUMP JUMPDEST PUSH2 0x13D0 DUP2 DUP6 PUSH2 0x16FF JUMP JUMPDEST SWAP4 POP PUSH2 0x13E0 DUP2 DUP6 PUSH1 0x20 DUP7 ADD PUSH2 0x18C4 JUMP JUMPDEST PUSH2 0x13E9 DUP2 PUSH2 0x1A2A JUMP JUMPDEST DUP5 ADD SWAP2 POP POP SWAP3 SWAP2 POP POP JUMP JUMPDEST PUSH1 0x0 PUSH2 0x1401 PUSH1 0x19 DUP4 PUSH2 0x16FF JUMP JUMPDEST SWAP2 POP PUSH2 0x140C DUP3 PUSH2 0x1A3B JUMP JUMPDEST PUSH1 0x20 DUP3 ADD SWAP1 POP SWAP2 SWAP1 POP JUMP JUMPDEST PUSH1 0x0 PUSH2 0x1424 PUSH1 0x19 DUP4 PUSH2 0x16FF JUMP JUMPDEST SWAP2 POP PUSH2 0x142F DUP3 PUSH2 0x1A64 JUMP JUMPDEST PUSH1 0x20 DUP3 ADD SWAP1 POP SWAP2 SWAP1 POP JUMP JUMPDEST PUSH1 0x0 PUSH2 0x1447 PUSH1 0x26 DUP4 PUSH2 0x16FF JUMP JUMPDEST SWAP2 POP PUSH2 0x1452 DUP3 PUSH2 0x1A8D JUMP JUMPDEST PUSH1 0x40 DUP3 ADD SWAP1 POP SWAP2 SWAP1 POP JUMP JUMPDEST PUSH1 0x0 PUSH2 0x146A PUSH1 0x1F DUP4 PUSH2 0x16FF JUMP JUMPDEST SWAP2 POP PUSH2 0x1475 DUP3 PUSH2 0x1ADC JUMP JUMPDEST PUSH1 0x20 DUP3 ADD SWAP1 POP SWAP2 SWAP1 POP JUMP JUMPDEST PUSH1 0x0 PUSH2 0x148D PUSH1 0x1D DUP4 PUSH2 0x16FF JUMP JUMPDEST SWAP2 POP PUSH2 0x1498 DUP3 PUSH2 0x1B05 JUMP JUMPDEST PUSH1 0x20 DUP3 ADD SWAP1 POP SWAP2 SWAP1 POP JUMP JUMPDEST PUSH1 0x0 PUSH2 0x14B0 PUSH1 0x2A DUP4 PUSH2 0x16FF JUMP JUMPDEST SWAP2 POP PUSH2 0x14BB DUP3 PUSH2 0x1B2E JUMP JUMPDEST PUSH1 0x40 DUP3 ADD SWAP1 POP SWAP2 SWAP1 POP JUMP JUMPDEST PUSH2 0x14CF DUP2 PUSH2 0x1884 JUMP JUMPDEST DUP3 MSTORE POP POP JUMP JUMPDEST PUSH1 0x0 PUSH2 0x14E1 DUP3 DUP5 PUSH2 0x138A JUMP JUMPDEST SWAP2 POP DUP2 SWAP1 POP SWAP3 SWAP2 POP POP JUMP JUMPDEST PUSH1 0x0 PUSH1 0x20 DUP3 ADD SWAP1 POP PUSH2 0x1501 PUSH1 0x0 DUP4 ADD DUP5 PUSH2 0x137B JUMP JUMPDEST SWAP3 SWAP2 POP POP JUMP JUMPDEST PUSH1 0x0 PUSH1 0x40 DUP3 ADD SWAP1 POP PUSH2 0x151C PUSH1 0x0 DUP4 ADD DUP6 PUSH2 0x136C JUMP JUMPDEST PUSH2 0x1529 PUSH1 0x20 DUP4 ADD DUP5 PUSH2 0x14C6 JUMP JUMPDEST SWAP4 SWAP3 POP POP POP JUMP JUMPDEST PUSH1 0x0 PUSH1 0x60 DUP3 ADD SWAP1 POP PUSH2 0x1545 PUSH1 0x0 DUP4 ADD DUP7 PUSH2 0x137B JUMP JUMPDEST PUSH2 0x1552 PUSH1 0x20 DUP4 ADD DUP6 PUSH2 0x137B JUMP JUMPDEST PUSH2 0x155F PUSH1 0x40 DUP4 ADD DUP5 PUSH2 0x14C6 JUMP JUMPDEST SWAP5 SWAP4 POP POP POP POP JUMP JUMPDEST PUSH1 0x0 PUSH1 0x40 DUP3 ADD SWAP1 POP PUSH2 0x157C PUSH1 0x0 DUP4 ADD DUP6 PUSH2 0x137B JUMP JUMPDEST PUSH2 0x1589 PUSH1 0x20 DUP4 ADD DUP5 PUSH2 0x14C6 JUMP JUMPDEST SWAP4 SWAP3 POP POP POP JUMP JUMPDEST PUSH1 0x0 PUSH1 0x20 DUP3 ADD SWAP1 POP DUP2 DUP2 SUB PUSH1 0x0 DUP4 ADD MSTORE PUSH2 0x15AA DUP2 DUP5 PUSH2 0x13BB JUMP JUMPDEST SWAP1 POP SWAP3 SWAP2 POP POP JUMP JUMPDEST PUSH1 0x0 PUSH1 0x20 DUP3 ADD SWAP1 POP DUP2 DUP2 SUB PUSH1 0x0 DUP4 ADD MSTORE PUSH2 0x15CB DUP2 PUSH2 0x13F4 JUMP JUMPDEST SWAP1 POP SWAP2 SWAP1 POP JUMP JUMPDEST PUSH1 0x0 PUSH1 0x20 DUP3 ADD SWAP1 POP DUP2 DUP2 SUB PUSH1 0x0 DUP4 ADD MSTORE PUSH2 0x15EB DUP2 PUSH2 0x1417 JUMP JUMPDEST SWAP1 POP SWAP2 SWAP1 POP JUMP JUMPDEST PUSH1 0x0 PUSH1 0x20 DUP3 ADD SWAP1 POP DUP2 DUP2 SUB PUSH1 0x0 DUP4 ADD MSTORE PUSH2 0x160B DUP2 PUSH2 0x143A JUMP JUMPDEST SWAP1 POP SWAP2 SWAP1 POP JUMP JUMPDEST PUSH1 0x0 PUSH1 0x20 DUP3 ADD SWAP1 POP DUP2 DUP2 SUB PUSH1 0x0 DUP4 ADD MSTORE PUSH2 0x162B DUP2 PUSH2 0x145D JUMP JUMPDEST SWAP1 POP SWAP2 SWAP1 POP JUMP JUMPDEST PUSH1 0x0 PUSH1 0x20 DUP3 ADD SWAP1 POP DUP2 DUP2 SUB PUSH1 0x0 DUP4 ADD MSTORE PUSH2 0x164B DUP2 PUSH2 0x1480 JUMP JUMPDEST SWAP1 POP SWAP2 SWAP1 POP JUMP JUMPDEST PUSH1 0x0 PUSH1 0x20 DUP3 ADD SWAP1 POP DUP2 DUP2 SUB PUSH1 0x0 DUP4 ADD MSTORE PUSH2 0x166B DUP2 PUSH2 0x14A3 JUMP JUMPDEST SWAP1 POP SWAP2 SWAP1 POP JUMP JUMPDEST PUSH1 0x0 PUSH1 0x20 DUP3 ADD SWAP1 POP PUSH2 0x1687 PUSH1 0x0 DUP4 ADD DUP5 PUSH2 0x14C6 JUMP JUMPDEST SWAP3 SWAP2 POP POP JUMP JUMPDEST PUSH1 0x0 PUSH2 0x1697 PUSH2 0x16A8 JUMP JUMPDEST SWAP1 POP PUSH2 0x16A3 DUP3 DUP3 PUSH2 0x18F7 JUMP JUMPDEST SWAP2 SWAP1 POP JUMP JUMPDEST PUSH1 0x0 PUSH1 0x40 MLOAD SWAP1 POP SWAP1 JUMP JUMPDEST PUSH1 0x0 PUSH8 0xFFFFFFFFFFFFFFFF DUP3 GT ISZERO PUSH2 0x16CD JUMPI PUSH2 0x16CC PUSH2 0x19FB JUMP JUMPDEST JUMPDEST PUSH1 0x20 DUP3 MUL SWAP1 POP PUSH1 0x20 DUP2 ADD SWAP1 POP SWAP2 SWAP1 POP JUMP JUMPDEST PUSH1 0x0 DUP2 MLOAD SWAP1 POP SWAP2 SWAP1 POP JUMP JUMPDEST PUSH1 0x0 DUP2 MLOAD SWAP1 POP SWAP2 SWAP1 POP JUMP JUMPDEST PUSH1 0x0 DUP2 SWAP1 POP SWAP3 SWAP2 POP POP JUMP JUMPDEST PUSH1 0x0 DUP3 DUP3 MSTORE PUSH1 0x20 DUP3 ADD SWAP1 POP SWAP3 SWAP2 POP POP JUMP JUMPDEST PUSH1 0x0 PUSH2 0x171B DUP3 PUSH2 0x1884 JUMP JUMPDEST SWAP2 POP PUSH2 0x1726 DUP4 PUSH2 0x1884 JUMP JUMPDEST SWAP3 POP DUP3 PUSH32 0xFFFFFFFFFFFFFFFFFFFFFFFFFFFFFFFFFFFFFFFFFFFFFFFFFFFFFFFFFFFFFFFF SUB DUP3 GT ISZERO PUSH2 0x175B JUMPI PUSH2 0x175A PUSH2 0x199D JUMP JUMPDEST JUMPDEST DUP3 DUP3 ADD SWAP1 POP SWAP3 SWAP2 POP POP JUMP JUMPDEST PUSH1 0x0 PUSH2 0x1771 DUP3 PUSH2 0x1884 JUMP JUMPDEST SWAP2 POP PUSH2 0x177C DUP4 PUSH2 0x1884 JUMP JUMPDEST SWAP3 POP DUP3 PUSH2 0x178C JUMPI PUSH2 0x178B PUSH2 0x19CC JUMP JUMPDEST JUMPDEST DUP3 DUP3 DIV SWAP1 POP SWAP3 SWAP2 POP POP JUMP JUMPDEST PUSH1 0x0 PUSH2 0x17A2 DUP3 PUSH2 0x1884 JUMP JUMPDEST SWAP2 POP PUSH2 0x17AD DUP4 PUSH2 0x1884 JUMP JUMPDEST SWAP3 POP DUP2 PUSH32 0xFFFFFFFFFFFFFFFFFFFFFFFFFFFFFFFFFFFFFFFFFFFFFFFFFFFFFFFFFFFFFFFF DIV DUP4 GT DUP3 ISZERO ISZERO AND ISZERO PUSH2 0x17E6 JUMPI PUSH2 0x17E5 PUSH2 0x199D JUMP JUMPDEST JUMPDEST DUP3 DUP3 MUL SWAP1 POP SWAP3 SWAP2 POP POP JUMP JUMPDEST PUSH1 0x0 PUSH2 0x17FC DUP3 PUSH2 0x1884 JUMP JUMPDEST SWAP2 POP PUSH2 0x1807 DUP4 PUSH2 0x1884 JUMP JUMPDEST SWAP3 POP DUP3 DUP3 LT ISZERO PUSH2 0x181A JUMPI PUSH2 0x1819 PUSH2 0x199D JUMP JUMPDEST JUMPDEST DUP3 DUP3 SUB SWAP1 POP SWAP3 SWAP2 POP POP JUMP JUMPDEST PUSH1 0x0 PUSH2 0x1830 DUP3 PUSH2 0x1855 JUMP JUMPDEST SWAP1 POP SWAP2 SWAP1 POP JUMP JUMPDEST PUSH1 0x0 PUSH2 0x1842 DUP3 PUSH2 0x1855 JUMP JUMPDEST SWAP1 POP SWAP2 SWAP1 POP JUMP JUMPDEST PUSH1 0x0 DUP2 ISZERO ISZERO SWAP1 POP SWAP2 SWAP1 POP JUMP JUMPDEST PUSH1 0x0 PUSH20 0xFFFFFFFFFFFFFFFFFFFFFFFFFFFFFFFFFFFFFFFF DUP3 AND SWAP1 POP SWAP2 SWAP1 POP JUMP JUMPDEST PUSH1 0x0 PUSH3 0xFFFFFF DUP3 AND SWAP1 POP SWAP2 SWAP1 POP JUMP JUMPDEST PUSH1 0x0 DUP2 SWAP1 POP SWAP2 SWAP1 POP JUMP JUMPDEST PUSH1 0x0 PUSH2 0x1899 DUP3 PUSH2 0x18A0 JUMP JUMPDEST SWAP1 POP SWAP2 SWAP1 POP JUMP JUMPDEST PUSH1 0x0 PUSH2 0x18AB DUP3 PUSH2 0x18B2 JUMP JUMPDEST SWAP1 POP SWAP2 SWAP1 POP JUMP JUMPDEST PUSH1 0x0 PUSH2 0x18BD DUP3 PUSH2 0x1855 JUMP JUMPDEST SWAP1 POP SWAP2 SWAP1 POP JUMP JUMPDEST PUSH1 0x0 JUMPDEST DUP4 DUP2 LT ISZERO PUSH2 0x18E2 JUMPI DUP1 DUP3 ADD MLOAD DUP2 DUP5 ADD MSTORE PUSH1 0x20 DUP2 ADD SWAP1 POP PUSH2 0x18C7 JUMP JUMPDEST DUP4 DUP2 GT ISZERO PUSH2 0x18F1 JUMPI PUSH1 0x0 DUP5 DUP5 ADD MSTORE JUMPDEST POP POP POP POP JUMP JUMPDEST PUSH2 0x1900 DUP3 PUSH2 0x1A2A JUMP JUMPDEST DUP2 ADD DUP2 DUP2 LT PUSH8 0xFFFFFFFFFFFFFFFF DUP3 GT OR ISZERO PUSH2 0x191F JUMPI PUSH2 0x191E PUSH2 0x19FB JUMP JUMPDEST JUMPDEST DUP1 PUSH1 0x40 MSTORE POP POP POP JUMP JUMPDEST PUSH1 0x0 PUSH2 0x1933 DUP3 PUSH2 0x1875 JUMP JUMPDEST SWAP2 POP PUSH3 0xFFFFFF DUP3 EQ ISZERO PUSH2 0x1949 JUMPI PUSH2 0x1948 PUSH2 0x199D JUMP JUMPDEST JUMPDEST PUSH1 0x1 DUP3 ADD SWAP1 POP SWAP2 SWAP1 POP JUMP JUMPDEST PUSH1 0x0 PUSH2 0x195F DUP3 PUSH2 0x1884 JUMP JUMPDEST SWAP2 POP PUSH32 0xFFFFFFFFFFFFFFFFFFFFFFFFFFFFFFFFFFFFFFFFFFFFFFFFFFFFFFFFFFFFFFFF DUP3 EQ ISZERO PUSH2 0x1992 JUMPI PUSH2 0x1991 PUSH2 0x199D JUMP JUMPDEST JUMPDEST PUSH1 0x1 DUP3 ADD SWAP1 POP SWAP2 SWAP1 POP JUMP JUMPDEST PUSH32 0x4E487B7100000000000000000000000000000000000000000000000000000000 PUSH1 0x0 MSTORE PUSH1 0x11 PUSH1 0x4 MSTORE PUSH1 0x24 PUSH1 0x0 REVERT JUMPDEST PUSH32 0x4E487B7100000000000000000000000000000000000000000000000000000000 PUSH1 0x0 MSTORE PUSH1 0x12 PUSH1 0x4 MSTORE PUSH1 0x24 PUSH1 0x0 REVERT JUMPDEST PUSH32 0x4E487B7100000000000000000000000000000000000000000000000000000000 PUSH1 0x0 MSTORE PUSH1 0x41 PUSH1 0x4 MSTORE PUSH1 0x24 PUSH1 0x0 REVERT JUMPDEST PUSH1 0x0 PUSH1 0x1F NOT PUSH1 0x1F DUP4 ADD AND SWAP1 POP SWAP2 SWAP1 POP JUMP JUMPDEST PUSH32 0x494E4445585F46554E443A3A204E4F545F54494D454C4F434B00000000000000 PUSH1 0x0 DUP3 ADD MSTORE POP JUMP JUMPDEST PUSH32 0x494E4445585F46554E443A3A205A45524F5F4144445245535300000000000000 PUSH1 0x0 DUP3 ADD MSTORE POP JUMP JUMPDEST PUSH32 0x416464726573733A20696E73756666696369656E742062616C616E636520666F PUSH1 0x0 DUP3 ADD MSTORE PUSH32 0x722063616C6C0000000000000000000000000000000000000000000000000000 PUSH1 0x20 DUP3 ADD MSTORE POP JUMP JUMPDEST PUSH32 0x494E4445585F46554E443A3A20454C454D454E545F4E4F545F45584953545300 PUSH1 0x0 DUP3 ADD MSTORE POP JUMP JUMPDEST PUSH32 0x416464726573733A2063616C6C20746F206E6F6E2D636F6E7472616374000000 PUSH1 0x0 DUP3 ADD MSTORE POP JUMP JUMPDEST PUSH32 0x5361666545524332303A204552433230206F7065726174696F6E20646964206E PUSH1 0x0 DUP3 ADD MSTORE PUSH32 0x6F74207375636365656400000000000000000000000000000000000000000000 PUSH1 0x20 DUP3 ADD MSTORE POP JUMP JUMPDEST PUSH2 0x1B86 DUP2 PUSH2 0x1825 JUMP JUMPDEST DUP2 EQ PUSH2 0x1B91 JUMPI PUSH1 0x0 DUP1 REVERT JUMPDEST POP JUMP JUMPDEST PUSH2 0x1B9D DUP2 PUSH2 0x1837 JUMP JUMPDEST DUP2 EQ PUSH2 0x1BA8 JUMPI PUSH1 0x0 DUP1 REVERT JUMPDEST POP JUMP JUMPDEST PUSH2 0x1BB4 DUP2 PUSH2 0x1849 JUMP JUMPDEST DUP2 EQ PUSH2 0x1BBF JUMPI PUSH1 0x0 DUP1 REVERT JUMPDEST POP JUMP JUMPDEST PUSH2 0x1BCB DUP2 PUSH2 0x1884 JUMP JUMPDEST DUP2 EQ PUSH2 0x1BD6 JUMPI PUSH1 0x0 DUP1 REVERT JUMPDEST POP JUMP INVALID LOG2 PUSH5 0x6970667358 0x22 SLT KECCAK256 DUP12 DUP12 0xC0 0xE4 0xC0 ORIGIN DUP8 0xB4 RETURNDATASIZE 0xB5 MSTORE8 SHL 0xA5 SWAP16 0xF7 GASPRICE 0x26 0x2A 0x4A DUP2 PUSH32 0x3DBB108F61C6904314FD0964736F6C6343000804003300000000000000000000 "
		},
		"gasEstimates": {
			"creation": {
				"codeDepositCost": "1436600",
				"executionCost": "infinite",
				"totalCost": "infinite"
			},
			"external": {
				"": "173",
				"addLockedFundsAddresses(address[])": "infinite",
				"circulatingSupply()": "infinite",
				"migrateFunds(address,address[])": "infinite",
				"removeLockedFundsAddress(uint256)": "24727",
				"withdraw(address[],uint256)": "infinite"
			}
		},
		"methodIdentifiers": {
			"addLockedFundsAddresses(address[])": "4333c5a5",
			"circulatingSupply()": "9358928b",
			"migrateFunds(address,address[])": "515fdde3",
			"removeLockedFundsAddress(uint256)": "17764f0b",
			"withdraw(address[],uint256)": "e3511faf"
		}
	},
	"abi": [
		{
			"inputs": [
				{
					"internalType": "address",
					"name": "_timelock",
					"type": "address"
				},
				{
					"internalType": "address[]",
					"name": "_lockedFundAddresses",
					"type": "address[]"
				}
			],
			"stateMutability": "nonpayable",
			"type": "constructor"
		},
		{
			"stateMutability": "payable",
			"type": "fallback"
		},
		{
			"inputs": [
				{
					"internalType": "address[]",
					"name": "_accounts",
					"type": "address[]"
				}
			],
			"name": "addLockedFundsAddresses",
			"outputs": [],
			"stateMutability": "nonpayable",
			"type": "function"
		},
		{
			"inputs": [],
			"name": "circulatingSupply",
			"outputs": [
				{
					"internalType": "uint256",
					"name": "circulatingSupply",
					"type": "uint256"
				}
			],
			"stateMutability": "view",
			"type": "function"
		},
		{
			"inputs": [
				{
					"internalType": "address payable",
					"name": "_newVersion",
					"type": "address"
				},
				{
					"internalType": "address[]",
					"name": "tokens",
					"type": "address[]"
				}
			],
			"name": "migrateFunds",
			"outputs": [],
			"stateMutability": "nonpayable",
			"type": "function"
		},
		{
			"inputs": [
				{
					"internalType": "uint256",
					"name": "_index",
					"type": "uint256"
				}
			],
			"name": "removeLockedFundsAddress",
			"outputs": [],
			"stateMutability": "nonpayable",
			"type": "function"
		},
		{
			"inputs": [
				{
					"internalType": "address[]",
					"name": "_tokenAddresses",
					"type": "address[]"
				},
				{
					"internalType": "uint256",
					"name": "_pilotAmount",
					"type": "uint256"
				}
			],
			"name": "withdraw",
			"outputs": [],
			"stateMutability": "nonpayable",
			"type": "function"
		},
		{
			"stateMutability": "payable",
			"type": "receive"
		}
	]
}