{
  "abi": [
    {
      "inputs": [
        {
          "internalType": "address",
          "name": "_pool",
          "type": "address"
        },
        {
          "internalType": "address",
          "name": "_unipilotFactory",
          "type": "address"
        },
        {
          "internalType": "address",
          "name": "_WETH",
          "type": "address"
        },
        {
          "internalType": "string",
          "name": "_name",
          "type": "string"
        },
        {
          "internalType": "string",
          "name": "_symbol",
          "type": "string"
        }
      ],
      "stateMutability": "nonpayable",
      "type": "constructor"
    },
    {
      "anonymous": false,
      "inputs": [
        {
          "indexed": true,
          "internalType": "address",
          "name": "owner",
          "type": "address"
        },
        {
          "indexed": true,
          "internalType": "address",
          "name": "spender",
          "type": "address"
        },
        {
          "indexed": false,
          "internalType": "uint256",
          "name": "value",
          "type": "uint256"
        }
      ],
      "name": "Approval",
      "type": "event"
    },
    {
      "anonymous": false,
      "inputs": [
        {
          "indexed": false,
          "internalType": "uint256",
          "name": "amount0",
          "type": "uint256"
        },
        {
          "indexed": false,
          "internalType": "uint256",
          "name": "amount1",
          "type": "uint256"
        }
      ],
      "name": "CompoundFees",
      "type": "event"
    },
    {
      "anonymous": false,
      "inputs": [
        {
          "indexed": true,
          "internalType": "address",
          "name": "depositor",
          "type": "address"
        },
        {
          "indexed": true,
          "internalType": "address",
          "name": "recipient",
          "type": "address"
        },
        {
          "indexed": false,
          "internalType": "uint256",
          "name": "amount0",
          "type": "uint256"
        },
        {
          "indexed": false,
          "internalType": "uint256",
          "name": "amount1",
          "type": "uint256"
        },
        {
          "indexed": false,
          "internalType": "uint256",
          "name": "lpShares",
          "type": "uint256"
        }
      ],
      "name": "Deposit",
      "type": "event"
    },
    {
      "anonymous": false,
      "inputs": [
        {
          "indexed": false,
          "internalType": "bool",
          "name": "isReadjustLiquidity",
          "type": "bool"
        },
        {
          "indexed": false,
          "internalType": "uint256",
          "name": "fees0",
          "type": "uint256"
        },
        {
          "indexed": false,
          "internalType": "uint256",
          "name": "fees1",
          "type": "uint256"
        },
        {
          "indexed": false,
          "internalType": "uint256",
          "name": "balance0",
          "type": "uint256"
        },
        {
          "indexed": false,
          "internalType": "uint256",
          "name": "balance1",
          "type": "uint256"
        },
        {
          "indexed": false,
          "internalType": "uint256",
          "name": "totalSupply",
          "type": "uint256"
        }
      ],
      "name": "FeesSnapshot",
      "type": "event"
    },
    {
      "anonymous": false,
      "inputs": [
        {
          "indexed": true,
          "internalType": "address",
          "name": "from",
          "type": "address"
        },
        {
          "indexed": true,
          "internalType": "address",
          "name": "to",
          "type": "address"
        },
        {
          "indexed": false,
          "internalType": "uint256",
          "name": "value",
          "type": "uint256"
        }
      ],
      "name": "Transfer",
      "type": "event"
    },
    {
      "anonymous": false,
      "inputs": [
        {
          "indexed": true,
          "internalType": "address",
          "name": "recipient",
          "type": "address"
        },
        {
          "indexed": false,
          "internalType": "uint256",
          "name": "shares",
          "type": "uint256"
        },
        {
          "indexed": false,
          "internalType": "uint256",
          "name": "amount0",
          "type": "uint256"
        },
        {
          "indexed": false,
          "internalType": "uint256",
          "name": "amount1",
          "type": "uint256"
        }
      ],
      "name": "Withdraw",
      "type": "event"
    },
    {
      "stateMutability": "payable",
      "type": "fallback"
    },
    {
      "inputs": [],
      "name": "DOMAIN_SEPARATOR",
      "outputs": [
        {
          "internalType": "bytes32",
          "name": "",
          "type": "bytes32"
        }
      ],
      "stateMutability": "view",
      "type": "function"
    },
    {
      "inputs": [],
      "name": "_balance0",
      "outputs": [
        {
          "internalType": "uint256",
          "name": "",
          "type": "uint256"
        }
      ],
      "stateMutability": "view",
      "type": "function"
    },
    {
      "inputs": [],
      "name": "_balance1",
      "outputs": [
        {
          "internalType": "uint256",
          "name": "",
          "type": "uint256"
        }
      ],
      "stateMutability": "view",
      "type": "function"
    },
    {
      "inputs": [
        {
          "internalType": "address",
          "name": "owner",
          "type": "address"
        },
        {
          "internalType": "address",
          "name": "spender",
          "type": "address"
        }
      ],
      "name": "allowance",
      "outputs": [
        {
          "internalType": "uint256",
          "name": "",
          "type": "uint256"
        }
      ],
      "stateMutability": "view",
      "type": "function"
    },
    {
      "inputs": [
        {
          "internalType": "address",
          "name": "spender",
          "type": "address"
        },
        {
          "internalType": "uint256",
          "name": "amount",
          "type": "uint256"
        }
      ],
      "name": "approve",
      "outputs": [
        {
          "internalType": "bool",
          "name": "",
          "type": "bool"
        }
      ],
      "stateMutability": "nonpayable",
      "type": "function"
    },
    {
      "inputs": [
        {
          "internalType": "address",
          "name": "account",
          "type": "address"
        }
      ],
      "name": "balanceOf",
      "outputs": [
        {
          "internalType": "uint256",
          "name": "",
          "type": "uint256"
        }
      ],
      "stateMutability": "view",
      "type": "function"
    },
    {
      "inputs": [],
      "name": "decimals",
      "outputs": [
        {
          "internalType": "uint8",
          "name": "",
          "type": "uint8"
        }
      ],
      "stateMutability": "view",
      "type": "function"
    },
    {
      "inputs": [
        {
          "internalType": "address",
          "name": "spender",
          "type": "address"
        },
        {
          "internalType": "uint256",
          "name": "subtractedValue",
          "type": "uint256"
        }
      ],
      "name": "decreaseAllowance",
      "outputs": [
        {
          "internalType": "bool",
          "name": "",
          "type": "bool"
        }
      ],
      "stateMutability": "nonpayable",
      "type": "function"
    },
    {
      "inputs": [
        {
          "internalType": "uint256",
          "name": "amount0Desired",
          "type": "uint256"
        },
        {
          "internalType": "uint256",
          "name": "amount1Desired",
          "type": "uint256"
        },
        {
          "internalType": "address",
          "name": "recipient",
          "type": "address"
        }
      ],
      "name": "deposit",
      "outputs": [
        {
          "internalType": "uint256",
          "name": "lpShares",
          "type": "uint256"
        },
        {
          "internalType": "uint256",
          "name": "amount0",
          "type": "uint256"
        },
        {
          "internalType": "uint256",
          "name": "amount1",
          "type": "uint256"
        }
      ],
      "stateMutability": "payable",
      "type": "function"
    },
    {
      "inputs": [],
      "name": "getPositionDetails",
      "outputs": [
        {
          "internalType": "uint256",
          "name": "amount0",
          "type": "uint256"
        },
        {
          "internalType": "uint256",
          "name": "amount1",
          "type": "uint256"
        },
        {
          "internalType": "uint256",
          "name": "fees0",
          "type": "uint256"
        },
        {
          "internalType": "uint256",
          "name": "fees1",
          "type": "uint256"
        },
        {
          "internalType": "uint128",
          "name": "baseLiquidity",
          "type": "uint128"
        },
        {
          "internalType": "uint128",
          "name": "rangeLiquidity",
          "type": "uint128"
        }
      ],
      "stateMutability": "nonpayable",
      "type": "function"
    },
    {
      "inputs": [],
      "name": "getVaultInfo",
      "outputs": [
        {
          "internalType": "address",
          "name": "",
          "type": "address"
        },
        {
          "internalType": "address",
          "name": "",
          "type": "address"
        },
        {
          "internalType": "uint24",
          "name": "",
          "type": "uint24"
        },
        {
          "internalType": "address",
          "name": "",
          "type": "address"
        }
      ],
      "stateMutability": "view",
      "type": "function"
    },
    {
      "inputs": [
        {
          "internalType": "address",
          "name": "spender",
          "type": "address"
        },
        {
          "internalType": "uint256",
          "name": "addedValue",
          "type": "uint256"
        }
      ],
      "name": "increaseAllowance",
      "outputs": [
        {
          "internalType": "bool",
          "name": "",
          "type": "bool"
        }
      ],
      "stateMutability": "nonpayable",
      "type": "function"
    },
    {
      "inputs": [],
      "name": "init",
      "outputs": [],
      "stateMutability": "nonpayable",
      "type": "function"
    },
    {
      "inputs": [],
      "name": "name",
      "outputs": [
        {
          "internalType": "string",
          "name": "",
          "type": "string"
        }
      ],
      "stateMutability": "view",
      "type": "function"
    },
    {
      "inputs": [
        {
          "internalType": "address",
          "name": "owner",
          "type": "address"
        }
      ],
      "name": "nonces",
      "outputs": [
        {
          "internalType": "uint256",
          "name": "",
          "type": "uint256"
        }
      ],
      "stateMutability": "view",
      "type": "function"
    },
    {
      "inputs": [
        {
          "internalType": "address",
          "name": "owner",
          "type": "address"
        },
        {
          "internalType": "address",
          "name": "spender",
          "type": "address"
        },
        {
          "internalType": "uint256",
          "name": "value",
          "type": "uint256"
        },
        {
          "internalType": "uint256",
          "name": "deadline",
          "type": "uint256"
        },
        {
          "internalType": "uint8",
          "name": "v",
          "type": "uint8"
        },
        {
          "internalType": "bytes32",
          "name": "r",
          "type": "bytes32"
        },
        {
          "internalType": "bytes32",
          "name": "s",
          "type": "bytes32"
        }
      ],
      "name": "permit",
      "outputs": [],
      "stateMutability": "nonpayable",
      "type": "function"
    },
    {
      "inputs": [],
      "name": "pullLiquidity",
      "outputs": [],
      "stateMutability": "nonpayable",
      "type": "function"
    },
    {
      "inputs": [],
      "name": "readjustLiquidity",
      "outputs": [],
      "stateMutability": "nonpayable",
      "type": "function"
    },
    {
      "inputs": [],
      "name": "symbol",
      "outputs": [
        {
          "internalType": "string",
          "name": "",
          "type": "string"
        }
      ],
      "stateMutability": "view",
      "type": "function"
    },
    {
      "inputs": [],
      "name": "ticksData",
      "outputs": [
        {
          "internalType": "int24",
          "name": "baseTickLower",
          "type": "int24"
        },
        {
          "internalType": "int24",
          "name": "baseTickUpper",
          "type": "int24"
        },
        {
          "internalType": "int24",
          "name": "rangeTickLower",
          "type": "int24"
        },
        {
          "internalType": "int24",
          "name": "rangeTickUpper",
          "type": "int24"
        }
      ],
      "stateMutability": "view",
      "type": "function"
    },
    {
      "inputs": [],
      "name": "totalSupply",
      "outputs": [
        {
          "internalType": "uint256",
          "name": "",
          "type": "uint256"
        }
      ],
      "stateMutability": "view",
      "type": "function"
    },
    {
      "inputs": [
        {
          "internalType": "address",
          "name": "recipient",
          "type": "address"
        },
        {
          "internalType": "uint256",
          "name": "amount",
          "type": "uint256"
        }
      ],
      "name": "transfer",
      "outputs": [
        {
          "internalType": "bool",
          "name": "",
          "type": "bool"
        }
      ],
      "stateMutability": "nonpayable",
      "type": "function"
    },
    {
      "inputs": [
        {
          "internalType": "address",
          "name": "sender",
          "type": "address"
        },
        {
          "internalType": "address",
          "name": "recipient",
          "type": "address"
        },
        {
          "internalType": "uint256",
          "name": "amount",
          "type": "uint256"
        }
      ],
      "name": "transferFrom",
      "outputs": [
        {
          "internalType": "bool",
          "name": "",
          "type": "bool"
        }
      ],
      "stateMutability": "nonpayable",
      "type": "function"
    },
    {
      "inputs": [
        {
          "internalType": "uint256",
          "name": "amount0Owed",
          "type": "uint256"
        },
        {
          "internalType": "uint256",
          "name": "amount1Owed",
          "type": "uint256"
        },
        {
          "internalType": "bytes",
          "name": "data",
          "type": "bytes"
        }
      ],
      "name": "uniswapV3MintCallback",
      "outputs": [],
      "stateMutability": "nonpayable",
      "type": "function"
    },
    {
      "inputs": [
        {
          "internalType": "int256",
          "name": "amount0",
          "type": "int256"
        },
        {
          "internalType": "int256",
          "name": "amount1",
          "type": "int256"
        },
        {
          "internalType": "bytes",
          "name": "data",
          "type": "bytes"
        }
      ],
      "name": "uniswapV3SwapCallback",
      "outputs": [],
      "stateMutability": "nonpayable",
      "type": "function"
    },
    {
      "inputs": [
        {
          "internalType": "uint256",
          "name": "liquidity",
          "type": "uint256"
        },
        {
          "internalType": "address",
          "name": "recipient",
          "type": "address"
        },
        {
          "internalType": "bool",
          "name": "refundAsETH",
          "type": "bool"
        }
      ],
      "name": "withdraw",
      "outputs": [
        {
          "internalType": "uint256",
          "name": "amount0",
          "type": "uint256"
        },
        {
          "internalType": "uint256",
          "name": "amount1",
          "type": "uint256"
        }
      ],
      "stateMutability": "nonpayable",
      "type": "function"
    },
    {
      "stateMutability": "payable",
      "type": "receive"
    }
  ],
  "bytecode": {
    "object": "0x6101406040527f6e71edae12b1b97f4d1f60370fef10105fa2faae0126114a169c64845d6126c961012052600d805463ff000000191663010000001790553480156200004a57600080fd5b506040516200517d3803806200517d8339810160408190526200006d91620005ca565b8180604051806040016040528060018152602001603160f81b81525084848160039080519060200190620000a392919062000442565b508051620000b990600490602084019062000442565b50506005805460ff1916601217905550815160208084019190912082519183019190912060c082905260e08190527f8b73c3c69bb8fe3d512ecc4cf759cc79239f7b179b0ffacaa9a75d522b39400f62000112620003da565b60a05262000122818484620003de565b608052610100525050600b80546001600160a01b038089166001600160a01b031992831617909255600a80548a8416908316179055600980548b84169216919091179081905560408051630dfe168160e01b81529051919092169450630dfe1681935060048083019350602092829003018186803b158015620001a457600080fd5b505afa158015620001b9573d6000803e3d6000fd5b505050506040513d601f19601f82011682018060405250810190620001df9190620005a6565b600780546001600160a01b0319166001600160a01b039283161790556009546040805163d21220a760e01b81529051919092169163d21220a7916004808301926020929190829003018186803b1580156200023957600080fd5b505afa1580156200024e573d6000803e3d6000fd5b505050506040513d601f19601f82011682018060405250810190620002749190620005a6565b600880546001600160a01b0319166001600160a01b039283161790556009546040805163ddca3f4360e01b81529051919092169163ddca3f43916004808301926020929190829003018186803b158015620002ce57600080fd5b505afa158015620002e3573d6000803e3d6000fd5b505050506040513d601f19601f820116820180604052508101906200030991906200068d565b600d60046101000a81548162ffffff021916908362ffffff160217905550600960009054906101000a90046001600160a01b03166001600160a01b031663d0c93a7c6040518163ffffffff1660e01b815260040160206040518083038186803b1580156200037657600080fd5b505afa1580156200038b573d6000803e3d6000fd5b505050506040513d601f19601f82011682018060405250810190620003b191906200066a565b600d805460029290920b62ffffff1662ffffff1990921691909117905550620006b29350505050565b4690565b6000838383620003ed620003da565b3060405160200180868152602001858152602001848152602001838152602001826001600160a01b03168152602001955050505050506040516020818303038152906040528051906020012090509392505050565b828054600181600116156101000203166002900490600052602060002090601f0160209004810192826200047a5760008555620004c5565b82601f106200049557805160ff1916838001178555620004c5565b82800160010185558215620004c5579182015b82811115620004c5578251825591602001919060010190620004a8565b50620004d3929150620004d7565b5090565b5b80821115620004d35760008155600101620004d8565b80516001600160a01b03811681146200050657600080fd5b919050565b600082601f8301126200051c578081fd5b81516001600160401b03808211156200053157fe5b6040516020601f8401601f19168201810183811183821017156200055157fe5b604052838252858401810187101562000568578485fd5b8492505b838310156200058b57858301810151828401820152918201916200056c565b838311156200059c57848185840101525b5095945050505050565b600060208284031215620005b8578081fd5b620005c382620004ee565b9392505050565b600080600080600060a08688031215620005e2578081fd5b620005ed86620004ee565b9450620005fd60208701620004ee565b93506200060d60408701620004ee565b60608701519093506001600160401b03808211156200062a578283fd5b6200063889838a016200050b565b935060808801519150808211156200064e578283fd5b506200065d888289016200050b565b9150509295509295909350565b6000602082840312156200067c578081fd5b81518060020b8114620005c3578182fd5b6000602082840312156200069f578081fd5b815162ffffff81168114620005c3578182fd5b60805160a05160c05160e0516101005161012051614a81620006fc60003980610e6152508061216a5250806121ac52508061218b5250806121115250806121415250614a816000f3fe6080604052600436106101845760003560e01c8063a457c2d7116100d1578063d34879971161008a578063e1c7392a11610064578063e1c7392a1461045e578063f8e35be714610473578063fa02165614610488578063fa461e331461049d5761018b565b8063d3487997146103fe578063d505accf1461041e578063dd62ed3e1461043e5761018b565b8063a457c2d714610348578063a9059cbb14610368578063ac2dc56214610388578063adcc3779146103ad578063b2f9f571146103c2578063c8696232146103d75761018b565b80633644e5151161013e5780637ecebe00116101185780637ecebe00146102cc5780637f98aa71146102ec5780638dbdbe6d1461031157806395d89b41146103335761018b565b80633644e51514610277578063395093511461028c57806370a08231146102ac5761018b565b8062ebf5dd1461018d57806306fdde03146101c4578063095ea7b3146101e657806318160ddd1461021357806323b872dd14610235578063313ce567146102555761018b565b3661018b57005b005b34801561019957600080fd5b506101ad6101a836600461464f565b6104bd565b6040516101bb929190614801565b60405180910390f35b3480156101d057600080fd5b506101d96107d7565b6040516101bb91906147ae565b3480156101f257600080fd5b50610206610201366004614562565b61086e565b6040516101bb919061474b565b34801561021f57600080fd5b5061022861088c565b6040516101bb9190614780565b34801561024157600080fd5b506102066102503660046144b2565b610892565b34801561026157600080fd5b5061026a61091a565b6040516101bb9190614859565b34801561028357600080fd5b50610228610923565b34801561029857600080fd5b506102066102a7366004614562565b610932565b3480156102b857600080fd5b506102286102c7366004614400565b610980565b3480156102d857600080fd5b506102286102e7366004614400565b61099f565b3480156102f857600080fd5b506103016109c0565b6040516101bb94939291906146e6565b61032461031f366004614690565b6109f0565b6040516101bb9392919061480f565b34801561033f57600080fd5b506101d9610b51565b34801561035457600080fd5b50610206610363366004614562565b610bb2565b34801561037457600080fd5b50610206610383366004614562565b610c1a565b34801561039457600080fd5b5061039d610c2e565b6040516101bb9493929190614789565b3480156103b957600080fd5b50610228610c57565b3480156103ce57600080fd5b50610228610cd8565b3480156103e357600080fd5b506103ec610d09565b6040516101bb96959493929190614825565b34801561040a57600080fd5b5061018b6104193660046146bd565b610d95565b34801561042a57600080fd5b5061018b6104393660046144f2565b610df2565b34801561044a57600080fd5b5061022861045936600461441c565b610fa9565b34801561046a57600080fd5b5061018b610fd4565b34801561047f57600080fd5b5061018b611068565b34801561049457600080fd5b5061018b6110c7565b3480156104a957600080fd5b5061018b6104b83660046145e6565b6114ed565b600080600d60039054906101000a900460ff1660ff166001146104df57600080fd5b600d805463ff0000001916905560006104f6611558565b505060095460405163051bb83360e01b81529193506001600160a01b03808516935063051bb8339261052e92909116906004016146d2565b60006040518083038186803b15801561054657600080fd5b505afa15801561055a573d6000803e3d6000fd5b505050506000861161056b57600080fd5b600061057561088c565b600c546009549192506000916105a5916001600160a01b0390911690600281810b9163010000009004900b6115f2565b50909150506001600160801b038116156106445760006105ce89670de0b6b3a764000085611690565b600c546009549192506105fb916001600160a01b031690600281810b9163010000009004900b843061173f565b600c546009549298509096506000918291610630916001600160a01b0316903090600281810b9163010000009004900b61190c565b91509150610640600083836119d3565b5050505b600061066261065b87610655610c57565b90611b74565b8a85611690565b9050600061067c61067587610655610cd8565b8b86611690565b90506106888783611b84565b96506106948682611b84565b955086156106b6576007546106b69089908b906001600160a01b03168a611b94565b85156106d6576008546106d69089908b906001600160a01b031689611b94565b6106e0338b611bcd565b886001600160a01b03167f02f25270a4d87bea75db541cdfe559334a275b4a233520ed6c0a2429667cca948b898960405161071d9392919061480f565b60405180910390a26001600160801b038316156107b457600c54600090819061077490600281810b9163010000009004900b610757610c57565b61075f610cd8565b6009546001600160a01b031693929190611cc9565b915091507f2fb985eb745b9e89bb1ab82e0f8ceb6bf94d4d60aed7e8196540c50161a5fe9182826040516107a9929190614801565b60405180910390a150505b5050600d805463ff00000019166301000000179055509296919550909350505050565b60038054604080516020601f60026000196101006001881615020190951694909404938401819004810282018101909252828152606093909290918301828280156108635780601f1061083857610100808354040283529160200191610863565b820191906000526020600020905b81548152906001019060200180831161084657829003601f168201915b505050505090505b90565b600061088261087b611e2b565b8484611e2f565b5060015b92915050565b60025490565b600061089f848484611f1b565b61090f846108ab611e2b565b61090a85604051806060016040528060288152602001614995602891396001600160a01b038a166000908152600160205260408120906108e9611e2b565b6001600160a01b031681526020810191909152604001600020549190612076565b611e2f565b5060015b9392505050565b60055460ff1690565b600061092d61210d565b905090565b600061088261093f611e2b565b8461090a8560016000610950611e2b565b6001600160a01b03908116825260208083019390935260409182016000908120918c1681529252902054906121d7565b6001600160a01b0381166000908152602081905260409020545b919050565b6001600160a01b038116600090815260066020526040812061088690612231565b600754600854600d546009546001600160a01b03938416949284169364010000000090920462ffffff1692911690565b6000806000806109fe611e2b565b9050610a8860018888610a0f610c57565b610a17610cd8565b610a1f61088c565b60408051608081018252600c54600281810b810b810b835263010000008204810b810b810b6020840152600160301b8204810b810b810b93830193909352600160481b9004820b820b90910b60608201526009546001600160a01b031696959493929190612235565b6007549296509094509250610aa8906001600160a01b03168230866122d1565b600854610ac0906001600160a01b03168230856122d1565b600c54600954610aec916001600160a01b0390911690600281810b9163010000009004900b8686611cc9565b5050610af8858561240e565b846001600160a01b0316816001600160a01b03167f4e2ca0515ed1aef1395f66b5303bb5d6f1bf9d61a353fa53f73f8ac9973fa9f6858588604051610b3f9392919061480f565b60405180910390a35093509350939050565b60048054604080516020601f60026000196101006001881615020190951694909404938401819004810282018101909252828152606093909290918301828280156108635780601f1061083857610100808354040283529160200191610863565b6000610882610bbf611e2b565b8461090a85604051806060016040528060258152602001614a276025913960016000610be9611e2b565b6001600160a01b03908116825260208083019390935260409182016000908120918d16815292529020549190612076565b6000610882610c27611e2b565b8484611f1b565b600c54600281810b9163010000008104820b91600160301b8204810b91600160481b9004900b84565b6007546040516370a0823160e01b81526000916001600160a01b0316906370a0823190610c889030906004016146d2565b60206040518083038186803b158015610ca057600080fd5b505afa158015610cb4573d6000803e3d6000fd5b505050506040513d601f19601f8201168201806040525081019061092d9190614637565b6008546040516370a0823160e01b81526000916001600160a01b0316906370a0823190610c889030906004016146d2565b60408051608081018252600c54600281810b810b810b835263010000008204810b810b810b6020840152600160301b8204810b810b810b93830193909352600160481b9004820b820b90910b606082015260095460009182918291829182918291610d82916001600160a01b03909116906001906124fe565b949b939a50919850965094509092509050565b610d9d612595565b336000610dac83850185614400565b90508515610dcc57600754610dcc906001600160a01b03168284896122d1565b8415610dea57600854610dea906001600160a01b03168284886122d1565b505050505050565b83421115610e47576040805162461bcd60e51b815260206004820152601d60248201527f45524332305065726d69743a206578706972656420646561646c696e65000000604482015290519081900360640190fd5b6001600160a01b03871660009081526006602052604081207f000000000000000000000000000000000000000000000000000000000000000090899089908990610e9090612231565b8960405160200180878152602001866001600160a01b03168152602001856001600160a01b0316815260200184815260200183815260200182815260200196505050505050506040516020818303038152906040528051906020012090506000610ef9826125ae565b90506000610f09828787876125fa565b9050896001600160a01b0316816001600160a01b031614610f71576040805162461bcd60e51b815260206004820152601e60248201527f45524332305065726d69743a20696e76616c6964207369676e61747572650000604482015290519081900360640190fd5b6001600160a01b038a166000908152600660205260409020610f929061277a565b610f9d8a8a8a611e2f565b50505050505050505050565b6001600160a01b03918216600090815260016020908152604080832093909416825291909152205490565b600d5460020b6000610fe4612783565b6009549083029150600090611001906001600160a01b0316612823565b50915050600061101182856128a5565b600c805462ffffff1916858303600290810b62ffffff9081169290921765ffffff00000019166301000000858901830b93909316830217928390559293506110629282810b9291909104900b6128f1565b50505050565b6000611072611558565b5050509050806001600160a01b0316336001600160a01b03161461109557600080fd5b600c546009546110c0916001600160a01b0390911690600281810b9163010000009004900b306129ba565b5050505050565b600d546301000000900460ff166001146110e057600080fd5b600d805463ff0000001916905560006110f7611558565b5050509050806001600160a01b0316336001600160a01b03161461111a57600080fd5b6000611124611558565b505060095460405163051bb83360e01b81529193506001600160a01b03808516935063051bb8339261115c92909116906004016146d2565b60006040518083038186803b15801561117457600080fd5b505afa158015611188573d6000803e3d6000fd5b50505050611194614324565b600c546009546111bf916001600160a01b0390911690600281810b9163010000009004900b306129ba565b6020850181905281855260c085019290925260a08401929092526111e5916001916119d3565b60006111ef612783565b600954909150611207906001600160a01b0316612823565b50600290810b810b60408501819052600d54611229935090918491900b612b6e565b600290810b810b608085015290810b810b6060840152600c5460095460009261126b926001600160a01b039092169180820b916301000000909104900b6115f2565b505090506000816001600160801b0316118015611296575060a08301511580611296575060c0830151155b15611304576000808460a00151116112af5760006112b2565b60015b90506000816112d1576112cc8560c0015160326064611690565b6112e2565b6112e28560a0015160326064611690565b6009549091506112fd906001600160a01b0316308484612b8b565b5050611428565b61130c610c57565b60a0840152611319610cd8565b60c0840181905260a08401516060850151608086015160095461134a946001600160a01b0390911693929091612d07565b6001600160801b031660e084018190526060840151608085015160095461137e936001600160a01b03909116929091612d9b565b6101208501819052610100850182905260a085015160c08601516113a6939192909190612e32565b151561014084018190526113e1576113dc6113d38461012001518560c00151611b7490919063ffffffff16565b60326064611690565b611400565b6114006113d38461010001518560a00151611b7490919063ffffffff16565b6101608401819052610140840151600954611428926001600160a01b03909116913091612b8b565b611430610c57565b60a084015261143d610cd8565b60c0840181905260a0840151600d5460095461146a936001600160a01b039091169291869060020b612e6d565b600c805465ffffff00000019166301000000600293840b62ffffff90811682029290921762ffffff191694840b91909116939093179081905560a086015160c08701516009546114d1956001600160a01b039091169484810b9491909104900b9190611cc9565b5050600d805463ff000000191663010000001790555050505050565b6114f5612595565b60008413806115045750600083135b61150d57600080fd5b600061151b8284018461458d565b905080156115405760075461153b906001600160a01b03163033886122d1565b6110c0565b6008546110c0906001600160a01b03163033876122d1565b600080600080600a60009054906101000a90046001600160a01b03166001600160a01b03166338d772806040518163ffffffff1660e01b815260040160806040518083038186803b1580156115ac57600080fd5b505afa1580156115c0573d6000803e3d6000fd5b505050506040513d601f19601f820116820180604052508101906115e49190614454565b935093509350935090919293565b600080600080611603308787613063565b9050866001600160a01b031663514ea4bf826040518263ffffffff1660e01b81526004018082815260200191505060a06040518083038186803b15801561164957600080fd5b505afa15801561165d573d6000803e3d6000fd5b505050506040513d60a081101561167357600080fd5b508051606082015160809092015190999198509650945050505050565b60008080600019858709868602925082811090839003039050806116c657600084116116bb57600080fd5b508290049050610913565b8084116116d257600080fd5b6000848688096000868103871696879004966002600389028118808a02820302808a02820302808a02820302808a02820302808a02820302808a02909103029181900381900460010186841190950394909402919094039290920491909117919091029150509392505050565b600080806117576001600160a01b03891688886115f2565b505090506000611779826001600160801b031687670de0b6b3a7640000611690565b9050886001600160a01b031663a34123a78989611795856130b9565b6040518463ffffffff1660e01b8152600401808460020b81526020018360020b8152602001826001600160801b0316815260200193505050506040805180830381600087803b1580156117e757600080fd5b505af11580156117fb573d6000803e3d6000fd5b505050506040513d604081101561181157600080fd5b50805160209091015190945092508315158061182d5750600083115b1561190057886001600160a01b0316634f1eb3d8868a8a61184d896130b9565b611856896130b9565b6040518663ffffffff1660e01b815260040180866001600160a01b031681526020018560020b81526020018460020b8152602001836001600160801b03168152602001826001600160801b03168152602001955050505050506040805180830381600087803b1580156118c857600080fd5b505af11580156118dc573d6000803e3d6000fd5b505050506040513d60408110156118f257600080fd5b50516001600160801b031693505b50509550959350505050565b60008061191a868585613101565b50604080516309e3d67b60e31b81526001600160a01b038781166004830152600287810b602484015286900b60448301526001600160801b03606483018190526084830152825190891692634f1eb3d89260a480820193918290030181600087803b15801561198857600080fd5b505af115801561199c573d6000803e3d6000fd5b505050506040513d60408110156119b257600080fd5b5080516020909101516001600160801b039182169891169650945050505050565b6000806119de611558565b9350935050506000841115611a7f576007546001600160a01b031663a9059cbb83611a0e8760ff86166064611690565b6040518363ffffffff1660e01b8152600401611a2b929190614732565b602060405180830381600087803b158015611a4557600080fd5b505af1158015611a59573d6000803e3d6000fd5b505050506040513d601f19601f82011682018060405250810190611a7d91906145a9565b505b8215611b17576008546001600160a01b031663a9059cbb83611aa68660ff86166064611690565b6040518363ffffffff1660e01b8152600401611ac3929190614732565b602060405180830381600087803b158015611add57600080fd5b505af1158015611af1573d6000803e3d6000fd5b505050506040513d601f19601f82011682018060405250810190611b1591906145a9565b505b7fbcc978db31dd08dc8adfad2608e266d446816cb7816fb50a1bd7e34699bbcf11858585611b43610c57565b611b4b610cd8565b611b5361088c565b604051611b6596959493929190614756565b60405180910390a15050505050565b8082038281111561088657600080fd5b8082018281101561088657600080fd5b838015611bae5750600b546001600160a01b038381169116145b15611bc257611bbd81846131ba565b611062565b611062828483613226565b6001600160a01b038216611c125760405162461bcd60e51b81526004018080602001828103825260218152602001806149bd6021913960400191505060405180910390fd5b611c1e8260008361336d565b611c5b816040518060600160405280602281526020016148c0602291396001600160a01b0385166000908152602081905260409020549190612076565b6001600160a01b038316600090815260208190526040902055600254611c819082613372565b6002556040805182815290516000916001600160a01b038516917fddf252ad1be2c89b69c2b068fc378daa952ba7f163c4a11628f55a4df523b3ef9181900360200190a35050565b60008080611ce36001600160a01b03891686868a8a612d07565b90506001600160801b03811615611e20576040805130602080830182905283518084038201815283850194859052633c8a7d8d60e01b9094526044830182815260028c810b60648601528b900b60848501526001600160801b03861660a485015260a060c48501908152855160e486015285516001600160a01b038f1696633c8a7d8d968f958f958b959394909392610104019185019080838360005b83811015611d98578181015183820152602001611d80565b50505050905090810190601f168015611dc55780820380516001836020036101000a031916815260200191505b5096505050505050506040805180830381600087803b158015611de757600080fd5b505af1158015611dfb573d6000803e3d6000fd5b505050506040513d6040811015611e1157600080fd5b50805160209091015190935091505b509550959350505050565b3390565b6001600160a01b038316611e745760405162461bcd60e51b8152600401808060200182810382526024815260200180614a036024913960400191505060405180910390fd5b6001600160a01b038216611eb95760405162461bcd60e51b81526004018080602001828103825260228152602001806148e26022913960400191505060405180910390fd5b6001600160a01b03808416600081815260016020908152604080832094871680845294825291829020859055815185815291517f8c5be1e5ebec7d5bd14f71427d1e84f3dd0314c0f7b2291e5b200ac8c7c3b9259281900390910190a3505050565b6001600160a01b038316611f605760405162461bcd60e51b81526004018080602001828103825260258152602001806149de6025913960400191505060405180910390fd5b6001600160a01b038216611fa55760405162461bcd60e51b815260040180806020018281038252602381526020018061489d6023913960400191505060405180910390fd5b611fb083838361336d565b611fed81604051806060016040528060268152602001614904602691396001600160a01b0386166000908152602081905260409020549190612076565b6001600160a01b03808516600090815260208190526040808220939093559084168152205461201c90826121d7565b6001600160a01b038084166000818152602081815260409182902094909455805185815290519193928716927fddf252ad1be2c89b69c2b068fc378daa952ba7f163c4a11628f55a4df523b3ef92918290030190a3505050565b600081848411156121055760405162461bcd60e51b81526004018080602001828103825283818151815260200191508051906020019080838360005b838110156120ca5781810151838201526020016120b2565b50505050905090810190601f1680156120f75780820380516001836020036101000a031916815260200191505b509250505060405180910390fd5b505050900390565b60007f00000000000000000000000000000000000000000000000000000000000000006121386133cf565b141561216557507f000000000000000000000000000000000000000000000000000000000000000061086b565b6121d07f00000000000000000000000000000000000000000000000000000000000000007f00000000000000000000000000000000000000000000000000000000000000007f00000000000000000000000000000000000000000000000000000000000000006133d3565b905061086b565b600082820183811015610913576040805162461bcd60e51b815260206004820152601b60248201527f536166654d6174683a206164646974696f6e206f766572666c6f770000000000604482015290519081900360640190fd5b5490565b600080600080600080600061224b8f8f8a6124fe565b5050935093509350935060006122748c61226e8588611b8490919063ffffffff16565b90611b84565b905060006122868c61226e8786611b84565b90508a158061229457508115155b8061229e57508015155b6122a457fe5b6122b18f8f84848f613435565b809950819a50829b50505050505050505050985098509895505050505050565b600b546001600160a01b0385811691161480156122ee5750804710155b156123e657600b60009054906101000a90046001600160a01b03166001600160a01b031663d0e30db0826040518263ffffffff1660e01b81526004016000604051808303818588803b15801561234357600080fd5b505af1158015612357573d6000803e3d6000fd5b5050600b5460405163a9059cbb60e01b81526001600160a01b03909116935063a9059cbb925061238e915085908590600401614732565b602060405180830381600087803b1580156123a857600080fd5b505af11580156123bc573d6000803e3d6000fd5b505050506040513d601f19601f820116820180604052508101906123e091906145a9565b50611062565b6001600160a01b03831630141561240257611bbd848383613226565b611062848484846134c9565b6001600160a01b038216612469576040805162461bcd60e51b815260206004820152601f60248201527f45524332303a206d696e7420746f20746865207a65726f206164647265737300604482015290519081900360640190fd5b6124756000838361336d565b60025461248290826121d7565b6002556001600160a01b0382166000908152602081905260409020546124a890826121d7565b6001600160a01b0383166000818152602081815260408083209490945583518581529351929391927fddf252ad1be2c89b69c2b068fc378daa952ba7f163c4a11628f55a4df523b3ef9281900390910190a35050565b60008060008060008061251a8988600001518960200151613619565b939950919750955093509150876125895760008060008060006125468e8d604001518e60600151613619565b93985091965094509250905061255c8b86611b84565b9a506125688a85611b84565b99506125748984611b84565b98506125808883611b84565b97509450505050505b93975093979195509350565b6009546001600160a01b031633146125ac57600080fd5b565b60006125b861210d565b82604051602001808061190160f01b81525060020183815260200182815260200192505050604051602081830303815290604052805190602001209050919050565b60007f7fffffffffffffffffffffffffffffff5d576e7357a4501ddfe92f46681b20a082111561265b5760405162461bcd60e51b81526004018080602001828103825260228152602001806149516022913960400191505060405180910390fd5b8360ff16601b148061267057508360ff16601c145b6126ab5760405162461bcd60e51b81526004018080602001828103825260228152602001806149736022913960400191505060405180910390fd5b600060018686868660405160008152602001604052604051808581526020018460ff1681526020018381526020018281526020019450505050506020604051602081039080840390855afa158015612707573d6000803e3d6000fd5b5050604051601f1901519150506001600160a01b03811661276f576040805162461bcd60e51b815260206004820152601860248201527f45434453413a20696e76616c6964207369676e61747572650000000000000000604482015290519081900360640190fd5b90505b949350505050565b80546001019055565b60008061278e611558565b5050600954600d5460405163d91e085360e01b81529294506001600160a01b03808616945063d91e0853936127cd939091169160020b90600401614716565b60206040518083038186803b1580156127e557600080fd5b505afa1580156127f9573d6000803e3d6000fd5b505050506040513d601f19601f8201168201806040525081019061281d91906145c5565b91505090565b6000806000836001600160a01b0316633850c7bd6040518163ffffffff1660e01b815260040160e06040518083038186803b15801561286157600080fd5b505afa158015612875573d6000803e3d6000fd5b505050506040513d60e081101561288b57600080fd5b508051602082015160609092015190969195509350915050565b6000808260020b8460020b816128b757fe5b05905060008460020b1280156128de57508260020b8460020b816128d757fe5b0760020b15155b156128e857600019015b90910292915050565b8060020b8260020b12612931576040805162461bcd60e51b8152602060048201526003602482015262544c5560e81b604482015290519081900360640190fd5b620d89e719600283900b1215612974576040805162461bcd60e51b8152602060048201526003602482015262544c4d60e81b604482015290519081900360640190fd5b620d89e8600282900b13156129b6576040805162461bcd60e51b815260206004820152600360248201526254554d60e81b604482015290519081900360640190fd5b5050565b6000808080806129d46001600160a01b038a1689896115f2565b50909150506001600160801b03811615612b62576040805163a34123a760e01b815260028a810b600483015289900b60248201526001600160801b038316604482015281516001600160a01b038c169263a34123a792606480820193918290030181600087803b158015612a4757600080fd5b505af1158015612a5b573d6000803e3d6000fd5b505050506040513d6040811015612a7157600080fd5b508051602090910151909550935084151580612a8d5750600084115b15612b6257604080516309e3d67b60e31b81526001600160a01b03888116600483015260028b810b60248401528a900b60448301526001600160801b0360648301819052608483015282516000938493928e1692634f1eb3d89260a4808301939282900301818787803b158015612b0357600080fd5b505af1158015612b17573d6000803e3d6000fd5b505050506040513d6040811015612b2d57600080fd5b5080516020909101516001600160801b039182169350169050612b508288611b74565b612b5a8288611b74565b909550935050505b50945094509450949050565b6000806000612b7d86856128a5565b858103979501955050505050565b6000612b9f856001600160a01b0316612823565b505090506000620f42408261c350026001600160a01b031681612bbe57fe5b049050600084612bd057818301612bd4565b8183035b9050866001600160a01b031663128acb08878787858a6040516020018082151581526020019150506040516020818303038152906040526040518663ffffffff1660e01b815260040180866001600160a01b031681526020018515158152602001848152602001836001600160a01b0316815260200180602001828103825283818151815260200191508051906020019080838360005b83811015612c83578181015183820152602001612c6b565b50505050905090810190601f168015612cb05780820380516001836020036101000a031916815260200191505b5096505050505050506040805180830381600087803b158015612cd257600080fd5b505af1158015612ce6573d6000803e3d6000fd5b505050506040513d6040811015612cfc57600080fd5b505050505050505050565b600080866001600160a01b0316633850c7bd6040518163ffffffff1660e01b815260040160e06040518083038186803b158015612d4357600080fd5b505afa158015612d57573d6000803e3d6000fd5b505050506040513d60e0811015612d6d57600080fd5b50519050612d8e81612d7e8661365e565b612d878661365e565b8989613990565b9150505b95945050505050565b6000806000866001600160a01b0316633850c7bd6040518163ffffffff1660e01b815260040160e06040518083038186803b158015612dd957600080fd5b505afa158015612ded573d6000803e3d6000fd5b505050506040513d60e0811015612e0357600080fd5b50519050612e2381612e148761365e565b612e1d8761365e565b89613a52565b92509250505b94509492505050565b6000612e4885612e428685611b74565b90613aed565b612e5685612e428887611b74565b11612e62576000612d92565b600195945050505050565b60008060006040518060e00160405280888152602001878152602001600081526020016000815260200160006001600160801b03168152602001600060020b8152602001600060020b8152509050600080896001600160a01b0316633850c7bd6040518163ffffffff1660e01b815260040160e06040518083038186803b158015612ef757600080fd5b505afa158015612f0b573d6000803e3d6000fd5b505050506040513d60e0811015612f2157600080fd5b5080516020909101519092509050612f3a818888612b6e565b600290810b810b60c0860181905291810b900b60a0850181905284516020860151612f67938e9390613b11565b606085018190526040850182905260a085015160c0860151612f8e938e9390929091612d07565b6001600160801b031660808401528251602084015160408501516060860151600093612fbd9390929091612e32565b90508015613002576000612fdc84866080015187600001516000613b40565b9050612ff0612fea82613c31565b896128a5565b600290810b900b60c086015250613035565b600061301984866080015187602001516000613f50565b9050613027612fea82613c31565b600290810b900b60a0860152505b6130478460a001518560c001516128f1565b8360a0015195508360c001519450505050509550959350505050565b6040805160609490941b6bffffffffffffffffffffffff1916602080860191909152600293840b60e890811b60348701529290930b90911b60378401528051808403601a018152603a9093019052815191012090565b6000600160801b82106130fd5760405162461bcd60e51b815260040180806020018281038252602781526020018061492a6027913960400191505060405180910390fd5b5090565b60006131176001600160a01b03851684846115f2565b50909150506001600160801b0381161561091357836001600160a01b031663a34123a7848460006040518463ffffffff1660e01b8152600401808460020b81526020018360020b815260200182815260200193505050506040805180830381600087803b15801561318757600080fd5b505af115801561319b573d6000803e3d6000fd5b505050506040513d60408110156131b157600080fd5b50509392505050565b600b54604051632e1a7d4d60e01b81526001600160a01b0390911690632e1a7d4d906131ea908590600401614780565b600060405180830381600087803b15801561320457600080fd5b505af1158015613218573d6000803e3d6000fd5b505050506129b6818361402c565b604080516001600160a01b038481166024830152604480830185905283518084039091018152606490920183526020820180516001600160e01b031663a9059cbb60e01b1781529251825160009485949389169392918291908083835b602083106132a25780518252601f199092019160209182019101613283565b6001836020036101000a0380198251168184511680821785525050505050509050019150506000604051808303816000865af19150503d8060008114613304576040519150601f19603f3d011682016040523d82523d6000602084013e613309565b606091505b5091509150818015613337575080511580613337575080806020019051602081101561333457600080fd5b50515b6110c0576040805162461bcd60e51b815260206004820152600260248201526114d560f21b604482015290519081900360640190fd5b505050565b6000828211156133c9576040805162461bcd60e51b815260206004820152601e60248201527f536166654d6174683a207375627472616374696f6e206f766572666c6f770000604482015290519081900360640190fd5b50900390565b4690565b60008383836133e06133cf565b3060405160200180868152602001858152602001848152602001838152602001826001600160a01b03168152602001955050505050506040516020818303038152906040528051906020012090509392505050565b60008080836134595750869050858082116134505780613452565b815b92506134be565b8561346b575085613452818587611690565b8461347e57879150613452828588611690565b613489878787611690565b9150878210156134a0575085613452818587611690565b8791506134ae828688611690565b90506134bb828588611690565b92505b955095509592505050565b604080516001600160a01b0385811660248301528481166044830152606480830185905283518084039091018152608490920183526020820180516001600160e01b03166323b872dd60e01b178152925182516000948594938a169392918291908083835b6020831061354d5780518252601f19909201916020918201910161352e565b6001836020036101000a0380198251168184511680821785525050505050509050019150506000604051808303816000865af19150503d80600081146135af576040519150601f19603f3d011682016040523d82523d6000602084013e6135b4565b606091505b50915091508180156135e25750805115806135e257508080602001905160208110156135df57600080fd5b50515b610dea576040805162461bcd60e51b815260206004820152600360248201526229aa2360e91b604482015290519081900360640190fd5b600080600080600061362c888888613101565b90506001600160801b038116156136535761364888888861411b565b929750909550935091505b939792965093509350565b60008060008360020b12613675578260020b61367d565b8260020b6000035b9050620d89e88111156136bb576040805162461bcd60e51b81526020600482015260016024820152601560fa1b604482015290519081900360640190fd5b6000600182166136cf57600160801b6136e1565b6ffffcb933bd6fad37aa2d162d1a5940015b70ffffffffffffffffffffffffffffffffff1690506002821615613715576ffff97272373d413259a46990580e213a0260801c5b6004821615613734576ffff2e50f5f656932ef12357cf3c7fdcc0260801c5b6008821615613753576fffe5caca7e10e4e61c3624eaa0941cd00260801c5b6010821615613772576fffcb9843d60f6159c9db58835c9266440260801c5b6020821615613791576fff973b41fa98c081472e6896dfb254c00260801c5b60408216156137b0576fff2ea16466c96a3843ec78b326b528610260801c5b60808216156137cf576ffe5dee046a99a2a811c461f1969c30530260801c5b6101008216156137ef576ffcbe86c7900a88aedcffc83b479aa3a40260801c5b61020082161561380f576ff987a7253ac413176f2b074cf7815e540260801c5b61040082161561382f576ff3392b0822b70005940c7a398e4b70f30260801c5b61080082161561384f576fe7159475a2c29b7443b29c7fa6e889d90260801c5b61100082161561386f576fd097f3bdfd2022b8845ad8f792aa58250260801c5b61200082161561388f576fa9f746462d870fdf8a65dc1f90e061e50260801c5b6140008216156138af576f70d869a156d2a1b890bb3df62baf32f70260801c5b6180008216156138cf576f31be135f97d08fd981231505542fcfa60260801c5b620100008216156138f0576f09aa508b5b7a84e1c677de54f3e99bc90260801c5b62020000821615613910576e5d6af8dedb81196699c329225ee6040260801c5b6204000082161561392f576d2216e584f5fa1ea926041bedfe980260801c5b6208000082161561394c576b048a170391f7dc42444e8fa20260801c5b60008460020b131561396757806000198161396357fe5b0490505b64010000000081061561397b57600161397e565b60005b60ff16602082901c0192505050919050565b6000836001600160a01b0316856001600160a01b031611156139b0579293925b846001600160a01b0316866001600160a01b0316116139db576139d4858585614167565b9050612d92565b836001600160a01b0316866001600160a01b03161015613a3d576000613a02878686614167565b90506000613a118789866141ca565b9050806001600160801b0316826001600160801b031610613a325780613a34565b815b92505050612d92565b613a488585846141ca565b9695505050505050565b600080836001600160a01b0316856001600160a01b03161115613a73579293925b846001600160a01b0316866001600160a01b031611613a9e57613a97858585614207565b9150612e29565b836001600160a01b0316866001600160a01b03161015613ad757613ac3868585614207565b9150613ad0858785614270565b9050612e29565b613ae2858585614270565b905094509492505050565b6000821580613b0857505081810281838281613b0557fe5b04145b61088657600080fd5b6000806000613b238888888888612d07565b9050613b3188828787612d9b565b90999098509650505050505050565b600082613b4e575083612772565b6fffffffffffffffffffffffffffffffff60601b606085901b168215613be5576001600160a01b03861684810290858281613b8557fe5b041415613bb657818101828110613bb457613baa83896001600160a01b0316836142b3565b9350505050612772565b505b613bdc82613bd7878a6001600160a01b03168681613bd057fe5b0490611b84565b6142ed565b92505050612772565b6001600160a01b03861684810290858281613bfc57fe5b04148015613c0957508082115b613c1257600080fd5b808203613baa613c2c846001600160a01b038b16846142b3565b6142f8565b60006401000276a36001600160a01b03831610801590613c6d575073fffd8963efd1fc6a506488495d951d5263988d266001600160a01b038316105b613ca2576040805162461bcd60e51b81526020600482015260016024820152602960f91b604482015290519081900360640190fd5b640100000000600160c01b03602083901b166001600160801b03811160071b81811c67ffffffffffffffff811160061b90811c63ffffffff811160051b90811c61ffff811160041b90811c60ff8111600390811b91821c600f811160021b90811c918211600190811b92831c97908811961790941790921717909117171760808110613d3657607f810383901c9150613d40565b80607f0383901b91505b908002607f81811c60ff83811c9190911c800280831c81831c1c800280841c81841c1c800280851c81851c1c800280861c81861c1c800280871c81871c1c800280881c81881c1c800280891c81891c1c8002808a1c818a1c1c8002808b1c818b1c1c8002808c1c818c1c1c8002808d1c818d1c1c8002808e1c9c81901c9c909c1c80029c8d901c9e9d607f198f0160401b60c09190911c678000000000000000161760c19b909b1c674000000000000000169a909a1760c29990991c672000000000000000169890981760c39790971c671000000000000000169690961760c49590951c670800000000000000169490941760c59390931c670400000000000000169290921760c69190911c670200000000000000161760c79190911c670100000000000000161760c89190911c6680000000000000161760c99190911c6640000000000000161760ca9190911c6620000000000000161760cb9190911c6610000000000000161760cc9190911c6608000000000000161760cd9190911c66040000000000001617693627a301d71055774c8581026f028f6481ab7f045a5af012a19d003aa9198101608090811d906fdb2df09e81959a81455e260799a0632f8301901d600281810b9083900b14613f4157886001600160a01b0316613f258261365e565b6001600160a01b03161115613f3a5781613f3c565b805b613f43565b815b9998505050505050505050565b60008115613fbe5760006001600160a01b03841115613f8657613f8184600160601b876001600160801b0316611690565b613f9e565b6001600160801b038516606085901b81613f9c57fe5b045b9050613fb6613c2c6001600160a01b03881683611b84565b915050612772565b60006001600160a01b03841115613fec57613fe784600160601b876001600160801b03166142b3565b614003565b614003606085901b6001600160801b0387166142ed565b905080866001600160a01b03161161401a57600080fd5b6001600160a01b038616039050612772565b604080516000808252602082019092526001600160a01b0384169083906040518082805190602001908083835b602083106140785780518252601f199092019160209182019101614059565b6001836020036101000a03801982511681845116808217855250505050505090500191505060006040518083038185875af1925050503d80600081146140da576040519150601f19603f3d011682016040523d82523d6000602084013e6140df565b606091505b505090508061336d576040805162461bcd60e51b815260206004820152600360248201526253544560e81b604482015290519081900360640190fd5b60008060008060008060006141318a8a8a6115f2565b9250925092506000806141468c868d8d612d9b565b9099509750506001600160801b039283169550501691505093509350935093565b6000826001600160a01b0316846001600160a01b03161115614187579192915b60006141aa856001600160a01b0316856001600160a01b0316600160601b611690565b9050612d926141c584838888036001600160a01b0316611690565b61430e565b6000826001600160a01b0316846001600160a01b031611156141ea579192915b6127726141c583600160601b8787036001600160a01b0316611690565b6000826001600160a01b0316846001600160a01b03161115614227579192915b836001600160a01b0316614260606060ff16846001600160801b0316901b8686036001600160a01b0316866001600160a01b0316611690565b8161426757fe5b04949350505050565b6000826001600160a01b0316846001600160a01b03161115614290579192915b612772826001600160801b03168585036001600160a01b0316600160601b611690565b60006142c0848484611690565b9050600082806142cc57fe5b84860911156109135760001981106142e357600080fd5b6001019392505050565b808204910615150190565b806001600160a01b038116811461099a57600080fd5b806001600160801b038116811461099a57600080fd5b604051806101c001604052806000815260200160008152602001600060020b8152602001600060020b8152602001600060020b8152602001600081526020016000815260200160006001600160801b0316815260200160008152602001600081526020016000151581526020016000815260200160006001600160a01b0316815260200160006001600160a01b031681525090565b60008083601f8401126143ca578182fd5b50813567ffffffffffffffff8111156143e1578182fd5b6020830191508360208285010111156143f957600080fd5b9250929050565b600060208284031215614411578081fd5b813561091381614867565b6000806040838503121561442e578081fd5b823561443981614867565b9150602083013561444981614867565b809150509250929050565b60008060008060808587031215614469578182fd5b845161447481614867565b602086015190945061448581614867565b604086015190935061449681614867565b60608601519092506144a78161488d565b939692955090935050565b6000806000606084860312156144c6578283fd5b83356144d181614867565b925060208401356144e181614867565b929592945050506040919091013590565b600080600080600080600060e0888a03121561450c578283fd5b873561451781614867565b9650602088013561452781614867565b9550604088013594506060880135935060808801356145458161488d565b9699959850939692959460a0840135945060c09093013592915050565b60008060408385031215614574578182fd5b823561457f81614867565b946020939093013593505050565b60006020828403121561459e578081fd5b81356109138161487f565b6000602082840312156145ba578081fd5b81516109138161487f565b6000602082840312156145d6578081fd5b81518060020b8114610913578182fd5b600080600080606085870312156145fb578384fd5b8435935060208501359250604085013567ffffffffffffffff81111561461f578283fd5b61462b878288016143b9565b95989497509550505050565b600060208284031215614648578081fd5b5051919050565b600080600060608486031215614663578081fd5b83359250602084013561467581614867565b915060408401356146858161487f565b809150509250925092565b6000806000606084860312156146a4578081fd5b8335925060208401359150604084013561468581614867565b600080600080606085870312156145fb578182fd5b6001600160a01b0391909116815260200190565b6001600160a01b039485168152928416602084015262ffffff919091166040830152909116606082015260800190565b6001600160a01b0392909216825260020b602082015260400190565b6001600160a01b03929092168252602082015260400190565b901515815260200190565b9515158652602086019490945260408501929092526060840152608083015260a082015260c00190565b90815260200190565b600294850b815292840b602084015290830b604083015290910b606082015260800190565b6000602080835283518082850152825b818110156147da578581018301518582016040015282016147be565b818111156147eb5783604083870101525b50601f01601f1916929092016040019392505050565b918252602082015260400190565b9283526020830191909152604082015260600190565b9586526020860194909452604085019290925260608401526001600160801b0390811660808401521660a082015260c00190565b60ff91909116815260200190565b6001600160a01b038116811461487c57600080fd5b50565b801515811461487c57600080fd5b60ff8116811461487c57600080fdfe45524332303a207472616e7366657220746f20746865207a65726f206164647265737345524332303a206275726e20616d6f756e7420657863656564732062616c616e636545524332303a20617070726f766520746f20746865207a65726f206164647265737345524332303a207472616e7366657220616d6f756e7420657863656564732062616c616e636553616665436173743a2076616c756520646f65736e27742066697420696e20313238206269747345434453413a20696e76616c6964207369676e6174757265202773272076616c756545434453413a20696e76616c6964207369676e6174757265202776272076616c756545524332303a207472616e7366657220616d6f756e74206578636565647320616c6c6f77616e636545524332303a206275726e2066726f6d20746865207a65726f206164647265737345524332303a207472616e736665722066726f6d20746865207a65726f206164647265737345524332303a20617070726f76652066726f6d20746865207a65726f206164647265737345524332303a2064656372656173656420616c6c6f77616e63652062656c6f77207a65726fa26469706673582212202acb3a7b5ad17e560381806b101deb7281bc49bff75c6f7089103d2bbcec612464736f6c63430007060033",
    "linkReferences": {}
  }
}