{
  "_format": "hh-sol-artifact-1",
  "contractName": "Pilot",
  "sourceName": "contracts/Pilot.sol",
  "abi": [
    {
      "inputs": [
        {
          "internalType": "address",
          "name": "_timelock",
          "type": "address"
        },
        {
          "internalType": "address[]",
          "name": "vestingAddresses",
          "type": "address[]"
        },
        {
          "internalType": "uint256[]",
          "name": "vestingAmounts",
          "type": "uint256[]"
        }
      ],
      "stateMutability": "nonpayable",
      "type": "constructor"
    },
    {
      "anonymous": false,
      "inputs": [
        {
          "indexed": true,
          "internalType": "address",
          "name": "owner",
          "type": "address"
        },
        {
          "indexed": true,
          "internalType": "address",
          "name": "spender",
          "type": "address"
        },
        {
          "indexed": false,
          "internalType": "uint256",
          "name": "value",
          "type": "uint256"
        }
      ],
      "name": "Approval",
      "type": "event"
    },
    {
      "anonymous": false,
      "inputs": [
        {
          "indexed": true,
          "internalType": "address",
          "name": "authorizer",
          "type": "address"
        },
        {
          "indexed": true,
          "internalType": "bytes32",
          "name": "nonce",
          "type": "bytes32"
        }
      ],
      "name": "AuthorizationUsed",
      "type": "event"
    },
    {
      "anonymous": false,
      "inputs": [
        {
          "indexed": true,
          "internalType": "address",
          "name": "from",
          "type": "address"
        },
        {
          "indexed": true,
          "internalType": "address",
          "name": "to",
          "type": "address"
        },
        {
          "indexed": false,
          "internalType": "uint256",
          "name": "value",
          "type": "uint256"
        }
      ],
      "name": "Transfer",
      "type": "event"
    },
    {
      "inputs": [],
      "name": "FOUNDATION",
      "outputs": [
        {
          "internalType": "address",
          "name": "",
          "type": "address"
        }
      ],
      "stateMutability": "view",
      "type": "function"
    },
    {
      "inputs": [],
      "name": "PERMIT_TYPEHASH",
      "outputs": [
        {
          "internalType": "bytes32",
          "name": "",
          "type": "bytes32"
        }
      ],
      "stateMutability": "view",
      "type": "function"
    },
    {
      "inputs": [],
      "name": "TRANSFER_WITH_AUTHORIZATION_TYPEHASH",
      "outputs": [
        {
          "internalType": "bytes32",
          "name": "",
          "type": "bytes32"
        }
      ],
      "stateMutability": "view",
      "type": "function"
    },
    {
      "inputs": [
        {
          "internalType": "address",
          "name": "owner",
          "type": "address"
        },
        {
          "internalType": "address",
          "name": "spender",
          "type": "address"
        }
      ],
      "name": "allowance",
      "outputs": [
        {
          "internalType": "uint256",
          "name": "",
          "type": "uint256"
        }
      ],
      "stateMutability": "view",
      "type": "function"
    },
    {
      "inputs": [
        {
          "internalType": "address",
          "name": "spender",
          "type": "address"
        },
        {
          "internalType": "uint256",
          "name": "amount",
          "type": "uint256"
        }
      ],
      "name": "approve",
      "outputs": [
        {
          "internalType": "bool",
          "name": "",
          "type": "bool"
        }
      ],
      "stateMutability": "nonpayable",
      "type": "function"
    },
    {
      "inputs": [
        {
          "internalType": "address",
          "name": "",
          "type": "address"
        },
        {
          "internalType": "bytes32",
          "name": "",
          "type": "bytes32"
        }
      ],
      "name": "authorizationState",
      "outputs": [
        {
          "internalType": "bool",
          "name": "",
          "type": "bool"
        }
      ],
      "stateMutability": "view",
      "type": "function"
    },
    {
      "inputs": [
        {
          "internalType": "address",
          "name": "account",
          "type": "address"
        }
      ],
      "name": "balanceOf",
      "outputs": [
        {
          "internalType": "uint256",
          "name": "",
          "type": "uint256"
        }
      ],
      "stateMutability": "view",
      "type": "function"
    },
    {
      "inputs": [
        {
          "internalType": "uint256",
          "name": "amount",
          "type": "uint256"
        }
      ],
      "name": "burn",
      "outputs": [],
      "stateMutability": "nonpayable",
      "type": "function"
    },
    {
      "inputs": [
        {
          "internalType": "address",
          "name": "account",
          "type": "address"
        },
        {
          "internalType": "uint256",
          "name": "amount",
          "type": "uint256"
        }
      ],
      "name": "burnFrom",
      "outputs": [],
      "stateMutability": "nonpayable",
      "type": "function"
    },
    {
      "inputs": [],
      "name": "decimals",
      "outputs": [
        {
          "internalType": "uint8",
          "name": "",
          "type": "uint8"
        }
      ],
      "stateMutability": "view",
      "type": "function"
    },
    {
      "inputs": [
        {
          "internalType": "address",
          "name": "spender",
          "type": "address"
        },
        {
          "internalType": "uint256",
          "name": "subtractedValue",
          "type": "uint256"
        }
      ],
      "name": "decreaseAllowance",
      "outputs": [
        {
          "internalType": "bool",
          "name": "",
          "type": "bool"
        }
      ],
      "stateMutability": "nonpayable",
      "type": "function"
    },
    {
      "inputs": [],
      "name": "getChainId",
      "outputs": [
        {
          "internalType": "uint256",
          "name": "chainId",
          "type": "uint256"
        }
      ],
      "stateMutability": "view",
      "type": "function"
    },
    {
      "inputs": [],
      "name": "getDomainSeparator",
      "outputs": [
        {
          "internalType": "bytes32",
          "name": "",
          "type": "bytes32"
        }
      ],
      "stateMutability": "view",
      "type": "function"
    },
    {
      "inputs": [
        {
          "internalType": "address",
          "name": "spender",
          "type": "address"
        },
        {
          "internalType": "uint256",
          "name": "addedValue",
          "type": "uint256"
        }
      ],
      "name": "increaseAllowance",
      "outputs": [
        {
          "internalType": "bool",
          "name": "",
          "type": "bool"
        }
      ],
      "stateMutability": "nonpayable",
      "type": "function"
    },
    {
      "inputs": [
        {
          "internalType": "address",
          "name": "to",
          "type": "address"
        },
        {
          "internalType": "uint256",
          "name": "value",
          "type": "uint256"
        }
      ],
      "name": "mint",
      "outputs": [],
      "stateMutability": "nonpayable",
      "type": "function"
    },
    {
      "inputs": [],
      "name": "name",
      "outputs": [
        {
          "internalType": "string",
          "name": "",
          "type": "string"
        }
      ],
      "stateMutability": "view",
      "type": "function"
    },
    {
      "inputs": [
        {
          "internalType": "address",
          "name": "",
          "type": "address"
        }
      ],
      "name": "nonces",
      "outputs": [
        {
          "internalType": "uint256",
          "name": "",
          "type": "uint256"
        }
      ],
      "stateMutability": "view",
      "type": "function"
    },
    {
      "inputs": [
        {
          "internalType": "address",
          "name": "owner",
          "type": "address"
        },
        {
          "internalType": "address",
          "name": "spender",
          "type": "address"
        },
        {
          "internalType": "uint256",
          "name": "value",
          "type": "uint256"
        },
        {
          "internalType": "uint256",
          "name": "deadline",
          "type": "uint256"
        },
        {
          "internalType": "uint8",
          "name": "v",
          "type": "uint8"
        },
        {
          "internalType": "bytes32",
          "name": "r",
          "type": "bytes32"
        },
        {
          "internalType": "bytes32",
          "name": "s",
          "type": "bytes32"
        }
      ],
      "name": "permit",
      "outputs": [],
      "stateMutability": "nonpayable",
      "type": "function"
    },
    {
      "inputs": [],
      "name": "symbol",
      "outputs": [
        {
          "internalType": "string",
          "name": "",
          "type": "string"
        }
      ],
      "stateMutability": "view",
      "type": "function"
    },
    {
      "inputs": [],
      "name": "timelock",
      "outputs": [
        {
          "internalType": "address",
          "name": "",
          "type": "address"
        }
      ],
      "stateMutability": "view",
      "type": "function"
    },
    {
      "inputs": [],
      "name": "totalSupply",
      "outputs": [
        {
          "internalType": "uint256",
          "name": "",
          "type": "uint256"
        }
      ],
      "stateMutability": "view",
      "type": "function"
    },
    {
      "inputs": [
        {
          "internalType": "address",
          "name": "recipient",
          "type": "address"
        },
        {
          "internalType": "uint256",
          "name": "amount",
          "type": "uint256"
        }
      ],
      "name": "transfer",
      "outputs": [
        {
          "internalType": "bool",
          "name": "",
          "type": "bool"
        }
      ],
      "stateMutability": "nonpayable",
      "type": "function"
    },
    {
      "inputs": [
        {
          "internalType": "address",
          "name": "sender",
          "type": "address"
        },
        {
          "internalType": "address",
          "name": "recipient",
          "type": "address"
        },
        {
          "internalType": "uint256",
          "name": "amount",
          "type": "uint256"
        }
      ],
      "name": "transferFrom",
      "outputs": [
        {
          "internalType": "bool",
          "name": "",
          "type": "bool"
        }
      ],
      "stateMutability": "nonpayable",
      "type": "function"
    },
    {
      "inputs": [
        {
          "internalType": "address",
          "name": "from",
          "type": "address"
        },
        {
          "internalType": "address",
          "name": "to",
          "type": "address"
        },
        {
          "internalType": "uint256",
          "name": "value",
          "type": "uint256"
        },
        {
          "internalType": "uint256",
          "name": "validAfter",
          "type": "uint256"
        },
        {
          "internalType": "uint256",
          "name": "validBefore",
          "type": "uint256"
        },
        {
          "internalType": "bytes32",
          "name": "nonce",
          "type": "bytes32"
        },
        {
          "internalType": "uint8",
          "name": "v",
          "type": "uint8"
        },
        {
          "internalType": "bytes32",
          "name": "r",
          "type": "bytes32"
        },
        {
          "internalType": "bytes32",
          "name": "s",
          "type": "bytes32"
        }
      ],
      "name": "transferWithAuthorization",
      "outputs": [],
      "stateMutability": "nonpayable",
      "type": "function"
    },
    {
      "inputs": [
        {
          "internalType": "address",
          "name": "newMinter",
          "type": "address"
        }
      ],
      "name": "updateMinter",
      "outputs": [],
      "stateMutability": "nonpayable",
      "type": "function"
    }
  ],
  "bytecode": "0x60806040523480156200001157600080fd5b5060405162001bc038038062001bc0833981016040819052620000349162000395565b6040805180820182526008815267155b9a5c1a5b1bdd60c21b60208083019182528351808501909452600584526414125313d560da1b908401528151919291620000819160039162000258565b5080516200009790600490602084019062000258565b505050620000cb73afa13aa8f1b1d89454369c28b0ce1811961a79076a108b2a2c28029094000000620000ff60201b60201c565b620000d78282620001e7565b5050600580546001600160a01b0319166001600160a01b039290921691909117905562000591565b6001600160a01b0382166200015a5760405162461bcd60e51b815260206004820152601f60248201527f45524332303a206d696e7420746f20746865207a65726f206164647265737300604482015260640160405180910390fd5b80600260008282546200016e9190620004d9565b90915550506001600160a01b038216600090815260208190526040812080548392906200019d908490620004d9565b90915550506040518181526001600160a01b038316906000907fddf252ad1be2c89b69c2b068fc378daa952ba7f163c4a11628f55a4df523b3ef9060200160405180910390a35050565b60005b825181101562000253576200023e8382815181106200020d576200020d62000565565b60200260200101518383815181106200022a576200022a62000565565b6020026020010151620000ff60201b60201c565b806200024a8162000531565b915050620001ea565b505050565b8280546200026690620004f4565b90600052602060002090601f0160209004810192826200028a5760008555620002d5565b82601f10620002a557805160ff1916838001178555620002d5565b82800160010185558215620002d5579182015b82811115620002d5578251825591602001919060010190620002b8565b50620002e3929150620002e7565b5090565b5b80821115620002e35760008155600101620002e8565b80516001600160a01b03811681146200031657600080fd5b919050565b600082601f8301126200032d57600080fd5b81516020620003466200034083620004b3565b62000480565b80838252828201915082860187848660051b89010111156200036757600080fd5b60005b8581101562000388578151845292840192908401906001016200036a565b5090979650505050505050565b600080600060608486031215620003ab57600080fd5b620003b684620002fe565b602085810151919450906001600160401b0380821115620003d657600080fd5b818701915087601f830112620003eb57600080fd5b8151620003fc6200034082620004b3565b8082825285820191508585018b878560051b88010111156200041d57600080fd5b600095505b838610156200044b576200043681620002fe565b83526001959095019491860191860162000422565b5060408a015190975094505050808311156200046657600080fd5b505062000476868287016200031b565b9150509250925092565b604051601f8201601f191681016001600160401b0381118282101715620004ab57620004ab6200057b565b604052919050565b60006001600160401b03821115620004cf57620004cf6200057b565b5060051b60200190565b60008219821115620004ef57620004ef6200054f565b500190565b600181811c908216806200050957607f821691505b602082108114156200052b57634e487b7160e01b600052602260045260246000fd5b50919050565b60006000198214156200054857620005486200054f565b5060010190565b634e487b7160e01b600052601160045260246000fd5b634e487b7160e01b600052603260045260246000fd5b634e487b7160e01b600052604160045260246000fd5b61161f80620005a16000396000f3fe608060405234801561001057600080fd5b50600436106101a35760003560e01c806370a08231116100ee578063a9059cbb11610097578063dd62ed3e11610071578063dd62ed3e146103a2578063e3ee160e146103db578063e94a0102146103ee578063ed24911d1461041c57600080fd5b8063a9059cbb14610369578063d33219b41461037c578063d505accf1461038f57600080fd5b806395d89b41116100c857806395d89b4114610327578063a0cc6a681461032f578063a457c2d71461035657600080fd5b806370a08231146102cb57806379cc6790146102f45780637ecebe001461030757600080fd5b80633408e4701161015057806342966c681161012a57806342966c68146102725780634eb03f6e1461028557806365df2e511461029857600080fd5b80633408e47014610244578063395093511461024a57806340c10f191461025d57600080fd5b806323b872dd1161018157806323b872dd146101fb57806330adf81f1461020e578063313ce5671461023557600080fd5b806306fdde03146101a8578063095ea7b3146101c657806318160ddd146101e9575b600080fd5b6101b06104c5565b6040516101bd919061153d565b60405180910390f35b6101d96101d43660046114fa565b610557565b60405190151581526020016101bd565b6002545b6040519081526020016101bd565b6101d96102093660046113d6565b61056d565b6101ed7f6e71edae12b1b97f4d1f60370fef10105fa2faae0126114a169c64845d6126c981565b604051601281526020016101bd565b466101ed565b6101d96102583660046114fa565b610631565b61027061026b3660046114fa565b61066d565b005b610270610280366004611524565b6106d5565b610270610293366004611381565b6106e2565b6102b373afa13aa8f1b1d89454369c28b0ce1811961a790781565b6040516001600160a01b0390911681526020016101bd565b6101ed6102d9366004611381565b6001600160a01b031660009081526020819052604090205490565b6102706103023660046114fa565b6107cc565b6101ed610315366004611381565b60076020526000908152604090205481565b6101b0610852565b6101ed7f7c7c6cdb67a18743f49ec6fa9b35f50d52ed05cbed4cc592e13b44501c1a226781565b6101d96103643660046114fa565b610861565b6101d96103773660046114fa565b610912565b6005546102b3906001600160a01b031681565b61027061039d366004611490565b61091f565b6101ed6103b03660046113a3565b6001600160a01b03918216600090815260016020908152604080832093909416825291909152205490565b6102706103e9366004611412565b610a3f565b6101d96103fc3660046114fa565b600860209081526000928352604080842090915290825290205460ff1681565b6101ed60007f8b73c3c69bb8fe3d512ecc4cf759cc79239f7b179b0ffacaa9a75d522b39400f7f96f8699b9d60ee03e2ae096e7ed75448335015f6b0f67e4f1540d650607f9ed97fc89efdaa54c0f20c7adf612882df0950f5a951637e0307cdcb4c672f298b8bc646604080516020810195909552840192909252606083015260808201523060a082015260c00160405160208183030381529060405280519060200120905090565b6060600380546104d4906115c1565b80601f0160208091040260200160405190810160405280929190818152602001828054610500906115c1565b801561054d5780601f106105225761010080835404028352916020019161054d565b820191906000526020600020905b81548152906001019060200180831161053057829003601f168201915b5050505050905090565b6000610564338484610c44565b50600192915050565b600061057a848484610d68565b6001600160a01b0384166000908152600160209081526040808320338452909152902054828110156106195760405162461bcd60e51b815260206004820152602860248201527f45524332303a207472616e7366657220616d6f756e742065786365656473206160448201527f6c6c6f77616e636500000000000000000000000000000000000000000000000060648201526084015b60405180910390fd5b6106268533858403610c44565b506001949350505050565b3360008181526001602090815260408083206001600160a01b03871684529091528120549091610564918590610668908690611592565b610c44565b6006546001600160a01b031633146106c75760405162461bcd60e51b815260206004820152601260248201527f50494c4f543a3a204e4f545f4d494e54455200000000000000000000000000006044820152606401610610565b6106d18282610f66565b5050565b6106df3382611045565b50565b6005546001600160a01b0316331461073c5760405162461bcd60e51b815260206004820152601460248201527f50494c4f543a3a204e4f545f54494d454c4f434b0000000000000000000000006044820152606401610610565b6001600160a01b0381166107925760405162461bcd60e51b815260206004820152601e60248201527f50494c4f543a3a20494e56414c49445f4d494e5445525f4144445245535300006044820152606401610610565b600680547fffffffffffffffffffffffff0000000000000000000000000000000000000000166001600160a01b0392909216919091179055565b60006107d883336103b0565b9050818110156108365760405162461bcd60e51b8152602060048201526024808201527f45524332303a206275726e20616d6f756e74206578636565647320616c6c6f77604482015263616e636560e01b6064820152608401610610565b6108438333848403610c44565b61084d8383611045565b505050565b6060600480546104d4906115c1565b3360009081526001602090815260408083206001600160a01b0386168452909152812054828110156108fb5760405162461bcd60e51b815260206004820152602560248201527f45524332303a2064656372656173656420616c6c6f77616e63652062656c6f7760448201527f207a65726f0000000000000000000000000000000000000000000000000000006064820152608401610610565b6109083385858403610c44565b5060019392505050565b6000610564338484610d68565b4284101561096f5760405162461bcd60e51b815260206004820152601460248201527f50494c4f543a3a20415554485f455850495245440000000000000000000000006044820152606401610610565b6001600160a01b0387811660008181526007602081815260408084205481517f6e71edae12b1b97f4d1f60370fef10105fa2faae0126114a169c64845d6126c981850152808301879052968d166060880152608087018c905260a0870181905260c08088018c90528251808903909101815260e090970190915285519582019590952093909252905290610a04906001611592565b6001600160a01b038916600090815260076020526040902055610a2a8882868686611193565b610a35888888610c44565b5050505050505050565b854211610a8e5760405162461bcd60e51b815260206004820152601a60248201527f50494c4f543a3a20415554485f4e4f545f5945545f56414c49440000000000006044820152606401610610565b844210610add5760405162461bcd60e51b815260206004820152601460248201527f50494c4f543a3a20415554485f455850495245440000000000000000000000006044820152606401610610565b6001600160a01b038916600090815260086020908152604080832087845290915290205460ff1615610b515760405162461bcd60e51b815260206004820152601960248201527f50494c4f543a3a20415554485f414c52454144595f55534544000000000000006044820152606401610610565b604080517f7c7c6cdb67a18743f49ec6fa9b35f50d52ed05cbed4cc592e13b44501c1a22676020808301919091526001600160a01b038c8116838501528b166060830152608082018a905260a0820189905260c0820188905260e0808301889052835180840390910181526101009092019092528051910120610bd78a82868686611193565b6001600160a01b038a166000818152600860209081526040808320898452909152808220805460ff19166001179055518792917f98de503528ee59b575ef0c0a2576a82497bfc029a5685b209e9ec333479b10a591a3610c388a8a8a610d68565b50505050505050505050565b6001600160a01b038316610ca65760405162461bcd60e51b8152602060048201526024808201527f45524332303a20617070726f76652066726f6d20746865207a65726f206164646044820152637265737360e01b6064820152608401610610565b6001600160a01b038216610d075760405162461bcd60e51b815260206004820152602260248201527f45524332303a20617070726f766520746f20746865207a65726f206164647265604482015261737360f01b6064820152608401610610565b6001600160a01b0383811660008181526001602090815260408083209487168084529482529182902085905590518481527f8c5be1e5ebec7d5bd14f71427d1e84f3dd0314c0f7b2291e5b200ac8c7c3b925910160405180910390a3505050565b6001600160a01b038316610de45760405162461bcd60e51b815260206004820152602560248201527f45524332303a207472616e736665722066726f6d20746865207a65726f20616460448201527f64726573730000000000000000000000000000000000000000000000000000006064820152608401610610565b6001600160a01b038216610e465760405162461bcd60e51b815260206004820152602360248201527f45524332303a207472616e7366657220746f20746865207a65726f206164647260448201526265737360e81b6064820152608401610610565b6001600160a01b03831660009081526020819052604090205481811015610ed55760405162461bcd60e51b815260206004820152602660248201527f45524332303a207472616e7366657220616d6f756e742065786365656473206260448201527f616c616e636500000000000000000000000000000000000000000000000000006064820152608401610610565b6001600160a01b03808516600090815260208190526040808220858503905591851681529081208054849290610f0c908490611592565b92505081905550826001600160a01b0316846001600160a01b03167fddf252ad1be2c89b69c2b068fc378daa952ba7f163c4a11628f55a4df523b3ef84604051610f5891815260200190565b60405180910390a350505050565b6001600160a01b038216610fbc5760405162461bcd60e51b815260206004820152601f60248201527f45524332303a206d696e7420746f20746865207a65726f2061646472657373006044820152606401610610565b8060026000828254610fce9190611592565b90915550506001600160a01b03821660009081526020819052604081208054839290610ffb908490611592565b90915550506040518181526001600160a01b038316906000907fddf252ad1be2c89b69c2b068fc378daa952ba7f163c4a11628f55a4df523b3ef9060200160405180910390a35050565b6001600160a01b0382166110a55760405162461bcd60e51b815260206004820152602160248201527f45524332303a206275726e2066726f6d20746865207a65726f206164647265736044820152607360f81b6064820152608401610610565b6001600160a01b038216600090815260208190526040902054818110156111195760405162461bcd60e51b815260206004820152602260248201527f45524332303a206275726e20616d6f756e7420657863656564732062616c616e604482015261636560f01b6064820152608401610610565b6001600160a01b03831660009081526020819052604081208383039055600280548492906111489084906115aa565b90915550506040518281526000906001600160a01b038516907fddf252ad1be2c89b69c2b068fc378daa952ba7f163c4a11628f55a4df523b3ef9060200160405180910390a3505050565b600061123e60007f8b73c3c69bb8fe3d512ecc4cf759cc79239f7b179b0ffacaa9a75d522b39400f7f96f8699b9d60ee03e2ae096e7ed75448335015f6b0f67e4f1540d650607f9ed97fc89efdaa54c0f20c7adf612882df0950f5a951637e0307cdcb4c672f298b8bc646604080516020810195909552840192909252606083015260808201523060a082015260c00160405160208183030381529060405280519060200120905090565b60405161190160f01b602082015260228101919091526042810186905260620160408051601f198184030181528282528051602091820120600080855291840180845281905260ff88169284019290925260608301869052608083018590529092509060019060a0016020604051602081039080840390855afa1580156112c9573d6000803e3d6000fd5b5050604051601f1901519150506001600160a01b038116158015906112ff5750866001600160a01b0316816001600160a01b0316145b61134b5760405162461bcd60e51b815260206004820152601960248201527f50494c4f543a3a20494e56414c49445f5349474e4154555245000000000000006044820152606401610610565b50505050505050565b80356001600160a01b038116811461136b57600080fd5b919050565b803560ff8116811461136b57600080fd5b60006020828403121561139357600080fd5b61139c82611354565b9392505050565b600080604083850312156113b657600080fd5b6113bf83611354565b91506113cd60208401611354565b90509250929050565b6000806000606084860312156113eb57600080fd5b6113f484611354565b925061140260208501611354565b9150604084013590509250925092565b60008060008060008060008060006101208a8c03121561143157600080fd5b61143a8a611354565b985061144860208b01611354565b975060408a0135965060608a0135955060808a0135945060a08a0135935061147260c08b01611370565b925060e08a013591506101008a013590509295985092959850929598565b600080600080600080600060e0888a0312156114ab57600080fd5b6114b488611354565b96506114c260208901611354565b955060408801359450606088013593506114de60808901611370565b925060a0880135915060c0880135905092959891949750929550565b6000806040838503121561150d57600080fd5b61151683611354565b946020939093013593505050565b60006020828403121561153657600080fd5b5035919050565b600060208083528351808285015260005b8181101561156a5785810183015185820160400152820161154e565b8181111561157c576000604083870101525b50601f01601f1916929092016040019392505050565b600082198211156115a5576115a56115fc565b500190565b6000828210156115bc576115bc6115fc565b500390565b600181811c908216806115d557607f821691505b602082108114156115f657634e487b7160e01b600052602260045260246000fd5b50919050565b634e487b7160e01b600052601160045260246000fdfea164736f6c6343000806000a",
  "linkReferences": {},
  "deployedLinkReferences": {}
}